:020000040800F2
:1000000090570020E9020008791F0008971A00089D
:10001000C51C00083F060008272400080000000057
:10002000000000000000000000000000290200089D
:10003000D706000800000000850200082122000801
:100040000303000803030008030300080303000878
:100050000303000803030008030300080303000868
:100060000303000803030008030300080303000858
:100070000303000803030008030300080303000848
:100080000303000803030008030300080303000838
:1000900041060008030300080303000803030008E7
:1000A0000303000803030008030300080303000818
:1000B000DD2200080303000803030008030300080F
:1000C00003030008030300080303000803030008F8
:1000D00003030008030300080303000803030008E8
:1000E00003030008030300080303000803030008D8
:1000F00003030008030300080303000803030008C8
:1001000003030008030300080303000803030008B7
:1001100003030008030300080303000803030008A7
:100120000303000803030008030300080303000897
:100130000303000803030008030300080303000887
:100140000303000803030008030300080303000877
:100150000303000803030008030300080303000867
:100160000303000803030008030300080303000857
:100170000303000803030008030300080000000055
:10018000030300080303000800F002F800F03CF845
:100190000AA090E8000C82448344AAF10107DA45E2
:1001A00001D100F031F8AFF2090EBAE80F0013F0F8
:1001B000010F18BFFB1A43F001031847D04A000093
:1001C000F04A0000103A24BF78C878C1FAD8520724
:1001D00024BF30C830C144BF04680C6070470000C1
:1001E0000023002400250026103A28BF78C1FBD840
:1001F000520728BF30C148BF0B6070471FB504F0DD
:1002000058FC1FBD10B510BD00F0E4F91146FFF712
:10021000F5FF02F00DFA00F002FA03B4FFF7F2FF67
:1002200003BC00F005FA00002C4B19680868B0E820
:10023000F04F80F30988BFF36F8F4FF0000080F319
:10024000118870470000000008480068006880F3CB
:1002500008884FF0000080F3148862B661B6BFF3DF
:100260004F8FBFF36F8F00DF00BF00BF08ED00E0CE
:10027000DFF80C00016841F470010160704700BFB5
:1002800088ED00E0EFF30980BFF36F8F134B1A681E
:100290001EF0100F08BF20ED108A20E9F04F10600B
:1002A00009B44FF0500080F31188BFF34F8FBFF3B4
:1002B0006F8F03F025F94FF0000080F3118809BC1F
:1002C00019680868B0E8F04F1EF0100F08BFB0ECD6
:1002D000108A80F30988BFF36F8F704758000020A1
:1002E000EFF3058070470000094880470948004740
:1002F000FEE7FEE7FEE7FEE7FEE7FEE7FEE7FEE7D6
:10030000FEE7FEE704480549054A064B7047000032
:10031000CD2200088901000890510020905700204C
:10032000905300209053002053EA020C00F06980A3
:100330002DE9F04B4FF00006002B1FBFB3FA83F5F9
:1003400003FA05F424FA05F65E4012BF1643B2FA2A
:1003500082F502FA05F4C5F120051EBF22FA05FC5C
:1003600044EA0C04203556EA044C4FEA144418BF02
:10037000641C4FF000084FF00009904271EB030C31
:1003800039D3002919BFB1FA81F701FA07F6B0FA9B
:1003900080F700FA07F6C7F120071EBF20FA07FC16
:1003A00046EA0C062037B6FBF4FCA7EB0507103F26
:1003B00007F01F0BCBF120060CFA0BFB2CFA06F60C
:1003C00044BFB3460026202FA4BF5E464FF0000B6B
:1003D0005BEA060C08BF4FF0010B19EB0B09ABFBF6
:1003E000027C48EB0608C01B06FB02CC0BFB03CCCF
:1003F00071EB0C01C1E70B46024641464846BDE899
:10040000F08B13B54FF000004FF00001AFF3008008
:10041000BDE81C407047032A40F2308010F0030C06
:1004200000F0158011F8013BBCF1020F624498BF47
:1004300011F801CB00F8013B38BF11F8013BA2F1E4
:10044000040298BF00F801CB38BF00F8013B11F05F
:10045000030300F06280083AC0F0088051F8043BC2
:10046000083A51F804CBA0E80810F5E7121D5CBF6C
:1004700051F8043B40F8043BAFF30080D20724BF9F
:1004800011F8013B11F801CB48BF11F8012B24BF33
:1004900000F8013B00F801CB48BF00F8012B704782
:1004A00002F0FF0343EA032242EA024200F069B885
:1004B0004FF0000200B5134694469646203922BFFD
:1004C000A0E80C50A0E80C50B1F12001BFF4F7AF48
:1004D000090728BFA0E80C5048BF0CC05DF804EB2A
:1004E000890028BF40F8042B08BF704748BF20F898
:1004F000022B11F0804F18BF00F8012B7047704796
:100500007047704710B500F05DF8006810BD10B579
:10051000044600F057F8046010BD10B5203AC0F052
:100520000B80B1E81850203AA0E81850B1E81850F4
:10053000A0E81850BFF4F5AF5FEA027C24BFB1E831
:100540001850A0E8185044BF18C918C0BDE81040A2
:100550005FEA827C24BF51F8043B40F8043B08BFAB
:100560007047D20728BF31F8023B48BF11F8012B72
:1005700028BF20F8023B48BF00F8012B70474FF01E
:1005800000020429C0F0128010F0030C3FF492AF77
:10059000CCF1040CBCF1020F18BF00F8012BA8BF6E
:1005A00020F8022BA1EB0C01FFF784BF5FEAC17CAE
:1005B00024BF00F8012B00F8012B48BF00F8012BE5
:1005C00070470000004870472C51002000487047D9
:1005D0002C5100207546FFF7F9FFAE46050069462D
:1005E000534620F00700854618B020B5FFF78AFE75
:1005F000BDE820404FF000064FF000074FF0000824
:100600004FF0000B21F00701AC46ACE8C009ACE8A4
:10061000C009ACE8C009ACE8C0098D46704710B508
:100620000446AFF300802046BDE81040FFF7F5BD5B
:1006300001491820ABBEFEE7260002007047FEE726
:10064000014800F0F2B9000030060020A0F20120BD
:10065000072820D8C0B2104B421C03EB0010DFED7E
:100660000F0A0280012242730A8852BA00EE102A51
:100670004280B8EE400A20EE200ADFED090A20EEA3
:10068000200A80ED010A4A8852BA02818A8852BA49
:100690004281C97901737047A00600200000B4436D
:1006A0000000003930B587B00546009100210820D0
:1006B0000291CDE9031014468DF81410284600F07D
:1006C0009EF90028FAD006AB22466946284600F07B
:1006D00037F807B030BD70477CB50446002013469C
:1006E000009001904A1E4800032A03D84FF4007579
:1006F000801E05E0491F03290DD840F2FF150A3876
:100700000DEB00014A1C184601F0C6F96A4629465D
:100710002046FFF7C7FF7CBD72B6FEE790F82020A9
:10072000012A07D0022A05D0416A41F480214162A2
:1007300001207047006842690A4342610020704707
:10074000F0B590F820500468A468012D05D0022D62
:1007500003D0416A41F480214DE014F0406F01D193
:10076000E50045D5C4F301640125A5401D608D68F1
:100770004FF4C0739DB1CE6835434E6845EAC60557
:10078000066803EB0417F5514FF4C275076805EBD3
:1007900004150E697E51097D012905D009E00E88F6
:1007A000CD6845EA4655EBE701684E5946F4807638
:1007B0004E511179D2F805504FF4C67641EA052121
:1007C000056806EB0416A9511178D2F801204FF400
:1007D000C47541EA0221026805EB04155151006815
:1007E00003EB0411425842F0010242500020F0BDD8
:1007F000416A41F4001141620120F0BD10B590F84A
:100800002020012A07D0022A05D0416A41F4802124
:100810004162012010BD3B48D0F8002242F00102A5
:10082000C0F80022D0F8002222F47C52C0F8002246
:10083000D0F800224B6A42EA0322C0F800220A7D67
:1008400002F01F0301229A40D0F81C329343C0F8F3
:100850001C32CB69B3B9D0F80C329343C0F80C32D8
:100860008C894B6864F31F434C6900EBC404C4F8E3
:1008700040320C890B6864F31F434C6900EBC404DD
:10088000C4F84432CB69012B16D1D0F80C32134393
:10089000C0F80C320C884B6864F31F434C6900EBC2
:1008A000C404C4F840320C89CB6864F31F434C691C
:1008B00000EBC404C4F844328B69002BD0F8043236
:1008C0000ED01343C0F804320B69002BD0F8143259
:1008D00008D01343C0F81432096A012904D008E093
:1008E0009343EFE79343F5E7D0F81C121143C0F8A8
:1008F0001C12D0F8001221F00101C0F800120020F3
:1009000010BD000000640040704770B590F82040B2
:10091000012C05D0022C03D0416A41F4802128E04B
:10092000046809B32469A40720D04FF4D87405687B
:1009300004EB01142D5915F00405956005682D5937
:100940001AD0ED08556005682C5904F00204D460F3
:100950004FF4DA74056804EB01142E5906F00F0603
:10096000082E0CD308250DE0E468DCE7416A41F469
:1009700000114162012070BD6D0D1560E3E72D5936
:1009800005F00F05156105682D59C5F3072595611B
:1009900005682C59240C54614FF4DC72046802EB96
:1009A0000112A4581C700468A458240A5C700468DE
:1009B000A458240C9C700468A258120EDA704FF4EC
:1009C000DE72046802EB0112A4581C710468A4587A
:1009D000240A5C710468A458240C9C710468A25811
:1009E000120EDA71006829B1016941F0200101613C
:1009F000002070BDC16841F02001C160F8E70246E7
:100A0000002092F82010012901D002290CD1116890
:100A10008A68520100D501208A68120100D5401C65
:100A20008968C90000D5401C70472DE9F05F054674
:100A3000006800244669D0F804908768D0F80CB0AC
:100A4000D0F810A0D0F81880F10748D0F90714D0DA
:100A500001218160B80703D5284600F0F8F90CE0C1
:100A6000780702D54FF4006407E0380702D54FF449
:100A7000805402E0284600F0E9F9F80516D5296807
:100A80004FF480708860B80503D5284600F0E1F97E
:100A90000CE0780502D544F4005407E0380502D58F
:100AA00044F4804402E0284600F0D2F9F80316D559
:100AB00029684FF480308860B80303D5284600F0D9
:100AC000CAF90CE0780302D544F4004407E0380387
:100AD00002D544F4803402E0284600F0BBF9300728
:100AE00007D55FEACB6004D52968102044F4007470
:100AF000C86070074FF0080707D55FEA0B7004D590
:100B00002868C760284600F057F9B00706D528685E
:100B1000C068800702D0284600F050F9700607D55B
:100B20005FEACA6004D52968102044F48064086133
:100B3000B00607D55FEA0A7004D528680761284621
:100B400000F054F9F00606D528680069800702D045
:100B5000284600F04CF9B00308D55FEAC96005D516
:100B6000296810204860284600F042F9F00307D5B4
:100B70005FEA097004D528684760284600F06CF9E0
:100B8000300446D55FEA497040D5F00504D55FEAE8
:100B9000C87001D044F00104B00504D55FEA887044
:100BA00001D544F00204700504D55FEA487001D510
:100BB00044F00404300529D518F0700F26D008F051
:100BC0007000402815D006DC102809D020280AD053
:100BD000302816D10AE050280ED0602811D10EE03E
:100BE00044F008040DE044F010040AE044F020044E
:100BF00007E044F0400404E044F0800401E044F4E1
:100C000080742868816921F070018161296804205D
:100C10004860002C05D0686A204368622846FFF7C8
:100C200073FEBDE8F09F70B5040003D094F8200077
:100C300010B104E0012070BD204600F081F820686A
:100C4000016841F00101016000F006FA0546052641
:100C500004E000F001FA401B0A2811D8206840681F
:100C6000C007F6D02068016821F00201016000F0A1
:100C7000F3F905460BE000F0EFF9401B0A2806D90E
:100C8000606A40F40030606284F82060D2E7206837
:100C900040688007EFD4207E0128206801683DD09D
:100CA00021F080010160607E01282068016838D051
:100CB00021F040010160A07E01282068016833D046
:100CC00021F020010160E07E0128206801682ED01B
:100CD00041F010010160207F01282068016829D0BF
:100CE00021F008010160607F01282068016824D09C
:100CF00021F004010160D4E902010843D4E904129F
:100D0000114308436168491E08432168C8610020F7
:100D10006062012084F82000002070BD41F0800155
:100D2000C0E741F04001C5E741F02001CAE721F0EA
:100D30001001CFE741F00801D4E741F00401D9E701
:100D400010B586B0044614216846FFF7B1FB174979
:100D50002068884227D116480021026842F00072BC
:100D60000260006800F000700590114810380268B9
:100D700042F0080202600068022200F008000590BC
:100D80000320CDE90210CDE9000209200490694654
:100D9000084800F063F800220521142000F0CEF985
:100DA000142000F0BDF906B010BD00000064004042
:100DB00040380240000C02407047000010B588B077
:100DC0000446084B6A460021FFF79FFD06498C4206
:100DD00005D1002803D103490098FFF737FC08B07C
:100DE00010BD000020000020300600207047704732
:100DF0007047000070B5044690F82000012804D028
:100E0000606A40F40020606218E0022084F820004C
:100E10002068016821F00101016000F01DF905461C
:100E20000EE000BF00F018F9401B0A2808D9606ADC
:100E300040F400306062052084F82000012070BD7D
:100E400020684068C007EDD1606270BD7047704790
:100E50007047704770477047704700002DE9F84FA2
:100E6000DFF8BCA10022012503264FF00F090AF18B
:100E7000040BAAF1040E00BF0B6805FA02F423402C
:100E8000A34270D10F7907F00307012F01D0022F81
:100E900016D187684FEA420806FA08FC27EA0C07D1
:100EA000D1F80CC00CFA08FC4CEA070CC0F808C0DA
:100EB0004768A7430C79C4F3001494403C43446052
:100EC0000C79E443A4070AD0C4684FEA420C06FA3E
:100ED0000CF7BC438F6807FA0CF72743C7600C79FF
:100EE00004F00304022C12D1D40800EB840CDCF8CB
:100EF00020405707FF0E09FA07F824EA0804D1F842
:100F0000108008FA07F848EA0408CCF82080046842
:100F10004FEA420C06FA0CF7BC430F7907F00307BF
:100F200007FA0CF7274307604C6814F4403F70D071
:100F30003C4C276847F480472760246822F0030769
:100F400004F480440094384C07EB040CDCF80848A7
:100F500097074FEA177809FA08F7BC43334FB842AE
:100F600002D1002724E054E0314FB84201D10127DB
:100F70001EE0304FB84201D1022719E02E4FB8428F
:100F800001D1032714E02D4FB84201D104270FE00F
:100F90002B4FB84201D105270AE02A4FB84201D1B0
:100FA000062705E0284FB84201D1072700E00827AF
:100FB00007FA08F72743CCF80878DAF800405746D4
:100FC000D1F804C09C435FEACC2C00D51C433C60A4
:100FD000DBF800405F46D1F804C09C435FEA8C2CEC
:100FE00000D51C433C60DEF800407746D1F804C0D1
:100FF0009C435FEA8C3C00D51C433C60084F083F93
:101000003C68D1F804C09C435FEACC3C00D51C434B
:101010003C60521C102AFFF42FAFBDE8F88F00008F
:10102000083C0140443802400030014000000240CA
:101030000004024000080240000C02400010024080
:101040000014024000180240001C02400AB18161F5
:1010500070470904FBE70000014880687047000002
:1010600010000020024881680278114481607047B6
:10107000100000200B4810B5016841F400710160B8
:10108000016841F480610160016841F48071016090
:10109000032000F073F80F2000F006F800F024F8A9
:1010A000002010BD003C024070B50D4D04464FF4C9
:1010B0007A712878B1FBF0F00A490968B1FBF0F0C9
:1010C00000F0F0FA48B9102C07D200222146501E39
:1010D00000F034F800206C6070BD012070BD00008D
:1010E000100000201C0000200C4882B0016841F470
:1010F00080410160006800F4804000900748001FB4
:10110000016841F0805101600068002200F08050C9
:1011100000900F21901E02B000F010B84438024039
:10112000002809DB00F01F020121914040098000E6
:1011300000F1E020C0F8001170470000F0B40E4B41
:101140001B680C46C3F30223C3F10705042D00D925
:101150000425191D072901D2002300E0DB1E01260A
:1011600006FA05F1491E214099409E40761E164020
:101170003143F0BC01F058B90CED00E0064900F035
:10118000070208684FF6FF03184040EA0220034AAE
:1011900010430860704700000CED00E00000FA0505
:1011A0002DE9F0470E46050065D0DFF81481D8F828
:1011B0000000F7B200F00700B04207D288F80070D4
:1011C000D8F8000000F00700B04254D128683D4C28
:1011D000810712D5400703D5206840F4E050206015
:1011E0002878000703D5206840F46040206020681C
:1011F000A96820F0F000084320602878C0072DD0AF
:10120000304968680839012812D0022813D0032811
:1012100011D00968890700292DDA216821F003011E
:1012200001432160FFF718FF814641F2883A0EE042
:1012300009688903EFE709688901ECE7FFF70CFF0C
:10124000A0EB0901514502D90320BDE8F0872068D1
:10125000696800F00C00B0EB810FEFD1D8F80010F6
:10126000404601F00701B14207D90770006800F05D
:101270000700B04201D00120E7E72878400705D5F4
:101280002068E96820F4E0500843206028780007CF
:1012900006D52068296920F4604040EAC10020603A
:1012A00000F018F82168084AC1F30311515CC840E6
:1012B0000649086006480068FFF7F6FE0020C4E70C
:1012C000003C024008380240404C00081C0000204E
:1012D00014000020154810B5006810F00C021448E6
:1012E00013D01449042A0FD0082A0ED10F4C241F02
:1012F0002268236802F03F025B0207D52068C0F332
:101300008810A0FB010106E0084610BD2168C1F36A
:101310008811A1FB00010023FFF706F82168C1F343
:101320000141491C4900B0FBF1F010BD08380240F2
:101330000024F40040787D012DE9F84F04006ED0C0
:101340002078DFF84C93C007A9F104054AD009F1D1
:1013500004000168C1F38101012908D00068C0F3CD
:10136000810002280AD1D9F80000400206D5286879
:10137000800337D560680028E1D033E06068B0F5BD
:10138000803F10D0B0F5A02F286810D020F4803016
:101390002860286820F4802028606068A8B1FFF7E2
:1013A0005BFE06460DE0286840F48030F4E740F428
:1013B00080202860F7E700BFFFF74EFE801B6428FF
:1013C00073D828688003F7D50CE0FFF745FE064682
:1013D00005E000BFFFF740FE801B6428F0D82868B6
:1013E0008003F7D42078DFF8AC8280074FF0000A42
:1013F0003ED5A748001D016811F00C0F08D0006809
:10140000C0F3810002280BD1D9F80000400207D4B4
:101410002868800716D5E068012800D112E033E182
:10142000E068B8B10120C8F80000FFF715FE0646D5
:1014300005E000BFFFF710FE801B0228C0D8286817
:101440008007F7D52868216920F0F80040EAC1003C
:1014500028600DE0C8F800A0FFF7FEFD064604E096
:10146000FFF7FAFD801B02281FD828688007F7D4F1
:101470002078000722D5864F87486169703771B19F
:1014800001210160FFF7E8FD064604E0FFF7E4FDF7
:10149000801B022809D838688007F7D50EE0C0F80D
:1014A00000A0FFF7D9FD064605E082E0FFF7D4FD76
:1014B000801B02287DD838688007F7D42078400741
:1014C00068D5DFF8CCB100270BF13C0BDBF800004E
:1014D000C0000BD4DBF8001041F08051CBF80010B5
:1014E000DBF80000012700F0805000906B4E306860
:1014F000C00510D4306840F480703060FFF7ACFD58
:10150000009005E0FFF7A8FD0099401A022850D886
:101510003068C005F6D55E4EA0686C3601280FD045
:101520000528306810D020F001003060306820F0CD
:1015300004003060A068B8B1FFF78EFD00900FE0A6
:10154000306840F00100F4E740F004003060F7E755
:10155000FFF782FD0099411A41F28830814266D836
:1015600030688007F4D50EE0FFF776FD009007E0C5
:10157000FFF772FD0099411A41F28830814256D836
:1015800030688007F4D42FB1DBF8001021F08051CF
:10159000CBF80010A069C8B33D49091D0968C1F323
:1015A000810102294AD00228504607D0C8F86000BD
:1015B00000E03CE0FFF750FD04463BE04746C8F83A
:1015C0006000FFF749FD064605E000BFFFF744FD58
:1015D000801B02282BD828688001F7D4D4E90701A2
:1015E0000843A16A2E4A490802EB0141626A41EAB6
:1015F0008211084394F82C1040EA0161C9F80010E8
:1016000001203866FFF728FD044606E03EE000BFF3
:10161000FFF722FD001B022809D828688001F7D5B2
:1016200034E000BFFFF718FD001B022802D9032099
:10163000BDE8F88F28688001F4D427E00128F7D0AE
:10164000D9F80000E26900F4800191421CD1226ABD
:1016500000F03F01914217D147F6C071626A014024
:10166000B1EB821F10D1A26A4FF0FF3300F440317A
:1016700003EB5202B1EB024F06D194F82C1000F0AC
:101680007060B0EB016F01D00120D1E70020CFE7FF
:101690000438024000004742800E4742007000407C
:1016A0000000FFFF10B5401EB0F1807F01D3012084
:1016B00010BD4FF0E02460610F21601700F0B4FE10
:1016C0000020A06107202061002010BD70477047F6
:1016D00070B590F83C20012A32D0012480F83C40BB
:1016E000022280F83D2003685A689D6822F0700647
:1016F0000A6832435A60134B02689A4214D0B2F11E
:10170000804F11D0104B9A420ED0104B9A420BD002
:101710000F4B9A4208D00F4B9A4205D00E4B9A427B
:1017200002D00E4B9A4204D1496825F08003194338
:10173000916080F83D40002180F83C10084670BD63
:10174000022070BD0000014000040040000800407D
:10175000000C00400004014000400140001800401F
:1017600010B5040003D094F83D0010B107E001204B
:1017700010BD002084F83C00204600F01FF8022035
:1017800084F83D00211D206800F0AEFD012084F8A2
:10179000460084F83E0084F83F0084F8400084F856
:1017A000410084F8420084F8430084F8440084F83F
:1017B000450084F83D00002010BD000008B5006819
:1017C000B0F1804F12D10A48016841F00101016077
:1017D0000068002200F00100009005211C20FFF7A6
:1017E000ADFCBDE808401C20FFF79ABC08BD000016
:1017F0004038024090F83D10012901D00120704787
:10180000022180F83D100168CA6842F00102CA60F6
:1018100000681149884214D0B0F1804F11D00F49AF
:1018200088420ED00E4988420BD00E49884208D01B
:101830000D49884205D00D49884202D00C498842A2
:1018400004D1816801F00701062903D0016841F045
:1018500001010160002070470000014000040040C9
:1018600000080040000C004000040140004001401E
:101870000018004070B5044690F83C00002501288F
:1018800017D0012684F83C60022084F83D002068CF
:10189000826822F0770222F47F4282600868502832
:1018A00038D00DDC20284FD005DC90B3102811D1A2
:1018B0004AE0022070BD302846D040280AD13BE0E3
:1018C00060282FD070280DD0B0F5805F03D0B0F520
:1018D000005F12D0012584F83D60002084F83C00B0
:1018E000284670BDCB68D1E90121206800F064FD75
:1018F0002068816841F0770109E0CB68D1E90121D6
:10190000206800F059FD2068816841F480418160C1
:10191000E1E719E0CA684968206800F05FFD5021DE
:10192000206806E0CA684968206800F068FD602108
:10193000206800F04BFDCEE7CA684968206800F0D7
:101940004DFD40212068F4E7226801461046F0E78B
:1019500070472DE9F04104460068C66805694FF0FC
:101960000007A90713D5B10711D5F91E01610120A0
:101970002077206880698007204602D0FFF7E8FFC3
:1019800004E000F07EF8204600F07CF82777680736
:1019900016D5700714D521686FF004000861022085
:1019A00020772068806910F4407F204602D0FFF73E
:1019B000CFFF04E000F065F8204600F063F82777D9
:1019C000280715D5300713D521686FF00800086186
:1019D000042020772068C0698007204602D0FFF7E6
:1019E000B7FF04E000F04DF8204600F04BF82777F1
:1019F000E80616D5F00614D521686FF010000861CE
:101A0000082020772068C06910F4407F204602D06B
:101A1000FFF79EFF04E000F034F8204600F032F8B3
:101A20002777E80708D0F00706D021686FF001009B
:101A30000861204600F027F8280608D5300606D5AC
:101A400021686FF0800008612046FFF73FFE6806BE
:101A500008D5700606D521686FF040000861204661
:101A600000F018F8A8060AD5B00608D521686FF06E
:101A7000200008612046BDE8F041FFF728BEBDE820
:101A8000F081704770470068B0F1804F01D100F0DD
:101A9000E5B870477047FEE7030A0B701070704797
:101AA0000F4810B50D4901600321416000214FF43A
:101AB00020228160C0E903124FF480124261017656
:101AC00041768176C17601774177FFF7ACF800283F
:101AD00003D0BDE81040FEF71FBE10BD00640040FB
:101AE0003006002010B50E4A1021052000F02CFE13
:101AF0000C4C0B4A0021E0606C3A0B4800F084FE6D
:101B0000074A2060483A0021084800F07DFE044A58
:101B10006060243A0021064800F076FEA06010BD07
:101B2000284C000800000020A5210008AD21000875
:101B3000E921000870B586B014216846FEF7B8FCAC
:101B400016480024016841F001010160016801F0BC
:101B500001010591016841F008010160016801F08F
:101B600008010591016841F08001016000680C4E98
:101B700000F080004FF4E0550590002229463046E1
:101B8000FFF764FA01200095CDE90104694630466B
:101B90000394FFF763F906B070BD000030380240CF
:101BA000001C024010B586B0002417480094019430
:101BB0000294039404944FF080410594016042F232
:101BC000CF01C0E901140921C0E90314802181611A
:101BD000FFF7C6FD08B1FEF79FFD4FF4805000905F
:101BE00069460948FFF746FE08B1FEF795FD0494E3
:101BF00004A905480594FFF76BFD002801D0FEF706
:101C00008BFD06B010BD00005806002010B58AB04C
:101C1000044600200121CDE90601059000900190C5
:101C20000290039004900E20CDE9081069462046EA
:101C3000FEF7E4FD08B1FEF76FFD2046FFF7DAF886
:101C400008B1FEF769FD02212046FEF767FD002876
:101C500001D0FEF761FD0AB010BD000010B5134CB5
:101C600094ED010A00F086F8208832281AD994ED04
:101C7000010ADFED0F0A0F4930EE200A10EE100ABC
:101C800084ED010A884202DD9FED0B0A06E010EEAA
:101C9000100A0A49884203D99FED090A84ED010A16
:101CA0000020208080B2401C208010BD4800002011
:101CB0000000844200003443000034C3000034C3F9
:101CC00000003443FEE7000010B5DFED271A284876
:101CD0002DED068B9FED258ADFED1F8A9FED1F9A64
:101CE000DFED1F9A9FED1FAAF0EE683AB0EE493A79
:101CF000F0EE692AB0EE4A2AB0EE481AF0EE480A31
:101D0000B0EE480A00F00EFA1948B0EE683AF0EE6C
:101D1000492AB0EE692AF0EE4A1AB0EE481AF0EEFF
:101D2000480AB2EE0E0A403000F026FAB0EE683AE9
:101D3000F0EE492AB0EE692AF0EE4A1AB0EE481ADF
:101D4000F0EE480ABDEC068BB3EE040A0848BDE885
:101D50001040743000F010BA0000FA430000FAC3DB
:101D600000401C4600401CC60000C84200000000A5
:101D70002007002010B510EE100A2DED028B02F0A6
:101D800027FE41EC100B00F0B3F851EC100B02F001
:101D900053F908EE100A1248406802F019FE41ECAF
:101DA000100B242000F024F851EC100B02F044F941
:101DB00000EE100A0B48F0EE480A80ED000A0A48CF
:101DC00000F03CF9BDEEC00ABDEC028B012110EE23
:101DD000100ABDE8104002B20448FEF77DBC0000C6
:101DE000A006002050000020200700203006002020
:101DF00070B53B4C05462DED048BB0EE408AF0EEFD
:101E0000608A94ED029A51EC180B02F015F9B5EEC8
:101E1000C09A0646F1EE10FA07D2B0EE480AF0EE8C
:101E2000680AA660BDEC048B70BD19EE100A02F0C2
:101E3000CFFD53EC182B02F0D5FC02F0FDF8294938
:101E4000884202DDE068401E04E02749884202D94A
:101E5000E068401CE060A66094ED030ADFED230A11
:101E6000B8EEC00A20EE200A10EE100A02F0B0FD13
:101E700053EC182B02F012F941EC180B4FF4B4712B
:101E800084ED048B05FB01F002F02BFB53EC182BC7
:101E900002F03AFB0DD9A5EB051000EB4000C000A5
:101EA00002F008FB94ED041B53EC112B02F064FCD0
:101EB00001D80020E060284602F013FB41EC100B33
:101EC00053EC102B94ED040B51EC100B02F09AF92B
:101ED00041EC100B00F00CF884ED040BA2E70000BD
:101EE0003000002000003443000034C30000B4433D
:101EF00010B52DED048B9FED1A9BB0EE491AF0EE54
:101F0000691A00F0A1FAB0EE408AF0EE608A9FED07
:101F1000160B51EC180B53EC102B02F02DFC07D2D2
:101F200053EC192B51EC180B02F068FC41EC180B28
:101F30009FED0F0B51EC180B53EC102B02F0E4FA51
:101F400007D853EC192B51EC180B02F0A7F841EC11
:101F5000180BB0EE480AF0EE680ABDEC048B10BD19
:101F60000000000000807640000000000080664015
:101F700000000000008066C0FEE7000030EEC00AEE
:101F80000849DFED090A10EE100A884202DD30EE42
:101F9000600A704710EE100A04498842F9D930EE01
:101FA000200A7047000034430000B443000034C3EB
:101FB000B0EE401A90ED000A60EE011A90ED050AAD
:101FC00030EE010A80ED050A90ED0D2AB4EEC20A4A
:101FD000F1EE10FA06DC90ED0E2AB4EEC20AF1EE34
:101FE00010FA01D280ED052A90ED010A90ED052A44
:101FF000D0ED062A20EE020A71EE622A90ED022A46
:1020000031EE800A22EE222A30EE020A30EE200A59
:10201000D0ED0B0AF4EEC00AF1EE10FA06D3D0EDC3
:102020000C0AF4EEC00AF1EE10FA01DDB0EE600A1F
:1020300080ED061A80ED090A704700002DE9F04195
:1020400004002DED048BB0EE609AF0EE408A22D0B1
:1020500094F83C0028B394ED0A0AF0EE490AFFF721
:102060008DFFD4ED030A2A4D9FED2A8A20EE800AC7
:10207000F0EE480A85ED000AB0EE680A00F066FA54
:1020800010EE100A244E254F84ED080AB0420BDBF7
:1020900030EE480A0EE09FED220ABDEC048BBDE84D
:1020A000F08194ED090AF8E710EE100AB84203D95E
:1020B00030EE080A84ED080AF0EE480AB0EE490A4C
:1020C00000F044FA10EE100A84ED070AB04202DB79
:1020D00030EE480A05E010EE100AB84203D930EE9F
:1020E000080A84ED070AF0EE400A94ED080AFFF7AB
:1020F00045FF84ED040AD4ED070A2046C4ED0A0A20
:10210000D5ED000ABDEC048BBDE8F041FFF750BFF0
:10211000280000200000B44300003443000034C312
:102120000000000000B501000ED081ED0C2AC1EDC9
:102130000B2A81ED0E3AC1ED0D3A81EC040A00F054
:1021400005F8012081F83C0000BD000000280FD0F8
:102150009FED080A80ED040A80ED050A80ED060A6D
:1021600080ED0A0A80ED070A80ED080A80ED090A71
:10217000704700000000000080EC030A9FED080A91
:1021800080ED030A80ED040A80ED050A80ED060A61
:1021900080ED070A80ED0C0A2030C0EC041A70476D
:1021A00000000000012000F061FAFBE70B4C0C4D31
:1021B0000C4E00272078082800D3277020780A23A7
:1021C00005EB00110022306800F0EAFA2078401C8C
:1021D00020700A2000F04AFAECE7000054000020CA
:1021E000A00600200C0000200B4C0C4D4FF0FF37D8
:1021F00004F110063B4600220749286800F072FAF5
:10220000208894E80E1006EB0010103880E80E10BD
:10221000012000F02BFAEDE7C80700200C00002099
:1022200010B5FEF71FFF01F051FD012803D0BDE8F6
:10223000104001F011BA10BD30B593B0302168469E
:10224000FEF736F914210CA8FEF732F91D480025D7
:10225000016841F080510160006800F080501190E9
:102260001948016841F4804101600068022400F4CB
:102270008040119001200390102004900094069457
:102280000820CDE90750A820CDE9090404200B90CF
:102290006846FFF751F808B172B6FEE70CA90F20A7
:1022A00081E831004FF4A0500F904FF4805010900F
:1022B00005210CA8FEF774FF002801D072B6FEE7D6
:1022C00013B030BD40380240007000400248016841
:1022D00041F470010160704788ED00E00148FFF7AC
:1022E00038BB000058060020F0B50268274B284D87
:1022F000284E294F294C4FF0804C984209D0604518
:1023000007D0A84205D0B04203D0B84201D0A042C5
:1023100004D122F0700E4A6842EA0E0298421BD0A5
:10232000604519D0A84217D0B04215D0B84213D09A
:10233000A04211D01A4DA8420ED01A4DA8420BD07F
:10234000194DA84208D0194DA84205D0184DA842F1
:1023500002D0184DA84203D122F44075CA682A431E
:102360004D6922F080022A438D68C5620D6885623E
:10237000984201D0A04201D109690163016841F08E
:1023800004010160012141610260F0BD00000140D3
:102390000004004000080040000C00400004014020
:1023A0000040014000440140004801400018004046
:1023B000001C00400020004010B5846842EA03225F
:1023C00024F47F440A432243826010BD826822F0D5
:1023D00070020A4342F007018160704710B5036A3A
:1023E000046A24F001040462846924F0F00444EADD
:1023F000021423F00A020A438461026210BD10B580
:10240000036A046A24F010040462846923F0A003C0
:1024100024F4704444EA023243EA01118261016209
:1024200010BDFFF751BCFEE70907090E002804DBC9
:1024300000F1E02080F80014704700F00F0000F178
:10244000E02080F8141D704710B52DED040B86B008
:102450009DED060B10EE100A10EE901A8DED000B9C
:10246000002818BF0120084320F00040C0F17F6021
:1024700000F1E040C00F21D19DED080B10EE101AC5
:1024800010EE900A8DED000B002918BF01210843C2
:1024900020F00040C0F17F6000F1E040C00F0DD19E
:1024A00029490798B1EB400F04BF0698002842D095
:1024B0000998400004BF089800283CD09DED080B07
:1024C00053EC102B9DED060B51EC100B02F0A6F80F
:1024D000CDE902019DED020B40F2FF7110EE900A72
:1024E0008DED000B31EA105021D00798039900F0D0
:1024F000004001F00041884219D09DED080B8DEDA0
:10250000040B9DED020B8DED000B10EE900A05996A
:1025100061F31E0005909DED041B9DED020B51EC37
:10252000110B53EC102B02F05DF9CDE902019DED8A
:10253000020B0AB010BD0120FDF7E9FF0AB0BDE8AB
:10254000104000F05DB800000000E0FF10B52DED78
:10255000028BF0EE408A18EE900AB0EE608A20F00E
:102560000040C0F1FF40C00F07D118EE100A20F064
:102570000040C0F1FF40C00F2BD018EE101A18EE2B
:10258000900A02F09BFA00EE100A10EE100A6FEAB1
:10259000D05010F0FF0F04BFBDEC028B10BD18EE41
:1025A000900A00F0004110EE100A00F00040814255
:1025B00004BFBDEC028B10BD18EE101A10EE100A0D
:1025C000BDEC028B61F31E0000EE900A30EE600A53
:1025D00010BD18EE900A4FF07F41B1EB400F1CBFC9
:1025E00018EE100A5FEA4000C7D10120FDF78FFF07
:1025F000BDEC028BBDE8104000F012B800000000F6
:102600009FED050B10B553EC102B51EC100B01F0A6
:10261000F9FD41EC100B10BD0000000000000000AF
:10262000DFED020A80EEA00A704700000000000003
:10263000FEF720FDFFF700FEFFF77CFAFFF730FA08
:10264000FFF7B0FA0748FFF7E1FA0748FFF7D2F8BB
:10265000FFF7E7FE00F018F8FFF744FA00F026F85D
:10266000FEE70000300600205806002010B5EFF30A
:10267000058111B16FF0050403E0002408B100F0FA
:102680008BFE204610BD0000EFF3058010B16FF007
:10269000050070470448016811B14FF0FF307047E2
:1026A0000121016000207047A800002010B5EFF361
:1026B000058010B16FF0050010BD084801680129C0
:1026C00002D04FF0FF3010BD054A002182F8141DE2
:1026D0000221016000F0C8FE002010BDA80000200B
:1026E0000BE000E0F8B51D466FF003026FF0020644
:1026F0004FF00004EFF30583A3B1F0B1E9B1E5B900
:10270000002200926A4601F001FA012817D10098D0
:10271000B0B10C494FF080500860BFF34F8FBFF34A
:102720006F8F0DE048B141B12A4601F053F90128FD
:1027300006D025B16FF0010402E0144600E03446F3
:102740002046F8BD04ED00E0F8B514464FF0000552
:10275000EFF3058212BB08B301B3A4B1D4E902328E
:1027600063B1502A1AD32269C2B1676900FB01F62E
:10277000B74213D3009500F0A6FF07E072B92269B3
:1027800062B9626952B9002200F07CFF050005D0F1
:102790000CB1216800E0002100F0C8FD2846F8BD1A
:1027A000F8B51D466FF003026FF002064FF000040B
:1027B000EFF30583ABB100B3F9B1F5B900221346CD
:1027C00000926A4601F0A6F8012818D10098B8B125
:1027D0000C494FF080500860BFF34F8FBFF36F8FED
:1027E0000EE050B149B100232A4600F0E3FF012872
:1027F00006D025B16FF0010402E0144600E0344633
:102800002046F8BD04ED00E02DE9FF414FEA010349
:102810004FF00005EFF30581039549BB40B38027D6
:10282000182100244AB3166806B1344696691EB1D1
:102830003146761E382E02D21679F60703D00020D4
:1028400004B0BDE8F081566906B1B708D2F808C0F7
:10285000BCF1000F0DD0D5685C2D18D312693AB1C8
:1028600036B18DE806103A46214601F004FA03908D
:102870000DE0D6685EB912694AB903AACDE9001223
:10288000BAB2214601F0CAF9012800D00395039895
:10289000D6E700002DE9F041134C0F460546E668E7
:1028A0002068001D00F044FC681C07D137B1216886
:1028B000BDE8F0410D48091D00F08ABC2068354490
:1028C000B5424560216805D2A06BBDE8F041091D05
:1028D00000F066BC606B091D00F062FCA06A8542D6
:1028E00000D2A562BDE8F08158000020480D00200C
:1028F0002DE9F041054600F077FC2D4CA068401C06
:10290000A06020682B4F10B1606930B32BE02560C8
:10291000A068012827D1002606EB860007EB80007F
:1029200000F030FC761C382EF6D3234800F02AFC49
:102930002148143000F026FC1F48283000F022FC0B
:102940001D483C3000F01EFC1B48503000F01AFCC3
:10295000194860631430A06305E02068E96AC06A22
:10296000884200D82560606A401C60626864E86A3A
:102970002169884200D9206100EB800007EB8000CC
:10298000291D00F025FC00F04FFC606900280CD0E8
:102990002068E96AC06A884207D208494FF080502F
:1029A0000860BFF34F8FBFF36F8FBDE8F081000069
:1029B0005800002098080020F80C002004ED00E0EA
:1029C00038B500F011FC104C2068C8B90F4800F071
:1029D000D9FB0E48143000F0D5FB0C48E0601430F1
:1029E00020610A4B0020F03B009003F150021021BF
:1029F0000A2000F068FE206010B105A100F096FCEE
:102A0000BDE8384000F010BC940000204C0E0020BF
:102A1000546D72510000000030B4026C0B46002A65
:102A20000BD0C1681144C1608468A14201D3016820
:102A3000C16030BC1846FDF7EEBC30BC70472DE9D4
:102A4000F041856B174604460026026C82B1C7B17F
:102A5000E068FDF7E0FCE168206C091AE16022689B
:102A6000914202D2A168081AE060022F16D017E046
:102A70002068A8B9A06801F0A1F906460020A0606E
:102A80000EE06068FDF7C7FC216C60680844606078
:102A9000A168884204D32068606001E005B16D1E22
:102AA0006D1CA5633046BDE8F08110B5044690F872
:102AB000590058B101280CD002280FD0502080F3C3
:102AC0001188BFF34F8FBFF36F8FFEE7206B00F0CD
:102AD000BFFB2046BDE8104000F0BABB10BD0000AF
:102AE00010484FF47051420706D0C01D0D4920F028
:102AF0000700411AC1F570510B4A00230144C2E995
:102B000000030839183A21F0070111604B600B608F
:102B10000B1AC0E9001393604FF0004053605061FE
:102B2000704700002C150020C4000020144E154CE6
:102B3000A6F29C474FF08058DFF84C9012E000BF9F
:102B400000F052FBF068C568281D00F0F1FAA0689B
:102B5000401EA0606068401E606000F065FB284673
:102B6000FFF7A3FF60680028EAD138680128F9D987
:102B7000C9F80080BFF34F8FBFF36F8FF2E70000FB
:102B8000340D00205800002004ED00E070B51D4613
:102B9000049C51B1C4F80020C4E90F010121204672
:102BA00000F0C4FD84F84C5070BD2460F4E70000D0
:102BB0002DE9F05F8846DDE90B94154683469100C8
:102BC0009A460A9EA522206BFDF76AFC6FF003016E
:102BD000206B01EB8501084420F00707780707D038
:102BE000502080F31188BFF34F8FBFF36F8FFEE744
:102BF0000025B8F1000F0FD05FF00000221818F880
:102C0000001082F8341018F8001011B1401C102880
:102C1000F4D384F8435001E084F83450382E00D3C4
:102C20003726E662C4E91365201D00F0B6FA04F108
:102C3000180000F0B2FA2461C6F138006462A061A5
:102C4000656584F8585052465946384600F05AFA9D
:102C50002060B9F1000F01D0C9F80040BDE8F09F35
:102C600030B5114900E011460A688242FBD34B6837
:102C70005C18844203D140681844486008464368A1
:102C80001C18944209D1084C183C2468A24209D06F
:102C900052681A4442600A6812680260814200D099
:102CA000086030BD0460F9E7C400002070B500245E
:102CB00041600B4D0061914206D8D11A8269914260
:102CC00006D2011D286907E09A4203D2994201D336
:102CD000012403E0011DE86800F062FA204670BD9F
:102CE0009400002010B5044600F07EFAA06B28B1D5
:102CF0005FF0000400F098FA204610BD0124F9E7C7
:102D000030B589B03C4D6EE00498002806DADDE964
:102D10000601059A90470498002864DB069C6069C8
:102D200010B1201D00F004FA03A800F0D7F8024605
:102D300004980A2857D2DFE800F00505052D334A2C
:102D400005052D3394F8280040F0010084F8280090
:102D50000599A069059B01442046FFF7A7FF68B3CA
:102D6000216A2046884794F8280040073BD5002078
:102D700000900598A169002342181946204601F0E9
:102D800027F9D8B9502080F31188BFF34F8FBFF3D4
:102D90006F8FFEE714F8280F20F00100207022E06A
:102DA00094F8280040F0010084F828000598A061FC
:102DB00028B1811813462046FFF778FF13E0502012
:102DC00080F31188BFF34F8FBFF36F8FFEE794F846
:102DD0002800810703D4204600F03AFA03E020F0EF
:102DE000010084F82800002204A9286800F0F2FD00
:102DF000002889D109B030BD940000202DE9FC41A4
:102E00000F46054600F074FB01A800F067F8044681
:102E1000019818B101F04AF8BDE8FC81254EAFB128
:102E200030690068D0B30027291B3A46306800F0AB
:102E300091FA01F03BF80028EED11F494FF0805085
:102E40000860BFF34F8FBFF36F8FE5E7A542EBD864
:102E500001F02CF8F0682746C068C468201D00F017
:102E600067F994F82800410719D5A0692B46411944
:102E70003A462046FFF71AFFA8B100200346014654
:102E800000902A46204601F0A3F860B9502080F354
:102E90001188BFF34F8FBFF36F8FFEE707E020F07D
:102EA000010084F82800216A20468847B4E70127FA
:102EB000BAE700009400002004ED00E00648416BF2
:102EC000096829B1416BC968C9684968816270475E
:102ED0004FF0FF31FAE700005800002070B50546BA
:102EE00000F002FF064E0446B068844203D200F0B0
:102EF00009F8012000E0002028602046B46070BD81
:102F000094000020F8B5194D20E0C068C468066838
:102F1000201D00F00DF9216A2046884794F828000A
:102F2000400713D5A0693044B04206D924616060DF
:102F3000211DE86800F034F908E00020034601464E
:102F400000903246204601F043F838B1E868016845
:102F50000029DAD12969C5E90310F8BD502080F3B2
:102F60001188BFF34F8FBFF36F8FFEE794000020EF
:102F700008484068401C4FF0500080F3118804D08E
:102F8000BFF34F8FBFF36F8FFEE7BFF34F8FBFF3DA
:102F90006F8FFEE7CC000020074CE068016841B16C
:102FA000C0680021D0F80000FFF728FFFFF7A8FE57
:102FB000F3E701210020F7E7940000202DE9F0411C
:102FC000044600F011F994F9455004F1240609E093
:102FD000606A48B1304600F031FF08B100F00AFAEB
:102FE0006D1E6DB2002DF3DC4FF0FF3684F84560A6
:102FF00000F01AF900F0F8F894F9445004F11007C1
:1030000009E0206948B1384600F018FF08B100F027
:10301000F1F96D1E6DB2002DF3DC84F84460BDE85B
:10302000F04100F001B900002DE9F041054600270C
:1030300000F05EFA324E306808B9FFF751FD706952
:1030400005424ED1C5B3083568070ED005F007001C
:10305000C0F108000544680707D0502080F31188AC
:10306000BFF34F8FBFF36F8FFEE72DB370688542BC
:1030700037D82348183001460C6801E020460C463A
:103080006168A94202D221680029F7D131688C42D7
:1030900027D007682168016060680837411B102944
:1030A0000FD96019420708D0502080F31188BFF370
:1030B0004F8FBFF36F8FFEE713E041606560FFF74E
:1030C000CFFD61687068401A7060B268904200D2AB
:1030D000B060706901430020C4E90001F068401C41
:1030E000F06000F0E3FE780707D0502080F31188ED
:1030F000BFF34F8FBFF36F8FFEE73846BDE8F08117
:10310000AC00002010B5031F4FF080741C601B1F23
:1031100021F001011960191F044B0B6014390A607A
:10312000091F6FF0020244380A6010BD712F0008B9
:10313000D0E9013201699A60D0E901235A604A68F6
:10314000824201D182684A60002202610868401E02
:103150000860086870470000034B036003F15C00DF
:103160000860802010607047740E0020044B0360DC
:1031700003F15C0008604FF480701060704700003D
:10318000D010002000F108014FF0FF32C0E9011219
:10319000C160016100210160704700210161704739
:1031A00030B50B685A1C02D000F1080202E0026937
:1031B00004E02246546825689D42FAD953684B6062
:1031C00099608A60516008610168491C016030BDE6
:1031D00042684A6093688B609368596091600861A7
:1031E0000168491C01607047502080F31188BFF3CB
:1031F0004F8FBFF36F8F0A494868401C4860012811
:103200000CD10848006810F0FF0F07D0502080F361
:103210001188BFF34F8FBFF36F8FFEE77047000039
:10322000CC00002004ED00E00849486828B1401EA9
:10323000486001D180F311887047502080F31188D5
:10324000BFF34F8FBFF36F8FFEE70000CC0000206D
:1032500070B500282AD0164DA0F10804606869698D
:10326000084207D1502080F31188BFF34F8FBFF37E
:103270006F8FFEE722683AB1502080F31188BFF3C8
:103280004F8FBFF36F8FFEE78843606000F030F927
:1032900060686968084468602046FFF7E1FC2869B7
:1032A000401C2861BDE8704000F000BE70BD000009
:1032B000AC0000204FF0E020002101618161054950
:1032C0004FF47A720968B1FBF2F1491E416107219E
:1032D000016170471C00002010B5FDF701F811498D
:1032E00010280ED300F1E02090F8F0030A78904205
:1032F00007D2502080F31188BFF34F8FBFF36F8F39
:10330000FEE709480068896800F4E060884207D950
:10331000502080F31188BFF34F8FBFF36F8FFEE70C
:1033200010BD0000CC0000200CED00E010B5084BF3
:10333000002200BF53F832401CB1521C082AF9D3B6
:1033400010BD43F8321003EBC201486010BD00000D
:103350005808002070B515460E460446FFF744FF96
:1033600094F944100020491C01D184F8440094F9D8
:103370004510491C01D184F84500FFF755FFA06BAB
:1033800028B92A46314604F1240000F051F82046BD
:10339000BDE87040FFF712BE10B5020014D00F4810
:1033A000006B38B1502080F31188BFF34F8FBFF30B
:1033B0006F8FFEE700F09CF800211046FFF76AFAD5
:1033C00000F074FD002807D105494FF080500860D7
:1033D000BFF34F8FBFF36F8F10BD00005800002068
:1033E00004ED00E002490A6A0260C9684160704762
:1033F0005800002001490120C86170475800002092
:1034000010B50C4650B1094909681831FFF7C8FEDC
:103410002046BDE810400121FFF73CBA502080F360
:103420001188BFF34F8FBFF36F8FFEE75800002066
:1034300070B514460D4668B10A4909681831FFF79E
:10344000C7FE0CB14FF0FF3521462846BDE870405D
:10345000FFF720BA502080F31188BFF34F8FBFF3DE
:103460006F8FFEE75800002030B587B0002403942A
:1034700005AA04A903A80494FFF76EFEDDE9030181
:103480000094CDE90110002315A11748059A00F01A
:10349000F2FB164D0028E8621FD000F069FD0128FC
:1034A00009D0401C19D1502080F31188BFF34F8FF1
:1034B000BFF36F8FFEE7502080F31188BFF34F8F6B
:1034C000BFF36F8F4FF0FF30A86201206861EC609E
:1034D00007B0BDE8304000F045B807B030BD00008F
:1034E00049444C45000000002D2B000858000020E6
:1034F0000248016B491C016370470000580000201E
:10350000164810B5016B11B10121C16110BD002138
:10351000C1610169124A01E0B9B1491E01EB8103A1
:1035200052F82330002BF7D001EB810302EB83022A
:1035300002F1080453685B685360A34201D15B68E1
:103540005360DA680260016110BD502080F3118879
:10355000BFF34F8FBFF36F8FFEE7000058000020CE
:10356000980800201CB537480168374A914207D1B6
:10357000502080F31188BFF34F8FBFF36F8FFEE7AA
:1035800000683149491E884207D1502080F31188D4
:10359000BFF34F8FBFF36F8FFEE72C490878019080
:1035A000FF20087008788DF800009DF800009DF855
:1035B000002000F0F000904207D0502080F31188E6
:1035C000BFF34F8FBFF36F8FFEE79DF80000204CD5
:1035D00000F0500020700720A06005E09DF800205A
:1035E00052008DF80020401E9DF800201206F5D4F0
:1035F000A060032807D0502080F31188BFF34F8FBD
:10360000BFF36F8FFEE74FF44070A0600198087021
:103610000C482030016841F470010160016841F0FC
:1036200070410160FFF746FE00206060FCF720FE5D
:103630000848016841F040410160FCF705FE0020A8
:103640001CBD000000ED00E071C20F4100E400E08D
:10365000CC00002034EF00E010B5502080F311883A
:10366000BFF34F8FBFF36F8F00F044FB18B10449D5
:103670004FF080500860002080F3118810BD0000DA
:1036800004ED00E0F8B517460E46050013D005FB23
:1036900006F05030FFF7C8FC04000AD0002084F880
:1036A000460004F150023B46314628460094FFF79D
:1036B0006DFA2046F8BD502080F31188BFF34F8F7C
:1036C000BFF36F8FFEE738B5049D18B153B1CAB18F
:1036D00081B120E0502080F31188BFF34F8FBFF3FA
:1036E0006F8FFEE7502080F31188BFF34F8FBFF339
:1036F0006F8FFEE7502080F31188BFF34F8FBFF329
:103700006F8FFEE739B1502080F31188BFF34F8FE0
:10371000BFF36F8FFEE750241C46012384F8463028
:103720002B460094FFF732FA204638BD70B50D469F
:10373000040025D0FFF758FDD4E90F20216802FBD3
:103740000011A1600021A163216861600A46D4E9EB
:103750000F01401E00FB0121E16021464FF0FF30C8
:1037600001F8440F487004F110008DB1FFF70AFD15
:1037700004F12400FFF706FDFFF756FD012070BDA0
:10378000502080F31188BFF34F8FBFF36F8FFEE798
:1037900021690029F0D000F051FB0028ECD0044949
:1037A0004FF080500860BFF34F8FBFF36F8FE3E798
:1037B00004ED00E02DE9FF4782B01D468A464FF038
:1037C0000008040003D0BAF1000F08D011E0502027
:1037D00080F31188BFF34F8FBFF36F8FFEE7206C2C
:1037E00038B1502080F31188BFF34F8FBFF36F8F34
:1037F000FEE7022D0AD1E06B012807D0502080F3AC
:103800001188BFF34F8FBFF36F8FFEE700F05EFAB2
:103810003F4F4FF000094FF0805648B9049838B137
:10382000502080F31188BFF34F8FBFF36F8FFEE7F7
:10383000FFF7DAFCA06BE16B884207D3022D05D0BD
:103840000498D0B1B8F1000F1AD01EE02A465146B4
:103850002046FFF7F4F8616A19B104F1240000F082
:10386000EDFA20B13E60BFF34F8FBFF36F8FFFF7CC
:10387000DBFC012006B0BDE8F087FFF7D5FC22E0B5
:103880006846FFF7AFFD4FF00108FFF7CDFCFFF7EB
:103890002FFEFFF7A9FC94F94400401C01D184F8E5
:1038A000449094F94500401C01D184F84590FFF7FD
:1038B000BBFC04A9684600F077F930B12046FFF759
:1038C0007DFB00F0F3FA0020D4E7FFF78DFCA06B3E
:1038D000E16B884213D1FFF7A7FC04F110000499B3
:1038E000FFF78EFD2046FFF769FB00F0DFFA0028A6
:1038F0009ED13E60BFF34F8FBFF36F8F98E7FFF706
:1039000093FC2046FFF75AFB00F0D0FA90E7000046
:1039100004ED00E02DE9F0471F469046894604007B
:1039200003D0B9F1000F08D011E0502080F31188C6
:10393000BFF34F8FBFF36F8FFEE7206C38B150207D
:1039400080F31188BFF34F8FBFF36F8FFEE7022F15
:103950000AD1E06B012807D0502080F31188BFF313
:103960004F8FBFF36F8FFEE7FFF7B6FC5020EFF3EA
:10397000118680F31188BFF34F8FBFF36F8FA06B59
:10398000E16B884206D3022F04D0002086F3118811
:10399000BDE8F08794F94550A06B3A464946204669
:1039A000FFF74DF8681C04D06D1C84F845500120C9
:1039B000ECE7606A0028FAD004F1240000F03EFA37
:1039C0000028F4D0B8F1000FF1D00121C8F80010A0
:1039D000EDE700002DE9F747002683B08A46040092
:1039E00003D0BAF1000F08D011E0502080F3118805
:1039F000BFF34F8FBFF36F8FFEE7206C38B15020BD
:103A000080F31188BFF34F8FBFF36F8FFEE700F095
:103A10005DF9DFF8F4804FF000094FF0805748B9A6
:103A2000059838B1502080F31188BFF34F8FBFF352
:103A30006F8FFEE7FFF7D8FBA56BC5B15146204657
:103A4000FEF7EAFF6D1EA563206950B104F1100076
:103A500000F0F4F928B1C8F80070BFF34F8FBFF33E
:103A60006F8FFFF7E1FB012006B0BDE8F0870598F6
:103A700008B11EB106E0FFF7D7FB27E06846FFF765
:103A8000B1FC0126FFF7D0FBFFF732FDFFF7ACFBDF
:103A900094F94400401C01D184F8449094F9450005
:103AA000401C01D184F84590FFF7BEFB05A968468C
:103AB00000F07AF8002820460AD0FFF77FFA00F0DD
:103AC000F5F92046FFF70EF90028B3D00020CBE728
:103AD000FFF708F990B104F124000599FFF790FC75
:103AE0002046FFF76BFA00F0E1F90028A2D1C8F8F0
:103AF0000070BFF34F8FBFF36F8F9BE72046FFF738
:103B00005DFA00F0D3F995E704ED00E02DE9F04708
:103B100090468946040003D0B9F1000F08D011E0A7
:103B2000502080F31188BFF34F8FBFF36F8FFEE7F4
:103B3000206C38B1502080F31188BFF34F8FBFF352
:103B40006F8FFEE7FFF7C8FB5020EFF3118680F37D
:103B50001188BFF34F8FBFF36F8FA76BF7B194F945
:103B6000445049462046FEF757FF7F1EA763681C56
:103B700004D06D1C84F84450012010E02069002816
:103B8000FAD004F1100000F059F90028F4D0B8F18F
:103B9000000FF1D00121C8F80010EDE7002086F3F6
:103BA0001188BDE8F08700002DE9F0410C460500C2
:103BB00011D0C4B1FFF718FB174BDA686E682068A4
:103BC000911B471C17D02F681B6A9F4219D0964241
:103BD00017D8012410E0502080F31188BFF34F8FD5
:103BE000BFF36F8FFEE7502080F31188BFF34F8F34
:103BF000BFF36F8FFEE70024FFF716FB2046BDE8FA
:103C0000F081884205D9401A20602846FFF7EAFB78
:103C1000F1E700202060DCE7580000202DE9FF5F7D
:103C20008346DDE90E87994616468A469000FFF7DF
:103C3000FBF905001CD05C20FFF7F6F9040014D056
:103C40000020256384F85900CDE90240CDE90087C2
:103C50004B46324651465846FEF7AAFF2046FEF72D
:103C600047FE012004B0BDE8F09F2846FFF7F0FAB8
:103C70004FF0FF30F6E7F0B585B0DDE90B640A9D43
:103C8000A6B1DCB15C2700972663022684F8596050
:103C9000002604AFCDE90246CDE90057FEF788FFC4
:103CA0002046FEF725FE049805B0F0BD502080F3B5
:103CB0001188BFF34F8FBFF36F8FFEE7502080F363
:103CC0001188BFF34F8FBFF36F8FFEE7054841693F
:103CD00019B1006B18B10020704701207047022015
:103CE00070470000580000200148C068704700007D
:103CF000580000202DE9F0412E4C0027206B28B100
:103D0000A069401CA0613846BDE8F081E668761CD9
:103D1000E66013D1606B006838B1502080F31188E1
:103D2000BFF34F8FBFF36F8FFEE7606BA16B6163D3
:103D3000A063206A401C2062FFF7C0F8A06ADFF889
:103D40007880864209D3606B0068A0B1606BC06860
:103D5000C5686868864211D2A0622068C06A00EB1C
:103D6000800158F82100012800D90127E0690028C6
:103D7000C9D00127C7E74FF0FF30EDE7281DFFF757
:103D8000D7F9A86A18B105F11800FFF7D1F9E86A68
:103D90002169884200D9206100EB800108EB810095
:103DA000291DFFF715FAE86A2168C96A8842CAD353
:103DB0000127C8E7580000209808002070B50400CB
:103DC0004FF0000133D01B4D2868844207D05020AB
:103DD00080F31188BFF34F8FBFF36F8FFEE7206D25
:103DE00038B1401E2065E36CE26A9A421FD040B1B0
:103DF0001DE0502080F31188BFF34F8FBFF36F8F0A
:103E0000FEE7201DFFF794F9E06CE062C0F1380096
:103E1000A061E06A2969884200D92861064900EB5F
:103E2000800001EB8000211DFFF7D2F90121084637
:103E300070BD0000580000209808002070B5C068D0
:103E4000C46854B104F118000646FFF771F9144D27
:103E5000286B50B13146134815E0502080F311888B
:103E6000BFF34F8FBFF36F8FFEE7201DFFF760F9A1
:103E7000E06A2969884200D928610B4900EB80007B
:103E800001EB8000211DFFF7A3F9E06A2968C96AE8
:103E9000884202D90120E86170BD002070BD000099
:103EA00058000020200D0020980800202DE9F04740
:103EB0002C4D00242746286B38B1FFF795F9286B65
:103EC000401E2863286B40B146E0502080F31188E3
:103ED000BFF34F8FBFF36F8FFEE7A968224E01201B
:103EE000D1B3A6F5916980463068E0B1F068C46846
:103EF00004F11800FFF71CF9201DFFF719F9E06A1B
:103F00002969884200D9286100EB800109EB810012
:103F1000211DFFF75DF9E06A2968C96A8842E3D389
:103F2000C5F81C80E0E70CB1FEF7C8FFAC694CB1E6
:103F30004FEA0806FFF7DEFE00B1EE61641EF9D11C
:103F40000020A861E86938B10849012738070860EE
:103F5000BFF34F8FBFF36F8FFFF766F93846BDE8A9
:103F6000F087000058000020200D002004ED00E044
:103F700010B586B0FEF724FD114C2068B8B10020C2
:103F80000390049005AA04A903A8FFF7EFF8DDE960
:103F9000032102208DE8070000230AA10B48059A9F
:103FA000FFF769FE606010B106B0012010BD50201F
:103FB00080F31188BFF34F8FBFF36F8FFEE70000D0
:103FC00094000020546D722053766300992F0008EE
:103FD0002DE9FF411E46134602000A9D4FF00000E6
:103FE00016D0144C2768002F0FD0CDE90013029291
:103FF000062917DAFFF76AFE02284FF000030FD0F8
:10400000002269462068FFF7D5FB04B0BDE8F081C7
:10401000502080F31188BFF34F8FBFF36F8FFEE7FF
:104020002A46EEE70023324669463846FFF772FC1F
:10403000EBE700009400002021F00042A2F1605262
:10404000B2F5801F01F0004328BFD2F17F6C0BD97D
:104050005FEA001C43EAC20242EB507018BF70478F
:1040600028BF20F001007047B2F5801FBCBF184682
:1040700070474FEA410C1CF5001F02D2084600F0C1
:1040800097BD70B500F07CFA00000089FFF7F6BF1D
:104090004FF00040A0F580007047000010B591EA95
:1040A000030F48BF83F0004300F1B083841A71EB23
:1040B000030C05D2121943EB0C03001B61EB0C013E
:1040C000DFF824E14FEA1154A4EB135C1EEA430F1E
:1040D00018BF9EEA445F73D023EA0E03DCF1200E82
:1040E00021EA045143F4801332D322FA0CFE10EB80
:1040F0000E0023FA0CFE41EB0E01CCF1200E03FA68
:104100000EFE10EB0E0051F10001B1F5801FCCF155
:10411000200E32D201EB045112FA0EF2BDE810402B
:1041200058BF7047401C38BF5FEA420218BF704753
:10413000002814BF20F0010041F100014FEA4103C3
:1041400013F5001F38BF7047A1F1C04100F00EBB4E
:10415000012A43EB0302ACF1200CDCF11F0E32BF4D
:104160004FF0000E23FA0CF310EB030041EB045167
:10417000B4EB115FD0D0A1EB045101F580114908D7
:104180005FEA300001EB04510ED350F1000038BF5C
:1041900012FA0EFE08D1BDE81040C9E7401C38BF36
:1041A0005FEA4202CAD1C3E7BDE810404FEA4103CB
:1041B00013F5001F38BF7047A1F1C04100F0D6BA17
:1041C0009EEA445F08D011EA5E0FBDE8104004BFCC
:1041D00001F0004100207047BDE8104070B500F0CC
:1041E000CFF900BF64FBBE3E0000E0FF491058BF9E
:1041F000C1F140415B1058BFC3F140438B42EFF324
:10420000008070472DE9C04130B4DFF8A0C23CEA1D
:10421000111418BF3CEA131400F0EC8081EA030586
:104220001CEA111444EAD57418BF1CEA131500F0F7
:10423000C780A4EB05044FF0004545EAC12145EADB
:10424000C32341EA505143EA525304F17F74994227
:1042500004F500344FEAC0204FEAC22208BF904262
:1042600000F09C804FEA13650FF24016765D4FEA2E
:10427000134506FB05F7C7F1807706FB07F74FEA02
:10428000D737A7FB03687642C8F58038A7FB06CE70
:1042900038BFA8F1010807FB08E64FF0000EA6FBA7
:1042A000028CE6FB03CEDCF1000CCEF1004E38BFF1
:1042B000AEF1010EA6FB0C584FF000074FF00005C1
:1042C000E6FB0E87A1FB08C6A0FB07CE16EB0E0689
:1042D00045F10005E1FB076515F1E04E7EBFA4F551
:1042E00080345FEA46066D4116F1800745F100050E
:1042F0004FEA17274FEA066647EA0567A6F1DE464A
:10430000B6F1805F4FEA15251FD9384624F0010C1D
:1043100005EBC471BCF1FE6F01EB0C1102D8F0BCCF
:10432000BDE8008124425CBF01F5801E9EEAC47F87
:1043300002D4F0BCBDE80081244238D4F0BCA1F125
:10434000C041BDE8004100F011BA4FEAD22242EA72
:1043500043524FEAD323A7FB02864FEAD02040EA1C
:10436000415007FB03661EEA0E0F4FEAD12105FB01
:10437000026658BFA6EB0056B6EB00564FEA520E47
:104380004EEAC37E18EB0E0E56EB530EBDD518EB5E
:1043900002085E417F1C55F10005B6E74FF4801519
:1043A0004FF000074FF000064FF00008ADE7F0BCFB
:1043B0004FF0000001F1C04101F00041BDE8008173
:1043C00011EA0C1F0CEA131500D00CE013EA0C1FC5
:1043D00000F025804FF00000F0BC81EA030101F0FD
:1043E0000041BDE80081F0BCBDE8004181EA030165
:1043F00000F0BCB9F0BCBDE8004170B500F0C0F8F9
:10440000097EFC3E00F007B881EA03014FF000008E
:1044100001F00041704781EA030100F0A7B9F0BC48
:10442000BDE800414FF0000021497047FFFDFBF956
:10443000F7F5F4F2F0EEEDEBE9E8E6E4E3E1E0DED7
:10444000DDDBDAD8D7D5D4D3D1D0CFCDCCCBCAC849
:10445000C7C6C5C4C2C1C0BFBEBDBCBBBAB9B8B770
:10446000B6B5B4B3B2B1B0AFAEADACABAAA9A8A863
:10447000A7A6A5A4A3A3A2A1A09F9F9E9D9C9C9B31
:104480009A999998979796959594939392919190DC
:104490008F8F8E8E8D8C8C8B8B8A8989888887876D
:1044A0008685858484838382828181800000FF07E2
:1044B0000000F87F10F0004248BF4042B0FA80F39D
:1044C00010FA03F10AD0C3F11D0303F580634FEA2C
:1044D000415002EB035202EBD12170474FF0000034
:1044E0007047B0FA80F310FA03F10AD0C3F11D034C
:1044F00003F580634FEA41504FEA035202EBD121AA
:1045000070474FF00000704751EA030C17D41CF5B8
:10451000801F58BFBCF5801F00F10680994218BF6C
:10452000704708BF9042704707D711F5801F58BFEA
:1045300013F5801F19D499427047894270471CF5C2
:10454000801F08D5BCF5801FF7D58B4218BF704778
:1045500008BF824270474FF4001C1CEB410F38BF6C
:104560001CEB430F01D28B42704770B500F008F886
:10457000922449004FF000514FF08053FFF736BEB0
:104580000EF1020E2EF0030E5EF8046B364205D4D7
:10459000012A43EB030515F5001F12D8012841EB52
:1045A000010C1CF5001F0CD80ED14FEAD17C15F57B
:1045B000001F0CEB4C0C0CF1020C08BF4CEBD37C35
:1045C00004E04FF0080C01E04FEAD37C0CEB4C0503
:1045D00026FA05F606F00706B6F1040C06D20EEB35
:1045E000860CBDE870404CF0010C6047DFE80CF031
:1045F000090B02024FF000414FF00000A1F500212D
:1046000070BD19461046012851EB010418BFD4F5BE
:10461000001484BF002001F0004170BDDFF844C1E8
:1046200070B53CEA111418BF3CEA131500F08F80F6
:1046300011F1004F1CEA13150CEA111468BF45F084
:10464000050518BF11EA0C1F00F079802E4621EAFB
:104650004C1123EA4C1341F4801143F48013A5F567
:104660008035AC423DDD801A9941A4F5803609D5EC
:104670004042C1F1000134BFB1F10101B1F10001CB
:1046800085F0010511F4F01F08D011F4801FE8D166
:10469000400041EB0101A4F58034F6E721F0004130
:1046A000B1FA81F6202E04BFB0FA80FE0EF120068A
:1046B000A6F10B06B6F1200EA4EB06440CD2C6F10F
:1046C000200E01FA06F120FA0EF641EA0601CEF1BB
:1046D000200600FA06F003E000FA0EF14FF00000A9
:1046E000BFE750EA410E23D04FEA244EBEEB254FE0
:1046F0000FDB994208BF904204D00AD3520043EB2B
:104700000303B0E74FEA1646B6EB144F08BF85F037
:104710000105B4F5803401EB041181EAC57100DBB9
:1047200070BD01F1C0414FF0000001F0004170BDCB
:104730004FEA45714FF0000001F0004170BD1CEAE6
:10474000131F09D04FF0000001F0004170BDFFF7CA
:1047500017FF00BFEDFFFF3EBDE870404FF00000C7
:10476000014970470000FF070000F87F0808A0F526
:1047700000114FEA3101704753EA010C17D41CF5C0
:10478000801F58BFBCF5801F00F106808B4218BF08
:10479000704708BF8242704707D713F5801F58BF84
:1047A00011F5801F19D48B4270479B4270471CF54E
:1047B000801F08D5BCF5801FF7D5994218BF7047F8
:1047C00008BF904270474FF4001C1CEB430F38BFEA
:1047D0001CEB410F01D2994270470FB40CBC03BCD3
:1047E000FFF7C3BE91EA030F10B581F000413FF51A
:1047F0005DAC83F0004300F009B8000010B591EA09
:10480000030F48BF83F000433FF550AC841A71EBAF
:10481000030C07D212198CF0004C43EB0C03001B65
:1048200061EB0C01DFF8A4E14FEA1154A4EB135C37
:104830001EEA430F18BF9EEA445F00F0B08023EAEF
:104840006E03524221EA0451C3EB6E0338BF5B1E74
:10485000DCF1200E25D322FA0CFE10EB0E0043FAF9
:104860000CFE41EB0E01CCF1200E03FA0EFE10EB14
:104870000E0051F10001CCF1200E29D412FA0EF2F3
:1048800001EB0451BDE8104058BF7047401C1CBFED
:10489000B2F1004F704700280CBF491C20F0010006
:1048A000704712EB020E43EB030218BF4FF0010EEC
:1048B0004EEA4202ACF1200CDCF11E0E54D943FA50
:1048C0000CFE10EB0E0051F1FF31CCF11E0ED5D5D0
:1048D0000EF1010E12FA0EFE404141EB010101EB17
:1048E000445C5FEA5C5C10D910EBDE7001EB0451B4
:1048F00038BFBEF1004FBDE8104018BF7047002818
:104900000CBF491C20F00100704730D24FEAD42C74
:1049100011F5001124F400641BD0B1FA81F20B3AB6
:10492000A41AA41ED2F12003914030FA03F31943D4
:10493000904001EBCC71002C01EB0451BDE810401C
:10494000A8BF704701F1C0414FF0000001F00041E5
:104950007047B0FA80F310FA03F100D110BDE41AE9
:10496000173C4805C90AE4E701EB045110BD4910A2
:1049700001EB0451BDE810404FEA300002E04FF077
:10498000000170474A0008BF0042F8D0B2F5001F8E
:1049900028BF704701F000414FF0000070479EEAC9
:1049A000445F07D011EA5E0FBDE8104004BF00214C
:1049B00000207047BDE8104070B5FFF7E1FD00BF73
:1049C00040DFF63E83F00041104670470000E0FFF4
:1049D00043004FEAD30C4FEA3C0C43401FBF400753
:1049E0000CF1605113F0FE4F70471CF0006F03D1C3
:1049F00000200CF0004170470CF0004343EA507077
:104A000010B540EACC0000F00EF800BF00000092A4
:104A10004FEA0001FFF7AABE4FF000414FF000003F
:104A2000A1F5002170470EF1020E2EF0030E5EF884
:104A3000044B244204D44FEA4102B2F17F4F11D813
:104A40004FEA4003B3F17F4F0CD80ED14FEAD07C30
:104A5000B2F17F4F0CEB4C0C0CF1020C08BF4CEB8D
:104A6000D17C04E04FF0080C01E04FEAD17C0CEB64
:104A70004C0324FA03F404F00704B4F1040C06D246
:104A80000EEB840CBDE810404CF0010C6047DFE8F1
:104A90000CF0070802024FF00040A0F5800010BDA6
:104AA0000846420018BFD2F1807288BF00F0004073
:104AB00010BD4FF04070E1EE100A70474FF07F4C90
:104AC0003CEA410318BF3CEA400200F062804FF428
:104AD0007F0C10F0004F0CEAD11318BF43F0050310
:104AE0001CEAD01218BF13EA0C0F00F057804FF0E9
:104AF000004C4CEA00204CEA0121A3F580339A4295
:104B000010DDB0F1004F23F0020306D3401A43F04A
:104B10000203BCBF404283F001034FEA4000A2F50C
:104B20008032ECE74FEA224CBCEB234F08DB884293
:104B300006D31CD0A0EB4100C0F1000083F00103BC
:104B400040001DD217D40DD0B0FA80FC0CF1010C3E
:104B500000FA0CF0A2EB0C42D2F1000C12DB4FEA8F
:104B6000C37070474FEA437000F00040704713F085
:104B7000020FE5D0DEE7B2F580324FEA4000EBDD10
:104B8000002AE9DD4FEAC21242EA502040EAC3702F
:104B9000704710B5FFF747FFEDFFFF3E1CEAD11F3E
:104BA00002D000F000407047004870470000C07F0E
:104BB000FF2141EAD050C00570470000804C00083A
:104BC00000000000000000000000000000000000E5
:104BD00000020000180000000000000000000000BB
:104BE000604C000800000000D80200205C000000BB
:104BF000D800002000020000280000000000000093
:104C000000000000704C0008000000003405002087
:104C10005C000000340300200002000008000000D7
:104C20000000000000000000504C000800000000E0
:104C3000E00500205000000090050020500000001A
:104C4000000000000000000001020304060708093C
:104C500051756575655F444A495F4D440000000029
:104C60005265616C54696D655F5441534B0000009F
:104C7000444A495F526563696576654461746100C1
:104C800064656661756C745461736B00AC4C0008AC
:104C900000000020D8000000C4010008844D000876
:104CA000D8000020B8560000E00100080000000015
:104CB00000000000000000000000000001000000F3
:104CC00010000000000000000024F40000000000BC
:104CD000000000000000000000000000000080BF95
:104CE00000000000000080BF000000000000000085
:104CF00000000000000000000000000000000000B4
:104D000000000000000000000000000000000000A3
:104D10000000000000000000000000000000000093
:104D20000000000000000000000000000000000083
:104D30000000000000000000000000000000000073
:104D40000000000000000000000000000000000063
:104D50000000000000000000000000000000000053
:104D60000000000000000000000000000000000043
:104D7000000000000000000000000000AAAAAAAA8B
:044D8000000000002F
:040000050800018965
:00000001FF
