:020000040800F2
:10000000985B00202903000825430008713400088C
:1000100071400008810E00085360000800000000D5
:10002000000000000000000000000000690200085D
:100030006912000800000000C5020008E55B000826
:100040004303000843030008430300084303000878
:100050004303000843030008AB12000843030008F1
:1000600043030008B1120008B71200084303000858
:100070004303000843030008430300084303000848
:100080004303000843030008430300084303000838
:10009000850E00084303000843030008BD12000852
:1000A0004303000843030008430300084303000818
:1000B000A15C000843030008430300084303000851
:1000C00043030008430300084303000843030008F8
:1000D00043030008430300084303000843030008E8
:1000E00043030008430300084303000843030008D8
:1000F00043030008430300084303000843030008C8
:1001000043030008430300084303000843030008B7
:1001100043030008430300084303000843030008A7
:100120004303000843030008290F000843030008A5
:100130004303000843030008430300084303000887
:10014000910E00084303000843030008430300081E
:100150004303000843030008430300084303000867
:100160004303000843030008430300084303000857
:100170004303000843030008430300080000000095
:10018000430300084303000800F002F800F05CF8A5
:100190000AA090E8000C82448344AAF10107DA45E2
:1001A00001D100F051F8AFF2090EBAE80F0013F0D8
:1001B000010F18BFFB1A43F001031847B0AC000051
:1001C000D0AC00000A444FF0000C10F8013B13F0D3
:1001D000070408BF10F8014B1D1108BF10F8015BA0
:1001E000641E05D010F8016B641E01F8016BF9D193
:1001F00013F0080F1EBF10F8014BAD1C0C1B09D1EA
:100200006D1E58BF01F801CBFAD505E014F8016B5B
:1002100001F8016B6D1EF9D59142D6D370470000ED
:100220000023002400250026103A28BF78C1FBD8FF
:10023000520728BF30C148BF0B6070471FB50AF096
:1002400046FC1FBD10B510BD00F002FA1146FFF7C5
:10025000F5FF07F047FF00F020FA03B4FFF7F2FFC5
:1002600003BC00F023FA00002C4B19680868B0E8C2
:10027000F04F80F30988BFF36F8F4FF0000080F3D9
:10028000118870470000000008480068006880F38B
:1002900008884FF0000080F3148862B661B6BFF39F
:1002A0004F8FBFF36F8F00DF00BF00BF08ED00E08E
:1002B000DFF80C00016841F470010160704700BF75
:1002C00088ED00E0EFF30980BFF36F8F134B1A68DE
:1002D0001EF0100F08BF20ED108A20E9F04F1060CB
:1002E00009B44FF0500080F31188BFF34F8FBFF374
:1002F0006F8F08F0DFFF4FF0000080F3118809BC1A
:1003000019680868B0E8F04F1EF0100F08BFB0EC95
:10031000108A80F30988BFF36F8F70476000002058
:10032000EFF30580704700000948804709480047FF
:10033000FEE7FEE7FEE7FEE7FEE7FEE7FEE7FEE795
:10034000FEE7FEE704480549054A064B70470000F2
:10035000915C00088901000898550020985B0020F6
:10036000985700209857002053EA020C00F069804B
:100370002DE9F04B4FF00006002B1FBFB3FA83F5B9
:1003800003FA05F424FA05F65E4012BF1643B2FAEA
:1003900082F502FA05F4C5F120051EBF22FA05FC1C
:1003A00044EA0C04203556EA044C4FEA144418BFC2
:1003B000641C4FF000084FF00009904271EB030CF1
:1003C00039D3002919BFB1FA81F701FA07F6B0FA5B
:1003D00080F700FA07F6C7F120071EBF20FA07FCD6
:1003E00046EA0C062037B6FBF4FCA7EB0507103FE6
:1003F00007F01F0BCBF120060CFA0BFB2CFA06F6CC
:1004000044BFB3460026202FA4BF5E464FF0000B2A
:100410005BEA060C08BF4FF0010B19EB0B09ABFBB5
:10042000027C48EB0608C01B06FB02CC0BFB03CC8E
:1004300071EB0C01C1E70B46024641464846BDE858
:10044000F08B13B54FF000004FF00001AFF30080C8
:10045000BDE81C40704710B5431C02E010F8011BBA
:1004600071B18107FAD14FF0013202C88C1A8C4366
:1004700014EAC211F9D0C01A0A0603D0C01E10BD7A
:10048000C01A10BD0A0401D0801E10BD0902FCD0A4
:10049000401E10BD032A40F2308010F0030C00F023
:1004A000158011F8013BBCF1020F624498BF11F8AE
:1004B00001CB00F8013B38BF11F8013BA2F1040267
:1004C00098BF00F801CB38BF00F8013B11F00303DF
:1004D00000F06280083AC0F0088051F8043B083A06
:1004E00051F804CBA0E80810F5E7121D5CBF51F8E5
:1004F000043B40F8043BAFF30080D20724BF11F85F
:10050000013B11F801CB48BF11F8012B24BF00F8C3
:10051000013B00F801CB48BF00F8012B704702F007
:10052000FF0343EA032242EA024200F069B84FF0B7
:10053000000200B5134694469646203922BFA0E833
:100540000C50A0E80C50B1F12001BFF4F7AF09073F
:1005500028BFA0E80C5048BF0CC05DF804EB890030
:1005600028BF40F8042B08BF704748BF20F8022B73
:1005700011F0804F18BF00F8012B7047704770478B
:10058000704710B500F05CF8006810BD10B5044667
:1005900000F056F8046010BD10B5203AC0F00B8092
:1005A000B1E81850203AA0E81850B1E81850A0E877
:1005B0001850BFF4F5AF5FEA027C24BFB1E81850D1
:1005C000A0E8185044BF18C918C0BDE810405FEA41
:1005D000827C24BF51F8043B40F8043B08BF7047BD
:1005E000D20728BF31F8023B48BF11F8012B28BFC2
:1005F00020F8023B48BF00F8012B70474FF0000283
:100600000429C0F0128010F0030C3FF492AFCCF13B
:10061000040CBCF1020F18BF00F8012BA8BF20F892
:10062000022BA1EB0C01FFF784BF5FEAC17C24BF62
:1006300000F8012B00F8012B48BF00F8012B704790
:10064000004870473455002000487047345500205A
:100650007546FFF7F9FFAE4605006946534620F0A0
:100660000700854618B020B5FFF76CFEBDE82040B6
:100670004FF000064FF000074FF000084FF0000B5E
:1006800021F00701AC46ACE8C009ACE8C009ACE811
:10069000C009ACE8C0098D46704710B50446AFF3F9
:1006A00000802046BDE81040FFF7D7BD0149182063
:1006B000ABBEFEE726000200704705F007BD05F05F
:1006C0009BBD10B510EE100A0AF090F941EC100B2A
:1006D00005F0BAFE51EC100B09F0E2FB00EE100A37
:1006E00010BDF0EE400AF5EEC00AF1EE10FA02DDA0
:1006F000B0EE600A7047B1EE600AFBE7002803D055
:100700009FED020A80ED000A704700000000000023
:10071000002803D0B3EE060A80ED000A70470000FF
:1007200070B52DED0C8B84B006460C4615469FED3A
:10073000990AF0EE408A9FED970AB0EE409A9FED3D
:10074000950AF0EE40BA9FED930AF0EE409A9FEDC5
:10075000910AB0EE40AA0EB104B11DB904B0BDECCF
:100760000C8B70BD8C48FFF7C9FF8C48FFF7D0FF9A
:100770008A48D0ED000A9FED8A1A60EE810AB0EE39
:10078000600A00F025F9F0EE408A28EEA80AF0EEA3
:10079000408A8248D0ED000AB0EE001A60EE810A6D
:1007A0009FED7F1A60EE810AB0EE600A00F010F94A
:1007B000B0EE409A29EE090AB0EE409ADFED790AD0
:1007C000B7EE000A00EEA80ADFED770A00EEC90ACC
:1007D000DFED760A20EE200A754880ED000A6E48AB
:1007E00090ED000ADFED730A80EE201AB7EE000AE2
:1007F00031EE000A20EE000A6D48D0ED000A80EECE
:10080000801A6D4880ED001A94ED000AB5EEC00A1A
:10081000F1EE10FA0DD194ED010AB5EEC00AF1EE39
:1008200010FA06D194ED020AB5EEC00AF1EE10FA04
:1008300046D09FED580AB0EE408A00200190029009
:100840000390D4ED000A60EEA00A94ED011AD4EDF5
:10085000011A41EE210A94ED021AD4ED021A41EE7A
:10086000210AB0EE600A00F0A9F8B0EE408A94EDDB
:10087000000A20EE080A8DED010A94ED010A20EE2F
:10088000080A8DED020A94ED020A20EE080A8DEDA9
:10089000030ADDED010AF1EE600AB0EE600AFFF72F
:1008A0000CFFF0EE409A9DED031AF0EE410A9DED2B
:1008B000021AB0EE410AFFF702FFB0EE40AA07E0CD
:1008C0009FED340AF0EE409A9FED320AB0EE40AA56
:1008D00095ED000AB5EEC00AF1EE10FA0DD195EDD6
:1008E000010AB5EEC00AF1EE10FA06D195ED020A42
:1008F000B5EEC00AF1EE10FA3CD0B0EE690A00F095
:1009000067F8B0EE408AB0EE690AFFF7DAFEB0EEA3
:1009100040DAB0EE4A0A00F05BF8F0EE40AAB0EE22
:100920004A0AFFF7CEFEB0EE40BA28EE2A0AD5ED0D
:10093000010A20EE200AD5ED000A0DEE200A68EE2D
:100940000B0A95ED021A00EE810AB0EE40CA95ED51
:10095000010A20EE0B0AD5ED020A0AEEE00AF0EEDB
:1009600040CAF0EE6C0AB0EE4C0AFFF7A8FEF0EEBB
:1009700040BA03E09FED070AF0EE40BAB0EE4A1A23
:10098000F0EE690AB0EE6B0A304606F0F9FC00BFE3
:10099000E4E6000000000000C8010020CC010020B7
:1009A00035FA8E3CC1BFAD3B9DF8C5362F7C1C414E
:1009B000D0010020506CC24AD401002010B505F0CF
:1009C000E7FEB7EE001AC1EE000AB0EE600A10BDF5
:1009D00010B510EE100A0AF009F841EC100B05F002
:1009E00073FE51EC100B09F05BFA00EE100A10BD1B
:1009F0002DE9F0412DED028B9AB00546B0EE408A0C
:100A00000E4617469846002017901890199014909B
:100A1000159016904DB146B13FB1B8F1000F04D01A
:100A2000B5EEC08AF1EE10FA05D100201AB0BDEC87
:100A3000028BBDE8F08196ED000A8DED170A96ED68
:100A4000010A8DED180A96ED020A8DED190A97ED4F
:100A5000000A8DED140A97ED010A8DED150A97ED48
:100A6000020A8DED160A17AA14A9284606F0DAFA2A
:100A7000402104A8FFF75BFD002000900190029048
:100A80000390002417A904A808F098F900BF30E0EB
:100A900004A800EB041090ED000AD5ED000A20EE4A
:100AA000200A04A800EB0410D0ED010A95ED011A0C
:100AB00000EE810A04A800EB0410D0ED020A95EDC7
:100AC000021A00EE810A04A800EB0410D0ED030A1C
:100AD00095ED031A00EE810A20EE080AF0EE000AF6
:100AE00080EE201A684600EB840080ED001A601C3E
:100AF000C4B2042CCCDB002410E005EB840090EDA4
:100B0000000A684600EB8400D0ED000A30EE200AAF
:100B100005EB840080ED000A601CC4B2042CECDB01
:100B2000284608F0ADF8012080E7000001221021DE
:100B3000014801F07DB900000000024000221021B0
:100B4000014801F075B90000000002407047000044
:100B500001221146014801F06BB900000004024077
:100B600000220121014801F063B9000000040240A5
:100B700030B5437804781B021BB2234300EE103AD1
:100B8000194CB8EEC00AD4ED000A20EE200A81ED1F
:100B9000000AC37885781B021BB22B4300EE103A83
:100BA000D4ED000AB8EEC00A20EE200A81ED010A59
:100BB000437904791B021BB2234300EE103AB8EECE
:100BC000C00A20EE200ADFED090A81ED020AD0F802
:100BD000060020F07F4000EE100AB8EE400A20EE3A
:100BE000200A82ED000A30BDE000002000401C42D7
:100BF000704707F0A1BA07F025B8000010B5427899
:100C00000378120212B21A4300EE102A124BB8EE09
:100C1000C00AD3ED010A20EE200A81ED000AC27855
:100C20008478120212B2224300EE102AD3ED010A98
:100C3000B8EEC00A20EE200A81ED010A427900795F
:100C4000120212B2024300EE102AB8EEC00A20EEE1
:100C5000200A81ED020A10BDE000002010B5FFF768
:100C600075FFFFF7C5FF06F0D5FC08B1802402E050
:100C700006F03CFC044606F09BFE10B144F0400038
:100C800010BD06F027FE204310BD00002DE9FC41F9
:100C90000746002016460D4600900190FFF74EFFD4
:100CA000922000F0BDF806226946122000F09AF862
:100CB000FFF73CFF9DF801009DF80010000200B214
:100CC000084300EE100A464CB8EEC00AD4ED000A04
:100CD00020EE200A85ED000A9DF803009DF8021021
:100CE000000200B2084300EE100AD4ED000AB8EE8C
:100CF000C00A20EE200A85ED010A9DF805009DF846
:100D00000410000200B2084300EE100AB8EEC00A58
:100D100020EE200A85ED020AFFF722FF082269462D
:100D2000002000F05FF8FFF713FF9DF800000F2888
:100D300030D19DF803009DF80210000200B2084374
:100D400000EE100AD4ED010AB8EEC00A20EE200A27
:100D500087ED000A9DF805009DF80410000200B21E
:100D6000084300EE100AD4ED010AB8EEC00A20EEE6
:100D7000200A87ED010A9DF807009DF80610000281
:100D800000B2084300EE100AB8EEC00A20EE200AB6
:100D900087ED020AFFF7D2FEA22000F041F80222FE
:100DA0006946222000F01EF8FFF7C0FE9DF8000003
:100DB0009DF80110C00040EA5110B0F5806F01DBD2
:100DC000A0F5006000EE100AB4EE001AF8EEC00ABA
:100DD000B3EE070A00EE810A86ED000ABDE8FC8149
:100DE000E000002070B514460D4640F0800000F091
:100DF00017F806E0552000F013F8641E05F8010B03
:100E0000E4B2002CF6D170BD10B50C4640F0800065
:100E100000F006F8552000F003F8207010BD000027
:100E200001B582B04FF47A700090012301AA02A9A3
:100E3000024801F0BFFE9DF804000EBD900700209F
:100E400002784078D20042EA5010B0F5806F01DBA2
:100E5000A0F5006000EE100AB4EE001AF8EEC00A29
:100E6000B3EE070A00EE810A81ED000A704710B563
:100E70000C46FFF7D5FF2046BDE81040FFF7D0BF76
:100E8000FEE70000014800F0CEBB0000EC060020A9
:100E9000014800F0C8BB000014070020A0F20120A8
:100EA000072820D8C0B2104B421C03EB0010DFED26
:100EB0000F0A0280012242730A8852BA00EE102AF9
:100EC0004280B8EE400A20EE200ADFED090A20EE4B
:100ED000200A80ED010A4A8852BA02818A8852BAF1
:100EE0004281C97901737047380900200000B4437A
:100EF0000000003930B587B0054600910021082078
:100F00000291CDE9031014468DF81410284600F024
:100F100074FB0028FAD006AB22466946284600F04A
:100F20000DFA07B030BD00002DE9F05FA748A84BCF
:100F3000A84CC06CA64DA74EA54F0068A449DFF889
:100F40009492DFF88CA2DFF88CB2DFF884E2A14A39
:100F5000483B603418351836303F09F178090AF1FA
:100F6000300A4FF4006C0BF1300BAEF1180E8842D2
:100F700023D99749543926E0A84233D14FF02008AD
:100F80000AE0504535D1E04606E000BF4FF40018B6
:100F900002E000BF4FF0006811EA080F7CD08C49D6
:100FA000884253D9904205D0984203D0A04201D044
:100FB000A8422FD14FF0200C45E08649A831884245
:100FC00003D983495839096805E082494831884284
:100FD0008149F8D949689042D0D09842CED0A042F9
:100FE000CCD0C9E7B042CED0B842CCD04845CAD068
:100FF000C7E75845CAD07045C8D0DFF8D88108F196
:1010000090084045C2D0DFF8C88108F14808404543
:10101000C0D1BBE7B04216D0B84214D0484512D078
:10102000504510D0584509D0704507D069499031D6
:10103000884203D066494831884202D14FF4001CEF
:1010400001E04FF0006C62484C382AE06149A83159
:10105000884229D9904205D0984203D0A04201D0BD
:10106000A84202D14FF0200C19E0B04217D0B8428C
:1010700015D0484513D0504511D0584509D070457A
:1010800007D054499031884203D0514948318842B1
:1010900003D14FF4001C02E095E04FF0006C4C4887
:1010A0005038C0F800C052E04A494831884227D938
:1010B000904205D0984203D0A04201D0A84202D16C
:1010C0004FF0200C18E0B04216D0B84214D048457A
:1010D00012D0504510D0584509D0704507D03D4931
:1010E0009031884203D03A494831884202D14FF4C6
:1010F000001C01E04FF0006C3748C0F80CC026E03F
:10110000904205D0984203D0A04201D0A84202D11B
:101110004FF0200C18E0B04216D0B84214D0484529
:1011200012D0504510D0584509D0704507D02949F4
:101130009031884203D026494831884202D14FF489
:10114000001C01E04FF0006C2348C0F808C0234C9D
:10115000207880070CD5207820F0020020702078BD
:1011600040F004002070012211461D4800F060FE8E
:1011700060781C4D80070CD5607820F0020060700C
:10118000607840F00400607001221021284600F0D1
:101190004FFEA07880070CD5A07820F00200A07048
:1011A000A07840F00400A07001221021284600F031
:1011B0003FFE06F05BFE2078400704D50A48016830
:1011C00041F001010160BDE8F09F000090070020A0
:1011D0005864024010600240006002401401002088
:1011E0000004024000000240103C01400168182346
:1011F000CAB2103AB2FBF3F2054B6FF30901032AAE
:101200009B5CC36500D9091D8165084670470000D5
:10121000A4AC000810B5014600208B698A6A4FF023
:10122000C07453B1B3F5005F15D072B1012A0CD070
:10123000022A0AD0032A09D104E01AB1012A06D0F1
:10124000022A03D1C96AC90100D5012010BDC96AAB
:10125000A142FAD010BD002AF7D0012AF2D0022A0A
:10126000F3D0032AF3D010BD70477CB504460020AC
:101270001346009001904A1E4800032A03D84FF4F9
:101280000075801E05E0491F03290DD840F2FF15A7
:101290000A380DEB00014A1C184602F031FC6A4680
:1012A00029462046FFF726FE7CBD012000F0BCBC8D
:1012B000082000F0B9BC102000F0B6BC202000F0DF
:1012C000B3BC72B6FEE70000114800B590ED000A0D
:1012D00007F018FD0F4981ED060A90ED010A07F0AD
:1012E00011FD81ED070A90ED000A07F00BFD08499A
:1012F000C43181ED000A90ED010A07F003FD81ED94
:10130000010A90ED020A07F0FDFC81ED020A00BD22
:101310001C5400201401002090F82020012A07D03E
:10132000022A05D0416A41F48021416201207047C0
:10133000006842690A43426100207047F0B590F8A6
:1013400020500468A468012D05D0022D03D0416A05
:1013500041F480214DE014F0406F01D1E50045D506
:10136000C4F301640125A5401D608D684FF4C0736E
:101370009DB1CE6835434E6845EAC605066803EB65
:101380000417F5514FF4C275076805EB04150E6993
:101390007E51097D012905D009E00E88CD6845EA16
:1013A0004655EBE701684E5946F480764E51117967
:1013B000D2F805504FF4C67641EA0521056806EBE0
:1013C0000416A9511178D2F801204FF4C47541EAEE
:1013D0000221026805EB04155151006803EB04116A
:1013E000425842F0010242500020F0BD416A41F4EF
:1013F000001141620120F0BD10B590F82020012AB3
:1014000007D0022A05D0416A41F4802141620120BF
:1014100010BD3B48D0F8002242F00102C0F8002283
:10142000D0F8002222F47C52C0F80022D0F800222A
:101430004B6A42EA0322C0F800220A7D02F01F0331
:1014400001229A40D0F81C329343C0F81C32CB6979
:10145000B3B9D0F80C329343C0F80C328C894B6886
:1014600064F31F434C6900EBC404C4F840320C8998
:101470000B6864F31F434C6900EBC404C4F84432A6
:10148000CB69012B16D1D0F80C321343C0F80C32C3
:101490000C884B6864F31F434C6900EBC404C4F828
:1014A00040320C89CB6864F31F434C6900EBC404E1
:1014B000C4F844328B69002BD0F804320ED01343A9
:1014C000C0F804320B69002BD0F8143208D0134353
:1014D000C0F81432096A012904D008E09343EFE709
:1014E0009343F5E7D0F81C121143C0F81C12D0F852
:1014F000001221F00101C0F80012002010BD000010
:1015000000640040704770B590F82040012C05D071
:10151000022C03D0416A41F4802128E0046809B319
:101520002469A40720D04FF4D874056804EB011493
:101530002D5915F00405956005682D591AD0ED0850
:10154000556005682C5904F00204D4604FF4DA7435
:10155000056804EB01142E5906F00F06082E0CD373
:1015600008250DE0E468DCE7416A41F400114162BE
:10157000012070BD6D0D1560E3E72D5905F00F05D5
:10158000156105682D59C5F30725956105682C5926
:10159000240C54614FF4DC72046802EB0112A4586D
:1015A0001C700468A458240A5C700468A458240CB5
:1015B0009C700468A258120EDA704FF4DE72046850
:1015C00002EB0112A4581C710468A458240A5C712F
:1015D0000468A458240C9C710468A258120EDA7195
:1015E000006829B1016941F020010161002070BD4E
:1015F000C16841F02001C160F8E70246002092F87E
:101600002010012901D002290CD111688A685201E9
:1016100000D501208A68120100D5401C8968C900E4
:1016200000D5401C70472DE9F05F05460068002496
:101630004669D0F804908768D0F80CB0D0F810A0B4
:10164000D0F81880F10748D0F90714D00121816043
:10165000B80703D5284600F03AFA0CE0780702D51F
:101660004FF4006407E0380702D54FF4805402E0DD
:10167000284600F02BFAF80516D529684FF480703B
:101680008860B80503D5284600F023FA0CE07805F9
:1016900002D544F4005407E0380502D544F48044F0
:1016A00002E0284600F014FAF80316D529684FF432
:1016B00080308860B80303D5284600F00CFA0CE0AF
:1016C000780302D544F4004407E0380302D544F41B
:1016D000803402E0284600F0FDF9300707D55FEAC4
:1016E000CB6004D52968102044F40074C8607007EA
:1016F0004FF0080707D55FEA0B7004D52868C7606C
:10170000284600F099F9B00706D52868C068800718
:1017100002D0284600F092F9700607D55FEACA6049
:1017200004D52968102044F480640861B00607D508
:101730005FEA0A7004D528680761284600F096F928
:10174000F00606D528680069800702D0284600F018
:101750008EF9B00308D55FEAC96005D52968102065
:101760004860284600F084F9F00307D55FEA097065
:1017700004D528684760284600F0AEF9300446D505
:101780005FEA497040D5F00504D55FEAC87001D022
:1017900044F00104B00504D55FEA887001D544F037
:1017A0000204700504D55FEA487001D544F00404D2
:1017B000300529D518F0700F26D008F070004028A9
:1017C00015D006DC102809D020280AD0302816D1E0
:1017D0000AE050280ED0602811D10EE044F0080431
:1017E0000DE044F010040AE044F0200407E044F067
:1017F000400404E044F0800401E044F4807428686C
:10180000816921F070018161296804204860002C01
:1018100005D0686A204368622846FFF773FEBDE87A
:10182000F09F70B5040003D094F8200010B104E0DC
:10183000012070BD204600F081F82068016841F069
:101840000101016000F0FAFA0546052604E000F007
:10185000F5FA401B0A2811D820684068C007F6D066
:101860002068016821F00201016000F0E7FA0546F6
:101870000BE000F0E3FA401B0A2806D9606A40F446
:101880000030606284F82060D2E7206840688007FA
:10189000EFD4207E0128206801683DD021F080012E
:1018A0000160607E01282068016838D021F0400185
:1018B0000160A07E01282068016833D021F020015A
:1018C0000160E07E0128206801682ED041F01001FF
:1018D0000160207F01282068016829D021F00801DB
:1018E0000160607F01282068016824D021F0040194
:1018F0000160D4E902010843D4E90412114308430A
:101900006168491E08432168C861002060620120A7
:1019100084F82000002070BD41F08001C0E741F054
:101920004001C5E741F02001CAE721F01001CFE7EF
:1019300041F00801D4E741F00401D9E7F0B587B0E0
:10194000044614216846FEF7F2FD364B3648DFF8B0
:10195000D0E01968D4F800C0334A032502260927CD
:1019600010300024491CF44522D11960012907D107
:10197000016841F000710160006800F0007005909E
:10198000106840F0080010601068CDE9005600F0C3
:101990000800CDE9047069462448CDE9024500F00D
:1019A0004FF900220521142000F062FD142032E0DE
:1019B000DFF87CE0F44530D1D0F800C04CF0806C0A
:1019C000C0F800C0D0F800C001290CF0806CCDF840
:1019D00014C0196007D1016841F00071016000680E
:1019E00000F000700590106840F002001060106870
:1019F00002AB00F0020005906020CDE9000683E80C
:101A0000B00069460B4800F01BF900220521402078
:101A100000F02EFD402000F01DFD07B0F0BD0000DD
:101A2000006400401800002030380240000C0240E2
:101A300000680040000402407047000010B588B004
:101A40000446084B6A460021FFF75DFD06498C42BB
:101A500005D1002803D103490098FFF71FFA08B009
:101A600010BD00002C000020EC06002070477047DD
:101A70007047000070B5044690F82000012804D09B
:101A8000606A40F40020606218E0022084F82000C0
:101A90002068016821F00101016000F0CFF90546DE
:101AA0000EE000BF00F0CAF9401B0A2808D9606A9E
:101AB00040F400306062052084F82000012070BDF1
:101AC00020684068C007EDD1606270BD7047704704
:101AD0007047704770477047704700002DE9F0412C
:101AE000044600F0ABF906465CB1022084F83500EC
:101AF000002584F834502068016821F0010101605C
:101B00000DE00120BDE8F08100F098F9801B052868
:101B100005D920206065032084F83500F2E72068AD
:101B20000068C007F0D12268116820480140D4E95C
:101B300001031843D4E90336334318436369184358
:101B4000A3691843E3691843236A18430843616A89
:101B5000042903D1D4E90B1319430843106020680A
:101B60004069666A20F0070130460E4301270428C9
:101B70000CD1A06A0643E06A40B12046FFF74AFB59
:101B800020B14020606584F83570BAE7206846616E
:101B90002046FFF72BFB94F85C203F2191408160A9
:101BA000656584F835700020ACE700003F8010F0D8
:101BB00010B51B4C10281AD0202821D008282AD074
:101BC000012813D107F0AAFF01280FD004F10C015E
:101BD000206907F097FAE068002807D011494FF014
:101BE00080500860BFF34F8FBFF36F8F10BD6078D8
:101BF00040F001006070A07840F00100A07003E0A8
:101C0000207840F00100207020790028EED0BDE857
:101C1000104006F02BB9E07840F00100E07010BDF4
:101C20001401002004ED00E0044910B50A680242E6
:101C300002D00860FFF7BCFF10BD0000143C01405B
:101C40002DE9F84FDFF8BCA10022012503264FF053
:101C50000F090AF1040BAAF1040E00BF0B6805FA84
:101C600002F42340A34270D10F7907F00307012F3C
:101C700001D0022F16D187684FEA420806FA08FC05
:101C800027EA0C07D1F80CC00CFA08FC4CEA070C48
:101C9000C0F808C04768A7430C79C4F30014944007
:101CA0003C4344600C79E443A4070AD0C4684FEA7B
:101CB000420C06FA0CF7BC438F6807FA0CF727436F
:101CC000C7600C7904F00304022C12D1D40800EB95
:101CD000840CDCF820405707FF0E09FA07F824EAC5
:101CE0000804D1F8108008FA07F848EA0408CCF88C
:101CF000208004684FEA420C06FA0CF7BC430F79C7
:101D000007F0030707FA0CF7274307604C6814F441
:101D1000403F70D03C4C276847F4804727602468D8
:101D200022F0030704F480440094384C07EB040CC1
:101D3000DCF8084897074FEA177809FA08F7BC4318
:101D4000334FB84202D1002724E054E0314FB8426B
:101D500001D101271EE0304FB84201D1022719E01E
:101D60002E4FB84201D1032714E02D4FB84201D1C4
:101D700004270FE02B4FB84201D105270AE02A4F74
:101D8000B84201D1062705E0284FB84201D1072704
:101D900000E0082707FA08F72743CCF80878DAF8B4
:101DA00000405746D1F804C09C435FEACC2C00D5D4
:101DB0001C433C60DBF800405F46D1F804C09C4304
:101DC0005FEA8C2C00D51C433C60DEF8004077466F
:101DD000D1F804C09C435FEA8C3C00D51C433C60B6
:101DE000084F083F3C68D1F804C09C435FEACC3CF4
:101DF00000D51C433C60521C102AFFF42FAFBDE8F5
:101E0000F88F0000083C0140443802400030014097
:101E1000000002400004024000080240000C0240A2
:101E2000001002400014024000180240001C024052
:101E30000AB1816170470904FBE70000014880682E
:101E4000704700001C00002070B5040025D094F8F5
:101E50003D00002520B984F83C50204600F052FA9D
:101E6000242084F83D002068016821F00101016010
:101E70002068016841F4004101602068016821F494
:101E80000041016000F0C0FB4D4A6168914201D8F9
:101E90004C4900E04C49884201D2012070BD4B49B9
:101EA0002368B0FBF1F15E6826F03F060E435E60EA
:101EB0006368934206D94FF4967359434FF47A738B
:101EC000B1FBF3F12368491C1E6A26F03F0631433B
:101ED00019626168914210D84900401EB0FBF1F2CE
:101EE000521CC2F30B02042A01D2042022E0B0FBF0
:101EF000F1F0401CC0F30B001CE0A268F2B301EB50
:101F0000C10303EB0116431EB3FBF6F35B1C43F462
:101F100080431B0549D092B301EBC10202EB0111D2
:101F2000401EB0FBF1F0401CC0F30B0040F48040B9
:101F300040F400402168CA694CF6FF739A4310438D
:101F4000C861D4E9071001432068026822F0C0028A
:101F500011430160D4E9030101432068826848F21B
:101F6000FF339A4311438160D4E905010843216896
:101F7000CA6822F0FF021043C86001E00EE016E0DC
:101F80002068016841F0010101602564202084F887
:101F90003D00256384F83E50002070BD01EB4106F2
:101FA000431EB3FBF6F35B1CB3E70120C2E701EB72
:101FB0004101401EB0FBF1F0401CC0F30B00B7E73D
:101FC000A086010080841E0000093D0040420F00F1
:101FD0002DE9FF4F83B09A46DDE911879346044609
:101FE000DDF84090FFF72AFF054694F83D002028D1
:101FF00070D11923012274492046009501F04EFB4F
:102000000028F5D194F83C00012863D0012084F821
:102010003C0020680168C90703D1016841F0010153
:1020200001602068016821F400610160222084F8C9
:102030003D00402084F83E0000262664C4F8249029
:10204000A4F82A80608D20856048E062CDE90075A3
:1020500053465A462046049901F022FA002879D1C5
:10206000208DD0B1012821D00228206824D04169D8
:1020700080690090208D032866D801282BD0544910
:1020800002283B464FF00002009557D08846204674
:1020900001F004FB00285DD13AE0206841698169C4
:1020A0000091016841F4007101607DE020680168E1
:1020B00021F480610160F0E7016821F48061016032
:1020C0002068016841F4006101602068416980690D
:1020D000009069E075E02A463946204601F084FB0D
:1020E00088BB54E02068016841F4007101602068F9
:1020F0000069616A0870606A401C6062218D491E37
:102100002185618D491E618521680969017042E060
:102110002068016821F48061016020680069616ABB
:102120000870606A401C6062208D401E2085608DB2
:10213000401E60853B46002241460095204601F046
:10214000ADFA00B9CEE705E02A463946204601F04F
:102150004BFB18B1012007B0BDE8F08F2068006983
:10216000616A0870606A401C6062208D401E81B206
:102170002185608D401E608520684269D2435207E8
:1021800012D4032903D1016821F480610160206821
:102190000069616A0870606A401C6062208D401EA0
:1021A0002085608D401E6085208D00287FF462AF01
:1021B000202084F83D0084F83E6084F83C600020D4
:1021C000C9E70220C7E70000020010000000FFFF7F
:1021D000040001002DE9FF4F83B09A46DDE9119715
:1021E00093460446DDF84080FFF728FE054694F844
:1021F0003D0020287FD11923012240492046009527
:1022000001F04CFA002876D194F83C00012872D0F5
:10221000012084F83C0020680168C90703D10168E7
:1022200041F0010101602068016821F40061016052
:10223000212084F83D00402084F83E0000262664DA
:10224000C4F82480A4F82A90608D20852C48E06290
:10225000CDE9007553465A462046049901F09EF98F
:1022600070B930E02A463946204601F0F5FA58B1F7
:10227000206C042804D12068016841F400710160D9
:10228000012007B0BDE8F08F606A2168007808611E
:10229000606A401C6062218D491E89B22185628D71
:1022A000521E628522685369DB435B070BD469B118
:1022B00000781061606A401C6062208D401E20859D
:1022C000608D401E6085208D0028CBD12A4639467E
:1022D000204601F0B7F90028CAD154F83D0B016837
:1022E00041F400710160202004F81E09E67766774A
:1022F0000020C6E7FFE70220C3E70000020010004D
:102300000000FFFFF0B587B0044614216846FEF7D1
:102310000EF91D492068884233D11C480024016809
:1023200041F004010160016801F0040105910168B8
:1023300041F0010101600068122500F001000590E4
:102340004FF40070CDE9000502AA0326042782E8B5
:10235000D00069460E48FFF773FCB801CDE90005CF
:1023600002AA694682E8D0000A48FFF769FC0748DC
:102370001030016841F400010160006800F40000C1
:10238000059007B0F0BD0000005C0040303802400E
:1023900000080240000002400248816802781144AF
:1023A000816070471C0000200B4810B5016841F4A3
:1023B00000710160016841F480610160016841F4CD
:1023C00080710160032000F073F80F2000F006F820
:1023D00000F024F8002010BD003C024070B50D4D07
:1023E00004464FF47A712878B1FBF0F00A49096885
:1023F000B1FBF0F000F0D6FC48B9102C07D2002257
:102400002146501E00F034F800206C6070BD0120A1
:1024100070BD00001C000020280000200C4882B085
:10242000016841F480410160006800F48040009040
:102430000748001F016841F08051016000680022D8
:1024400000F0805000900F21901E02B000F010B8F4
:1024500044380240002809DB00F01F0201219140AE
:102460004009800000F1E020C0F800117047000032
:10247000F0B40E4B1B680C46C3F30223C3F10705EF
:10248000042D00D90425191D072901D2002300E0DD
:10249000DB1E012606FA05F1491E214099409E40A7
:1024A000761E16403143F0BC03F0FFBD0CED00E09A
:1024B000064900F0070208684FF6FF03184040EA9B
:1024C0000220034A10430860704700000CED00E052
:1024D0000000FA052DE9F0470E46050065D0DFF84B
:1024E0001481D8F80000F7B200F00700B04207D21C
:1024F00088F80070D8F8000000F00700B04254D10E
:1025000028683D4C810712D5400703D5206840F468
:10251000E05020602878000703D5206840F4604030
:1025200020602068A96820F0F00008432060287827
:10253000C0072DD0304968680839012812D0022818
:1025400013D0032811D00968890700292DDA2168E2
:1025500021F0030101432160FFF770FC814641F245
:10256000883A0EE009688903EFE709688901ECE71A
:10257000FFF764FCA0EB0901514502D90320BDE837
:10258000F0872068696800F00C00B0EB810FEFD194
:10259000D8F80010404601F00701B14207D9077092
:1025A000006800F00700B04201D00120E7E728787A
:1025B000400705D52068E96820F4E0500843206012
:1025C0002878000706D52068296920F4604040EA91
:1025D000C100206000F028F82168084AC1F3031107
:1025E000515CC8400649086006480068FFF7F6FEDF
:1025F0000020C4E7003C024008380240ACAC0008B0
:1026000028000020200000200448054900680968CF
:10261000044AC1F38221515CC84070472800002061
:1026200008380240BCAC0008154810B5006810F02E
:102630000C02144813D01449042A0FD0082A0ED1D2
:102640000F4C241F2268236802F03F025B0207D56B
:102650002068C0F38810A0FB010106E0084610BD09
:102660002168C1F38811A1FB00010023FDF77CFE66
:102670002168C1F30141491C4900B0FBF1F010BDD4
:10268000083802400024F40040787D012DE9F84F1D
:1026900004006ED02078DFF84C93C007A9F1040540
:1026A0004AD009F104000168C1F38101012908D071
:1026B0000068C0F3810002280AD1D9F80000400266
:1026C00006D52868800337D560680028E1D033E05C
:1026D0006068B0F5803F10D0B0F5A02F286810D00A
:1026E00020F480302860286820F48020286060680A
:1026F000A8B1FFF7A3FB06460DE0286840F4803040
:10270000F4E740F480202860F7E700BFFFF796FB6E
:10271000801B642873D828688003F7D50CE0FFF786
:102720008DFB064605E000BFFFF788FB801B642891
:10273000F0D828688003F7D42078DFF8AC828007CF
:102740004FF0000A3ED5A748001D016811F00C0F9C
:1027500008D00068C0F3810002280BD1D9F800002E
:10276000400207D42868800716D5E068012800D108
:1027700012E033E1E068B8B10120C8F80000FFF7CB
:102780005DFB064605E000BFFFF758FB801B0228F3
:10279000C0D828688007F7D52868216920F0F8009C
:1027A00040EAC10028600DE0C8F800A0FFF746FB32
:1027B000064604E0FFF742FB801B02281FD828686A
:1027C0008007F7D42078000722D5864F87486169B3
:1027D000703771B101210160FFF730FB064604E05C
:1027E000FFF72CFB801B022809D838688007F7D533
:1027F0000EE0C0F800A0FFF721FB064605E082E0EE
:10280000FFF71CFB801B02287DD838688007F7D4AF
:102810002078400768D5DFF8CCB100270BF13C0BDE
:10282000DBF80000C0000BD4DBF8001041F0805151
:10283000CBF80010DBF80000012700F0805000907A
:102840006B4E3068C00510D4306840F48070306042
:10285000FFF7F4FA009005E0FFF7F0FA0099401A4C
:10286000022850D83068C005F6D55E4EA0686C3698
:1028700001280FD00528306810D020F0010030600A
:10288000306820F004003060A068B8B1FFF7D6FAD5
:1028900000900FE0306840F00100F4E740F00400E1
:1028A0003060F7E7FFF7CAFA0099411A41F2883021
:1028B000814266D830688007F4D50EE0FFF7BEFA93
:1028C000009007E0FFF7BAFA0099411A41F2883008
:1028D000814256D830688007F4D42FB1DBF800105D
:1028E00021F08051CBF80010A069C8B33D49091D03
:1028F0000968C1F3810102294AD00228504607D055
:10290000C8F8600000E03CE0FFF798FA04463BE0BE
:102910004746C8F86000FFF791FA064605E000BF99
:10292000FFF78CFA801B02282BD828688001F7D487
:10293000D4E907010843A16A2E4A490802EB014184
:10294000626A41EA8211084394F82C1040EA01615E
:10295000C9F8001001203866FFF770FA044606E057
:102960003EE000BFFFF76AFA001B022809D828687A
:102970008001F7D534E000BFFFF760FA001B0228A2
:1029800002D90320BDE8F88F28688001F4D427E03D
:102990000128F7D0D9F80000E26900F480019142E3
:1029A0001CD1226A00F03F01914217D147F6C07155
:1029B000626A0140B1EB821F10D1A26A4FF0FF336F
:1029C00000F4403103EB5202B1EB024F06D194F810
:1029D0002C1000F07060B0EB016F01D00120D1E746
:1029E0000020CFE70438024000004742800E4742F3
:1029F000007000400000FFFF70B5040009D0606A5D
:102A0000002540B125616561A56294F8510040B18F
:102A10000CE0012070BD6068B0F5827FF4D0E56104
:102A2000F2E784F85050204600F044F8022084F881
:102A300051002068016821F040010160A0882189CF
:102A400000F4827001F404410843A18901F400619B
:102A50000843217C01F002010843217D01F00101BE
:102A60000843218B01F400710843217F01F03801F4
:102A7000084394F8201001F080010843218D01F4EF
:102A80000051084321680860A069042101EA104050
:102A900094F8241001F01001084321684860206870
:102AA000C16921F40061C1616565012084F85100AC
:102AB000002070BD2DE9F04186B00646142168461D
:102AC000FDF735FD35493068884264D1344800242B
:102AD000016841F480510160006800F48050059065
:102AE0002F481438016841F002010160016801F0CB
:102AF00002010591016841F00101016000680225B1
:102B000000F0010005901820CDE9000502AA032776
:102B10004FF0050882E8900169462248FFF790F8D7
:102B20008020CDE9000502AA694682E890011E488E
:102B3000FFF786F81E4D1D487F062860C5E9017421
:102B40004FF48068C5E903486C617812AC61C5E94F
:102B5000074028466C62FEF7C1FF08B1FEF7B1FBE3
:102B6000F564AE63124D114860351830E5E8020790
:102B70004020A5E81101C00245F81449AC61C5E93F
:102B800007400B486C626030FEF7A8FF08B1FEF703
:102B900098FBB564AE6306B0BDE8F081003001403B
:102BA00044380240000402400000024040640240F9
:102BB000E80700202DE9FF4F81B01D4693460446EB
:102BC0004FF001090E9EFFF739F9074694F85100BE
:102BD0006168012806D0B1F5827F3CD1A168C9BBEC
:102BE000042838D10298002871D0BBF1000FFBD027
:102BF000002DF9D094F8500001282CD04FF0010A94
:102C000084F850A094F85100042802D0052084F8DC
:102C100051004FF00008C4F85480C4F838B0E5877C
:102C2000A58702992163E586A586C4F84080C4F88B
:102C3000448020680168490603D4016841F04001DE
:102C40000160E068B0F5006F606808D0F0B3012D56
:102C500049D081E0FFE7022005B0BDE8F08F08B160
:102C6000012D39D1206B21680088C860206B801C41
:102C70002063E08E401EE0862EE020688168890790
:102C80000FD5E18E69B1B9F1010F0AD1216B098825
:102C9000C160206B801C2063E08E401EE0864FF0F8
:102CA000000920688168C9070CD0E18F51B1C06864
:102CB000A16B0880A06B801CA063E08F401EE087A2
:102CC0004FF00109FFF7BAF8C01B01E00BE067E025
:102CD000B04201D3701C50D1E08E0028CDD1E08FDE
:102CE0000028CAD13EE0206B216800780873206B71
:102CF000401C2063E08E401EE0862DE02068816845
:102D000089070FD5E18E69B1B9F1010F0AD1216BA5
:102D100009780173206B401C2063E08E401EE08622
:102D20004FF0000920688168C9070CD0E18F51B1CC
:102D3000C068A16B0870A06B401CA063E08F401EB0
:102D4000E0874FF00109FFF779F8C01BB04202D3CA
:102D5000701C01D011E086B1E08E0028CED1E08F4A
:102D60000028CBD13A463146204602F065FE50B1EC
:102D70002020606584F8508012E084F851A084F827
:102D80005080032068E7A06818B92068C16880688F
:102D9000009084F851A084F85080606D0028F1D034
:102DA000012059E710B5401EB0F1807F01D301200A
:102DB00010BD4FF0E02460610F21601703F075F93A
:102DC0000020A06107202061002010BD70477047DF
:102DD00070B590F83C20012A32D0012480F83C40A4
:102DE000022280F83D2003685A689D6822F0700630
:102DF0000A6832435A60134B02689A4214D0B2F107
:102E0000804F11D0104B9A420ED0104B9A420BD0EB
:102E10000F4B9A4208D00F4B9A4205D00E4B9A4264
:102E200002D00E4B9A4204D1496825F08003194321
:102E3000916080F83D40002180F83C10084670BD4C
:102E4000022070BD00000140000400400008004066
:102E5000000C004000040140004001400018004008
:102E600010B5040003D094F83D0010B107E0012034
:102E700010BD002084F83C00204600F01FF802201E
:102E800084F83D00211D206802F040FF012084F8F5
:102E9000460084F83E0084F83F0084F8400084F83F
:102EA000410084F8420084F8430084F8440084F828
:102EB000450084F83D00002010BD000008B5006802
:102EC000B0F1804F0CD01049884208D10F480168FA
:102ED00041F400310160006800F40030009008BD4A
:102EE0000A48001F016841F00101016000680022EA
:102EF00000F00100009005211C20FFF7B9FABDE8A1
:102F000008401C20FFF7A6BA0044014044380240A4
:102F100090F83D10012901D001207047022180F86E
:102F20003D1000681149884214D0B0F1804F11D093
:102F30000F4988420ED00F4988420BD00E49884273
:102F400008D00E49884205D00D49884202D00D496B
:102F5000884204D1816801F00701062903D0016885
:102F600041F00101016000207047000000000140B5
:102F70000004004000080040000C00400004014034
:102F8000004001400018004090F83D10012901D098
:102F900001207047022180F83D100168CA6842F0A4
:102FA0000102CA6000681149884214D0B0F1804F14
:102FB00011D00F4988420ED00E4988420BD00E49DD
:102FC000884208D00D49884205D00D49884202D078
:102FD0000C49884204D1816801F00701062903D019
:102FE000016841F0010101600020704700000140CC
:102FF0000004004000080040000C004000040140B4
:10300000004001400018004070B5044690F83C00B4
:103010000025012817D0012684F83C60022084F89E
:103020003D002068826822F0770222F47F428260AD
:103030000868502838D00DDC20284FD005DC90B32C
:10304000102811D14AE0022070BD302846D0402817
:103050000AD13BE060282FD070280DD0B0F5805FFA
:1030600003D0B0F5005F12D0012584F83D60002048
:1030700084F83C00284670BDCB68D1E90121206866
:1030800002F0B9FE2068816841F0770109E0CB6861
:10309000D1E90121206802F0AEFE2068816841F488
:1030A00080418160E1E719E0CA684968206802F060
:1030B000ABFF5021206806E0CA684968206802F02A
:1030C000B4FF6021206802F0A0FECEE7CA6849681C
:1030D000206802F099FF40212068F4E72268014649
:1030E0001046F0E770472DE9F04104460068C668D5
:1030F00005694FF00007A90713D5B10711D5F91ECF
:10310000016101202077206880698007204602D075
:10311000FFF7E8FF04E000F0A9F8204600F03BF9D3
:103120002777680716D5700714D521686FF004005B
:103130000861022020772068806910F4407F2046D3
:1031400002D0FFF7CFFF04E000F090F8204600F037
:1031500022F92777280715D5300713D521686FF096
:1031600008000861042020772068C0698007204695
:1031700002D0FFF7B7FF04E000F078F8204600F037
:103180000AF92777E80616D5F00614D521686FF0FE
:1031900010000861082020772068C06910F4407F83
:1031A000204602D0FFF79EFF04E000F05FF82046C3
:1031B00000F0F1F82777E80708D0F00706D021687B
:1031C0006FF001000861204600F04AF9280608D592
:1031D000300606D521686FF0800008612046FFF7B1
:1031E000F5FD680608D5700606D521686FF0400029
:1031F0000861204600F03BF9A8060AD5B00608D5BC
:1032000021686FF0200008612046BDE8F041FFF71B
:10321000DEBDBDE8F081000010B586B00446142183
:103220006846FDF784F90E492068884215D10D489B
:103230000021026842F020020260006800F02000D5
:103240000590402000900220CDE901010320CDE946
:10325000031069460448FEF7F3FC06B010BD0000F9
:10326000004401403038024000140240704770B5FD
:10327000044690F83C0000260D4601280FD001209E
:1032800084F83C006AB1042A1DD0082A2FD00C2AE9
:103290003FD00126002084F83C00304670BD02205B
:1032A00070BD206802F0EEFD2068816941F00801E0
:1032B00081612068816921F0040181612068816950
:1032C0002A69114311E0206802F00CFE2068816930
:1032D00041F4006181612068816921F4806181612C
:1032E000206881692A6941EA02218161D2E7206868
:1032F00002F02EFE2068C16941F00801C16120681A
:10330000C16921F00401C1612068C1692A691143C2
:1033100011E0206802F050FE2068C16941F40061AC
:10332000C1612068C16921F48061C1612068C169FF
:103330002A6941EA0221C161ACE710B5040003D05B
:1033400094F83D0010B107E0012010BD002084F882
:103350003C00204600F01EF8022084F83D00211DAC
:10336000206802F0D3FC012084F8460084F83E0077
:1033700084F83F0084F8400084F8410084F842005B
:1033800084F8430084F8440084F8450084F83D0044
:10339000002010BD7047704710B50446022249B1A5
:1033A00004290ED0082913D094F84100012816D022
:1033B000012010BD94F83E000128F9D184F83E2088
:1033C0000FE094F83F000128F2D184F83F2008E094
:1033D00094F840000128EBD184F8402001E084F803
:1033E00041200122206802F0F9FC16492068164AA3
:1033F000884201D0904203D1436C43F400434364BC
:103400002068884213D0B0F1804F10D00F49884215
:103410000DD00F4988420AD00E49884207D0904209
:1034200005D00D49884202D00C49884204D18168F8
:1034300001F00701062903D0016841F00101016094
:10344000002010BD000001400004014000040040C5
:1034500000080040000C00400040014000180040FF
:103460000068B0F1804F01D100F0CEBD70477047C9
:10347000FEE701684A69D24352050FD46FF48062B7
:103480004A61002140F8301F202242738173026993
:1034900042F004020261017301207047002070476E
:1034A0002DE9F84F0446006889460B9D016898464F
:1034B000174641F4806101602068016841F4807121
:1034C000016000954FF0011B0022594620460A9BDF
:1034D00000F0E4F84FF4007A40B120680068C005BD
:1034E00001D5C4F840A00320BDE8F88F216809F099
:1034F000FE0008612B46284920460A9A00F016F97A
:10350000F0BB20684169806900902A4620460A99EC
:1035100000F0A2F940B1206C04283AD1206801687B
:1035200041F40071016034E0FEB2B8F1010F09D03E
:103530002168380A08612A4620460A9900F08CF969
:103540000028E8D1206806612A4620460A9900F042
:1035500083F90028DFD12068016841F4807101609F
:1035600000950022594620460A9B00F097F8002853
:10357000B3D1216809F0FF0040F00100086100E0CC
:1035800007E02B46044920460A9A00F0CFF80028AD
:10359000AAD00120A8E70000020001002DE9F843AD
:1035A000044600680D46DDE908970168984616460E
:1035B00041F4807101604B4600224FF0011120461A
:1035C000009700F06BF848B120680068C00502D58C
:1035D0004FF4007020640320BDE8F883216805F0F3
:1035E000FE0008613B464A461549204600F09EF819
:1035F00088B920684169806900903A46494620466A
:1036000000F02AF948B1206C042804D12068016830
:1036100041F4007101600120DEE7F5B2B8F1010F5D
:1036200009D02168300A08613A464946204600F030
:1036300013F90028E7D1206805610020CCE70000DD
:103640000200010070B516460D4604461EE02046F5
:10365000FFF70FFF08B1012070BD681C16D0FEF700
:10366000EDFB801BA84200D885B920684069C043A3
:1036700040070BD5002044F8300F20216173A07360
:10368000216941F0200121612073E4E7206840694D
:10369000C0434007DBD4002070BD00002DE9F04797
:1036A000984617460D460446C1F30746DDF82090BC
:1036B0002AE000BFB8F1FF3F26D0FEF7BFFBA0EB2A
:1036C0000901414502D8B8F1000F1DD12068012E33
:1036D00016D0806925EA00000004000C12D00020FA
:1036E000B84211D1002044F8300F20216173A0733B
:1036F000216941F02001216120730120BDE8F0879C
:103700004069E7E70120EBE72068012E0AD08069D5
:1037100025EA00000004000C06D00020B842C9D001
:103720000020EBE74069F3E70120F7E72DE9F047D8
:10373000984616460D4604464FF000094FF0200A01
:10374000C1F3074723E020684069C043400515D412
:103750002068016841F40071016021686FF48060A5
:103760004861C4F8309084F83DA084F83E90216C04
:1037700041F00401216484F83C9021E0701C06D0E3
:10378000FEF75CFBA0EB0800B04203D816B1012F96
:103790001FD021E02068012F15D0806925EA0000A4
:1037A0000004000C18D000BF44F8309F84F80DA02E
:1037B00084F80E90216941F02001216184F80C9079
:1037C0000120BDE8F087406925EA00000004000CF4
:1037D000EAD12068406901E02068806925EA00009C
:1037E0000004000CAFD1ECE72DE9F0410025904634
:1037F0000E460446202728E04069C043C0060CD48A
:1038000054F8301B6FF01000486144F81059677786
:10381000A577206A2062257714E0FEF70FFBA0EB66
:103820000800B04200D886B920684069C04340060D
:103830000BD544F8305F6773A573206940F0200012
:10384000206125730120BDE8F08120684169C943EA
:103850004906D1D40020F6E770B516460D46044659
:103860001EE02046FFF705FE08B1012070BD681C70
:1038700016D0FEF7E3FA801BA84200D885B920686D
:103880004069C04300060BD5002044F8300F2021CA
:103890006173A073216941F0200121612073E4E785
:1038A00020684069C0430006DBD4002070BD0000E2
:1038B0000EB5072000E0642004F03EFCFDF7CEF9D1
:1038C0000028F8D102E0642004F036FC04F0CAFBC2
:1038D0000028F8D1804A101DCDE90102A2F110089C
:1038E00008F10401FDF7D2F94346A3F1340208F1CF
:1038F000480AA2F10C01A1F10C00CDF800A004F0DF
:103900003FFADFED760A9FED760A764A002108F14C
:10391000640000F0B1FEA8F13402A2F10C0101F143
:103920001800FCF7FDFEA8F14007A7F1180597ED78
:10393000000AA5F10C0685ED000AA5F1180986ED2F
:10394000000A89ED000A97ED010A002085ED010AC1
:1039500086ED010A89ED010A97ED020A85ED020A5A
:1039600086ED020A89ED020A04F0FAFC06F092F8EC
:103970005D4C5E4920611020C8610846FFF73CF8A5
:1039800008B1FDF79EFC584908222831A1F1080032
:1039900001F0DAFF012020714FF0FF3B5946012072
:1039A00005F0D8F90128F9D12078400708D520780A
:1039B00020F0040020704C4801992930FDF71EF9D1
:1039C000607840070BD5607820F004006070424AB0
:1039D00008F104011032A2F12A00FDF7C9F8A0781D
:1039E00040070CD5A07820F00400A0703E48029952
:1039F0001630FDF725FA98ED040A04F0BBFA364BB1
:103A0000CDF800A0103BA3F13402A2F10C01A1F10A
:103A10000C0004F0B5F9D6ED000A9FED350AC9EDAA
:103A2000000A95ED001A2C4B86ED001A61EE001A83
:103A30009FED301A97ED002A443B40EE811ADFEDEE
:103A40002E0AA3F1240202F10C0101F1240042EE3E
:103A5000201AC5ED001A96ED012A89ED012AD5ED4F
:103A6000011AC6ED011A61EE801A42EE011A97EDB5
:103A7000012A42EE201AC5ED011A96ED022A89EDBF
:103A8000022AD5ED021AC6ED021A21EE800A02EED4
:103A9000010A97ED021A01EE200A85ED020A9FED58
:103AA000170AFCF7A5FF0C4B203B1A1F111FA1F1B1
:103AB000100004F0EDF8E07810F00100E07007D09D
:103AC000E07820F00100E070E07840F00200E07063
:103AD000FDF7FAFB62E700004454002000808945AE
:103AE00000A08C45D8AC00081401002090070020ED
:103AF0005AF8F63F5D896EBFD5A9183B6F12833A1D
:103B0000030A0B701070704710B58EB00024079434
:103B1000089409940A940B941C2168460C94FCF7B1
:103B200006FD174815490160A721C0E901144FF6A9
:103B3000FF71C0E90314846102F0B8F84FF48050BB
:103B4000079007A90E48FFF75FFA0D48FFF7F5FB4E
:103B50000B940BA90A480C94FFF73AF96020CDE9C1
:103B6000000402940822694605480494FFF77FFB8D
:103B7000034802F053F90EB010BD000000080040E9
:103B8000EC5400200F4810B50D490160032141603D
:103B900000214FF420228160C0E903124FF480120B
:103BA0004261017641768176C17601774177FDF7F2
:103BB00038FE002803D0BDE81040FDF782BB10BDE1
:103BC00000640040EC0600200F4810B50D4901606C
:103BD0000321416000214FF420228160C0E90312DB
:103BE0004FF480124261017641768176C176017789
:103BF0004177FDF716FE002803D0BDE81040FDF721
:103C000060BB10BD00680040140700200D4808B5D7
:103C1000016841F4800101600068002200F4800026
:103C2000009005213A20FEF723FC3A20FEF712FC13
:103C3000002205213B20FEF71BFCBDE808403B208D
:103C4000FEF708BC3038024010B5154A02210520A5
:103C500004F0E0FA134C124A00216061B43A1248B1
:103C600004F038FB0E4A2060903A00210F4804F01F
:103C700031FB0B4A60606C3A00210D4804F02AFBCE
:103C8000074AA060483A00210A4804F023FB044A8E
:103C9000E060243A0021084804F01CFB206110BDBC
:103CA0008CAC000800000020615B0008715B00081C
:103CB000AD5B0008B13800089D7A00082DE9F0439B
:103CC00087B014216846FCF732FC60480025016883
:103CD00041F002010160016801F0020105910168F3
:103CE00041F001010160016801F0010105910168E5
:103CF00041F008010160016801F0080105910168C7
:103D000041F004010160016801F0040105910168BE
:103D100041F040010160016801F040010591016836
:103D200041F020010160016801F020010591016866
:103D300041F0800101600068DFF8148100F080002C
:103D40000590012240214046FEF772F8414F0022C3
:103D50004FF4E0513846FEF76BF83F4E0122102138
:103D60003046FEF765F8DFF8F49001221146484628
:103D7000FEF75EF801244020CDE900040294694674
:103D800040460394FDF75CFF4FF4C0508DE83100CE
:103D9000694638460395FDF753FF082000904FF41D
:103DA0008810CDE9010469464046FDF749FFA002AD
:103DB000CDE9000469463846CDE90245FDF740FFEC
:103DC0001020CDE90004022569463046CDE90245C0
:103DD000FDF736FF30204FF40416CDE900066946A2
:103DE00002941F48FDF72CFFCDE900466946404686
:103DF0000294FDF725FF0094694648460194CDE9F9
:103E00000245FDF71DFF002205210620FEF730FBCD
:103E10000620FEF71FFB002205210920FEF728FBE4
:103E20000920FEF717FB002205210A20FEF720FBE0
:103E30000A20FEF70FFB002205211720FEF718FBD2
:103E40001720FEF707FB07B0BDE8F08330380240CB
:103E500000180240001C0240000002400004024022
:103E6000000802400D4810B50B4901600C49416043
:103E700000214FF480428160C0E9031241618161F9
:103E8000C1610162FDF7E0FF002803D0BDE81040EA
:103E9000FDF717BA10BD0000005C00403C07002091
:103EA000801A0600104810B50E4901604FF4827167
:103EB0004160002102228160C0E9031201224261B7
:103EC000520282613822C0E90721416281620A21DF
:103ED000C162FEF791FD002803D0BDE81040FDF758
:103EE000F0B910BD003001409007002010B588B037
:103EF0001C216846FCF71BFB144813490024C0E949
:103F0000001441F28731C0E9024104618461FEF787
:103F1000A7FF08B1FDF7D5F90C48FFF70EFA08B175
:103F2000FDF7CFF96020CDE9000402940022694634
:103F300006480494FFF79BF908B1FDF7C2F903485E
:103F4000FFF76AF908B010BD00440140F0080020F6
:103F500010B586B00024174800940194029403948D
:103F600004944FF080410594016042F2CF01C0E912
:103F700001140921C0E9031480218161FEF770FF5B
:103F800008B1FDF79EF94FF480500090694609484A
:103F9000FFF73AF808B1FDF794F9049404A905482D
:103FA0000594FEF715FF002801D0FDF78AF906B049
:103FB00010BD0000A808002010B58AB004460020FB
:103FC0000121CDE906010590009001900290039037
:103FD00004900E20CDE9081069462046FDF70CFA42
:103FE00008B1FDF76EF92046FDF744FD08B1FDF775
:103FF00068F902212046FDF78FF9002801D0FDF76E
:1040000060F90AB010BD000010B5134C94ED010A20
:1040100000F086F8208832281AD994ED010ADFEDE5
:104020000F0A0F4930EE200A10EE100A84ED010A43
:10403000884202DD9FED0B0A06E010EE100A0A49E5
:10404000884203D99FED090A84ED010A00202080EF
:1040500080B2401C208010BD50000020000084422F
:1040600000003443000034C3000034C30000344374
:10407000FEE7000010B5DFED271A28482DED068B6E
:104080009FED258ADFED1F8A9FED1F9ADFED1F9AB6
:104090009FED1FAAF0EE683AB0EE493AF0EE692AB9
:1040A000B0EE4A2AB0EE481AF0EE480AB0EE480ADE
:1040B00000F00EFA1948B0EE683AF0EE492AB0EE78
:1040C000692AF0EE4A1AB0EE481AF0EE480AB2EE4B
:1040D0000E0A403000F026FAB0EE683AF0EE492AB7
:1040E000B0EE692AF0EE4A1AB0EE481AF0EE480A2D
:1040F000BDEC068BB3EE040A0848BDE810407430EE
:1041000000F010BA0000FA430000FAC300401C4659
:1041100000401CC60000C84200000000B809002092
:1041200010B510EE100A2DED028B06F05FFC41EC8D
:10413000100B00F0B3F851EC100B05F0B1FE08EED7
:10414000100A1248406806F051FC41EC100B242084
:1041500000F024F851EC100B05F0A2FE00EE100A5E
:104160000B48F0EE480A80ED000A0A4800F03CF9DE
:10417000BDEEC00ABDEC028B012110EE100ABDE8B5
:10418000104002B20448FDF770B800003809002062
:1041900058000020B8090020EC06002070B53B4C08
:1041A00005462DED048BB0EE408AF0EE608A94ED6A
:1041B000029A51EC180B05F073FEB5EEC09A064654
:1041C000F1EE10FA07D2B0EE480AF0EE680AA660E7
:1041D000BDEC048B70BD19EE100A06F007FC53EC21
:1041E000182B06F00DFB05F05BFE2949884202DD25
:1041F000E068401E04E02749884202D9E068401C7C
:10420000E060A66094ED030ADFED230AB8EEC00A71
:1042100020EE200A10EE100A06F0E8FB53EC182BF3
:1042200005F070FE41EC180B4FF4B47184ED048B73
:1042300005FB01F006F0B8F853EC182B06F0C8F8AF
:104240000DD9A5EB051000EB4000C00006F095F875
:1042500094ED041B53EC112B06F09CFA01D80020BE
:10426000E060284606F0A0F841EC100B53EC102B50
:1042700094ED040B51EC100B05F0F8FE41EC100B23
:1042800000F00CF884ED040BA2E7000038000020D9
:1042900000003443000034C30000B44310B52DEDDA
:1042A000048B9FED1A9BB0EE491AF0EE691A02F0EA
:1042B0002FF9B0EE408AF0EE608A9FED160B51ECBC
:1042C000180B53EC102B06F065FA07D253EC192BA0
:1042D00051EC180B06F0A0FA41EC180B9FED0F0BF8
:1042E00051EC180B53EC102B06F072F807D853EC76
:1042F000192B51EC180B05F005FE41EC180BB0EE34
:10430000480AF0EE680ABDEC048B10BD0000000006
:104310000080764000000000008066400000000041
:10432000008066C0FEE7000030EEC00A0849DFEDFD
:10433000090A10EE100A884202DD30EE600A70476A
:1043400010EE100A04498842F9D930EE200A70476D
:10435000000034430000B443000034C3B0EE401A00
:1043600090ED000A60EE011A90ED050A30EE010AA8
:1043700080ED050A90ED0D2AB4EEC20AF1EE10FAB6
:1043800006DC90ED0E2AB4EEC20AF1EE10FA01D26C
:1043900080ED052A90ED010A90ED052AD0ED062A60
:1043A00020EE020A71EE622A90ED022A31EE800AB6
:1043B00022EE222A30EE020A30EE200AD0ED0B0A5D
:1043C000F4EEC00AF1EE10FA06D3D0ED0C0AF4EECA
:1043D000C00AF1EE10FA01DDB0EE600A80ED061AB7
:1043E00080ED090A704700002DE9F04104002DED31
:1043F000048BB0EE609AF0EE408A22D094F83C0034
:1044000028B394ED0A0AF0EE490AFFF78DFFD4EDC8
:10441000030A2A4D9FED2A8A20EE800AF0EE480A10
:1044200085ED000AB0EE680A02F0F4F810EE100A0A
:10443000244E254F84ED080AB0420BDB30EE480ACB
:104440000EE09FED220ABDEC048BBDE8F08194EDF7
:10445000090AF8E710EE100AB84203D930EE080A4C
:1044600084ED080AF0EE480AB0EE490A02F0D2F8EC
:1044700010EE100A84ED070AB04202DB30EE480A63
:1044800005E010EE100AB84203D930EE080A84EDB8
:10449000070AF0EE400A94ED080AFFF745FF84EDA5
:1044A000040AD4ED070A2046C4ED0A0AD5ED000A35
:1044B000BDEC048BBDE8F041FFF750BF3400002095
:1044C0000000B44300003443000034C30000000087
:1044D00000B501000ED081ED0C2AC1ED0B2A81ED53
:1044E0000E3AC1ED0D3A81EC040A00F005F8012006
:1044F00081F83C0000BD000000280FD09FED080AA5
:1045000080ED040A80ED050A80ED060A80ED0A0AB6
:1045100080ED070A80ED080A80ED090A7047000067
:104520000000000080EC030A9FED080A80ED030AFA
:1045300080ED040A80ED050A80ED060A80ED070A89
:1045400080ED0C0A2030C0EC041A70470000000017
:10455000A0B1D0ED101AC0ED111A90ED0F1A80ED38
:10456000101AC0ED060A80ED070A30EEC00A80ED91
:104570000F0A017829B101293BD078E09FED3D0A6F
:104580007047D0ED010A60EE801AC0ED091AD0ED37
:104590000A0A90ED022A42EE000A30EE410AC0ED0E
:1045A0000A0A90ED0D2A80ED0E2A90ED0C2A80ED7E
:1045B0000D2A80ED0C0A90ED031A21EE001A80ED11
:1045C0000B1A90ED050AF4EEC00AF1EE10FA09DCC0
:1045D000B1EE400AF4EEC00AF1EE10FA02D390ED0B
:1045E0000A0A01E080ED0A0A31EE800A30EE010A83
:1045F0002BE070EE410A90ED012A20EE822A80ED38
:10460000092AD0ED020A60EE800AC0ED0A0AD0ED58
:104610000D2A72EE200AC0ED0E2AD0ED0C2AC0ED54
:104620000D2AF0EE002A01EE620A30EE210A80ED3A
:104630000C0A90ED031A21EE000A80ED0B0A30EE11
:10464000800AD0ED080A30EE200A80ED080AD0ED8D
:10465000040AB4EEE00AF1EE10FA06DCF1EE600AAC
:10466000B4EEE00AF1EE10FA01D2C0ED080A90EDC6
:10467000080A704700000000002828D0002A26D031
:10468000017092ED001A80ED011A92ED011A80ED91
:10469000021A92ED021A80ED031A80ED040A9FEDD2
:1046A0000C0AC0ED050A80ED0E0A80ED0D0A80EDC2
:1046B0000C0A80ED080A80ED0B0A80ED0A0A80EDF5
:1046C000090A80ED110A80ED100A80ED0F0A70478B
:1046D000000000002DE9F74FF84981B00868026832
:1046E00022F001020260F6480268136823F0010319
:1046F000136003E00A6822F001020A60EF490968CA
:104700000A68D207F6D103E0016821F001010160D7
:10471000EB4800680168C907F6D1EA48EA4AEB4B62
:10472000D0F84C90E84CE94DE74EE84FDFF898E3BD
:10473000DFF894C3D9F80000E449483A60331834EC
:104740001835303E78374FF4006A0CF1300C704564
:1047500035D9884205D0904203D0984201D0A0427A
:1047600001D1202026E0A84205D0B04203D0B842B3
:1047700001D0604501D150461CE0DFF8508308F1BC
:104780003008404511D0DFF84083A8F118084045B3
:104790000BD0DFF8388308F19008404505D0DFF8EA
:1047A000288308F14808404502D14FF4001001E089
:1047B0004FF00060DFF81083A8F14C083AE0DFF812
:1047C0000C8308F1A808404537D9884205D09042AB
:1047D00003D0984201D0A04201D1202026E0A84277
:1047E00005D0B04203D0B84201D0604501D1504657
:1047F0001CE0DFF8D88208F13008404511D0DFF81E
:10480000C882A8F1180840450BD0DFF8C08208F133
:104810009008404505D0DFF8B08208F148084045CF
:1048200002D14FF4001001E04FF00060DFF89882F1
:10483000A8F15008C8F8000074E0DFF8908208F191
:104840004808404537D9884205D0904203D0984265
:1048500001D0A04201D1202026E0A84205D0B042DC
:1048600003D0B84201D0604501D150461CE0DFF8CA
:104870005C8208F13008404511D0DFF84C82A8F185
:10488000180840450BD0DFF8448208F190084045F5
:1048900005D0DFF8348208F14808404502D14FF4D2
:1048A000001001E04FF00060DFF82082A8F110084E
:1048B000C8F80C0036E0884205D0904203D09842F8
:1048C00001D0A04201D1202026E0A84205D0B0426C
:1048D00003D0B84201D0604501D150461CE0DFF85A
:1048E000EC8108F13008404511D0DFF8DC81A8F1F7
:1048F000180840450BD0DFF8D48108F190084045F6
:1049000005D0DFF8C48108F14808404502D14FF4D2
:10491000001001E04FF00060DFF8B081A8F110084E
:10492000C8F80800D9F800004FF4806B704535D9FD
:10493000884205D0904203D0984201D0A04201D1D4
:10494000102026E0A84205D0B04203D0B84201D0E2
:10495000604501D158461CE0DFF8708108F130084D
:10496000404511D0DFF86081A8F1180840450BD010
:10497000DFF8588108F19008404505D0DFF84881FC
:1049800008F14808404502D14FF4801001E04FF093
:104990008060DFF83481A8F14C083AE0DFF82C8120
:1049A00008F1A808404537D9884205D0904203D085
:1049B000984201D0A04201D1102026E0A84205D0A3
:1049C000B04203D0B84201D0604501D158461CE046
:1049D000DFF8F88008F13008404511D0DFF8E880B2
:1049E000A8F1180840450BD0DFF8E08008F19008E6
:1049F000404505D0DFF8D08008F14808404502D195
:104A00004FF4801001E04FF08060DFF8BC80A8F127
:104A10005008C8F800007AE0DFF8B08008F14808D4
:104A2000404537D9884205D0904203D0984201D002
:104A3000A04201D1102026E0A84205D0B04203D008
:104A4000B84201D0604501D158461CE0DFF87C80B7
:104A500008F13008404511D0DFF86C80A8F1180843
:104A600040450BD0DFF8648008F19008404505D040
:104A7000DFF8548008F14808404502D14FF4801017
:104A800001E04FF08060DFF84480A8F11008C8F81A
:104A90000C003CE0884205D0904203D0984201D0FF
:104AA000A04201D110202CE0A84205D0B04203D092
:104AB000B84201D060450BD1584622E0E8070020FB
:104AC000480800209007002058640240106002400F
:104AD000DFF8688940450FD0DFF8648940450BD086
:104AE000DFF8588908F16008404505D0DFF85089A3
:104AF00008F16008404502D14FF4801001E04FF00A
:104B00008060DFF83889A8F14008C8F80800D9F8B3
:104B10000000704532D9884205D0904203D09842B7
:104B200001D0A04201D1082023E0A84205D0B04224
:104B300003D0B84201D0604502D14FF4007018E0B4
:104B4000DFF8F88840450FD0DFF8F48840450BD0F7
:104B5000DFF8E88808F16008404505D0DFF8E08814
:104B600008F16008404502D14FF4002001E04FF009
:104B70000070DFF8CC88A8F1340837E0DFF8BC8893
:104B800008F17808404534D9884205D0904203D0D6
:104B9000984201D0A04201D1082023E0A84205D0CC
:104BA000B04203D0B84201D0604502D14FF400704A
:104BB00018E0DFF8888840450FD0DFF8848840454A
:104BC0000BD0DFF8788808F16008404505D0DFF8A1
:104BD000708808F16008404502D14FF4002001E0E0
:104BE0004FF00070DFF85888A8F13808C8F80000C6
:104BF0006EE0DFF8488808F11808404534D988424B
:104C000005D0904203D0984201D0A04201D10820A3
:104C100023E0A84205D0B04203D0B84201D060459D
:104C200002D14FF4007018E0DFF8108840450FD033
:104C3000DFF80C8840450BD0DFF8008808F16008E9
:104C4000404505D0DFF8F88708F16008404502D1FB
:104C50004FF4002001E04FF00070DFF8E087A8F18A
:104C60004008C8F80C0033E0884205D0904203D0D9
:104C7000984201D0A04201D1082023E0A84205D0EB
:104C8000B04203D0B84201D0604502D14FF4007069
:104C900018E0DFF8A88740450FD0DFF8A48740452B
:104CA0000BD0DFF8988708F16008404505D0DFF8A1
:104CB000908708F16008404502D14FF4002001E0E0
:104CC0004FF00070DFF87487A8F14008C8F80800BA
:104CD000DFF86C87D9F8000008F118084FF4807EDF
:104CE000404531D9884205D0904203D0984201D046
:104CF000A04201D1042022E0A84205D0B04203D056
:104D0000B84201D0604501D1704618E0DFF82C8729
:104D100040450FD0DFF8288740450BD0DFF81C87CF
:104D200008F16008404505D0DFF8148708F16008F5
:104D3000404502D14FF4802001E04FF08070DFF851
:104D40000087A8F1340836E0DFF8F08608F178082B
:104D5000404533D9884205D0904203D0984201D0D3
:104D6000A04201D1042022E0A84205D0B04203D0E5
:104D7000B84201D0604501D1704618E0DFF8BC862A
:104D800040450FD0DFF8B88640450BD0DFF8AC8641
:104D900008F16008404505D0DFF8A48608F16008F6
:104DA000404502D14FF4802001E04FF08070DFF8E1
:104DB0009086A8F13808C8F800006CE0DFF87C861F
:104DC00008F11808404533D9884205D0904203D0F5
:104DD000984201D0A04201D1042022E0A84205D08F
:104DE000B04203D0B84201D0604501D1704618E00E
:104DF000DFF8488640450FD0DFF8448640450BD0A9
:104E0000DFF8388608F16008404505D0DFF83086C5
:104E100008F16008404502D14FF4802001E04FF0D6
:104E20008070DFF81886A8F14008C8F80C0032E05E
:104E3000884205D0904203D0984201D0A04201D1CF
:104E4000042022E0A84205D0B04203D0B84201D0ED
:104E5000604501D1704618E0DFF8E08540450FD08D
:104E6000DFF8DC8540450BD0DFF8D08508F160081D
:104E7000404505D0DFF8C88508F16008404502D1FB
:104E80004FF4802001E04FF08070DFF8B085A8F18A
:104E90004008C8F80800DFF8A885D9F8000008F134
:104EA00018084FF48039404530D9884205D09042E7
:104EB00003D0984201D0A04201D1012021E0A842B4
:104EC00005D0B04203D0B84201D0604501D14020A6
:104ED00017E0DFF8688540450FD0DFF8648540456E
:104EE0000BD0DFF8588508F16008404505D0DFF8A1
:104EF000508508F16008404501D1484601E04FF473
:104F00008000DFF83C85A8F1340835E0DFF82C8517
:104F100008F17808404532D9884205D0904203D044
:104F2000984201D0A04201D1012021E0A84205D041
:104F3000B04203D0B84201D0604501D1402017E013
:104F4000DFF8F88440450FD0DFF8F48440450BD0FB
:104F5000DFF8E88408F16008404505D0DFF8E08418
:104F600008F16008404501D1484601E04FF4800057
:104F7000DFF8CC84A8F13808C8F800006AE0DFF850
:104F8000BC8408F11808404532D9884205D09042C7
:104F900003D0984201D0A04201D1012021E0A842D3
:104FA00005D0B04203D0B84201D0604501D14020C5
:104FB00017E0DFF8888440450FD0DFF8848440454F
:104FC0000BD0DFF8788408F16008404505D0DFF8A1
:104FD000708408F16008404501D1484601E04FF473
:104FE0008000DFF85884A8F14008C8F80C0031E0D0
:104FF000884205D0904203D0984201D0A04201D10E
:10500000012021E0A84205D0B04203D0B84201D02F
:10501000604501D1402017E0DFF8208440450FD0E3
:10502000DFF81C8440450BD0DFF8108408F16008DD
:10503000404505D0DFF8088408F16008404501D1FB
:10504000484601E04FF48000DFF8F083A8F1400803
:10505000C8F80800FB48DFF8E883806C009008F18E
:1050600018080068404531D9884205D0904203D0E5
:10507000984201D0A04201D1202022E0A84205D0D0
:10508000B04203D0B84201D0604501D1504618E08B
:10509000DFF8A88340450FD0DFF8A48340450BD04C
:1050A000DFF8988308F16008404505D0DFF8908369
:1050B00008F16008404502D14FF4001001E04FF0C4
:1050C0000060DFF87C83A8F1340836E0DFF86C83F9
:1050D00008F17808404533D9884205D0904203D082
:1050E000984201D0A04201D1202022E0A84205D060
:1050F000B04203D0B84201D0604501D1504618E01B
:10510000DFF8388340450FD0DFF8348340450BD0BB
:10511000DFF8288308F16008404505D0DFF82083D8
:1051200008F16008404502D14FF4001001E04FF053
:105130000060DFF80C83A8F13808C8F800006CE0C4
:10514000DFF8F88208F11808404533D9884205D0C5
:10515000904203D0984201D0A04201D1202022E009
:10516000A84205D0B04203D0B84201D0604501D179
:10517000504618E0DFF8C48240450FD0DFF8C08207
:1051800040450BD0DFF8B48208F16008404505D0F7
:10519000DFF8AC8208F16008404502D14FF40010FE
:1051A00001E04FF00060DFF89482A8F14008C8F8F1
:1051B0000C0032E0884205D0904203D0984201D0E2
:1051C000A04201D1202022E0A84205D0B04203D065
:1051D000B84201D0604501D1504618E0DFF85C824A
:1051E00040450FD0DFF8588240450BD0DFF84C82A5
:1051F00008F16008404505D0DFF8448208F16008F6
:10520000404502D14FF4001001E04FF00060DFF89C
:105210002C82A8F14008C8F808000098DFF820A206
:1052200000680AF1180A504531D9884205D09042E9
:1052300003D0984201D0A04201D1102022E0A84220
:1052400005D0B04203D0B84201D0604501D15846E4
:1052500018E0DFF8E88140450FD0DFF8E4814045F1
:105260000BD0DFF8D88108F16008404505D0DFF8A1
:10527000D08108F16008404502D14FF4801001E070
:105280004FF08060DFF8B881A8F1340836E0DFF82D
:10529000AC8108F17808404533D9884205D0904266
:1052A00003D0984201D0A04201D1102022E0A842B0
:1052B00005D0B04203D0B84201D0604501D1584674
:1052C00018E0DFF8788140450FD0DFF87481404561
:1052D0000BD0DFF8688108F16008404505D0DFF8A1
:1052E000608108F16008404502D14FF4801001E070
:1052F0004FF08060DFF84881A8F13808C8F8000056
:105300006CE0DFF8388108F11808404533D988424D
:1053100005D0904203D0984201D0A04201D1102084
:1053200022E0A84205D0B04203D0B84201D0604587
:1053300001D1584618E0DFF8048140450FD0DFF86E
:10534000008140450BD0DFF8F48008F1600840454B
:1053500005D0DFF8EC8008F16008404502D14FF439
:10536000801001E04FF08060DFF8D080A8F14008A5
:10537000C8F80C0032E0884205D0904203D0984231
:1053800001D0A04201D1102022E0A84205D0B042B5
:1053900003D0B84201D0604501D1584618E0DFF88B
:1053A0009C8040450FD0DFF8988040450BD0DFF857
:1053B0008C8008F16008404505D0DFF8848008F152
:1053C0006008404502D14FF4801001E04FF080604A
:1053D000DFF86880A8F14008C8F808000098006865
:1053E000504536D9884205D0904203D0984201D02A
:1053F000A04201D1082029E0A84205D0B04203D044
:10540000B84201D0604502D14FF400701EE0DFF8D1
:105410002C8040450FD0DFF8288040450BD0DFF8C6
:105420001C8008F16008404505D0DFF8148008F1C1
:105430006008404508D14FF4002007E0406002407A
:1054400040640240900700204FF00070DFF8E884CD
:1054500039E0DFF8E884404538D9884205D09042E9
:1054600003D0984201D0A04201D1082027E0A842F1
:1054700005D0B04203D0B84201D0604502D14FF40C
:1054800000701CE0DFF8B484A8F17808404511D022
:10549000DFF8A48408F1340840450BD0DFF89C8481
:1054A000A8F11808404505D0DFF88C8408F194086D
:1054B000404502D14FF4002001E04FF00070DFF8CA
:1054C0007884A8F10408C8F8000076E0DFF86C845E
:1054D000A8F16008404538D9884205D0904203D0F1
:1054E000984201D0A04201D1082027E0A84205D06F
:1054F000B04203D0B84201D0604502D14FF40070F1
:105500001CE0DFF83884A8F17808404511D0DFF8B6
:10551000288408F1340840450BD0DFF82084A8F136
:105520001808404505D0DFF8108408F1940840457C
:1055300002D14FF4002001E04FF00070DFF8FC834F
:10554000A8F1B808C8F80C0037E0884205D09042AE
:1055500003D0984201D0A04201D1082027E0A84200
:1055600005D0B04203D0B84201D0604502D14FF41B
:1055700000701CE0DFF8C483A8F17808404511D022
:10558000DFF8B48308F1340840450BD0DFF8AC8372
:10559000A8F11808404505D0DFF89C8308F194086D
:1055A000404502D14FF4002001E04FF00070DFF8D9
:1055B0008C83A8F1B808C8F8080000980068504526
:1055C00033D9884205D0904203D0984201D0A042FE
:1055D00001D1042026E0A84205D0B04203D0B84251
:1055E00001D0604501D170461CE0DFF85083A8F17E
:1055F0007808404511D0DFF8408308F13408404571
:105600000BD0DFF83883A8F11808404505D0DFF843
:10561000288308F19408404502D14FF4802001E02E
:105620004FF08070DFF8108338E0DFF810834045DA
:1056300037D9884205D0904203D0984201D0A04289
:1056400001D1042026E0A84205D0B04203D0B842E0
:1056500001D0604501D170461CE0DFF8E082A8F17E
:105660007808404511D0DFF8D08208F13408404571
:105670000BD0DFF8C882A8F11808404505D0DFF844
:10568000B88208F19408404502D14FF4802001E02F
:105690004FF08070DFF8A082A8F10408C8F800007D
:1056A00074E0DFF89882A8F16008404537D9884255
:1056B00005D0904203D0984201D0A04201D10420ED
:1056C00026E0A84205D0B04203D0B84201D06045E0
:1056D00001D170461CE0DFF86482A8F178084045EB
:1056E00011D0DFF8548208F1340840450BD0DFF8C0
:1056F0004C82A8F11808404505D0DFF83C8208F13B
:105700009408404502D14FF4802001E04FF08070B2
:10571000DFF82882A8F1B808C8F80C0036E0884203
:1057200005D0904203D0984201D0A04201D104207C
:1057300026E0A84205D0B04203D0B84201D060456F
:1057400001D170461CE0DFF8F481A8F178084045EB
:1057500011D0DFF8E48108F1340840450BD0DFF8C0
:10576000DC81A8F11808404505D0DFF8CC8108F1AC
:105770009408404502D14FF4802001E04FF0807042
:10578000DFF8B881A8F1B808C8F8080000980068E8
:10579000504529D9884205D0904203D0984201D083
:1057A000A04201D101201DE0A84205D0B04203D0A3
:1057B000B84201D0604501D1402013E05F497839FB
:1057C00088420BD05C493431884207D05B49183994
:1057D000884203D058499431884201D1484601E0BB
:1057E0004FF4800054492DE0DFF8508140452BD91B
:1057F000884205D0904203D0984201D0A04201D106
:1058000001201DE0A84205D0B04203D0B84201D02B
:10581000604501D1402013E04849783988420BD0D7
:1058200045493431884207D044491839884203D069
:1058300041499431884201D1484601E04FF480004B
:105840003D49091F08605CE0DFF8F080A8F16008BE
:1058500040452BD9884205D0904203D0984201D0D0
:10586000A04201D101201DE0A84205D0B04203D0E2
:10587000B84201D0604501D1402013E02F4978396A
:1058800088420BD02C493431884207D02B49183933
:10589000884203D028499431884201D1484601E02A
:1058A0004FF480002549B839C8602AE0884205D005
:1058B000904203D0984201D0A04201D101201DE0C6
:1058C000A84205D0B04203D0B84201D0604501D112
:1058D000402013E01949783988420BD016493431F9
:1058E000884207D015491839884203D012499431AB
:1058F000884201D1484601E04FF480000F49B83991
:1059000088600F4802990268D1600E49019A0B68BD
:10591000DA600368039A5A600B68039A5A60006859
:10592000026842F0010202600868016841F001016A
:105930000160BDE8FF8F00000C640240B8600240C7
:10594000E8070020480800202DE9F04F834634483E
:1059500003685C6844F002045C6003685C6844F0BF
:1059600001045C600068036843F0400303602D4855
:1059700003681C6824F001041C6003681C68E407C9
:10598000F7D1294E294C284D4C3EDFF8A0A0274FD7
:10599000B83C4FF4001CA6F10409AAF1600AAB421E
:1059A00002D9C6F800C00BE0BB4202D9C9F800C05A
:1059B00006E0534502D9C4F80CC001E0C4F808C0A1
:1059C000DFF86CC0C3F808C00368D96001684A609A
:1059D0000068016841F010010160164801680B6819
:1059E00023F001030B6001680B68DB07F7D14FF070
:1059F0000063A94201D9336009E0B94202D9C9F86C
:105A0000003004E0514501D9E36000E0A360C1F833
:105A100008C00368C3F80CB000684260BDE8F08FAE
:105A200090070020E807002058640240B860024058
:105A30000C30014048080020F8B515460E460B46CC
:105A4000009204460122022100F02CF8A0B913486C
:105A500013490068B0FBF1F04FF47A7148430090AD
:105A60006068B0F5827F0DD1334600228021204648
:105A7000009500F017F870B1606D40F0200060658F
:105A80000320F8BD009830B1401E00902068806867
:105A9000C0430006F6D50020F8BD00002800002015
:105AA00000366E012DE9F8431E46914688460446AD
:105AB000089DFCF7C3F9401B351AFCF7BFF90746F0
:105AC00026480068C0F3CB3068430AE0701C09D058
:105AD000FCF7B4F9C01BA8420FD275B10098B8B357
