:020000040800F2
:100000005070002029030008DD520008E941000873
:10001000A54D0008DD0E0008617600080000000014
:10002000000000000000000000000000690200085D
:100030003115000800000000C5020008E16D00084D
:100040004303000843030008430300084303000878
:100050004303000843030008331600084303000865
:1000600043030008391600083F1600084303000840
:10007000BD110008430300084303000843030008C0
:100080004303000843030008430300084303000838
:10009000E10E0008ED0E00084303000845160008B5
:1000A0004303000843030008430300084303000818
:1000B000A16E00084303000843030008430300083F
:1000C00043030008430300084303000843030008F8
:1000D0004303000843030008430300085576000863
:1000E00043030008430300084303000843030008D8
:1000F00043030008430300084303000843030008C8
:1001000043030008430300084303000843030008B7
:1001100043030008430300084303000843030008A7
:100120004303000843030008C91100084303000803
:100130004303000843030008430300084303000887
:10014000F90E0008050F00084303000843030008E8
:100150004303000843030008430300084303000867
:100160004303000843030008430300084303000857
:100170004303000843030008430300080000000095
:10018000430300084303000800F002F800F05CF8A5
:100190000AA090E8000C82448344AAF10107DA45E2
:1001A00001D100F051F8AFF2090EBAE80F0013F0D8
:1001B000010F18BFFB1A43F00103184758C4000091
:1001C00078C400000A444FF0000C10F8013B13F013
:1001D000070408BF10F8014B1D1108BF10F8015BA0
:1001E000641E05D010F8016B641E01F8016BF9D193
:1001F00013F0080F1EBF10F8014BAD1C0C1B09D1EA
:100200006D1E58BF01F801CBFAD505E014F8016B5B
:1002100001F8016B6D1EF9D59142D6D370470000ED
:100220000023002400250026103A28BF78C1FBD8FF
:10023000520728BF30C148BF0B6070471FB50BF095
:1002400064FF1FBD10B510BD00F002FA1146FFF7A4
:10025000F5FF09F01BFB00F020FA03B4FFF7F2FFF3
:1002600003BC00F023FA00002C4B19680868B0E8C2
:10027000F04F80F30988BFF36F8F4FF0000080F3D9
:10028000118870470000000008480068006880F38B
:1002900008884FF0000080F3148862B661B6BFF39F
:1002A0004F8FBFF36F8F00DF00BF00BF08ED00E08E
:1002B000DFF80C00016841F470010160704700BF75
:1002C00088ED00E0EFF30980BFF36F8F134B1A68DE
:1002D0001EF0100F08BF20ED108A20E9F04F1060CB
:1002E00009B44FF0500080F31188BFF34F8FBFF374
:1002F0006F8F0AF04BFB4FF0000080F3118809BCB0
:1003000019680868B0E8F04F1EF0100F08BFB0EC95
:10031000108A80F30988BFF36F8F70474800002070
:10032000EFF30580704700000948804709480047FF
:10033000FEE7FEE7FEE7FEE7FEE7FEE7FEE7FEE795
:10034000FEE7FEE704480549054A064B70470000F2
:10035000916E000889010008506A0020507000204A
:10036000506C0020506C002053EA020C00F06980B1
:100370002DE9F04B4FF00006002B1FBFB3FA83F5B9
:1003800003FA05F424FA05F65E4012BF1643B2FAEA
:1003900082F502FA05F4C5F120051EBF22FA05FC1C
:1003A00044EA0C04203556EA044C4FEA144418BFC2
:1003B000641C4FF000084FF00009904271EB030CF1
:1003C00039D3002919BFB1FA81F701FA07F6B0FA5B
:1003D00080F700FA07F6C7F120071EBF20FA07FCD6
:1003E00046EA0C062037B6FBF4FCA7EB0507103FE6
:1003F00007F01F0BCBF120060CFA0BFB2CFA06F6CC
:1004000044BFB3460026202FA4BF5E464FF0000B2A
:100410005BEA060C08BF4FF0010B19EB0B09ABFBB5
:10042000027C48EB0608C01B06FB02CC0BFB03CC8E
:1004300071EB0C01C1E70B46024641464846BDE858
:10044000F08B13B54FF000004FF00001AFF30080C8
:10045000BDE81C40704710B5431C02E010F8011BBA
:1004600071B18107FAD14FF0013202C88C1A8C4366
:1004700014EAC211F9D0C01A0A0603D0C01E10BD7A
:10048000C01A10BD0A0401D0801E10BD0902FCD0A4
:10049000401E10BD032A40F2308010F0030C00F023
:1004A000158011F8013BBCF1020F624498BF11F8AE
:1004B00001CB00F8013B38BF11F8013BA2F1040267
:1004C00098BF00F801CB38BF00F8013B11F00303DF
:1004D00000F08480083AC0F0088051F8043B083AE4
:1004E00051F804CBA0E80810F5E7121D5CBF51F8E5
:1004F000043B40F8043BAFF30080D20724BF11F85F
:10050000013B11F801CB48BF11F8012B24BF00F8C3
:10051000013B00F801CB48BF00F8012B704702F007
:10052000FF0343EA032242EA024200F002B84FF01E
:1005300000020429C0F0128010F0030C00F01B80B0
:10054000CCF1040CBCF1020F18BF00F8012BA8BFBE
:1005500020F8022BA1EB0C0100F00DB85FEAC17C82
:1005600024BF00F8012B00F8012B48BF00F8012B35
:1005700070474FF0000200B5134694469646203966
:1005800022BFA0E80C50A0E80C50B1F12001BFF44C
:10059000F7AF090728BFA0E80C5048BF0CC05DF8B2
:1005A00004EB890028BF40F8042B08BF704748BF00
:1005B00020F8022B11F0804F18BF00F8012B704774
:1005C00070477047704710B500F03AF8006810BDEA
:1005D00010B5044600F034F8046010BD10B5203AA0
:1005E000C0F00B80B1E81850203AA0E81850B1E8EC
:1005F0001850A0E81850BFF4F5AF5FEA027C24BFA2
:10060000B1E81850A0E8185044BF18C918C0BDE898
:1006100010405FEA827C24BF51F8043B40F8043B61
:1006200008BF7047D20728BF31F8023B48BF11F816
:10063000012B28BF20F8023B48BF00F8012B704770
:1006400000487047EC69002000487047EC690020C2
:100650007546FFF7F9FFAE4605006946534620F0A0
:100660000700854618B020B5FFF76CFEBDE82040B6
:100670004FF000064FF000074FF000084FF0000B5E
:1006800021F00701AC46ACE8C009ACE8C009ACE811
:10069000C009ACE8C0098D46704710B50446AFF3F9
:1006A00000802046BDE81040FFF7D7BD0149182063
:1006B000ABBEFEE726000200704707F00DB807F05A
:1006C000A1B810B510EE100A0BF0AEFC41EC100B07
:1006D00007F0C2F951EC100B0AF000FF00EE100A0F
:1006E00010BDF0EE400AF5EEC00AF1EE10FA02DDA0
:1006F000B0EE600A7047B1EE600AFBE7002803D055
:100700009FED020A80ED000A704700000000000023
:10071000002803D0B3EE060A80ED000A70470000FF
:1007200070B52DED0C8B84B006460C4615469FED3A
:10073000990AF0EE408A9FED970AB0EE409A9FED3D
:10074000950AF0EE40BA9FED930AF0EE409A9FEDC5
:10075000910AB0EE40AA0EB104B11DB904B0BDECCF
:100760000C8B70BD8C48FFF7C9FF8C48FFF7D0FF9A
:100770008A48D0ED000A9FED8A1A60EE810AB0EE39
:10078000600A00F025F9F0EE408A28EEA80AF0EEA3
:10079000408A8248D0ED000AB0EE001A60EE810A6D
:1007A0009FED7F1A60EE810AB0EE600A00F010F94A
:1007B000B0EE409A29EE090AB0EE409ADFED790AD0
:1007C000B7EE000A00EEA80ADFED770A00EEC90ACC
:1007D000DFED760A20EE200A754880ED000A6E48AB
:1007E00090ED000ADFED730A80EE201AB7EE000AE2
:1007F00031EE000A20EE000A6D48D0ED000A80EECE
:10080000801A6D4880ED001A94ED000AB5EEC00A1A
:10081000F1EE10FA0DD194ED010AB5EEC00AF1EE39
:1008200010FA06D194ED020AB5EEC00AF1EE10FA04
:1008300046D09FED580AB0EE408A00200190029009
:100840000390D4ED000A60EEA00A94ED011AD4EDF5
:10085000011A41EE210A94ED021AD4ED021A41EE7A
:10086000210AB0EE600A00F0A9F8B0EE408A94EDDB
:10087000000A20EE080A8DED010A94ED010A20EE2F
:10088000080A8DED020A94ED020A20EE080A8DEDA9
:10089000030ADDED010AF1EE600AB0EE600AFFF72F
:1008A0000CFFF0EE409A9DED031AF0EE410A9DED2B
:1008B000021AB0EE410AFFF702FFB0EE40AA07E0CD
:1008C0009FED340AF0EE409A9FED320AB0EE40AA56
:1008D00095ED000AB5EEC00AF1EE10FA0DD195EDD6
:1008E000010AB5EEC00AF1EE10FA06D195ED020A42
:1008F000B5EEC00AF1EE10FA3CD0B0EE690A00F095
:1009000067F8B0EE408AB0EE690AFFF7DAFEB0EEA3
:1009100040DAB0EE4A0A00F05BF8F0EE40AAB0EE22
:100920004A0AFFF7CEFEB0EE40BA28EE2A0AD5ED0D
:10093000010A20EE200AD5ED000A0DEE200A68EE2D
:100940000B0A95ED021A00EE810AB0EE40CA95ED51
:10095000010A20EE0B0AD5ED020A0AEEE00AF0EEDB
:1009600040CAF0EE6C0AB0EE4C0AFFF7A8FEF0EEBB
:1009700040BA03E09FED070AF0EE40BAB0EE4A1A23
:10098000F0EE690AB0EE6B0A304608F001F800BFDD
:10099000E4E6000000000000E0010020E401002087
:1009A00035FA8E3CC1BFAD3B9DF8C5362F7C1C414E
:1009B000E8010020506CC24AEC01002010B507F09D
:1009C000EFF9B7EE001AC1EE000AB0EE600A10BDF2
:1009D00010B510EE100A0BF027FB41EC100B07F0DE
:1009E0007BF951EC100B0AF079FD00EE100A10BDF6
:1009F0002DE9F0412DED028B9AB00546B0EE408A0C
:100A00000E4617469846002017901890199014909B
:100A1000159016904DB146B13FB1B8F1000F04D01A
:100A2000B5EEC08AF1EE10FA05D100201AB0BDEC87
:100A3000028BBDE8F08196ED000A8DED170A96ED68
:100A4000010A8DED180A96ED020A8DED190A97ED4F
:100A5000000A8DED140A97ED010A8DED150A97ED48
:100A6000020A8DED160A17AA14A9284607F0E2FD1E
:100A7000402104A8FFF77DFD002000900190029026
:100A80000390002417A904A809F0FCFC00BF30E083
:100A900004A800EB041090ED000AD5ED000A20EE4A
:100AA000200A04A800EB0410D0ED010A95ED011A0C
:100AB00000EE810A04A800EB0410D0ED020A95EDC7
:100AC000021A00EE810A04A800EB0410D0ED030A1C
:100AD00095ED031A00EE810A20EE080AF0EE000AF6
:100AE00080EE201A684600EB840080ED001A601C3E
:100AF000C4B2042CCCDB002410E005EB840090EDA4
:100B0000000A684600EB8400D0ED000A30EE200AAF
:100B100005EB840080ED000A601CC4B2042CECDB01
:100B2000284609F019FC012080E7000030B190ED63
:100B3000011AB5EEC01AF1EE10FA01D80020704784
:100B4000B0F9081000EE901AF8EEE01AC1EE810A32
:100B500020EE200ABDEEC00A10EE100A814200DA33
:100B600008464942814200DD0846B0F5004F02DBED
:100B700047F6FF7003E00349884200DA084600B2F6
:100B8000704700000080FFFF01221021014801F0A2
:100B90007DBC00000000024000221021014801F04D
:100BA00075BC0000000002407047000001221146A1
:100BB000014801F06BBC000000040240002201214A
:100BC000014801F063BC00000004024030B54378E6
:100BD00004781B021BB2234300EE103A194CB8EE06
:100BE000C00AD4ED000A20EE200A81ED000AC37885
:100BF00085781B021BB22B4300EE103AD4ED000A9D
:100C0000B8EEC00A20EE200A81ED010A437904798A
:100C10001B021BB2234300EE103AB8EEC00A20EECE
:100C2000200ADFED090A81ED020AD0F8060020F063
:100C30007F4000EE100AB8EE400A20EE200A82ED56
:100C4000000A30BDC800002000401C42704708F078
:100C50003CBE08F077BB000010B542780378120262
:100C600012B21A4300EE102A124BB8EEC00AD3EDAE
:100C7000010A20EE200A81ED000AC278847812026F
:100C800012B2224300EE102AD3ED010AB8EEC00AD8
:100C900020EE200A81ED010A42790079120212B297
:100CA000024300EE102AB8EEC00A20EE200A81EDC1
:100CB000020A10BDC800002010B5FFF775FFFFF74E
:100CC000C5FF07F0AFFF08B1802402E007F016FF70
:100CD000044608F075F910B144F0400010BD08F06A
:100CE00001F9204310BD00002DE9FC41074600201A
:100CF00016460D4600900190FFF74EFF922000F03F
:100D0000BDF806226946122000F09AF8FFF73CFF72
:100D10009DF801009DF80010000200B2084300EEAB
:100D2000100A464CB8EEC00AD4ED000A20EE200AA4
:100D300085ED000A9DF803009DF80210000200B244
:100D4000084300EE100AD4ED000AB8EEC00A20EE07
:100D5000200A85ED010A9DF805009DF804100002A7
:100D600000B2084300EE100AB8EEC00A20EE200AD6
:100D700085ED020AFFF722FF08226946002000F0F5
:100D80005FF8FFF713FF9DF800000F2830D19DF8A2
:100D900003009DF80210000200B2084300EE100AA2
:100DA000D4ED010AB8EEC00A20EE200A87ED000A51
:100DB0009DF805009DF80410000200B2084300EE03
:100DC000100AD4ED010AB8EEC00A20EE200A87ED21
:100DD000010A9DF807009DF80610000200B20843C2
:100DE00000EE100AB8EEC00A20EE200A87ED020AD3
:100DF000FFF7D2FEA22000F041F80222694622202D
:100E000000F01EF8FFF7C0FE9DF800009DF80110ED
:100E1000C00040EA5110B0F5806F01DBA0F5006022
:100E200000EE100AB4EE001AF8EEC00AB3EE070A9C
:100E300000EE810A86ED000ABDE8FC81C8000020B2
:100E400070B514460D4640F0800000F017F806E03B
:100E5000552000F013F8641E05F8010BE4B2002CD5
:100E6000F6D170BD10B50C4640F0800000F006F8D9
:100E7000552000F003F8207010BD000001B582B0CD
:100E80004FF47A700090012301AA02A9024802F0EF
:100E900015FA9DF804000EBD401800200278407835
:100EA000D20042EA5010B0F5806F01DBA0F500607F
:100EB00000EE100AB4EE001AF8EEC00AB3EE070A0C
:100EC00000EE810A81ED000A704710B50C46FFF76D
:100ED000D5FF2046BDE81040FFF7D0BFFEE7000079
:100EE000014800F048BD00009C170020014800F0B8
:100EF00042BD00009C170020014800F03CBD0000EE
:100F0000C4170020014800F036BD0000C4170020BF
:100F1000A1F2012107291FD8C9B24B1C00EB011017
:100F20000121038041731188DFED0C0A49BA00EEFC
:100F3000101A4180B8EE400A20EE200ADFED080AC0
:100F400020EE200A80ED010A518849BA018191887A
:100F500049BA4181D1790173704700000000B44360
:100F60000000003910B588B00C4600900020082120
:100F70000290CDE903018DF81400064800F0E5FC6D
:100F80000028FAD006AB22466946024800F07DFBF5
:100F900008B010BD9C17002030B587B00546009101
:100FA000002108200291CDE9031014468DF8141099
:100FB000284600F0CAFC0028FAD006AB2246694653
:100FC000284600F062FB07B030BD000070B5044653
:100FD0002DED028B058843888088EA1A1118494252
:100FE00009B22B441D1A121AE18000EE101A9FED6F
:100FF000218AA5821844628440422086B8EEC00A45
:10100000F0EE480A08F012F9BDEEC00AF0EE480A08
:1010100010EE100A2081B4F9140000EE100AB8EEA8
:10102000C00A08F003F9BDEEC00AF0EE480A10EE5F
:10103000100AE082B4F9220000EE100AB8EEC00AED
:1010400008F0F4F8BDEEC00AF0EE480A10EE100AFF
:10105000A084B4F9300000EE100AB8EEC00A08F01F
:10106000E5F8BDEEC00A10EE100A6086BDEC028BFA
:1010700070BD00009A99193E2DE9F0411E462DEDF4
:10108000048B17460D4604469FED468AB0EE480A8B
:1010900004F04CF894ED041A012E31EE400A84ED70
:1010A000000A94ED050A84ED010A02D0022E10D048
:1010B00071E0208B2880608B688094ED010AF0EE4F
:1010C000480A384604F07CF9BDEEC00A10EE100A5A
:1010D00060E011EE100A0AF0A7FF41EC100B06F0D9
:1010E000FBFDB0EE408AF0EE608AB4F918000AF019
:1010F00062FC53EC182B0AF0C5FC41EC180B20697C
:101100000AF092FF41EC100B06F0A6FCB0EE409AFC
:10111000F0EE609AB4F91A000AF04DFC53EC192B6A
:101120000AF0B0FC53EC182B0AF094FE0AF014FC01
:10113000288020690AF078FF41EC100B06F08CFC47
:10114000B0EE408AF0EE608AB4F918000AF033FC81
:1011500053EC182B0AF096FC41EC180B20690AF0AE
:1011600063FF41EC100B06F0B7FDB0EE409AF0EED5
:10117000609AB4F91A000AF01EFC53EC192B0AF01D
:1011800081FC53EC182B0AF0DBF90AF0E5FB6880D0
:101190004FF4FA70A8802846BDEC048BBDE8F041FE
:1011A000FFF714BF0000000000B589B06A4602498D
:1011B00000F0CCF909B000BD1CC40008014800F0E3
:1011C000B3BE0000E81900202DE9F05FA748A84B46
:1011D000A84CC06CA64DA74EA54F0068A449DFF8E7
:1011E0009492DFF88CA2DFF88CB2DFF884E2A14A97
:1011F000483B603418351836303F09F178090AF158
:10120000300A4FF4006C0BF1300BAEF1180E88422F
:1012100023D99749543926E0A84233D14FF020080A
:101220000AE0504535D1E04606E000BF4FF4001813
:1012300002E000BF4FF0006811EA080F7CD08C4933
:10124000884253D9904205D0984203D0A04201D0A1
:10125000A8422FD14FF0200C45E08649A8318842A2
:1012600003D983495839096805E0824948318842E1
:101270008149F8D949689042D0D09842CED0A04256
:10128000CCD0C9E7B042CED0B842CCD04845CAD0C5
:10129000C7E75845CAD07045C8D0DFF8D88108F1F3
:1012A00090084045C2D0DFF8C88108F148084045A1
:1012B000C0D1BBE7B04216D0B84214D0484512D0D6
:1012C000504510D0584509D0704507D06949903134
:1012D000884203D066494831884202D14FF4001C4D
:1012E00001E04FF0006C62484C382AE06149A831B7
:1012F000884229D9904205D0984203D0A04201D01B
:10130000A84202D14FF0200C19E0B04217D0B842E9
:1013100015D0484513D0504511D0584509D07045D7
:1013200007D054499031884203D05149483188420E
:1013300003D14FF4001C02E095E04FF0006C4C48E4
:101340005038C0F800C052E04A494831884227D995
:10135000904205D0984203D0A04201D0A84202D1C9
:101360004FF0200C18E0B04216D0B84214D04845D7
:1013700012D0504510D0584509D0704507D03D498E
:101380009031884203D03A494831884202D14FF423
:10139000001C01E04FF0006C3748C0F80CC026E09C
:1013A000904205D0984203D0A04201D0A84202D179
:1013B0004FF0200C18E0B04216D0B84214D0484587
:1013C00012D0504510D0584509D0704507D0294952
:1013D0009031884203D026494831884202D14FF4E7
:1013E000001C01E04FF0006C2348C0F808C0234CFB
:1013F000207880070CD5207820F00200207020781B
:1014000040F004002070012211461D4801F03EF812
:1014100060781C4D80070CD5607820F00200607069
:10142000607840F00400607001221021284601F02D
:101430002DF8A07880070CD5A07820F00200A070CD
:10144000A07840F00400A07001221021284601F08D
:101450001DF808F0DFF82078400704D50A48016835
:1014600041F001010160BDE8F09F0000401800203C
:10147000586402401060024000600240FC000020FE
:101480000004024000000240103C014001681823A3
:10149000CAB2103AB2FBF3F2054B6FF30901032A0B
:1014A0009B5CC36500D9091D816508467047000033
:1014B000D0C3000810B5014600208B698A6A4FF03E
:1014C000C07453B1B3F5005F15D072B1012A0CD0CE
:1014D000022A0AD0032A09D104E01AB1012A06D04F
:1014E000022A03D1C96AC90100D5012010BDC96A09
:1014F000A142FAD010BD002AF7D0012AF2D0022A68
:10150000F3D0032AF3D010BD30B50468256825F464
:1015100080252560046863608368402B036803D0DE
:1015200099600068C26030BD9A600068C16030BDDB
:1015300070470000044C002008F0F4FF20600120F8
:1015400008F0C3F9F7E70000B40100202DE9FC41E1
:1015500016460F46804600244FEA0D0506EB840030
:1015600090ED000A3846FFF7E1FA05EB44014A1C0A
:1015700003F080F9641C042CF0DB69464FF4007022
:10158000FFF7F0FC5FF0000406EB840090ED040A26
:101590003846FFF7CBFA05EB44014A1C03F06AF921
:1015A000641C042CF0DB6A4640F2FF114046FFF752
:1015B000F3FCBDE8FC8100002DE9FC4180461646A5
:1015C000084600F044F8050011D000244FEA0D074A
:1015D00007EB44014A1C36F9140003F04BF9641C74
:1015E000042CF5DB6A4629464046FFF7D5FCBDE8EA
:1015F000FC817CB5044600201346009001904A1EF1
:101600004800032A03D84FF40075801E05E0491FE7
:1016100003290DD840F2FF150A380DEB00014A1CD2
:10162000184603F027F96A4629462046FFF7B4FC1E
:101630007CBD012000F026BE082000F023BE102053
:1016400000F020BE202000F01DBE72B6FEE701288B
:1016500003D0052804D0002070474FF40070704775
:1016600040F2FF10704790F82020012A07D0022A8C
:1016700005D0416A41F48021416201207047006831
:1016800042690A43426100207047F0B590F820504B
:101690000468A468012D05D0022D03D0416A41F4ED
:1016A00080214DE014F0406F01D1E50045D5C4F331
:1016B00001640125A5401D608D684FF4C0739DB184
:1016C000CE6835434E6845EAC605066803EB041745
:1016D000F5514FF4C275076805EB04150E697E518C
:1016E000097D012905D009E00E88CD6845EA4655F7
:1016F000EBE701684E5946F480764E511179D2F8E5
:1017000005504FF4C67641EA0521056806EB04163C
:10171000A9511178D2F801204FF4C47541EA022191
:10172000026805EB04155151006803EB041142589F
:1017300042F0010242500020F0BD416A41F4001124
:1017400041620120F0BD000010B590F82020012A70
:1017500007D0022A05D0416A41F48021416201206C
:1017600010BD3B48D0F8002242F00102C0F8002230
:10177000D0F8002222F47C52C0F80022D0F80022D7
:101780004B6A42EA0322C0F800220A7D02F01F03DE
:1017900001229A40D0F81C329343C0F81C32CB6926
:1017A000B3B9D0F80C329343C0F80C328C894B6833
:1017B00064F31F434C6900EBC404C4F840320C8945
:1017C0000B6864F31F434C6900EBC404C4F8443253
:1017D000CB69012B16D1D0F80C321343C0F80C3270
:1017E0000C884B6864F31F434C6900EBC404C4F8D5
:1017F00040320C89CB6864F31F434C6900EBC4048E
:10180000C4F844328B69002BD0F804320ED0134355
:10181000C0F804320B69002BD0F8143208D01343FF
:10182000C0F81432096A012904D008E09343EFE7B5
:101830009343F5E7D0F81C121143C0F81C12D0F8FE
:10184000001221F00101C0F80012002010BD0000BC
:1018500000640040704770B590F82040012C05D01E
:10186000022C03D0416A41F4802128E0046809B3C6
:101870002469A40720D04FF4D874056804EB011440
:101880002D5915F00405956005682D591AD0ED08FD
:10189000556005682C5904F00204D4604FF4DA74E2
:1018A000056804EB01142E5906F00F06082E0CD320
:1018B00008250DE0E468DCE7416A41F4001141626B
:1018C000012070BD6D0D1560E3E72D5905F00F0582
:1018D000156105682D59C5F30725956105682C59D3
:1018E000240C54614FF4DC72046802EB0112A4581A
:1018F0001C700468A458240A5C700468A458240C62
:101900009C700468A258120EDA704FF4DE720468FC
:1019100002EB0112A4581C710468A458240A5C71DB
:101920000468A458240C9C710468A258120EDA7141
:10193000006829B1016941F020010161002070BDFA
:10194000C16841F02001C160F8E70246002092F82A
:101950002010012901D002290CD111688A68520196
:1019600000D501208A68120100D5401C8968C90091
:1019700000D5401C70472DE9F05F05460068002443
:101980004669D0F804908768D0F80CB0D0F810A061
:10199000D0F81880F10748D0F90714D001218160F0
:1019A000B80703D5284600F05EFA0CE0780702D5A8
:1019B0004FF4006407E0380702D54FF4805402E08A
:1019C000284600F04FFAF80516D529684FF48070C4
:1019D0008860B80503D5284600F047FA0CE0780582
:1019E00002D544F4005407E0380502D544F480449D
:1019F00002E0284600F038FAF80316D529684FF4BB
:101A000080308860B80303D5284600F030FA0CE037
:101A1000780302D544F4004407E0380302D544F4C7
:101A2000803402E0284600F021FA300707D55FEA4B
:101A3000CB6004D52968102044F40074C860700796
:101A40004FF0080707D55FEA0B7004D52868C76018
:101A5000284600F0A9F9B00706D52868C0688007B5
:101A600002D0284600F0A2F9700607D55FEACA60E6
:101A700004D52968102044F480640861B00607D5B5
:101A80005FEA0A7004D528680761284600F0BAF9B1
:101A9000F00606D528680069800702D0284600F0C5
:101AA000B2F9B00308D55FEAC96005D529681020EE
:101AB0004860284600F0A8F9F00307D55FEA0970EE
:101AC00004D528684760284600F0D2F9300446D58E
:101AD0005FEA497040D5F00504D55FEAC87001D0CF
:101AE00044F00104B00504D55FEA887001D544F0E4
:101AF0000204700504D55FEA487001D544F004047F
:101B0000300529D518F0700F26D008F07000402855
:101B100015D006DC102809D020280AD0302816D18C
:101B20000AE050280ED0602811D10EE044F00804DD
:101B30000DE044F010040AE044F0200407E044F013
:101B4000400404E044F0800401E044F48074286818
:101B5000816921F070018161296804204860002CAE
:101B600005D0686A204368622846FFF773FEBDE827
:101B7000F09F70B5040003D094F8200010B104E089
:101B8000012070BD204600F081F82068016841F016
:101B90000101016000F080FC0546052604E000F02C
:101BA0007BFC401B0A2811D820684068C007F6D08B
:101BB0002068016821F00201016000F06DFC05461B
:101BC0000BE000F069FC401B0A2806D9606A40F46B
:101BD0000030606284F82060D2E7206840688007A7
:101BE000EFD4207E0128206801683DD021F08001DB
:101BF0000160607E01282068016838D021F0400132
:101C00000160A07E01282068016833D021F0200106
:101C10000160E07E0128206801682ED041F01001AB
:101C20000160207F01282068016829D021F0080187
:101C30000160607F01282068016824D021F0040140
:101C40000160D4E902010843D4E9041211430843B6
:101C50006168491E08432168C86100206062012054
:101C600084F82000002070BD41F08001C0E741F001
:101C70004001C5E741F02001CAE721F01001CFE79C
:101C800041F00801D4E741F00401D9E7F0B587B08D
:101C9000044614216846FEF76CFC3E4B3E48DFF8D4
:101CA000F0E01968D4F800C03B4A03250226092752
:101CB00010300024491CF4452AD11960012907D1AC
:101CC000016841F000710160006800F0007005904B
:101CD000106840F0080010601068CDE9005600F070
:101CE0000800CDE9047069462C48CDE9024500F0B2
:101CF000D5FA00220621142000F00EFF142000F077
:101D0000FDFE00220621152000F006FF15203AE016
:101D1000DFF88CE0F44538D1D0F800C04CF0806C8E
:101D2000C0F800C0D0F800C001290CF0806CCDF8DC
:101D300014C0196007D1016841F0007101600068AA
:101D400000F000700590106840F00200106010680C
:101D500002AB00F0020005906020CDE9000683E8A8
:101D6000B00069460F4800F099FA00220621402091
:101D700000F0D2FE402000F0C1FE002206214120EA
:101D800000F0CAFE412000F0B9FE07B0F0BD00002F
:101D9000006400403400002030380240000C024053
:101DA00000680040000402407047000000B5104A7F
:101DB000016887B091420AD10E4B6A460021FFF7B5
:101DC0004AFD002812D10B4A0B4800990CE00B4A3F
:101DD00091420BD1074B6A460021FFF73CFD0028DA
:101DE00004D1044A06480099FFF792F807B000BDF5
:101DF00000640040C4010020D4640020006800405A
:101E000054650020704770477047000070B5044665
:101E100090F82000012804D0606A40F4002060623D
:101E200018E0022084F820002068016821F00101F8
:101E3000016000F031FB05460EE000BF00F02CFB16
:101E4000401B0A2808D9606A40F40030606205200F
:101E500084F82000012070BD20684068C007EDD1E3
:101E6000606270BD70477047704770477047704739
:101E700070472DE9F0410446876D00F00DFB0646E2
:101E800094F835000025022806D08020606584F88B
:101E900034500120BDE8F0812068016821F016016E
:101EA00001602068416921F080014161206C08B91E
:101EB000A06C20B12068016821F008010160206851
:101EC000016821F0010101600CE000F0E5FA801BDF
:101ED000052807D920206065032084F8350084F8A0
:101EE0003450D7E720680068C007EED194F85C1042
:101EF0003F208840B860012084F8350084F83450D1
:101F00000020C7E790F83510022903D080214165F1
:101F100001207047052180F835100068016821F024
:101F200001010160002070472DE9F84304464FF09D
:101F30000009CDF8009063484FF41651A56D006874
:101F4000B0FBF1F72E6894F85C10082000FA01F15C
:101F500031420FD021680A6852070BD50A6822F077
:101F600004020A6094F85C108840A860606D40F03C
:101F70000100606594F85C104FF0010808FA01F068
:101F8000304208D021684969090604D5A860606D0F
:101F900040F00200606594F85C10042088403042F4
:101FA00008D021680968890704D5A860606D40F0F1
:101FB0000400606594F85C1010208840304218D00E
:101FC00021680968090714D5A860206801684903D9
:101FD00004D50068000308D5A16C07E00168C905B5
:101FE00003D4016821F008010160216C09B1204689
:101FF000884794F85C1020208840304231D0216816
:102000000968C9062DD5A86094F835000528206810
:10201000016806D0490347D5006800031DD4616CF0
:102020001CE021F0160101602068416921F0800167
:102030004161206C08B9A06C20B12068016821F0D2
:102040000801016094F85C103F208840A86084F883
:10205000358084F83490216D1FE0E16B09B1204692
:102060008847606D00282BD0606DC00714D0052014
:1020700084F835002068016821F0010101600098B2
:10208000401C0090B84203D820680068C007F6D111
:1020900084F8358084F83490E16C002910D001B0C8
:1020A0002046BDE8F04308470168C905D5D401685A
:1020B00021F01001016084F8358084F83490CCE779
:1020C000BDE8F883440000202DE9F041044600F00B
:1020D000E3F906465CB1022084F83500002584F857
:1020E00034502068016821F0010101600DE00120F9
:1020F000BDE8F08100F0D0F9801B052805D920202B
:102100006065032084F83500F2E720680068C007A6
:10211000F0D12268116820480140D4E90103184336
:10212000D4E903363343184363691843A36918435A
:10213000E3691843236A18430843616A042903D1F9
:10214000D4E90B1319430843106020684069666A9C
:1021500020F0070130460E43012704280CD1A06A65
:102160000643E06A40B12046FFF7A4F920B14020C1
:10217000606584F83570BAE7206846612046FFF74D
:1021800085F994F85C203F2191408160656584F871
:1021900035700020ACE700003F8010F02DE9F041E1
:1021A0000446866D90F83400002501280DD00120EA
:1021B00084F8340094F835700020012F07D084F89B
:1021C000340002252846BDE8F0810220FBE7022703
:1021D00084F8357060652046FFF796F994F85C1036
:1021E0003F208840B0602068016841F0160101601E
:1021F000206C20B12068016841F00801016020686E
:10220000016841F001010160DCE7000010B51B4CE2
:1022100010281AD0202821D008282AD0012813D12C
:1022200008F09AFF01280FD004F10C01206908F092
:10223000D5FAE068002807D011494FF080500860B7
:10224000BFF34F8FBFF36F8F10BD607840F0010078
:102250006070A07840F00100A07003E0207840F0AA
:102260000100207020790028EED0BDE8104007F072
:10227000D1B9E07840F00100E07010BDFC00002012
:1022800004ED00E0044910B50A68024202D008607B
:10229000FFF7BCFF10BD0000143C01402DE9F84FD2
:1022A000DFF8BCA10022012503264FF00F090AF137
:1022B000040BAAF1040E00BF0B6805FA02F42340D8
:1022C000A34270D10F7907F00307012F01D0022F2D
:1022D00016D187684FEA420806FA08FC27EA0C077D
:1022E000D1F80CC00CFA08FC4CEA070CC0F808C086
:1022F0004768A7430C79C4F3001494403C434460FE
:102300000C79E443A4070AD0C4684FEA420C06FAE9
:102310000CF7BC438F6807FA0CF72743C7600C79AA
:1023200004F00304022C12D1D40800EB840CDCF876
:1023300020405707FF0E09FA07F824EA0804D1F8ED
:10234000108008FA07F848EA0408CCF820800468EE
:102350004FEA420C06FA0CF7BC430F7907F003076B
:1023600007FA0CF7274307604C6814F4403F70D01D
:102370003C4C276847F480472760246822F0030715
:1023800004F480440094384C07EB040CDCF8084853
:1023900097074FEA177809FA08F7BC43334FB8425A
:1023A00002D1002724E054E0314FB84201D1012787
:1023B0001EE0304FB84201D1022719E02E4FB8423B
:1023C00001D1032714E02D4FB84201D104270FE0BB
:1023D0002B4FB84201D105270AE02A4FB84201D15C
:1023E000062705E0284FB84201D1072700E008275B
:1023F00007FA08F72743CCF80878DAF80040574680
:10240000D1F804C09C435FEACC2C00D51C433C604F
:10241000DBF800405F46D1F804C09C435FEA8C2C97
:1024200000D51C433C60DEF800407746D1F804C07C
:102430009C435FEA8C3C00D51C433C60084F083F3E
:102440003C68D1F804C09C435FEACC3C00D51C43F7
:102450003C60521C102AFFF42FAFBDE8F88F00003B
:10246000083C014044380240003001400000024076
:102470000004024000080240000C0240001002402C
:102480000014024000180240001C02400AB18161A1
:1024900070470904FBE700000148806870470000AE
:1024A0003800002070B5040025D094F83D000025C8
:1024B00020B984F83C50204600F052FA242084F8D9
:1024C0003D002068016821F0010101602068016879
:1024D00041F4004101602068016821F4004101607D
:1024E00000F006FC4D4A6168914201D84C4900E079
:1024F0004C49884201D2012070BD4B492368B0FB92
:10250000F1F15E6826F03F060E435E606368934219
:1025100006D94FF4967359434FF47A73B1FBF3F134
:102520002368491C1E6A26F03F0631431962616820
:10253000914210D84900401EB0FBF1F2521CC2F388
:102540000B02042A01D2042022E0B0FBF1F0401C6F
:10255000C0F30B001CE0A268F2B301EBC10303EB74
:102560000116431EB3FBF6F35B1C43F480431B05CB
:1025700049D092B301EBC10202EB0111401EB0FB46
:10258000F1F0401CC0F30B0040F4804040F40040E8
:102590002168CA694CF6FF739A431043C861D4E9B5
:1025A000071001432068026822F0C0021143016055
:1025B000D4E9030101432068826848F2FF339A435B
:1025C00011438160D4E9050108432168CA6822F0FB
:1025D000FF021043C86001E00EE016E020680168C9
:1025E00041F0010101602564202084F83D0025634D
:1025F00084F83E50002070BD01EB4106431EB3FB42
:10260000F6F35B1CB3E70120C2E701EB4101401E7A
:10261000B0FBF1F0401CC0F30B00B7E7A08601004F
:1026200080841E0000093D0040420F002DE9FF4F4D
:1026300083B09A46DDE9118793460446DDF8409061
:10264000FFF72AFF054694F83D00202870D1192392
:10265000012274492046009501F0DCFE0028F5D1E6
:1026600094F83C00012863D0012084F83C002068E5
:102670000168C90703D1016841F0010101602068C8
:10268000016821F400610160222084F83D004020AF
:1026900084F83E0000262664C4F82490A4F82A801A
:1026A000608D20856048E062CDE9007553465A464A
:1026B0002046049901F0B0FD002879D1208DD0B1D9
:1026C000012821D00228206824D041698069009027
:1026D000208D032866D801282BD0544902283B4678
:1026E0004FF00002009557D08846204601F092FE38
:1026F00000285DD13AE02068416981690091016854
:1027000041F4007101607DE02068016821F480617E
:102710000160F0E7016821F48061016020680168D0
:1027200041F400610160206841698069009069E0BE
:1027300075E02A463946204601F012FF88BB54E076
:102740002068016841F40071016020680069616AD5
:102750000870606A401C6062218D491E2185618D70
:10276000491E618521680969017042E0206801689D
:1027700021F48061016020680069616A0870606A04
:10278000401C6062208D401E2085608D401E60854B
:102790003B46002241460095204601F03BFE00B931
:1027A000CEE705E02A463946204601F0D9FE18B1A9
:1027B000012007B0BDE8F08F20680069616A0870E9
:1027C000606A401C6062208D401E81B22185608D50
:1027D000401E608520684269D243520712D4032903
:1027E00003D1016821F48061016020680069616A99
:1027F0000870606A401C6062208D401E2085608DDC
:10280000401E6085208D00287FF462AF202084F870
:102810003D0084F83E6084F83C600020C9E7022057
:10282000C7E70000020010000000FFFF04000100E5
:102830002DE9FF4F83B09A46DDE911979346044690
:10284000DDF84080FFF728FE054694F83D0020287B
:102850007FD11923012240492046009501F0DAFD7D
:10286000002876D194F83C00012872D0012084F829
:102870003C0020680168C90703D1016841F00101EB
:1028800001602068016821F400610160212084F862
:102890003D00402084F83E0000262664C4F82480D1
:1028A000A4F82A90608D20852C48E062CDE900755F
:1028B00053465A462046049901F02CFD70B930E089
:1028C0002A463946204601F083FE58B1206C042880
:1028D00004D12068016841F400710160012007B053
:1028E000BDE8F08F606A216800780861606A401C6A
:1028F0006062218D491E89B22185628D521E6285DA
:1029000022685369DB435B070BD469B1007810611F
:10291000606A401C6062208D401E2085608D401ED4
:102920006085208D0028CBD12A463946204601F00B
:1029300045FD0028CAD154F83D0B016841F40071EF
:102940000160202004F81E09E67766770020C6E7BC
:10295000FFE70220C3E70000020010000000FFFFB5
:10296000F0B587B0044614216846FDF702FE1A4907
:10297000206888422DD11948016841F004010160A6
:10298000016801F004010591016841F00101016055
:102990000068122400F0010005904FF4007001253A
:1029A000032604278DE8F10069460D48FFF776FC01
:1029B00028028DE8F10069460A48FFF76FFC0748D6
:1029C0001030016841F400010160006800F400006B
:1029D000059007B0F0BD0000005C004030380240B8
:1029E0000008024000000240024881680278114459
:1029F00081607047380000200B4810B5016841F431
:102A000000710160016841F480610160016841F476
:102A100080710160032000F09FF80F2000F006F89D
:102A200000F050F8002010BD003C024030B50546D3
:102A3000204887B00024016841F00101016000686E
:102A400006A900F00100009001A800F031F90498F7
:102A5000B0B100F04DF9400017494FF08042B0FB93
:102A6000F1F11648491E026040F2E732C0E9032442
:102A7000C0E90114846100F063FD040003D015E097
:102A800000F036F9E8E70D4800F0D8FD04000DD15C
:102A90001C2000F033F8102D07D2002229461C20FC
:102AA00000F03AF80648056000E0012407B020462F
:102AB00030BD00004038024040420F00481A00205C
:102AC0003C0000200C4882B0016841F48041016064
:102AD000006800F4804000900748001F016841F042
:102AE000805101600068002200F0805000900F21AA
:102AF000901E02B000F010B844380240002809DBF4
:102B000000F01F02012191404009800000F1E02007
:102B1000C0F8001170470000F0B40E4B1B680C4663
:102B2000C3F30223C3F10705042D00D90425191DA1
:102B3000072901D2002300E0DB1E012606FA05F179
:102B4000491E214099409E40761E16403143F0BCFC
:102B500004F0B2BD0CED00E0064900F00702086881
:102B60004FF6FF03184040EA0220034A1043086072
:102B7000704700000CED00E00000FA052DE9F04779
:102B80000E46050065D0DFF81481D8F80000F7B2D2
:102B900000F00700B04207D288F80070D8F80000B3
:102BA00000F00700B04254D128683D4C810712D58F
:102BB000400703D5206840F4E050206028780007E3
:102BC00003D5206840F4604020602068A96820F0A8
:102BD000F000084320602878C0072DD0304968688D
:102BE0000839012812D0022813D0032811D009680F
:102BF000890700292DDA216821F0030101432160B2
:102C0000FFF74AFC814641F2883A0EE009688903E1
:102C1000EFE709688901ECE7FFF73EFCA0EB09014B
:102C2000514502D90320BDE8F0872068696800F0AB
:102C30000C00B0EB810FEFD1D8F80010404601F046
:102C40000701B14207D90770006800F00700B042E1
:102C500001D00120E7E72878400705D52068E9681A
:102C600020F4E050084320602878000706D520684B
:102C7000296920F4604040EAC100206000F058F863
:102C80002168084AC1F30311515CC8400649086035
:102C900006480068FFF7CAFE0020C4E7003C024077
:102CA00008380240D8C30008440000203C0000203F
:102CB0000F2202600C4A136803F003034360136899
:102CC00003F0F0038360136803F4E053C3601268F9
:102CD0004FF4E05303EAD20202610448006800F0B6
:102CE000070008607047000008380240003C0240BE
:102CF0000448054900680968044AC1F38221515C0F
:102D0000C84070474400002008380240E8C300086B
:102D10000448054900680968044AC1F34231515C1E
:102D2000C84070474400002008380240E8C300084B
:102D3000154810B5006810F00C02144813D014495F
:102D4000042A0FD0082A0ED10F4C241F22682368B2
:102D500002F03F025B0207D52068C0F38810A0FB99
:102D6000010106E0084610BD2168C1F38811A1FBEE
:102D700000010023FDF7F8FA2168C1F30141491C65
:102D80004900B0FBF1F010BD083802400024F40007
:102D900040787D012DE9F84F04006ED02078DFF8EF
:102DA0004C93C007A9F104054AD009F10400016859
:102DB000C1F38101012908D00068C0F38100022815
:102DC0000AD1D9F80000400206D52868800337D51B
:102DD00060680028E1D033E06068B0F5803F10D033
:102DE000B0F5A02F286810D020F480302860286823
:102DF00020F4802028606068A8B1FFF74DFB0646EC
:102E00000DE0286840F48030F4E740F4802028602A
:102E1000F7E700BFFFF740FB801B642873D82868E2
:102E20008003F7D50CE0FFF737FB064605E000BF4F
:102E3000FFF732FB801B6428F0D828688003F7D4A2
:102E40002078DFF8AC8280074FF0000A3ED5A74813
:102E5000001D016811F00C0F08D00068C0F381005C
:102E600002280BD1D9F80000400207D42868800757
:102E700016D5E068012800D112E033E1E068B8B16E
:102E80000120C8F80000FFF707FB064605E000BF79
:102E9000FFF702FB801B0228C0D828688007F7D5FF
:102EA0002868216920F0F80040EAC10028600DE0A0
:102EB000C8F800A0FFF7F0FA064604E0FFF7ECFAC6
:102EC000801B02281FD828688007F7D420780007C5
:102ED00022D5864F87486169703771B10121016041
:102EE000FFF7DAFA064604E0FFF7D6FA801B02285D
:102EF00009D838688007F7D50EE0C0F800A0FFF7C2
:102F0000CBFA064605E082E0FFF7C6FA801B0228EE
:102F10007DD838688007F7D42078400768D5DFF877
:102F2000CCB100270BF13C0BDBF80000C0000BD448
:102F3000DBF8001041F08051CBF80010DBF8000006
:102F4000012700F0805000906B4E3068C00510D40F
:102F5000306840F480703060FFF79EFA009005E022
:102F6000FFF79AFA0099401A022850D83068C00535
:102F7000F6D55E4EA0686C3601280FD00528306863
:102F800010D020F001003060306820F00400306084
:102F9000A068B8B1FFF780FA00900FE0306840F009
:102FA0000100F4E740F004003060F7E7FFF774FA3F
:102FB0000099411A41F28830814266D83068800712
:102FC000F4D50EE0FFF768FA009007E0FFF764FA27
:102FD0000099411A41F28830814256D83068800702
:102FE000F4D42FB1DBF8001021F08051CBF80010A1
:102FF000A069C8B33D49091D0968C1F381010229CF
:103000004AD00228504607D0C8F8600000E03CE0F3
:10301000FFF742FA04463BE04746C8F86000FFF776
:103020003BFA064605E000BFFFF736FA801B022890
:103030002BD828688001F7D4D4E907010843A16A96
:103040002E4A490802EB0141626A41EA82110843B3
:1030500094F82C1040EA0161C9F80010012038668C
:10306000FFF71AFA044606E03EE000BFFFF714FA45
:10307000001B022809D828688001F7D534E000BF7A
:10308000FFF70AFA001B022802D90320BDE8F88FD7
:1030900028688001F4D427E00128F7D0D9F800008F
:1030A000E26900F4800191421CD1226A00F03F01E4
:1030B000914217D147F6C071626A0140B1EB821F9D
:1030C00010D1A26A4FF0FF3300F4403103EB5202FB
:1030D000B1EB024F06D194F82C1000F07060B0EB09
:1030E000016F01D00120D1E70020CFE70438024072
:1030F00000004742800E4742007000400000FFFF82
:1031000070B5040009D0606A002540B12561656191
:10311000A56294F8510040B10CE0012070BD6068D8
:10312000B0F5827FF4D0E561F2E784F85050204694
:1031300000F044F8022084F851002068016821F072
:1031400040010160A088218900F4827001F40441EB
:103150000843A18901F400610843217C01F00201C8
:103160000843217D01F001010843218B01F4007126
:103170000843217F01F03801084394F8201001F042
:1031800080010843218D01F4005108432168086043
:10319000A069042101EA104094F8241001F0100104
:1031A0000843216848602068C16921F40061C16159
:1031B0006565012084F85100002070BD2DE9F041C3
:1031C00086B0064614216846FDF7D3F935493068C4
:1031D000884264D134480024016841F48051016080
:1031E000006800F4805005902F481438016841F0C1
:1031F00002010160016801F002010591016841F0DE
:10320000010101600068022500F00100059018200E
:10321000CDE9000502AA03274FF0050882E89001D6
:1032200069462248FFF73AF88020CDE9000502AA56
:10323000694682E890011E48FFF730F81E4D1D4890
:103240007F062860C5E901744FF48068C5E903482A
:103250006C617812AC61C5E9074028466C62FEF7E4
:1032600033FF08B1FEF7F1F9F564AE63124D114872
:1032700060351830E5E802074020A5E81101C002DA
:1032800045F81449AC61C5E907400B486C626030F1
:10329000FEF71AFF08B1FEF7D8F9B564AE6306B0C1
:1032A000BDE8F08100300140443802400004024093
:1032B0000000024040640240981800202DE9FF4FB2
:1032C00081B01D46934604464FF001090E9EFFF75C
:1032D000E3F8074694F851006168012806D0B1F57B
:1032E000827F3CD1A168C9BB042838D1029800284C
:1032F00071D0BBF1000FFBD0002DF9D094F8500035
:1033000001282CD04FF0010A84F850A094F8510005
:10331000042802D0052084F851004FF00008C4F8BA
:103320005480C4F838B0E587A58702992163E58603
:10333000A586C4F84080C4F8448020680168490626
:1033400003D4016841F040010160E068B0F5006F0E
:10335000606808D0F0B3012D49D081E0FFE702207A
:1033600005B0BDE8F08F08B1012D39D1206B21687F
:103370000088C860206B801C2063E08E401EE086C1
:103380002EE02068816889070FD5E18E69B1B9F117
:10339000010F0AD1216B0988C160206B801C20635A
:1033A000E08E401EE0864FF0000920688168C90762
:1033B0000CD0E18F51B1C068A16B0880A06B801C5C
:1033C000A063E08F401EE0874FF00109FFF764F82B
:1033D000C01B01E00BE067E0B04201D3701C50D18C
:1033E000E08E0028CDD1E08F0028CAD13EE0206BCE
:1033F000216800780873206B401C2063E08E401E1B
:10340000E0862DE02068816889070FD5E18E69B1DB
:10341000B9F1010F0AD1216B09780173206B401CAF
:103420002063E08E401EE0864FF00009206881682E
:10343000C9070CD0E18F51B1C068A16B0870A06BB7
:10344000401CA063E08F401EE0874FF00109FFF7AA
:1034500023F8C01BB04202D3701C01D011E086B12A
:10346000E08E0028CED1E08F0028CBD13A463146FD
:10347000204603F0BDFB50B12020606584F85080E9
:1034800012E084F851A084F85080032068E7A06817
:1034900018B92068C1688068009084F851A084F849
:1034A0005080606D0028F1D0012059E770477047C7
:1034B00070B590F83C20012A32D0012480F83C40BD
:1034C000022280F83D2003685A689D6822F0700649
:1034D0000A6832435A60134B02689A4214D0B2F120
:1034E000804F11D0104B9A420ED0104B9A420BD005
:1034F0000F4B9A4208D00F4B9A4205D00E4B9A427E
:1035000002D00E4B9A4204D1496825F0800319433A
:10351000916080F83D40002180F83C10084670BD65
:10352000022070BD0000014000040040000800407F
:10353000000C004000040140004001400018004021
:1035400010B5040003D094F83D0010B107E001204D
:1035500010BD002084F83C00204600F01FF8022037
:1035600084F83D00211D206803F0D0FC012084F880
:10357000460084F83E0084F83F0084F8400084F858
:10358000410084F8420084F8430084F8440084F841
:10359000450084F83D00002010BD000008B500681B
:1035A0000649884208D10648016841F400310160AB
:1035B000006800F40030009008BD000000440140A5
:1035C0004438024090F83D10012901D00120704795
:1035D000022180F83D1000681149884214D0B0F1F2
:1035E000804F11D00F4988420ED00F4988420BD02E
:1035F0000E49884208D00E49884205D00D498842BC
:1036000002D00D49884204D1816801F007010629E2
:1036100003D0016841F00101016000207047000003
:10362000000001400004004000080040000C004081
:1036300000040140004001400018004090F83D1097
:10364000012901D001207047022180F83D10016856
:10365000CA6842F00102CA6000681149884214D069
:10366000B0F1804F11D00F4988420ED00E498842E8
:103670000BD00E49884208D00D49884205D00D492B
:10368000884202D00C49884204D1816801F00701C8
:10369000062903D0016841F0010101600020704754
:1036A000000001400004004000080040000C004001
:1036B00000040140004001400018004070B504467D
:1036C00090F83C000025012817D0012684F83C60C2
:1036D000022084F83D002068826822F0770222F4FC
:1036E0007F4282600868502838D00DDC20284FD0F7
:1036F00005DC90B3102811D14AE0022070BD3028BB
:1037000046D040280AD13BE060282FD070280DD049
:10371000B0F5805F03D0B0F5005F12D0012584F8CA
:103720003D60002084F83C00284670BDCB68D1E99C
:103730000121206803F05FFC2068816841F0770177
:1037400009E0CB68D1E90121206803F054FC20682E
:10375000816841F480418160E1E719E0CA68496805
:10376000206803F051FD5021206806E0CA684968CE
:10377000206803F05AFD6021206803F046FCCEE784
:10378000CA684968206803F03FFD40212068F4E7DB
:10379000226801461046F0E770472DE9F0410446E3
:1037A0000068C66805694FF00007A90713D5B1077F
:1037B00011D5F91E016101202077206880698007FA
:1037C000204602D0FFF7E8FF04E000F0A9F8204609
:1037D00000F03BF92777680716D5700714D52168E4
:1037E0006FF004000861022020772068806910F4DF
:1037F000407F204602D0FFF7CFFF04E000F090F8B2
:10380000204600F022F92777280715D5300713D571
:1038100021686FF008000861042020772068C069E3
:103820008007204602D0FFF7B7FF04E000F078F8E9
:10383000204600F00AF92777E80616D5F00614D5D9
:1038400021686FF010000861082020772068C069A7
:1038500010F4407F204602D0FFF79EFF04E000F006
:103860005FF8204600F0F1F82777E80708D0F00766
:1038700006D021686FF001000861204600F04AF987
:10388000280608D5300606D521686FF0800008614B
:103890002046FFF70BFE680608D5700606D521689E
:1038A0006FF040000861204600F03BF9A8060AD5F9
:1038B000B00608D521686FF0200008612046BDE8F9
:1038C000F041FFF7F4BDBDE8F081000010B586B00F
:1038D000044614216846FCF74CFE0E4920688842D5
:1038E00015D10D480021026842F0200202600068F4
:1038F00000F020000590402000900220CDE9010159
:103900000320CDE9031069460448FEF7C7FC06B062
:1039100010BD000000440140303802400014024055
:10392000704770B5044690F83C0000260D4601280B
:103930000FD0012084F83C006AB1042A1DD0082A67
:103940002FD00C2A3FD00126002084F83C003046BE
:1039500070BD022070BD206803F094FB206881696F
:1039600041F0080181612068816921F004018161D1
:10397000206881692A69114311E0206803F0B2FBD5
:103980002068816941F4006181612068816921F4C6
:1039900080618161206881692A6941EA022181612F
:1039A000D2E7206803F0D4FB2068C16941F0080128
:1039B000C1612068C16921F00401C1612068C16949
:1039C0002A69114311E0206803F0F6FB2068C16901
:1039D00041F40061C1612068C16921F48061C16165
:1039E0002068C1692A6941EA0221C161ACE710B5CA
:1039F000040003D094F83D0010B107E0012010BD91
:103A0000002084F83C00204600F01EF8022084F8D4
:103A10003D00211D206803F079FA012084F846005A
:103A200084F83E0084F83F0084F8400084F84100A8
:103A300084F8420084F8430084F8440084F8450088
:103A400084F83D00002010BD7047704710B5044653
:103A5000022249B104290ED0082913D094F841005C
:103A6000012816D0012010BD94F83E000128F9D19C
:103A700084F83E200FE094F83F000128F2D184F84A
:103A80003F2008E094F840000128EBD184F8402062
:103A900001E084F841200122206803F09FFA1649D2
:103AA0002068164A884201D0904203D1436C43F407
:103AB000004343642068884213D0B0F1804F10D097
:103AC0000F4988420DD00F4988420AD00E498842DA
:103AD00007D0904205D00D49884202D00C49884257
:103AE00004D1816801F00701062903D0016841F083
:103AF00001010160002010BD0000014000040140F0
:103B00000004004000080040000C0040004001405C
:103B1000001800400068B0F1804F01D1FEF764BF8B
:103B20007047704770477047F8B5016804460868E9
:103B3000CA684B6910F00F0F4FF0000559D003F021
:103B4000010602F49077374365D0C10705D0D1054F
:103B500003D5616C41F001016164410705D5D907C6
:103B600003D0616C41F002016164810705D5D9077A
:103B700003D0616C41F004016164010707D502F0D4
:103B80002001314303D0616C41F008016164616C34
:103B900000293AD0800604D5900602D5204603F0CD
:103BA00022FC20684069616CC0F38010090700D4D2
:103BB00060B3204603F0E2FB20684069400621D54F
:103BC0002068143050E8001F21F0400140E8001246
:103BD000002AF5D1E06BA8B172490165E06BFEF7F0
:103BE00091F9002811D0E06B016D01B0BDE8F04003
:103BF000084783060FD593060DD52046BDE8F8404B
:103C000003F0F1BB2046FFF78EFFF8BD2046FFF71B
:103C10008AFF6564F8BD266B2023012E7ED1C6067F
:103C20007CD5D6067AD508684868009048694FF078
:103C3000020640064DD5E26B106840684FF480776D
:103C40000004000C3AD0A18D814237D9E085D069BB
:103C5000B8422DD020680C3050E8001F21F480714C
:103C600040E80012002AF5D12068143050E8001F07
:103C700021F0010140E80012002AF5D1206814303B
:103C800050E8001F21F0400140E80012002AF5D161
:103C900084F84230256320680C3050E8001F21F082
:103CA000100140E80012002AF5D1E06BFEF7E1F8C0
:103CB0006663A08DE18D401A81B206E0A18D81423C
:103CC000A8D1D069B842A5D166632046FFF72AFF84
:103CD000F8BDA08DE18D401A81B2E08D0028F7D0AB
:103CE0000029F5D020680C3050E8002F22F49072A3
:103CF00040E80027002FF5D12068143050E8002F4D
:103D000022F0010240E80027002FF5D184F842306C
:103D1000256320680C3050E8002F00E006E022F018
:103D2000100240E80023002BF3D1CDE705062BD588
:103D3000150629D594F841002128C9D1A068B0F50D
:103D4000805F01D12069B0B1206A411C21622168E5
:103D500000784860E08C401E0004000CE084B7D17D
:103D60002068C16821F08001C1602068C16841F00D
:103D70004001C160F8BD206A0088C0F308004860B7
:103D8000206A801C2062E5E74006F3D55006F1D595
:103D9000CA68204622F04002CA6084F8413000F030
:103DA000ACF8F8BD8172000870B5040004D094F836
:103DB0004100002510B106E0012070BD84F840509C
:103DC000204600F023F8242084F841002068C168D0
:103DD00021F40051C160204603F066FB20680169B0
:103DE00021F4904101612068416921F02A0141617B
:103DF0002068C16841F40051C1606564202084F8E6
:103E0000410084F842006563002070BD70B586B043
:103E1000064614216846FCF7ACFB2449306888420A
:103E200042D123480025016841F4802101600068E7
:103E300000F4802005901E481038016841F004010C
:103E400001600068694600F0040005904FF440608E
:103E500000900220CDE90105032003900720049083
:103E60001448FEF71BFA154C134820604FF0006011
:103E7000C4E901054014C4E9035080106561C4E938
:103E800006500002C4E908052046FEF71DF908B1F6
:103E9000FDF7DBFBF46300220F212720A663FEF76A
:103EA0003BFE2720FEF72AFE06B070BD004800400A
:103EB000403802400008024028600240E819002013
:103EC00090F84230202B01D00220704721B11AB166
:103ED0000023036303F06EBB0120704700680449B0
:103EE000884203D10349012081F824007047000073
:103EF0000048004020660020704770471CB5134CF6
:103F0000134D144E05F0BCFA1449A37A124A01F17C
:103F10004000FDF7B1F8287898B11048B7EE000AD4
:103F20000F49B0F90820009213460E48019200F0A4
:103F3000ABFF002006F0F6FA7060012005F0C5FC2A
:103F4000E0E70748FDF730F9F3E7000006660020D8
:103F5000B8010020CC010020F4670020786900201F
:103F60009C170020D4640020044C002006F0DAFAEC
:103F70002061012005F0A9FCF7E70000CC0100203A
:103F80001C4C1D4E1D4F00BFB4F904101C4800F01E
:103F900091F8B4F906101A4800F052F8307820B3BE
:103FA000184D95ED090A01F041F9DFF85480F0EE63
:103FB000400A012298ED010A0621134800F02CFF67
:103FC00095ED070A01F032F9F0EE400A98ED000A8B
:103FD000242207210C4800F0E7FE002006F0A2FA98
:103FE000B860012005F071FCCEE70848FDF7DCF869
:103FF000F3E7000006660020B8010020CC01002095
:10400000D469002048660020D46400209C1700205A
:10401000044C002006F086FAE060012005F055FC13
:10402000F7E70000CC010020044C002006F07AFAEB
:104030002060012005F049FCF7E70000CC010020DA
:1040400000EE101A10B504469FED132ADFED131A87
:104050009FED131ADFED130AB8EEC00A01F0CCF899
:10406000D4ED010A0020B2EE0E1A30EE200ADFED88
:104070000E0A84ED010A01F077F884ED010A94ED4F
:10408000030A01209FED091ADFED090A01F06CF81F
:1040900084ED050A10BD0000CDCCCC3DCDCCCCBD0F
:1040A00000001644000016C4000034C2000034436F
:1040B000000034C310B500EE101A2DED028B04463B
:1040C0009FED162ADFED161A9FED161ADFED160A80
:1040D000B8EEC00A01F090F8D4ED000A9FED138A03
:1040E000DFED138A30EEC00A0120B0EE481A84EDED
:1040F000000AF0EE680A01F037F884ED000A94ED4A
:10410000020A0120B0EE481AF0EE680A01F02CF81D
:1041100084ED040ABDEC028B10BD0000CDCCCC3D7B
:10412000CDCCCCBD00001644000016C400003443C2
:10413000000034C370B50446C0882A4D00EE100A52
:10414000F8EE400A9FED260A70EEC00AFDEEE00A86
:1041500010EE900A2880A08800EE900AF8EE600A1F
:1041600070EEC00AFDEEE00A10EE900A688020882A
:1041700000EE900AF8EE600A70EEC00AFDEEE00A6A
:1041800010EE900AA880608800EE900AF8EE600AAF
:1041900030EEC00ABDEEC00A10EE100AE880608959
:1041A00002F00CFE2881A08902F008FE68812089B7
:1041B00002F004FEA881E089A41D02F0FFFDE88161
:1041C00060892882A0896882A07E2875E07E687553
:1041D000607FE875207FA875A07F287670BD0000FD
:1041E0000000784406660020FEE701684A69D24371
:1041F00052050FD46FF480624A61002140F8301FED
:10420000202242738173026942F004020261017349
:1042100001207047002070472DE9F84F04460068E0
:1042200089460B9D01689846174641F480610160FC
:104230002068016841F48071016000954FF0011B16
:104240000022594620460A9B00F0E4F84FF4007A19
:1042500040B120680068C00501D5C4F840A0032023
:10426000BDE8F88F216809F0FE0008612B46284957
:1042700020460A9A00F016F9F0BB2068416980696F
:1042800000902A4620460A9900F0A2F940B1206C1D
:1042900004283AD12068016841F40071016034E0DB
:1042A000FEB2B8F1010F09D02168380A08612A4628
:1042B00020460A9900F08CF90028E8D120680661B0
:1042C0002A4620460A9900F083F90028DFD12068A9
:1042D000016841F480710160009500225946204632
:1042E0000A9B00F097F80028B3D1216809F0FF007D
:1042F00040F00100086100E007E02B460449204639
:104300000A9A00F0CFF80028AAD00120A8E7000000
:10431000020001002DE9F843044600680D46DDE97E
:10432000089701689846164641F4807101604B4633
:1043300000224FF001112046009700F06BF848B1C1
:1043400020680068C00502D54FF400702064032087
:10435000BDE8F883216805F0FE0008613B464A4647
:104360001549204600F09EF888B9206841698069A7
:1043700000903A464946204600F02AF948B1206CA0
:10438000042804D12068016841F400710160012013
:10439000DEE7F5B2B8F1010F09D02168300A0861F3
:1043A0003A464946204600F013F90028E7D1206834
:1043B00005610020CCE700000200010070B5164640
:1043C0000D4604461EE02046FFF70FFF08B101200E
:1043D00070BD681C16D0FEF75FF8801BA84200D89D
:1043E00085B920684069C04340070BD5002044F8D8
:1043F000300F20216173A073216941F020012161F8
:104400002073E4E720684069C0434007DBD4002004
:1044100070BD00002DE9F047984617460D4604464A
:10442000C1F30746DDF820902AE000BFB8F1FF3F56
:1044300026D0FEF731F8A0EB0901414502D8B8F1CA
:10444000000F1DD12068012E16D0806925EA0000DA
:104450000004000C12D00020B84211D1002044F812
:10446000300F20216173A073216941F02001216187
:1044700020730120BDE8F0874069E7E70120EBE702
:104480002068012E0AD0806925EA00000004000C93
:1044900006D00020B842C9D00020EBE74069F3E71E
:1044A0000120F7E72DE9F047984616460D460446E9
:1044B0004FF000094FF0200AC1F3074723E02068BE
:1044C0004069C043400515D42068016841F400717B
:1044D000016021686FF480604861C4F8309084F80E
:1044E0003DA084F83E90216C41F00401216484F8E1
:1044F0003C9021E0701C06D0FDF7CEFFA0EB080039
:10450000B04203D816B1012F1FD021E02068012F3F
:1045100015D0806925EA00000004000C18D000BF07
:1045200044F8309F84F80DA084F80E90216941F082
:104530002001216184F80C900120BDE8F0874069DA
:1045400025EA00000004000CEAD12068406901E07F
:104550002068806925EA00000004000CAFD1ECE778
:104560002DE9F041002590460E460446202728E01C
:104570004069C043C0060CD454F8301B6FF01000E3
:10458000486144F810596777A577206A206225773B
:1045900014E0FDF781FFA0EB0800B04200D886B917
:1045A00020684069C04340060BD544F8305F67730C
:1045B000A573206940F02000206125730120BDE82B
:1045C000F08120684169C9434906D1D40020F6E74B
:1045D00070B516460D4604461EE02046FFF705FE60
:1045E00008B1012070BD681C16D0FDF755FF801B77
:1045F000A84200D885B920684069C04300060BD5A1
:10460000002044F8300F20216173A073216941F02C
:10461000200121612073E4E720684069C04300065F
:10462000DBD4002070BD00000EB5072000E0642040
:1046300005F04BF9FCF740FB0028F8D102E06420BC
:1046400005F043F905F0E2F80028F8D17F4A101D83
:10465000CDE90102A2F1100808F10401FCF744FBC6
:104660004346A3F1340208F1480AA2F10C01A1F17A
:104670000C00CDF800A004F057FFDFED750A9FEDA8
:10468000750A754A002108F1640001F009F8A8F1E3
:104690003402A2F10C0101F11800FCF741F8A8F175
:1046A0004007A7F1180597ED000AA5F10C0685ED66
:1046B000000AA5F1180986ED000A89ED000A97EDB8
:1046C000010A002085ED010A86ED010A89ED010A43
:1046D00097ED020A85ED020A86ED020A89ED020ACB
:1046E00005F0A0F906F0F4FC5C4C5D492061102057
:1046F000C8610846FEF704FD08B1FCF7A6FF57495C
:1047000008222831A1F1080002F0FAF901202071F5
:104710004FF0FF3B5946012005F080FE0128F9D1FA
:104720002078400708D5207820F0040020704B48FE
:1047300001992930FCF790FA607840070BD5607832
:1047400020F004006070414A08F104011032A2F127
:104750002A00FCF73BFAA07840070CD5A07820F09F
:104760000400A0703D4802991630FCF797FB98EDC5
:10477000040A04F0D3FF354BCDF800A0103BA3F1A1
:104780003402A2F10C01A1F10C0004F0CDFED6ED33
:10479000000A9FED341AC9ED000A95ED000A2B4B73
:1047A00086ED000A60EE011A9FED2F0A97ED002AB0
:1047B000443B40EE801ADFED2D0AA3F1240202F102
:1047C0000C0101F1240042EE201AC5ED001AD6EDCD
:1047D000011AC9ED011A95ED012A86ED012A22EE92
:1047E000012A01EE802AD7ED011A01EEA02A85EDFB
:1047F000012AD6ED021AC9ED021A95ED022A86EDBC
:10480000022A22EE011A01EE801A97ED020A00EE4A
:10481000201A9FED170A85ED021AFCF7E9F80B4BF9
:10482000203B1A1F111FA1F1100004F0B1FDE07828
:1048300010F00100E0703FF46DAFE07820F001006F
:10484000E070E07840F00200E07063E7E46300208D
:104850000080894500A08C4504C40008FC000020AD
:10486000401800205AF8F63F5D896EBFD5A9183B65
:104870006F12833A030A0B701070704710B58EB038
:1048800000240794089409940A940B941C21684608
:104890000C94FBF76EFE174815490160A721C0E98B
:1048A00001144FF6FF71C0E90314846102F0FEFAAF
:1048B0004FF48050079007A90E48FEF7FFFE0D4801
:1048C000FFF795F80B940BA90A480C94FEF7F0FD3E
:1048D0006020CDE90004029408226946054804944A
:1048E000FFF71FF8034802F099FB0EB010BD00005F
:1048F000000800408C6400200F4810B50D4901608D
:104900000321416000214FF420228160C0E903129D
:104910004FF480124261017641768176C17601774B
:104920004177FDF726F9002803D0BDE81040FCF7D9
:104930008CBE10BD006400409C1700200F4810B5CD
:104940000D4901600321416000214FF42022816064
:10495000C0E903124FF480124261017641768176FC
:10496000C17601774177FDF704F9002803D0BDE84F
:104970001040FCF76ABE10BD00680040C41700205C
:10498000154808B5016841F480010160016801F42F
:1049900080010091016841F400110160006800226B
:1049A00000F4001000900F210C20FEF7B5F80C2049
:1049B000FEF7A4F8002205213A20FEF7ADF83A20D0
:1049C000FEF79CF8002205213B20FEF7A5F8BDE884
:1049D00008403B20FEF792B83038024010B52D4A0F
:1049E0000221052004F0ACFF2B4C2A4A0221E06290
:1049F0001832102004F0A4FF2063284A0021284820
:104A000004F0CAFF254A206024320021254804F022
:104A1000C3FF224A606048320021234804F0BCFFF3
:104A20001E4AA0606C320021204804F0B5FF1B4AEA
:104A3000E060903200211E4804F0AEFF174A20616A
:104A4000B43200211B4804F0A7FF124A6061B43A57
:104A50000021194804F0A0FF0E4AA061903A0021FD
:104A6000164804F099FF0B4AE0616C3A00211448A3
:104A700004F092FF074A2062483A0021114804F0EE
:104A80008BFF044A6062243A00210F4804F084FF3F
:104A9000A06210BDA0C300080000002014C20008DE
:104AA000196D0008216D0008956D00082946000861
:104AB000AD90000835150008FD3E0008813F000854
:104AC0001140000829400008693F00082DE9F04323
:104AD00087B014216846FBF74CFD6048002501684B
:104AE00041F002010160016801F0020105910168D5
:104AF00041F001010160016801F0010105910168C7
:104B000041F008010160016801F0080105910168A8
:104B100041F004010160016801F0040105910168A0
:104B200041F040010160016801F040010591016818
:104B300041F020010160016801F020010591016848
:104B400041F0800101600068DFF8148100F080000E
:104B50000590012240214046FDF798FC414F00227C
:104B60004FF4E0513846FDF791FC3F4E01221021F1
:104B70003046FDF78BFCDFF8F490012211464846E1
:104B8000FDF784FC01244020CDE90004029469462D
:104B900040460394FDF782FB4FF4C0508DE831008E
:104BA000694638460395FDF779FB082000904FF4DD
:104BB0008810CDE9010469464046FDF76FFBA0026D
:104BC000CDE9000469463846CDE90245FDF766FBAC
:104BD0001020CDE90004022569463046CDE90245A2
:104BE000FDF75CFB30204FF40416CDE90006694662
:104BF00002941F48FDF752FBCDE900466946404646
:104C00000294FDF74BFB0094694648460194CDE9B8
:104C10000245FDF743FB002205210620FDF77CFF3E
:104C20000620FDF76BFF002205210920FDF774FF28
:104C30000920FDF763FF002205210A20FDF76CFF24
:104C40000A20FDF75BFF002205211720FDF764FF16
:104C50001720FDF753FF07B0BDE8F083303802405E
:104C600000180240001C0240000002400004024004
:104C7000000802400D4810B50B4901600C49416025
:104C800000214FF480428160C0E9031241618161DB
:104C9000C1610162FDF706FC002803D0BDE81040A9
:104CA000FCF7D3BC10BD0000005C0040EC170020F6
:104CB000801A0600104810B50E4901604FF4827149
:104CC0004160002102228160C0E903120122426199
:104CD000520282613822C0E90721416281620A21C1
:104CE000C162FEF70DFA002803D0BDE81040FCF7C2
:104CF000ACBC10BD003001404018002010B588B099
:104D00001C216846FBF735FC144813490024C0E910
:104D1000001441F28731C0E9024104618461FEF769
:104D20000FFC08B1FCF791FC0C48FEF760FE08B1DF
:104D3000FCF78BFC6020CDE9000402940022694658
:104D400006480494FEF7EDFD08B1FCF77EFC03482D
:104D5000FEF7BCFD08B010BD00440140581900200A
:104D60000E4810B50C4901600D4941604FF4805167
:104D700081604900C160C91001610C2141610021BD
:104D80008161C161FFF710F8002803D0BDE8104031
:104D9000FCF75BBC10BD000000480040A0190020DB
:104DA000A0860100FEE7000070B505462DED028BE0
:104DB0000C46B0EE608A10EE100A07F035F941ECAF
:104DC000100B00F047FA51EC100B06F087FB00EED9
:104DD000100A05EB04100E4930F9080CF7EE001A22
:104DE00000EE900AB0EE481AA1F13400F8EEE00AA5
:104DF00000F050FBBDEEC00ABDEC028B214610EE68
:104E0000100ABDE8704002B20248FCF7F2BB000095
:104E1000446900209C17002070B505462DED028BDB
:104E20000C46B0EE608A10EE100A07F0FDF841EC77
:104E3000100B00F00FFA51EC100B06F04FFB00EED8
:104E4000100A05EB04100E4930F9080CF7EE001AB1
:104E500000EE900AB0EE481AA1F13400F8EEE00A34
:104E600000F018FBBDEEC00ABDEC028B214610EE2F
:104E7000100ABDE8704002B20248FCF7BABB00005D
:104E80009C6800209C17002030B504462DED028B55
:104E9000B0EE408AB0F90800154600EE100AB4F9E9
:104EA0000A003C49B8EEC01A00EE100A83B0F0EEDA
:104EB000481AF8EEC00A00EE105AA1F13400B8EE1C
:104EC000C00A00F0B5FABDEEC00A3249F0EE481A49
:104ED00010EE100AADF80000B4F9180000EE100A48
:104EE000B4F91A00B8EEC01A00EE100AA1F13400AD
:104EF000F8EEC00A00EE105AB8EEC00A00F098FAB8
:104F0000BDEEC00A2349F0EE481A10EE100AADF8C3
:104F10000200B4F9280000EE100AB4F92A00B8EE35
:104F2000C01A00EE100AA1F13400F8EEC00A00EE3B
:104F3000105AB8EEC00A00F07BFABDEEC00A15495F
:104F4000F0EE481A10EE100AADF80400B4F938007B
:104F500000EE100AB4F93A00B8EEC01A00EE100ADA
:104F6000A1F13400F8EEC00A00EE105AB8EEC00A03
:104F700000F05EFABDEEC00A6A46012110EE100A8A
:104F8000ADF806000448FCF717FB03B0BDEC028B3C
:104F900030BD0000C06700209C17002010B52DED2B
:104FA000068BDFED5A8AB0EE683A9FED599AF0EE23
:104FB000492ADFED589AB0EE692A9FED57AAF0EE24
:104FC0004A1A9FED568AB0EE080A5548B0EE481AC4
:104FD000F0EE480A00F0BAFA5148B0EE683AF0EE46
:104FE000492AB0EE692AF0EE4A1AB0EE481AF0EEFD
:104FF000480AB0EE080A343000F0A8FA4848B0EE8B
:10500000683AF0EE492AB0EE692AF0EE4A1AB0EE9C
:10501000481AF0EE480AB0EE080A683000F096FA36
:105020003F48F0EE683AB0EE493AF0EE692AB0EE49
:105030004A2AF7EE001AB0EE481AF0EE480AB0EE2F
:10504000080A9C3000F058FA3548B0EE683AF0EEA5
:10505000492AB0EE692AF0EE4A1AB0EE481AF0EE8C
:10506000480AB7EE000ADC3000F070FADFED2DAA36
:10507000B0EE683AF0EE492AB0EE692AF0EE4A1A2C
:10508000B0EE481AF0EE480AB0EE6A0A264800F080
:105090005DFA2548F0EE683AB0EE493AF0EE692A3A
:1050A000B0EE4A2AF7EE001AB0EE481AF0EE480ABF
:1050B000B0EE080A343000F01FFA1B48B0EE683A30
:1050C000F0EE492AB0EE692AF0EE4A1AB0EE481A1C
:1050D000F0EE480AB7EE000A743000F037FAB0EE8E
:1050E000683AF0EE492AB0EE692AF0EE4A1AB0EEBC
:1050F000481AF0EE480AB0EE6A0ABDEC068B0A4880
:10510000BDE81040A83000F021BA00000000FA43CA
:105110000000FAC300401C4600401CC6000000000E
:105120008C670020000048439C68002010B510EEFA
:10513000100A06F079FF9FED081B53EC112B06F0C7
:10514000A1FC9FED071B53EC112B06F0ADFA06F006
:10515000C5F900EE100A10BD182D4454FB2109407A
:10516000000000000080664010B52DED068BB0EE0B
:10517000608AB0EE409A71EE488AF5EEC08AF1EE90
:1051800010FA2BD928B318EE900A06F04DFF39EE2D
:10519000480A41EC1A0B10EE100A06F045FF41ECEC
:1051A000100BB0EE4A1AF0EE6A1A02F0B9FC51EC9C
:1051B000100B06F093F900EE100AB5EEC00AF1EEFE
:1051C00010FA01D230EE280A30EE080ABDEC068B48
:1051D00010BDB4EEC89AF1EE10FA02D2B0EE480A51
:1051E000F4E7B4EEC19AF1EE10FA02DDB0EE410A36
:1051F000ECE7B0EE490AE9E7F4EE410AF1EE10FA05
:1052000006D131EE820AF6EE000A20EE200A70473F
:1052100030EE600A31EE601AC0EE010A32EE611A19
:10522000B0EE610A00EE810A7047000010B510EE82
:10523000100A06F0F9FE9FED051B53EC112B06F04A
:1052400021FC06F04BF900EE100A10BDF8C1631AFC
:10525000DCA54C4010B52DED048B9FED1A9BB0EEF4
:10526000491AF0EE691A02F05BFCB0EE408AF0EEEB
:10527000608A9FED160B51EC180B53EC102B06F0C7
:10528000A7FD07D253EC192B51EC180B06F0E2FDE9
:1052900041EC180B9FED0F0B51EC180B53EC102B3E
:1052A00006F0B4FB07D853EC192B51EC180B06F0A1
:1052B00047F941EC180BB0EE480AF0EE680ABDEC75
:1052C000048B10BD0000000000807640000000004C
:1052D0000080664000000000008066C0FEE7F0EE3F
:1052E000400A90ED000A20EE201A90ED070A30EEF9
:1052F000200A80ED070AD0ED0B1AB4EEE10AF1EEB8
:1053000010FA06DCD0ED0A1AB4EEE10AF1EE10FA5A
:1053100001D2C0ED071A90ED010AD0ED071A90ED09
:10532000062A20EE210A30EEC22AD0ED021A31EE12
:10533000000A61EE821A90ED091A30EE210AB4EEED
:10534000C01AF1EE10FA06D390ED081AB4EEC01AA6
:10535000F1EE10FA01DDB0EE410AC0ED060A80ED73
:105360000C0A704710B530EEC00A2DED028B9FED90
:105370000C8AF0EE480A02F055FC10EE100A0949BA
:10538000884204DD30EE480ABDEC028B10BD10EE01
:10539000100A05498842F7D330EE080AF4E7000006
:1053A0000000B44300003443000034C380ED040A1D
:1053B00030EEC00AC0ED030A80ED050AFFF78FBF8B
:1053C00010B504462DED048BB0EE609ADFED178A20
:1053D000F0EE680A02F026FCB0EE408AB5EEC08A14
:1053E000F1EE10FA01D238EE288AF0EE680AB0EE3B
:1053F000490A02F017FCF0EE400AF5EEC00AF1EEA1
:1054000010FA01D270EEA80A84ED048AB0EE480AC0
:10541000C4ED030AFFF7A6FF84ED050A2046BDECA4
:10542000048BBDE81040FFF75ABF00000000B443F2
:1054300070B505462DED068BF0EE418AB0EE409A30
:10544000B0EE60AAF0EE619A0C46F0EE490AB0EEBA
:10545000680A0846FFF7AAFF78EEC90AB0EE408A4C
:105460009FED0B0AF0EEE00AF4EEE90AF1EE10FA15
:1054700006DDF0EE480AB0EE4A0A2846FFF796FF2E
:1054800084ED0C8A85ED0C0ABDEC068B70BD000026
:105490000000000070B505462DED068BF0EE418A48
:1054A000B0EE409AB0EE60AAF0EE619A0C46F0EED3
:1054B000490AB0EE680A0846FFF782FF78EEC90A8B
:1054C000B0EE408A9FED0B0AF0EEE00AF4EEE90A36
:1054D000F1EE10FA06DDF0EE480AB0EE4A0A284670
:1054E000FFF764FF84ED0C8A85ED0C0ABDEC068B9A
:1054F00070BD00000000000000B501000ED081ED7D
:105500000C2AC1ED0B2A81ED0E3AC1ED0D3A81EC6A
:10551000040A00F005F8012081F83C0000BD0000FD
:1055200000280FD09FED080A80ED040A80ED050ADF
:1055300080ED060A80ED0A0A80ED070A80ED080A70
:1055400080ED090A704700000000000080EC030AAB
:105550009FED080A80ED030A80ED040A80ED050A3C
:1055600080ED060A80ED070A80ED0C0A2030C0ECC1
:10557000041A704700000000A0B1D0ED101AC0ED71
:10558000111A90ED0F1A80ED101AC0ED060A80ED89
:10559000070A30EEC00A80ED0F0A017829B101290F
:1055A0003BD078E09FED3D0A7047D0ED010A60EEF8
:1055B000801AC0ED091AD0ED0A0A90ED022A42EED7
:1055C000000A30EE410AC0ED0A0A90ED0D2A80ED86
:1055D0000E2A90ED0C2A80ED0D2A80ED0C0A90ED3C
:1055E000031A21EE001A80ED0B1A90ED050AF4EE75
:1055F000C00AF1EE10FA09DCB1EE400AF4EEC00A7E
:10560000F1EE10FA02D390ED0A0A01E080ED0A0AE9
:1056100031EE800A30EE010A2BE070EE410A90ED87
:10562000012A20EE822A80ED092AD0ED020A60EEDE
:10563000800AC0ED0A0AD0ED0D2A72EE200AC0EDF4
:105640000E2AD0ED0C2AC0ED0D2AF0EE002A01EE54
:10565000620A30EE210A80ED0C0A90ED031A21EE69
:10566000000A80ED0B0A30EE800AD0ED080A30EE19
:10567000200A80ED080AD0ED040AB4EEE00AF1EE4B
:1056800010FA06DCF1EE600AB4EEE00AF1EE10FA70
:1056900001D2C0ED080A90ED080A70470000000032
:1056A000002828D0002A26D0017092ED001A80ED43
:1056B000011A92ED011A80ED021A92ED021A80EDA4
:1056C000031A80ED040A9FED0C0AC0ED050A80ED77
:1056D0000E0A80ED0D0A80ED0C0A80ED080A80EDBF
:1056E0000B0A80ED0A0A80ED090A80ED110A80EDAF
:1056F000100A80ED0F0A70470000000010B509493C
:105700000446086032210848FAF711FF06482621AE
:105710004C30FAF70CFF2046BDE810401922024930
:10572000FEF7CEBBB0010020D465002070B5564C0A
:1057300094F8240000281BD00020A4F14C01054659
:105740000A5C0F2A02D10A18127E92B1401CC0B224
:105750001928F5D94C4884F8245032214C38FAF7EE
:10576000E6FE26214848FAF7E2FE00BF84F82450FE
:1057700070BD0844B0F80110C1F30A01218081789E
:10578000CA08C17842EA4112C2F30A026280027971
:10579000890941EA8202417942EA8122C2F30A027E
:1057A000A2804A08817942EAC112C2F30A02E28069
:1057B0000A09C17942EA0112C2F30A022281027A7D
:1057C000C90941EA4202417A42EA4122C2F30A028D
:1057D00062818A08817A42EA8112C2F30A02A281B6
:1057E000C27A490941EAC201E1818189C1F30A0112
:1057F0002182417BCA08817B42EA4112C2F30A023C
:105800006282C27B890941EA8202017C42EA8122EA
:10581000C2F30A02A2824A08417C42EAC112C2F3E0
:105820000A02E2820A09817C42EA0112C2F30A02F8
:105830002283C27CC90941EA4202017D42EA412237
:10584000C2F30A0262838A08417D42EA8112C2F3EE
:105850000A02A283827D490941EAC201E183C07D37
:1058600000F0010184F82010C0F3400184F82110F9
:10587000C0F3800184F82210C0F3C00084F8230034
:105880000148FEF757FC71E7206600202DE9F74F2D
:10589000F84981B00868026822F001020260F64807
:1058A0000268136823F00103136003E00A6822F022
:1058B00001020A60EF4909680A68D207F6D103E0DD
:1058C000016821F001010160EB4800680168C90727
:1058D000F6D1EA48EA4AEB4BD0F84C90E84CE94D57
:1058E000E74EE84FDFF898E3DFF894C3D9F80000FB
:1058F000E449483A603318341835303E78374FF46D
:10590000006A0CF1300C704535D9884205D09042C0
:1059100003D0984201D0A04201D1202026E0A84225
:1059200005D0B04203D0B84201D0604501D1504605
:105930001CE0DFF8508308F13008404511D0DFF853
:105940004083A8F1180840450BD0DFF8388308F1F0
:105950009008404505D0DFF8288308F14808404505
:1059600002D14FF4001001E04FF00060DFF8108327
:10597000A8F14C083AE0DFF80C8308F1A80840458C
:1059800037D9884205D0904203D0984201D0A04236
:1059900001D1202026E0A84205D0B04203D0B84271
:1059A00001D0604501D150461CE0DFF8D88208F1F3
:1059B0003008404511D0DFF8C882A8F118084045EA
:1059C0000BD0DFF8C08208F19008404505D0DFF821
:1059D000B08208F14808404502D14FF4001001E0C0
:1059E0004FF00060DFF89882A8F15008C8F8000076
:1059F00074E0DFF8908208F14808404537D98842C2
:105A000005D0904203D0984201D0A04201D120207D
:105A100026E0A84205D0B04203D0B84201D060458C
:105A200001D150461CE0DFF85C8208F130084045A7
:105A300011D0DFF84C82A8F1180840450BD0DFF8F0
:105A4000448208F19008404505D0DFF8348208F11F
:105A50004808404502D14FF4001001E04FF00060CB
:105A6000DFF82082A8F11008C8F80C0036E0884260
:105A700005D0904203D0984201D0A04201D120200D
:105A800026E0A84205D0B04203D0B84201D060451C
:105A900001D150461CE0DFF8EC8108F130084045A8
:105AA00011D0DFF8DC81A8F1180840450BD0DFF8F1
:105AB000D48108F19008404505D0DFF8C48108F191
:105AC0004808404502D14FF4001001E04FF000605B
:105AD000DFF8B081A8F11008C8F80800D9F8000074
