:020000040800F2
:100000001074002029030008C9590008714600082F
:1000100039520008810E0008DD7F00080000000052
:10002000000000000000000000000000690200085D
:100030003518000800000000C502000835770008E8
:100040004303000843030008430300084303000878
:100050004303000843030008AF19000843030008E6
:1000600043030008B5190008BB1900084303000842
:10007000C1140008430300084303000843030008B9
:100080004303000843030008430300084303000838
:10009000850E0008910E000843030008C1190008EE
:1000A0004303000843030008430300084303000818
:1000B000F5770008430300084303000843030008E2
:1000C00043030008430300084303000843030008F8
:1000D000430300084303000843030008C97F0008E6
:1000E00043030008430300084303000843030008D8
:1000F00043030008430300084303000843030008C8
:1001000043030008430300084303000843030008B7
:1001100043030008430300084303000843030008A7
:100120004303000843030008CD14000843030008FC
:100130004303000843030008430300084303000887
:100140009D0E0008A90E00084303000843030008A1
:100150004303000843030008430300084303000867
:100160004303000843030008430300084303000857
:100170004303000843030008430300080000000095
:10018000430300084303000800F002F800F05CF8A5
:100190000AA090E8000C82448344AAF10107DA45E2
:1001A00001D100F051F8AFF2090EBAE80F0013F0D8
:1001B000010F18BFFB1A43F00103184704D00000D9
:1001C00024D000000A444FF0000C10F8013B13F05B
:1001D000070408BF10F8014B1D1108BF10F8015BA0
:1001E000641E05D010F8016B641E01F8016BF9D193
:1001F00013F0080F1EBF10F8014BAD1C0C1B09D1EA
:100200006D1E58BF01F801CBFAD505E014F8016B5B
:1002100001F8016B6D1EF9D59142D6D370470000ED
:100220000023002400250026103A28BF78C1FBD8FF
:10023000520728BF30C148BF0B6070471FB50CF094
:100240004AFD1FBD10B510BD00F002FA1146FFF7C0
:10025000F5FF0AF0B1F800F020FA03B4FFF7F2FF5F
:1002600003BC00F023FA00002C4B19680868B0E8C2
:10027000F04F80F30988BFF36F8F4FF0000080F3D9
:10028000118870470000000008480068006880F38B
:1002900008884FF0000080F3148862B661B6BFF39F
:1002A0004F8FBFF36F8F00DF00BF00BF08ED00E08E
:1002B000DFF80C00016841F470010160704700BF75
:1002C00088ED00E0EFF30980BFF36F8F134B1A68DE
:1002D0001EF0100F08BF20ED108A20E9F04F1060CB
:1002E00009B44FF0500080F31188BFF34F8FBFF374
:1002F0006F8F0BF031F94FF0000080F3118809BCCB
:1003000019680868B0E8F04F1EF0100F08BFB0EC95
:10031000108A80F30988BFF36F8F70474800002070
:10032000EFF30580704700000948804709480047FF
:10033000FEE7FEE7FEE7FEE7FEE7FEE7FEE7FEE795
:10034000FEE7FEE704480549054A064B70470000F2
:10035000E577000889010008106E00201074002065
:10036000107000201070002053EA020C00F0698029
:100370002DE9F04B4FF00006002B1FBFB3FA83F5B9
:1003800003FA05F424FA05F65E4012BF1643B2FAEA
:1003900082F502FA05F4C5F120051EBF22FA05FC1C
:1003A00044EA0C04203556EA044C4FEA144418BFC2
:1003B000641C4FF000084FF00009904271EB030CF1
:1003C00039D3002919BFB1FA81F701FA07F6B0FA5B
:1003D00080F700FA07F6C7F120071EBF20FA07FCD6
:1003E00046EA0C062037B6FBF4FCA7EB0507103FE6
:1003F00007F01F0BCBF120060CFA0BFB2CFA06F6CC
:1004000044BFB3460026202FA4BF5E464FF0000B2A
:100410005BEA060C08BF4FF0010B19EB0B09ABFBB5
:10042000027C48EB0608C01B06FB02CC0BFB03CC8E
:1004300071EB0C01C1E70B46024641464846BDE858
:10044000F08B13B54FF000004FF00001AFF30080C8
:10045000BDE81C40704710B5431C02E010F8011BBA
:1004600071B18107FAD14FF0013202C88C1A8C4366
:1004700014EAC211F9D0C01A0A0603D0C01E10BD7A
:10048000C01A10BD0A0401D0801E10BD0902FCD0A4
:10049000401E10BD032A40F2308010F0030C00F023
:1004A000158011F8013BBCF1020F624498BF11F8AE
:1004B00001CB00F8013B38BF11F8013BA2F1040267
:1004C00098BF00F801CB38BF00F8013B11F00303DF
:1004D00000F06280083AC0F0088051F8043B083A06
:1004E00051F804CBA0E80810F5E7121D5CBF51F8E5
:1004F000043B40F8043BAFF30080D20724BF11F85F
:10050000013B11F801CB48BF11F8012B24BF00F8C3
:10051000013B00F801CB48BF00F8012B704702F007
:10052000FF0343EA032242EA024200F069B84FF0B7
:10053000000200B5134694469646203922BFA0E833
:100540000C50A0E80C50B1F12001BFF4F7AF09073F
:1005500028BFA0E80C5048BF0CC05DF804EB890030
:1005600028BF40F8042B08BF704748BF20F8022B73
:1005700011F0804F18BF00F8012B7047704770478B
:10058000704710B500F05CF8006810BD10B5044667
:1005900000F056F8046010BD10B5203AC0F00B8092
:1005A000B1E81850203AA0E81850B1E81850A0E877
:1005B0001850BFF4F5AF5FEA027C24BFB1E81850D1
:1005C000A0E8185044BF18C918C0BDE810405FEA41
:1005D000827C24BF51F8043B40F8043B08BF7047BD
:1005E000D20728BF31F8023B48BF11F8012B28BFC2
:1005F00020F8023B48BF00F8012B70474FF0000283
:100600000429C0F0128010F0030C3FF492AFCCF13B
:10061000040CBCF1020F18BF00F8012BA8BF20F892
:10062000022BA1EB0C01FFF784BF5FEAC17C24BF62
:1006300000F8012B00F8012B48BF00F8012B704790
:1006400000487047B06D002000487047B06D002032
:100650007546FFF7F9FFAE4605006946534620F0A0
:100660000700854618B020B5FFF76CFEBDE82040B6
:100670004FF000064FF000074FF000084FF0000B5E
:1006800021F00701AC46ACE8C009ACE8C009ACE811
:10069000C009ACE8C0098D46704710B50446AFF3F9
:1006A00000802046BDE81040FFF7D7BD0149182063
:1006B000ABBEFEE726000200704707F0CBBC07F098
:1006C0005FBD10B510EE100A0CF094FA41EC100B5F
:1006D00007F07EFE51EC100B0BF0E6FC00EE100A6A
:1006E00010BDF0EE400AF5EEC00AF1EE10FA02DDA0
:1006F000B0EE600A7047B1EE600AFBE7002803D055
:100700009FED020A80ED000A704700000000000023
:10071000002803D0B3EE060A80ED000A70470000FF
:1007200070B52DED0C8B84B006460C4615469FED3A
:10073000990AF0EE408A9FED970AB0EE409A9FED3D
:10074000950AF0EE40BA9FED930AF0EE409A9FEDC5
:10075000910AB0EE40AA0EB104B11DB904B0BDECCF
:100760000C8B70BD8C48FFF7C9FF8C48FFF7D0FF9A
:100770008A48D0ED000A9FED8A1A60EE810AB0EE39
:10078000600A00F025F9F0EE408A28EEA80AF0EEA3
:10079000408A8248D0ED000AB0EE001A60EE810A6D
:1007A0009FED7F1A60EE810AB0EE600A00F010F94A
:1007B000B0EE409A29EE090AB0EE409ADFED790AD0
:1007C000B7EE000A00EEA80ADFED770A00EEC90ACC
:1007D000DFED760A20EE200A754880ED000A6E48AB
:1007E00090ED000ADFED730A80EE201AB7EE000AE2
:1007F00031EE000A20EE000A6D48D0ED000A80EECE
:10080000801A6D4880ED001A94ED000AB5EEC00A1A
:10081000F1EE10FA0DD194ED010AB5EEC00AF1EE39
:1008200010FA06D194ED020AB5EEC00AF1EE10FA04
:1008300046D09FED580AB0EE408A00200190029009
:100840000390D4ED000A60EEA00A94ED011AD4EDF5
:10085000011A41EE210A94ED021AD4ED021A41EE7A
:10086000210AB0EE600A00F0A9F8B0EE408A94EDDB
:10087000000A20EE080A8DED010A94ED010A20EE2F
:10088000080A8DED020A94ED020A20EE080A8DEDA9
:10089000030ADDED010AF1EE600AB0EE600AFFF72F
:1008A0000CFFF0EE409A9DED031AF0EE410A9DED2B
:1008B000021AB0EE410AFFF702FFB0EE40AA07E0CD
:1008C0009FED340AF0EE409A9FED320AB0EE40AA56
:1008D00095ED000AB5EEC00AF1EE10FA0DD195EDD6
:1008E000010AB5EEC00AF1EE10FA06D195ED020A42
:1008F000B5EEC00AF1EE10FA3CD0B0EE690A00F095
:1009000067F8B0EE408AB0EE690AFFF7DAFEB0EEA3
:1009100040DAB0EE4A0A00F05BF8F0EE40AAB0EE22
:100920004A0AFFF7CEFEB0EE40BA28EE2A0AD5ED0D
:10093000010A20EE200AD5ED000A0DEE200A68EE2D
:100940000B0A95ED021A00EE810AB0EE40CA95ED51
:10095000010A20EE0B0AD5ED020A0AEEE00AF0EEDB
:1009600040CAF0EE6C0AB0EE4C0AFFF7A8FEF0EEBB
:1009700040BA03E09FED070AF0EE40BAB0EE4A1A23
:10098000F0EE690AB0EE6B0A304608F0BDFC00BF1D
:10099000E4E6000000000000E4010020E80100207F
:1009A00035FA8E3CC1BFAD3B9DF8C5362F7C1C414E
:1009B000EC010020506CC24AF001002010B507F095
:1009C000ABFEB7EE001AC1EE000AB0EE600A10BD31
:1009D00010B510EE100A0CF00DF941EC100B07F0F9
:1009E00037FE51EC100B0BF05FFB00EE100A10BD50
:1009F0002DE9F0412DED028B9AB00546B0EE408A0C
:100A00000E4617469846002017901890199014909B
:100A1000159016904DB146B13FB1B8F1000F04D01A
:100A2000B5EEC08AF1EE10FA05D100201AB0BDEC87
:100A3000028BBDE8F08196ED000A8DED170A96ED68
:100A4000010A8DED180A96ED020A8DED190A97ED4F
:100A5000000A8DED140A97ED010A8DED150A97ED48
:100A6000020A8DED160A17AA14A9284608F09EFA64
:100A7000402104A8FFF75BFD002000900190029048
:100A80000390002417A904A80AF09AFA00BF30E0E6
:100A900004A800EB041090ED000AD5ED000A20EE4A
:100AA000200A04A800EB0410D0ED010A95ED011A0C
:100AB00000EE810A04A800EB0410D0ED020A95EDC7
:100AC000021A00EE810A04A800EB0410D0ED030A1C
:100AD00095ED031A00EE810A20EE080AF0EE000AF6
:100AE00080EE201A684600EB840080ED001A601C3E
:100AF000C4B2042CCCDB002410E005EB840090EDA4
:100B0000000A684600EB8400D0ED000A30EE200AAF
:100B100005EB840080ED000A601CC4B2042CECDB01
:100B200028460AF0AFF9012080E7000001221021D9
:100B3000014801F0B7BE0000000002400022102171
:100B4000014801F0AFBE0000000002407047000005
:100B500001221146014801F0A5BE00000004024038
:100B600000220121014801F09DBE00000004024066
:100B700030B5437804781B021BB2234300EE103AD1
:100B8000194CB8EEC00AD4ED000A20EE200A81ED1F
:100B9000000AC37885781B021BB22B4300EE103A83
:100BA000D4ED000AB8EEC00A20EE200A81ED010A59
:100BB000437904791B021BB2234300EE103AB8EECE
:100BC000C00A20EE200ADFED090A81ED020AD0F802
:100BD000060020F07F4000EE100AB8EE400A20EE3A
:100BE000200A82ED000A30BDC800002000401C42EF
:100BF000704709F000BC09F051B9000010B5427807
:100C00000378120212B21A4300EE102A124BB8EE09
:100C1000C00AD3ED010A20EE200A81ED000AC27855
:100C20008478120212B2224300EE102AD3ED010A98
:100C3000B8EEC00A20EE200A81ED010A427900795F
:100C4000120212B2024300EE102AB8EEC00A20EEE1
:100C5000200A81ED020A10BDC800002010B5FFF780
:100C600075FFFFF7C5FF08F099FC08B1802402E08A
:100C700008F000FC044608F05FFE10B144F04000AC
:100C800010BD08F0EBFD204310BD00002DE9FC4134
:100C90000746002016460D4600900190FFF74EFFD4
:100CA000922000F0BDF806226946122000F09AF862
:100CB000FFF73CFF9DF801009DF80010000200B214
:100CC000084300EE100A464CB8EEC00AD4ED000A04
:100CD00020EE200A85ED000A9DF803009DF8021021
:100CE000000200B2084300EE100AD4ED000AB8EE8C
:100CF000C00A20EE200A85ED010A9DF805009DF846
:100D00000410000200B2084300EE100AB8EEC00A58
:100D100020EE200A85ED020AFFF722FF082269462D
:100D2000002000F05FF8FFF713FF9DF800000F2888
:100D300030D19DF803009DF80210000200B2084374
:100D400000EE100AD4ED010AB8EEC00A20EE200A27
:100D500087ED000A9DF805009DF80410000200B21E
:100D6000084300EE100AD4ED010AB8EEC00A20EEE6
:100D7000200A87ED010A9DF807009DF80610000281
:100D800000B2084300EE100AB8EEC00A20EE200AB6
:100D900087ED020AFFF7D2FEA22000F041F80222FE
:100DA0006946222000F01EF8FFF7C0FE9DF8000003
:100DB0009DF80110C00040EA5110B0F5806F01DBD2
:100DC000A0F5006000EE100AB4EE001AF8EEC00ABA
:100DD000B3EE070A00EE810A86ED000ABDE8FC8149
:100DE000C800002070B514460D4640F0800000F0A9
:100DF00017F806E0552000F013F8641E05F8010B03
:100E0000E4B2002CF6D170BD10B50C4640F0800065
:100E100000F006F8552000F003F8207010BD000027
:100E200001B582B04FF47A700090012301AA02A9A3
:100E3000024802F04FFC9DF804000EBD441800204B
:100E400002784078D20042EA5010B0F5806F01DBA2
:100E5000A0F5006000EE100AB4EE001AF8EEC00A29
:100E6000B3EE070A00EE810A81ED000A704710B563
:100E70000C46FFF7D5FF2046BDE81040FFF7D0BF76
:100E8000FEE70000014800F066BF0000A017002048
:100E9000014800F060BF0000A0170020014800F0EA
:100EA0005ABF0000C8170020014800F054BF0000DE
:100EB000C8170020A1F2012107291FD8C9B24B1C75
:100EC00000EB01100121038041731188DFED0C0A52
:100ED00049BA00EE101A4180B8EE400A20EE200A0E
:100EE000DFED080A20EE200A80ED010A518849BA98
:100EF0000181918849BA4181D1790173704700001D
:100F00000000B443000000392DE9F041496817465C
:100F100021F01F0001F01F06B0F5007F3DD12D4CE0
:100F2000002594F8540048B101F0C2FC216D401A2C
:100F3000B0F57A7F02D984F854506560012126B358
:100F400094F854202046002A27D00278B24224D3B5
:100F5000721E0C46914042680A421ED1F2000646BB
:100F600010443A6882607A68C260706808437060B2
:100F700001F09EFC3065307871688440641E8C43BB
:100F80000BD142000020144B1AE03878264620701E
:100F900008B1082803D984F85450BDE8F081756081
:100FA00086F8541001F084FC3065F6E706EB80010A
:100FB0000C7CD1F8111044EA012143F82010401CA8
:100FC0009042F3D386F854507560BDE8F04100F0CC
:100FD000A1BC0000E06C0020506600202DE9FF4F0E
:100FE00089B09B461546402A00D94025E80701D024
:100FF0006D1CEDB24FF000090421CDE902194FEA52
:101000005508CDF8009048468DF814904C464FF0A6
:10101000FF3A08F101073FE0CDF81890CDF81C9099
:101020008CB36000801E5646A84207DA0A9800EB8F
:10103000C40010ED020A06A800F0C7FC06EB44004D
:10104000A84207DA0A9800EBC40010ED010A07A8CD
:1010500000F0BBFC0BEB040001900820049008ABEF
:1010600006AA6946099800F001FD08B100F0ABFC42
:101070004FF47A76099800F058FE032807D03046DE
:10108000761EF7D206E0FFE78DF81880E2E70EB98A
:1010900000F099FC641CE4B2BC42BDD30DB0BDE8C5
:1010A000F08F30B587B005460091002108200291ED
:1010B000CDE9031014468DF81410284600F035FED3
:1010C0000028FAD006AB22466946284600F0CEFC3E
:1010D00007B030BD70B504462DED028B4288018803
:1010E000808855182B188E1A1BB20644511AE380BB
:1010F000014400EE103A9FED208A6684A182401BD5
:101100002086B8EEC00AF0EE480A08F04DFEBDEEAB
:10111000C00AF0EE480A10EE100A2081B4F914005B
:1011200000EE100AB8EEC00A08F03EFEBDEEC00A9E
:10113000F0EE480A10EE100AE082B4F9220000EE48
:10114000100AB8EEC00A08F02FFEBDEEC00AF0EE9D
:10115000480A10EE100AA084B4F9300000EE100A1C
:10116000B8EEC00A08F020FEBDEEC00A10EE100A6C
:101170006086BDEC028B70BDE3A59B3D2DE9F0417F
:101180001E462DED048B17460D4604469FED7A8AC8
:10119000B0EE480A04F054FBF0EE400A94ED040A65
:1011A000012E70EE600AC4ED000AD4ED050AC4ED0C
:1011B000010A04D0022E12D0032E72D0D5E0208B6B
:1011C0002880608B688094ED010AF0EE480A38466A
:1011D00004F0D8FCBDEEC00A10EE100AC4E010EE18
:1011E000100A0BF007FD41EC100B07F0F1F8B0EE20
:1011F000408AF0EE608AB4F918000BF0C2F953ECA3
:10120000182B0BF025FA41EC180B20690BF0F2FCBF
:1012100041EC100B07F01CFAB0EE409AF0EE609A29
:10122000B4F91A000BF0ADF953EC192B0BF010FACE
:1012300053EC182B0AF06AFF0BF074F92880206930
:101240000BF0D8FC41EC100B07F002FAB0EE408A2C
:10125000F0EE608AB4F918000BF093F953EC182BF8
:101260000BF0F6F941EC180B20690BF0C3FC41ECD4
:10127000100B07F0ADF8B0EE409AF0EE609AB4F9BA
:101280001A000BF07EF953EC192B0BF0E1F953EC3B
:10129000182B0BF0C5FB0BF045F96880052063E0C7
:1012A000FFE710EE100A0BF0A5FC41EC100B07F065
:1012B000CFF9B0EE408AF0EE608AB4F91A000BF074
:1012C00060F953EC182B0BF0C3F941EC180B2069B3
:1012D0000BF090FC41EC100B07F07AF8B0EE409A5E
:1012E000F0EE609AB4F918000BF04BF953EC192B9F
:1012F0000BF0AEF953EC182B0BF092FB0BF012F93C
:10130000288020690BF076FC41EC100B07F0A0F967
:10131000B0EE408AF0EE608AB4F918000BF031F9B3
:1013200053EC182B0BF094F941EC180B20690BF0DF
:1013300061FC41EC100B07F04BF8B0EE409AF0EE78
:10134000609AB4F91A000BF01CF953EC192B0BF04E
:101350007FF90AF09DFE53EC182B0BF061FB0BF0AC
:10136000E1F868806FF00400A8802846BDEC048B8B
:10137000BDE8F041FFF7AEBE0000000030B5044606
:101380002DED028B85B0B0F908000D4600EE100A75
:10139000B8EEC00A9FED488A4848F0EE480A04F0CB
:1013A00097FBBDEEC00AF0EE480A10EE100AADF849
:1013B0000000B4F9180000EE100A4048B8EEC00A68
:1013C00004F086FBBDEEC00AF0EE480A10EE100AEB
:1013D000ADF80200B4F9280000EE100A3748B8EE64
:1013E000C00A04F075FBBDEEC00AF0EE480A10EE2C
:1013F000100AADF80400B4F9380000EE100A2F48C6
:10140000B8EEC00A04F064FBBDEEC00AF0EE480A74
:1014100010EE100AADF80600B4F9480000EE100A0C
:101420002648B8EEC00A04F053FBBDEEC00AF0EE49
:10143000480A10EE100AADF80800B4F9580000EEA2
:10144000100A1E48B8EEC00A04F042FBBDEEC00A06
:10145000F0EE480A10EE100AADF80A00B4F9680080
:1014600000EE100A1548B8EEC00A04F031FBBDEEDC
:10147000C00AF0EE480A10EE100AADF80C00B4F9FC
:10148000780000EE100A0D48B8EEC00A04F020FB08
:10149000BDEEC00A6A46012110EE100AADF80E003A
:1014A000284600F047FA02AA0421284600F042FA32
:1014B00005B0BDEC028B30BD00000000506800207C
:1014C000014800F03DBF0000EC1900202DE9F05F5D
:1014D000A748A84BA84CC06CA64DA74EA54F0068C6
:1014E000A449DFF89492DFF88CA2DFF88CB2DFF821
:1014F00084E2A14A483B603418351836303F09F180
:1015000078090AF1300A4FF4006C0BF1300BAEF1A0
:10151000180E884223D99749543926E0A84233D17E
:101520004FF020080AE0504535D1E04606E000BF04
:101530004FF4001802E000BF4FF0006811EA080FF6
:101540007CD08C49884253D9904205D0984203D030
:10155000A04201D0A8422FD14FF0200C45E086498F
:10156000A831884203D983495839096805E082497E
:10157000483188428149F8D949689042D0D0984290
:10158000CED0A042CCD0C9E7B042CED0B842CCD069
:101590004845CAD0C7E75845CAD07045C8D0DFF81B
:1015A000D88108F190084045C2D0DFF8C88108F121
:1015B00048084045C0D1BBE7B04216D0B84214D06D
:1015C000484512D0504510D0584509D0704507D035
:1015D00069499031884203D066494831884202D136
:1015E0004FF4001C01E04FF0006C62484C382AE0D8
:1015F0006149A831884229D9904205D0984203D048
:10160000A04201D0A84202D14FF0200C19E0B04214
:1016100017D0B84215D0484513D0504511D0584581
:1016200009D0704507D054499031884203D05149C0
:101630004831884203D14FF4001C02E095E04FF09E
:10164000006C4C485038C0F800C052E04A4948315C
:10165000884227D9904205D0984203D0A04201D0B9
:10166000A84202D14FF0200C18E0B04216D0B84288
:1016700014D0484512D0504510D0584509D0704577
:1016800007D03D499031884203D03A4948318842D9
:1016900002D14FF4001C01E04FF0006C3748C0F855
:1016A0000CC026E0904205D0984203D0A04201D061
:1016B000A84202D14FF0200C18E0B04216D0B84238
:1016C00014D0484512D0504510D0584509D0704527
:1016D00007D029499031884203D0264948318842B1
:1016E00002D14FF4001C01E04FF0006C2348C0F819
:1016F00008C0234C207880070CD5207820F0020009
:101700002070207840F004002070012211461D480E
:1017100001F0C8F860781C4D80070CD5607820F087
:1017200002006070607840F00400607001221021B7
:10173000284601F0B7F8A07880070CD5A07820F0F3
:101740000200A070A07840F00400A07001221021D7
:10175000284601F0A7F808F0F3FC2078400704D5EC
:101760000A48016841F001010160BDE8F09F0000F6
:10177000441800205864024010600240006002409B
:10178000FC0000200004024000000240103C014028
:1017900001681823CAB2103AB2FBF3F2054B6FF39B
:1017A0000901032A9B5CC36500D9091D81650846B0
:1017B000704700009CCF000810B5014600208B69DF
:1017C0008A6A4FF0C07453B1B3F5005F15D072B19F
:1017D000012A0CD0022A0AD0032A09D104E01AB146
:1017E000012A06D0022A03D1C96AC90100D5012005
:1017F00010BDC96AA142FAD010BD002AF7D0012A53
:10180000F2D0022AF3D0032AF3D010BD30B5046819
:10181000256825F480252560046863608368402B73
:10182000036803D099600068C26030BD9A600068A8
:10183000C16030BD70470000324933484FF48073B7
:1018400091ED000A80ED000A91ED010A80ED010A98
:1018500091ED020A2D4980ED020AB1F9002000EE57
:10186000102AB8EEC00A80ED030AB1F9022000EE9A
:10187000102AB8EEC00A80ED040AB1F9042000EE87
:10188000102AB8EEC00A80ED050AB1F9062000EE74
:10189000102AB8EEC00A80ED060AB1F9082000EE61
:1018A000102AB8EEC00A80ED070AB1F90A2000EE4E
:1018B000102AB8EEC00A80ED080AB1F90C2000EE3B
:1018C000102AB8EEC00A80ED090AB1F90E2000EE28
:1018D000102AB8EEC00A80ED0A0AB1F9102000EE15
:1018E000102A0E22B8EEC00A80ED0B0AB1F91210D0
:1018F00000EE101A0146B8EEC00A80ED0C0A04484A
:10190000FFF76CBBC063002050670020D865002043
:10191000C817002070470000054C00BFFFF78CFF80
:10192000002009F09DFB2060012008F064FDF5E730
:10193000B40100202DE9FC4180461646084600F01F
:1019400077F8050011D000244FEA0D0707EB44019A
:101950004A1C36F9140003F0D3F9641C042CF5DB9F
:101960006A4629464046FFF79CFBBDE8FC817CB5F2
:10197000044600201346009001904A1E4800032AA6
:1019800003D84FF40075801E05E0491F03290DD8C8
:1019900040F2FF150A380DEB00014A1C184603F00F
:1019A000AFF96A4629462046FFF77BFB7CBD012044
:1019B00000F074BE082000F071BE102000F06EBE72
:1019C000202000F06BBE72B6FEE710EE101A017018
:1019D0000A0A42700A0C8270090EC170704700003A
:1019E000114800B590ED000A09F08EFA0F4981ED1B
:1019F000060A90ED010A09F087FA81ED070A90EDD9
:101A0000000A09F081FA0849C43181ED000A90ED1D
:101A1000010A09F079FA81ED010A90ED020A09F054
:101A200073FA81ED020A00BDC0630020FC000020B3
:101A3000012803D0052804D0002070474FF400701F
:101A4000704740F2FF10704790F82020012A07D01D
:101A5000022A05D0416A41F4802141620120704789
:101A6000006842690A43426100207047F0B590F86F
:101A700020500468A468012D05D0022D03D0416ACE
:101A800041F480214DE014F0406F01D1E50045D5CF
:101A9000C4F301640125A5401D608D684FF4C07337
:101AA0009DB1CE6835434E6845EAC605066803EB2E
:101AB0000417F5514FF4C275076805EB04150E695C
:101AC0007E51097D012905D009E00E88CD6845EADF
:101AD0004655EBE701684E5946F480764E51117930
:101AE000D2F805504FF4C67641EA0521056806EBA9
:101AF0000416A9511178D2F801204FF4C47541EAB7
:101B00000221026805EB04155151006803EB041132
:101B1000425842F0010242500020F0BD416A41F4B7
:101B2000001141620120F0BD10B590F82020012A7B
:101B300007D0022A05D0416A41F480214162012088
:101B400010BD3B48D0F8002242F00102C0F800224C
:101B5000D0F8002222F47C52C0F80022D0F80022F3
:101B60004B6A42EA0322C0F800220A7D02F01F03FA
:101B700001229A40D0F81C329343C0F81C32CB6942
:101B8000B3B9D0F80C329343C0F80C328C894B684F
:101B900064F31F434C6900EBC404C4F840320C8961
:101BA0000B6864F31F434C6900EBC404C4F844326F
:101BB000CB69012B16D1D0F80C321343C0F80C328C
:101BC0000C884B6864F31F434C6900EBC404C4F8F1
:101BD00040320C89CB6864F31F434C6900EBC404AA
:101BE000C4F844328B69002BD0F804320ED0134372
:101BF000C0F804320B69002BD0F8143208D013431C
:101C0000C0F81432096A012904D008E09343EFE7D1
:101C10009343F5E7D0F81C121143C0F81C12D0F81A
:101C2000001221F00101C0F80012002010BD0000D8
:101C300000640040704770B590F82040012C05D03A
:101C4000022C03D0416A41F4802128E0046809B3E2
:101C50002469A40720D04FF4D874056804EB01145C
:101C60002D5915F00405956005682D591AD0ED0819
:101C7000556005682C5904F00204D4604FF4DA74FE
:101C8000056804EB01142E5906F00F06082E0CD33C
:101C900008250DE0E468DCE7416A41F40011416287
:101CA000012070BD6D0D1560E3E72D5905F00F059E
:101CB000156105682D59C5F30725956105682C59EF
:101CC000240C54614FF4DC72046802EB0112A45836
:101CD0001C700468A458240A5C700468A458240C7E
:101CE0009C700468A258120EDA704FF4DE72046819
:101CF00002EB0112A4581C710468A458240A5C71F8
:101D00000468A458240C9C710468A258120EDA715D
:101D1000006829B1016941F020010161002070BD16
:101D2000C16841F02001C160F8E70246002092F846
:101D30002010012901D002290CD111688A685201B2
:101D400000D501208A68120100D5401C8968C900AD
:101D500000D5401C70472DE9F05F0546006800245F
:101D60004669D0F804908768D0F80CB0D0F810A07D
:101D7000D0F81880F10748D0F90714D0012181600C
:101D8000B80703D5284600F07AFA0CE0780702D5A8
:101D90004FF4006407E0380702D54FF4805402E0A6
:101DA000284600F06BFAF80516D529684FF48070C4
:101DB0008860B80503D5284600F063FA0CE0780582
:101DC00002D544F4005407E0380502D544F48044B9
:101DD00002E0284600F054FAF80316D529684FF4BB
:101DE00080308860B80303D5284600F04CFA0CE038
:101DF000780302D544F4004407E0380302D544F4E4
:101E0000803402E0284600F03DFA300707D55FEA4B
:101E1000CB6004D52968102044F40074C8607007B2
:101E20004FF0080707D55FEA0B7004D52868C76034
:101E3000284600F0A9F9B00706D52868C0688007D1
:101E400002D0284600F0A2F9700607D55FEACA6002
:101E500004D52968102044F480640861B00607D5D1
:101E60005FEA0A7004D528680761284600F0D6F9B1
:101E7000F00606D528680069800702D0284600F0E1
:101E8000CEF9B00308D55FEAC96005D529681020EE
:101E90004860284600F0C4F9F00307D55FEA0970EE
:101EA00004D528684760284600F0EEF9300446D58E
:101EB0005FEA497040D5F00504D55FEAC87001D0EB
:101EC00044F00104B00504D55FEA887001D544F000
:101ED0000204700504D55FEA487001D544F004049B
:101EE000300529D518F0700F26D008F07000402872
:101EF00015D006DC102809D020280AD0302816D1A9
:101F00000AE050280ED0602811D10EE044F00804F9
:101F10000DE044F010040AE044F0200407E044F02F
:101F2000400404E044F0800401E044F48074286834
:101F3000816921F070018161296804204860002CCA
:101F400005D0686A204368622846FFF773FEBDE843
:101F5000F09F70B5040003D094F8200010B104E0A5
:101F6000012070BD204600F081F82068016841F032
:101F70000101016000F09CFC0546052604E000F02C
:101F800097FC401B0A2811D820684068C007F6D08B
:101F90002068016821F00201016000F089FC05461B
:101FA0000BE000F085FC401B0A2806D9606A40F46B
:101FB0000030606284F82060D2E7206840688007C3
:101FC000EFD4207E0128206801683DD021F08001F7
:101FD0000160607E01282068016838D021F040014E
:101FE0000160A07E01282068016833D021F0200123
:101FF0000160E07E0128206801682ED041F01001C8
:102000000160207F01282068016829D021F00801A3
:102010000160607F01282068016824D021F004015C
:102020000160D4E902010843D4E9041211430843D2
:102030006168491E08432168C86100206062012070
:1020400084F82000002070BD41F08001C0E741F01D
:102050004001C5E741F02001CAE721F01001CFE7B8
:1020600041F00801D4E741F00401D9E7F0B587B0A9
:10207000044614216846FEF75AFA3E4B3E48DFF804
:10208000F0E01968D4F800C03B4A0325022609276E
:1020900010300024491CF4452AD11960012907D1C8
:1020A000016841F000710160006800F00070059067
:1020B000106840F0080010601068CDE9005600F08C
:1020C0000800CDE9047069462C48CDE9024500F0CE
:1020D000F1FA00220621142000F02AFF142000F05B
:1020E00019FF00220621152000F022FF15203AE0FA
:1020F000DFF88CE0F44538D1D0F800C04CF0806CAB
:10210000C0F800C0D0F800C001290CF0806CCDF8F8
:1021100014C0196007D1016841F0007101600068C6
:1021200000F000700590106840F002001060106828
:1021300002AB00F0020005906020CDE9000683E8C4
:10214000B00069460F4800F0B5FA00220621402091
:1021500000F0EEFE402000F0DDFE002206214120CE
:1021600000F0E6FE412000F0D5FE07B0F0BD000013
:10217000006400403400002030380240000C02406F
:1021800000680040000402407047000010B504469B
:1021900000681E498AB0884210D019E0029810B138
:1021A00004280BD105E007AA19480099FEF782FE22
:1021B00004E007AA69462046FEF7A6FE07AB6A467A
:1021C00000212046FFF737FD0028E7D00AB010BDF8
:1021D0001049884210D0F9E7029810B104280BD1B9
:1021E00005E007AA0C480099FEF764FE04E007AA80
:1021F00069462046FEF788FE07AB6A460021204666
:10220000FFF719FD0028E7D0E0E700000064004078
:10221000D86400200068004058650020704770476F
:102220007047000070B5044690F82000012804D0E3
:10223000606A40F40020606218E0022084F8200008
:102240002068016821F00101016000F031FB0546C2
:102250000EE000BF00F02CFB401B0A2808D9606A82
:1022600040F400306062052084F82000012070BD39
:1022700020684068C007EDD1606270BD704770474C
:10228000704770477047704770472DE9F04104462A
:10229000876D00F00DFB064694F8350000250228F6
:1022A00006D08020606584F834500120BDE8F081BC
:1022B0002068016821F0160101602068416921F061
:1022C00080014161206C08B9A06C20B120680168D0
:1022D00021F0080101602068016821F0010101601E
:1022E0000CE000F0E5FA801B052807D92020606586
:1022F000032084F8350084F83450D7E7206800685C
:10230000C007EED194F85C103F208840B8600120EF
:1023100084F8350084F834500020C7E790F8351071
:10232000022903D08021416501207047052180F8F2
:1023300035100068016821F001010160002070473C
:102340002DE9F84304464FF00009CDF800906348AA
:102350004FF41651A56D0068B0FBF1F72E6894F8A4
:102360005C10082000FA01F131420FD021680A68A0
:1023700052070BD50A6822F004020A6094F85C1038
:102380008840A860606D40F00100606594F85C10C2
:102390004FF0010808FA01F0304208D0216849697D
:1023A000090604D5A860606D40F00200606594F8ED
:1023B0005C1004208840304208D0216809688907F1
:1023C00004D5A860606D40F00400606594F85C106E
:1023D00010208840304218D021680968090714D5B8
:1023E000A86020680168490304D50068000308D587
:1023F000A16C07E00168C90503D4016821F0080158
:102400000160216C09B12046884794F85C102020B7
:102410008840304231D021680968C9062DD5A860AE
:1024200094F8350005282068016806D0490347D58F
:10243000006800031DD4616C1CE021F016010160EE
:102440002068416921F080014161206C08B9A06CCD
:1024500020B12068016821F00801016094F85C1047
:102460003F208840A86084F8358084F83490216D3E
:102470001FE0E16B09B120468847606D00282BD032
:10248000606DC00714D0052084F83500206801680D
:1024900021F0010101600098401C0090B84203D86F
:1024A00020680068C007F6D184F8358084F834903D
:1024B000E16C002910D001B02046BDE8F043084788
:1024C0000168C905D5D4016821F01001016084F8C4
:1024D000358084F83490CCE7BDE8F88344000020D0
:1024E0002DE9F041044600F0E3F906465CB1022014
:1024F00084F83500002584F834502068016821F004
:10250000010101600DE00120BDE8F08100F0D0F98B
:10251000801B052805D920206065032084F835003C
:10252000F2E720680068C007F0D1226811682048EF
:102530000140D4E901031843D4E903363343184377
:1025400063691843A3691843E3691843236A18436E
:102550000843616A042903D1D4E90B1319430843E2
:10256000106020684069666A20F0070130460E431B
:10257000012704280CD1A06A0643E06A40B1204636
:10258000FFF71AF920B14020606584F83570BAE78A
:10259000206846612046FFF7FBF894F85C203F2155
:1025A00091408160656584F835700020ACE70000DB
:1025B0003F8010F02DE9F0410446866D90F834001C
:1025C000002501280DD0012084F8340094F83570DE
:1025D0000020012F07D084F8340002252846BDE8EA
:1025E000F0810220FBE7022784F835706065204601
:1025F000FFF70CF994F85C103F208840B060206829
:10260000016841F016010160206C20B1206801686A
:1026100041F0080101602068016841F0010101609A
:10262000DCE7000010B51B4C10281AD0202821D060
:1026300008282AD0012813D109F074FB01280FD0F3
:1026400004F10C01206908F0AFFEE068002807D013
:1026500011494FF080500860BFF34F8FBFF36F8F69
:1026600010BD607840F001006070A07840F001007B
:10267000A07003E0207840F001002070207900284D
:10268000EED0BDE8104007F05BBDE07840F00100FF
:10269000E07010BDFC00002004ED00E0044910B51E
:1026A0000A68024202D00860FFF7BCFF10BD0000BC
:1026B000143C01402DE9F84FDFF8BCA100220125B0
:1026C00003264FF00F090AF1040BAAF1040E00BF14
:1026D0000B6805FA02F42340A34270D10F7907F08A
:1026E0000307012F01D0022F16D187684FEA420855
:1026F00006FA08FC27EA0C07D1F80CC00CFA08FC13
:102700004CEA070CC0F808C04768A7430C79C4F32B
:10271000001494403C4344600C79E443A4070AD07D
:10272000C4684FEA420C06FA0CF7BC438F6807FAFC
:102730000CF72743C7600C7904F00304022C12D174
:10274000D40800EB840CDCF820405707FF0E09FA90
:1027500007F824EA0804D1F8108008FA07F848EAD4
:102760000408CCF8208004684FEA420C06FA0CF703
:10277000BC430F7907F0030707FA0CF727430760FC
:102780004C6814F4403F70D03C4C276847F48047B5
:102790002760246822F0030704F480440094384C36
:1027A00007EB040CDCF8084897074FEA177809FA9A
:1027B00008F7BC43334FB84202D1002724E054E06D
:1027C000314FB84201D101271EE0304FB84201D14C
:1027D000022719E02E4FB84201D1032714E02D4FF4
:1027E000B84201D104270FE02B4FB84201D1052791
:1027F0000AE02A4FB84201D1062705E0284FB84227
:1028000001D1072700E0082707FA08F72743CCF88B
:102810000878DAF800405746D1F804C09C435FEAD4
:10282000CC2C00D51C433C60DBF800405F46D1F85F
:1028300004C09C435FEA8C2C00D51C433C60DEF84E
:1028400000407746D1F804C09C435FEA8C3C00D539
:102850001C433C60084F083F3C68D1F804C09C43CF
:102860005FEACC3C00D51C433C60521C102AFFF4AC
:102870002FAFBDE8F88F0000083C0140443802400B
:102880000030014000000240000402400008024005
:10289000000C0240001002400014024000180240E8
:1028A000001C02400AB1816170470904FBE7000087
:1028B00001488068704700003800002070B50400AF
:1028C00025D094F83D00002520B984F83C502046DE
:1028D00000F052FA242084F83D002068016821F0BD
:1028E000010101602068016841F400410160206835
:1028F000016821F40041016000F006FC4D4A616866
:10290000914201D84C4900E04C49884201D2012053
:1029100070BD4B492368B0FBF1F15E6826F03F06BD
:102920000E435E606368934206D94FF49673594331
:102930004FF47A73B1FBF3F12368491C1E6A26F049
:102940003F06314319626168914210D84900401E28
:10295000B0FBF1F2521CC2F30B02042A01D2042094
:1029600022E0B0FBF1F0401CC0F30B001CE0A268B9
:10297000F2B301EBC10303EB0116431EB3FBF6F305
:102980005B1C43F480431B0549D092B301EBC102A9
:1029900002EB0111401EB0FBF1F0401CC0F30B0034
:1029A00040F4804040F400402168CA694CF6FF734F
:1029B0009A431043C861D4E90710014320680268B4
:1029C00022F0C00211430160D4E9030101432068F1
:1029D000826848F2FF339A4311438160D4E90501CC
:1029E00008432168CA6822F0FF021043C86001E072
:1029F0000EE016E02068016841F0010101602564E5
:102A0000202084F83D00256384F83E50002070BDEE
:102A100001EB4106431EB3FBF6F35B1CB3E7012059
:102A2000C2E701EB4101401EB0FBF1F0401CC0F3D6
:102A30000B00B7E7A086010080841E0000093D005E
:102A400040420F002DE9FF4F83B09A46DDE9118720
:102A500093460446DDF84090FFF72AFF054694F8B8
:102A60003D00202870D11923012274492046009589
:102A700001F014FF0028F5D194F83C00012863D040
:102A8000012084F83C0020680168C90703D101686F
:102A900041F0010101602068016821F400610160DA
:102AA000222084F83D00402084F83E000026266461
:102AB000C4F82490A4F82A80608D20856048E062E4
:102AC000CDE9007553465A462046049901F0E8FDC9
:102AD000002879D1208DD0B1012821D0022820688A
:102AE00024D0416980690090208D032866D8012890
:102AF0002BD0544902283B464FF00002009557D096
:102B00008846204601F0CAFE00285DD13AE02068E0
:102B1000416981690091016841F4007101607DE0C3
:102B20002068016821F480610160F0E7016821F408
:102B3000806101602068016841F4006101602068E3
:102B400041698069009069E075E02A46394620466F
:102B500001F04AFF88BB54E02068016841F400712D
:102B6000016020680069616A0870606A401C6062E8
:102B7000218D491E2185618D491E61852168096964
:102B8000017042E02068016821F4806101602068E2
:102B90000069616A0870606A401C6062208D401E96
:102BA0002085608D401E60853B4600224146009591
:102BB000204601F073FE00B9CEE705E02A4639460B
:102BC000204601F011FF18B1012007B0BDE8F08FD9
:102BD00020680069616A0870606A401C6062208D2C
:102BE000401E81B22185608D401E6085206842694B
:102BF000D243520712D4032903D1016821F4806122
:102C0000016020680069616A0870606A401C606247
:102C1000208D401E2085608D401E6085208D0028FF
:102C20007FF462AF202084F83D0084F83E6084F891
:102C30003C600020C9E70220C7E700000200100046
:102C40000000FFFF040001002DE9FF4F83B09A460A
:102C5000DDE9119793460446DDF84080FFF728FE32
:102C6000054694F83D0020287FD1192301224049D0
:102C70002046009501F012FE002876D194F83C0021
:102C8000012872D0012084F83C0020680168C9073F
:102C900003D1016841F0010101602068016821F45D
:102CA00000610160212084F83D00402084F83E004E
:102CB00000262664C4F82480A4F82A90608D20851C
:102CC0002C48E062CDE9007553465A4620460499E7
:102CD00001F064FD70B930E02A463946204601F023
:102CE000BBFE58B1206C042804D12068016841F46F
:102CF00000710160012007B0BDE8F08F606A2168B3
:102D000000780861606A401C6062218D491E89B2AA
:102D10002185628D521E628522685369DB435B0701
:102D20000BD469B100781061606A401C6062208D2C
:102D3000401E2085608D401E6085208D0028CBD1EF
:102D40002A463946204601F07DFD0028CAD154F8B4
:102D50003D0B016841F400710160202004F81E0958
:102D6000E67766770020C6E7FFE70220C3E70000AA
:102D7000020010000000FFFFF0B587B004461421E8
:102D80006846FDF7D4FB1A49206888422DD11948BE
:102D9000016841F004010160016801F0040105913E
:102DA000016841F0010101600068122400F0010097
:102DB00005904FF400700125032604278DE8F100EB
:102DC00069460D48FFF776FC28028DE8F100694658
:102DD0000A48FFF76FFC07481030016841F4000112
:102DE0000160006800F40000059007B0F0BD00002D
:102DF000005C004030380240000802400000024001
:102E000002488168027811448160704738000020D0
:102E10000B4810B5016841F400710160016841F48C
:102E200080610160016841F480710160032000F05D
:102E30009FF80F2000F006F800F050F8002010BDB9
:102E4000003C024030B50546204887B000240168A8
:102E500041F001010160006806A900F00100009046
:102E600001A800F031F90498B0B100F04DF940002C
:102E700017494FF08042B0FBF1F11648491E02603D
:102E800040F2E732C0E90324C0E90114846100F094
:102E900063FD040003D015E000F036F9E8E70D48C3
:102EA00000F0D8FD04000DD11C2000F033F8102DE7
:102EB00007D2002229461C2000F03AF80648056097
:102EC00000E0012407B0204630BD00004038024039
:102ED00040420F004C1A00203C0000200C4882B0F9
:102EE000016841F480410160006800F48040009076
:102EF0000748001F016841F080510160006800220E
:102F000000F0805000900F21901E02B000F010B829
:102F100044380240002809DB00F01F0201219140E3
:102F20004009800000F1E020C0F800117047000067
:102F3000F0B40E4B1B680C46C3F30223C3F1070524
:102F4000042D00D90425191D072901D2002300E012
:102F5000DB1E012606FA05F1491E214099409E40DC
:102F6000761E16403143F0BC05F064B80CED00E06D
:102F7000064900F0070208684FF6FF03184040EAD0
:102F80000220034A10430860704700000CED00E087
:102F90000000FA052DE9F0470E46050065D0DFF880
:102FA0001481D8F80000F7B200F00700B04207D251
:102FB00088F80070D8F8000000F00700B04254D143
:102FC00028683D4C810712D5400703D5206840F49E
:102FD000E05020602878000703D5206840F4604066
:102FE00020602068A96820F0F0000843206028785D
:102FF000C0072DD0304968680839012812D002284E
:1030000013D0032811D00968890700292DDA216817
:1030100021F0030101432160FFF74AFC814641F2A0
:10302000883A0EE009688903EFE709688901ECE74F
:10303000FFF73EFCA0EB0901514502D90320BDE892
:10304000F0872068696800F00C00B0EB810FEFD1C9
:10305000D8F80010404601F00701B14207D90770C7
:10306000006800F00700B04201D00120E7E72878AF
:10307000400705D52068E96820F4E0500843206047
:103080002878000706D52068296920F4604040EAC6
:10309000C100206000F058F82168084AC1F303110C
:1030A000515CC8400649086006480068FFF7CAFE40
:1030B0000020C4E7003C024008380240A4CF0008CA
:1030C000440000203C0000200F2202600C4A1368DC
:1030D00003F003034360136803F0F0038360136895
:1030E00003F4E053C36012684FF4E05303EAD202E2
:1030F00002610448006800F00700086070470000A3
:1031000008380240003C024004480549006809684C
:10311000044AC1F38221515CC8407047440000203A
:1031200008380240B4CF000804480549006809681F
:10313000044AC1F34231515CC8407047440000204A
:1031400008380240B4CF0008154810B5006810F0E8
:103150000C02144813D01449042A0FD0082A0ED1A7
:103160000F4C241F2268236802F03F025B0207D540
:103170002068C0F38810A0FB010106E0084610BDDE
:103180002168C1F38811A1FB00010023FDF7ECF8D1
:103190002168C1F30141491C4900B0FBF1F010BDA9
:1031A000083802400024F40040787D012DE9F84FF2
:1031B00004006ED02078DFF84C93C007A9F1040515
:1031C0004AD009F104000168C1F38101012908D046
:1031D0000068C0F3810002280AD1D9F8000040023B
:1031E00006D52868800337D560680028E1D033E031
:1031F0006068B0F5803F10D0B0F5A02F286810D0DF
:1032000020F480302860286820F4802028606068DE
:10321000A8B1FFF74DFB06460DE0286840F480306A
:10322000F4E740F480202860F7E700BFFFF740FB99
:10323000801B642873D828688003F7D50CE0FFF75B
:1032400037FB064605E000BFFFF732FB801B642812
:10325000F0D828688003F7D42078DFF8AC828007A4
:103260004FF0000A3ED5A748001D016811F00C0F71
:1032700008D00068C0F3810002280BD1D9F8000003
:10328000400207D42868800716D5E068012800D1DD
:1032900012E033E1E068B8B10120C8F80000FFF7A0
:1032A00007FB064605E000BFFFF702FB801B022874
:1032B000C0D828688007F7D52868216920F0F80071
:1032C00040EAC10028600DE0C8F800A0FFF7F0FA5E
:1032D000064604E0FFF7ECFA801B02281FD8286896
:1032E0008007F7D42078000722D5864F8748616988
:1032F000703771B101210160FFF7DAFA064604E088
:10330000FFF7D6FA801B022809D838688007F7D55E
:103310000EE0C0F800A0FFF7CBFA064605E082E019
:10332000FFF7C6FA801B02287DD838688007F7D4DB
:103330002078400768D5DFF8CCB100270BF13C0BB3
:10334000DBF80000C0000BD4DBF8001041F0805126
:10335000CBF80010DBF80000012700F0805000904F
:103360006B4E3068C00510D4306840F48070306017
:10337000FFF79EFA009005E0FFF79AFA0099401ACD
:10338000022850D83068C005F6D55E4EA0686C366D
:1033900001280FD00528306810D020F001003060DF
:1033A000306820F004003060A068B8B1FFF780FA00
:1033B00000900FE0306840F00100F4E740F00400B6
:1033C0003060F7E7FFF774FA0099411A41F288304C
:1033D000814266D830688007F4D50EE0FFF768FABE
:1033E000009007E0FFF764FA0099411A41F2883033
:1033F000814256D830688007F4D42FB1DBF8001032
:1034000021F08051CBF80010A069C8B33D49091DD7
:103410000968C1F3810102294AD00228504607D029
:10342000C8F8600000E03CE0FFF742FA04463BE0E9
:103430004746C8F86000FFF73BFA064605E000BFC4
:10344000FFF736FA801B02282BD828688001F7D4B2
:10345000D4E907010843A16A2E4A490802EB014159
:10346000626A41EA8211084394F82C1040EA016133
:10347000C9F8001001203866FFF71AFA044606E082
:103480003EE000BFFFF714FA001B022809D82868A5
:103490008001F7D534E000BFFFF70AFA001B0228CD
:1034A00002D90320BDE8F88F28688001F4D427E012
:1034B0000128F7D0D9F80000E26900F480019142B8
:1034C0001CD1226A00F03F01914217D147F6C0712A
:1034D000626A0140B1EB821F10D1A26A4FF0FF3344
:1034E00000F4403103EB5202B1EB024F06D194F8E5
:1034F0002C1000F07060B0EB016F01D00120D1E71B
:103500000020CFE70438024000004742800E4742C7
:10351000007000400000FFFF70B5040009D0606A31
:10352000002540B125616561A56294F8510040B164
:103530000CE0012070BD6068B0F5827FF4D0E561D9
:10354000F2E784F85050204600F044F8022084F856
:1035500051002068016821F040010160A0882189A4
:1035600000F4827001F404410843A18901F4006170
:103570000843217C01F002010843217D01F0010193
:103580000843218B01F400710843217F01F03801C9
:10359000084394F8201001F080010843218D01F4C4
:1035A0000051084321680860A069042101EA104025
:1035B00094F8241001F01001084321684860206845
:1035C000C16921F40061C1616565012084F8510081
:1035D000002070BD2DE9F04186B0064614216846F2
:1035E000FCF7A5FF35493068884264D1344800248F
:1035F000016841F480510160006800F4805005903A
:103600002F481438016841F002010160016801F09F
:1036100002010591016841F0010101600068022585
:1036200000F0010005901820CDE9000502AA03274B
:103630004FF0050882E8900169462248FFF73AF802
:103640008020CDE9000502AA694682E890011E4863
:10365000FFF730F81E4D1D487F062860C5E901744C
:103660004FF48068C5E903486C617812AC61C5E924
:10367000074028466C62FEF733FF08B1FEF7A3F956
:10368000F564AE63124D114860351830E5E8020765
:103690004020A5E81101C00245F81449AC61C5E914
:1036A00007400B486C626030FEF71AFF08B1FEF766
:1036B0008AF9B564AE6306B0BDE8F0810030014020
:1036C00044380240000402400000024040640240CE
:1036D0009C1800202DE9FF4F81B01D4693460446FB
:1036E0004FF001090E9EFFF7E3F8074694F85100EA
:1036F0006168012806D0B1F5827F3CD1A168C9BBC1
:10370000042838D10298002871D0BBF1000FFBD0FB
:10371000002DF9D094F8500001282CD04FF0010A68
:1037200084F850A094F85100042802D0052084F8B1
:1037300051004FF00008C4F85480C4F838B0E58751
:10374000A58702992163E586A586C4F84080C4F860
:10375000448020680168490603D4016841F04001B3
:103760000160E068B0F5006F606808D0F0B3012D2B
:1037700049D081E0FFE7022005B0BDE8F08F08B135
:10378000012D39D1206B21680088C860206B801C16
:103790002063E08E401EE0862EE020688168890765
:1037A0000FD5E18E69B1B9F1010F0AD1216B0988FA
:1037B000C160206B801C2063E08E401EE0864FF0CD
:1037C000000920688168C9070CD0E18F51B1C06839
:1037D000A16B0880A06B801CA063E08F401EE08777
:1037E0004FF00109FFF764F8C01B01E00BE067E050
:1037F000B04201D3701C50D1E08E0028CDD1E08FB3
:103800000028CAD13EE0206B216800780873206B45
:10381000401C2063E08E401EE0862DE02068816819
:1038200089070FD5E18E69B1B9F1010F0AD1216B7A
:1038300009780173206B401C2063E08E401EE086F7
:103840004FF0000920688168C9070CD0E18F51B1A1
:10385000C068A16B0870A06B401CA063E08F401E85
:10386000E0874FF00109FFF723F8C01BB04202D3F5
:10387000701C01D011E086B1E08E0028CED1E08F1F
:103880000028CBD13A463146204603F055FE50B1D0
:103890002020606584F8508012E084F851A084F8FC
:1038A0005080032068E7A06818B92068C168806864
:1038B000009084F851A084F85080606D0028F1D009
:1038C000012059E77047704770B590F83C20012AF5
:1038D00032D0012480F83C40022280F83D20036869
:1038E0005A689D6822F070060A6832435A60134B8A
:1038F00002689A4214D0B2F1804F11D0104B9A4214
:103900000ED0104B9A420BD00F4B9A4208D00F4B5F
:103910009A4205D00E4B9A4202D00E4B9A4204D1E5
:10392000496825F080031943916080F83D400021EB
:1039300080F83C10084670BD022070BD00000140B8
:103940000004004000080040000C0040000401405A
:10395000004001400018004010B5040003D094F866
:103960003D0010B107E0012010BD002084F83C00AC
:10397000204600F01FF8022084F83D00211D206839
:1039800003F06EFF012084F8460084F83E0084F8BE
:103990003F0084F8400084F8410084F8420084F835
:1039A000430084F8440084F8450084F83D0000207A
:1039B00010BD000008B500680649884208D10648D5
:1039C000016841F400310160006800F400300090AB
:1039D00008BD0000004401404438024090F83D100A
:1039E000012901D001207047022180F83D100068B4
:1039F0001149884214D0B0F1804F11D00F4988424C
:103A00000ED00F4988420BD00E49884208D00E498B
:103A1000884205D00D49884202D00D49884204D120
:103A2000816801F00701062903D0016841F0010116
:103A300001600020704700000000014000040040C9
:103A400000080040000C004000040140004001401C
:103A50000018004090F83D10012901D00120704766
:103A6000022180F83D100168CA6842F00102CA6074
:103A700000681149884214D0B0F1804F11D00F492D
:103A800088420ED00E4988420BD00E49884208D099
:103A90000D49884205D00D49884202D00C49884220
:103AA00004D1816801F00701062903D0016841F0C3
:103AB0000101016000207047000001400004004047
:103AC00000080040000C004000040140004001409C
:103AD0000018004070B5044690F83C00002501280D
:103AE00017D0012684F83C60022084F83D0020684D
:103AF000826822F0770222F47F42826008685028B0
:103B000038D00DDC20284FD005DC90B3102811D11F
:103B10004AE0022070BD302846D040280AD13BE060
:103B200060282FD070280DD0B0F5805F03D0B0F59D
:103B3000005F12D0012584F83D60002084F83C002D
:103B4000284670BDCB68D1E90121206803F0FDFE55
:103B50002068816841F0770109E0CB68D1E9012153
:103B6000206803F0F2FE2068816841F480418160A2
:103B7000E1E719E0CA684968206803F0EFFF5021C7
:103B8000206806E0CA684968206803F0F8FF6021F1
:103B9000206803F0E4FECEE7CA684968206803F0B5
:103BA000DDFF40212068F4E7226801461046F0E777
:103BB00070472DE9F04104460068C66805694FF07A
:103BC0000007A90713D5B10711D5F91E016101201E
:103BD0002077206880698007204602D0FFF7E8FF41
:103BE00004E000F0A9F8204600F03BF927776807C9
:103BF00016D5700714D521686FF004000861022003
:103C000020772068806910F4407F204602D0FFF7BB
:103C1000CFFF04E000F090F8204600F022F927776B
:103C2000280715D5300713D521686FF00800086103
:103C3000042020772068C0698007204602D0FFF763
:103C4000B7FF04E000F078F8204600F00AF9277783
:103C5000E80616D5F00614D521686FF0100008614B
:103C6000082020772068C06910F4407F204602D0E9
:103C7000FFF79EFF04E000F05FF8204600F0F1F847
:103C80002777E80708D0F00706D021686FF0010019
:103C90000861204600F04AF9280608D5300606D506
:103CA00021686FF0800008612046FFF70BFE680670
:103CB00008D5700606D521686FF0400008612046DF
:103CC00000F03BF9A8060AD5B00608D521686FF0C8
:103CD000200008612046BDE8F041FFF7F4BDBDE8D3
:103CE000F081000010B586B0044614216846FCF748
:103CF0001EFC0E492068884215D10D48002102683B
:103D000042F020020260006800F020000590402090
:103D100000900220CDE901010320CDE9031069469E
:103D20000448FEF7C7FC06B010BD00000044014087
:103D30003038024000140240704770B5044690F8D5
:103D40003C0000260D4601280FD0012084F83C00DD
:103D50006AB1042A1DD0082A2FD00C2A3FD0012690
:103D6000002084F83C00304670BD022070BD206801
:103D700003F032FE2068816941F00801816120680A
:103D8000816921F004018161206881692A691143F8
:103D900011E0206803F050FE2068816941F4006161
:103DA00081612068816921F4806181612068816975
:103DB0002A6941EA02218161D2E7206803F072FE9C
:103DC0002068C16941F00801C1612068C16921F022
:103DD0000401C1612068C1692A69114311E02068AA
:103DE00003F094FE2068C16941F40061C16120685C
:103DF000C16921F48061C1612068C1692A6941EA11
:103E00000221C161ACE710B5040003D094F83D0075
:103E100010B107E0012010BD002084F83C002046CE
:103E200000F01EF8022084F83D00211D206803F0F8
:103E300017FD012084F8460084F83E0084F83F0016
:103E400084F8400084F8410084F8420084F843007C
:103E500084F8440084F8450084F83D00002010BD3B
:103E60007047704710B50446022249B104290ED0AC
:103E7000082913D094F84100012816D0012010BD64
:103E800094F83E000128F9D184F83E200FE094F820
:103E90003F000128F2D184F83F2008E094F8400068
:103EA0000128EBD184F8402001E084F84120012270
:103EB000206803F03DFD16492068164A884201D06B
:103EC000904203D1436C43F400434364206888422A
:103ED00013D0B0F1804F10D00F4988420DD00F4958
:103EE00088420AD00E49884207D0904205D00D4939
:103EF000884202D00C49884204D1816801F0070150
:103F0000062903D0016841F001010160002010BDC5
:103F1000000001400004014000040040000800408F
:103F2000000C004000400140001800400068B0F163
:103F3000804F01D1FEF764BF7047704770477047EC
:103F4000F8B5016804460868CA684B6910F00F0F9D
:103F50004FF0000559D003F0010602F49077374383
:103F600065D0C10705D0D10503D5616C41F00101D1
:103F70006164410705D5D90703D0616C41F00201A6
:103F80006164810705D5D90703D0616C41F0040154
:103F90006164010707D502F02001314303D0616C51
:103FA00041F008016164616C00293AD0800604D5B3
:103FB000900602D5204603F0D0FE20684069616C6F
:103FC000C0F38010090700D460B3204603F090FED0
:103FD00020684069400621D52068143050E8001F51
:103FE00021F0400140E80012002AF5D1E06BA8B1B1
:103FF00072490165E06BFEF791F9002811D0E06B82
:10400000016D01B0BDE8F040084783060FD5930667
:104010000DD52046BDE8F84003F09FBE2046FFF7CF
:104020008EFFF8BD2046FFF78AFF6564F8BD266B5A
:104030002023012E7ED1C6067CD5D6067AD5086807
:104040004868009048694FF0020640064DD5E26B83
:10405000106840684FF480770004000C3AD0A18DBE
:10406000814237D9E085D069B8422DD020680C3024
:1040700050E8001F21F4807140E80012002AF5D1B9
:104080002068143050E8001F21F0010140E80012C0
:10409000002AF5D12068143050E8001F21F04001BB
:1040A00040E80012002AF5D184F8423025632068E8
:1040B0000C3050E8001F21F0100140E80012002AE7
:1040C000F5D1E06BFEF7E1F86663A08DE18D401A53
:1040D00081B206E0A18D8142A8D1D069B842A5D1B4
:1040E00066632046FFF72AFFF8BDA08DE18D401AD8
:1040F00081B2E08D0028F7D00029F5D020680C307F
:1041000050E8002F22F4907240E80027002FF5D1EC
:104110002068143050E8002F22F0010240E8002708
:10412000002FF5D184F84230256320680C3050E828
:10413000002F00E006E022F0100240E80023002BF0
:10414000F3D1CDE705062BD5150629D594F8410006
:104150002128C9D1A068B0F5805F01D12069B0B134
:10416000206A411C2162216800784860E08C401E72
:104170000004000CE084B7D12068C16821F0800100
:10418000C1602068C16841F04001C160F8BD206A8B
:104190000088C0F308004860206A801C2062E5E7C0
:1041A0004006F3D55006F1D5CA68204622F04002F9
:1041B000CA6084F8413000F09FF8F8BDF57B000834
:1041C00070B5040004D094F84100002510B106E059
:1041D000012070BD84F84050204600F023F82420D0
:1041E00084F841002068C16821F40051C160204674
:1041F00003F014FE2068016921F4904101612068F8
:10420000416921F02A0141612068C16841F40051EF
:10421000C1606564202084F8410084F84200656331
:10422000002070BD70B586B0064614216846FCF7C4
:104230007EF924493068884242D12348002501682C
:1042400041F480210160006800F4802005901E4840
:104250001038016841F0040101600068694600F00F
:10426000040005904FF4406000900220CDE9010564
:1042700003200390072004901448FEF71BFA154C06
:10428000134820604FF00060C4E901054014C4E900
:10429000035080106561C4E906500002C4E90805B6
:1042A0002046FEF71DF908B1FDF78DFBF4630022EF
:1042B0000F212720A663FEF73BFE2720FEF72AFEEC
:1042C00006B070BD0048004040380240000802407F
:1042D00028600240EC19002090F84230202B01D0D9
:1042E0000220704721B11AB10023036303F01CBE02
:1042F0000120704770477047704700001CB51B4D88
:104300001B4C00BF05F068FE287810B30020208009
:1043100018481A49184A837B01F14000FCF72EFF28
:104320001648B7EE000AB0F93220B0F92410CDE9F2
:104330000012B0F91630B0F908201149114800F008
:104340007DFF002006F08CFEE060012006F053F8AF
:10435000D8E720889628F4D2B2EE040A0849094822
:10436000FDF70CF82088401C2080EAE7BC01002003
:10437000C8010020D8650020246A0020386D002084
:10438000A0170020D8640020044C002006F068FE2E
:10439000A061012006F02FF8F7E70000C801002017
:1043A000284F294EDFF8A480DFF8A490294D2A4C2D
:1043B0003878C0B300206080B6F90A0040F69E71DC
:1043C00000F2CF70884211D898ED020AB9F90610B0
:1043D0002048B1EE400A00F08DF80122D5ED030A25
:1043E00095ED010A1146184800F096FFB6F93A001B
:1043F000B0F5FA6F0FDA98ED000AB9F90410154814
:1044000000F0AAF8D5ED020A95ED000A0222052176
:104410000D4800F0A5FF002006F022FE20610120DB
:1044200005F0E9FFC4E7FFE760889628F3D2B2EE13
:10443000040A0A490448FCF7A1FF6088401C608018
:10444000E9E70000BC0100205865002084640020DA
:10445000D8650020946D0020C8010020C8170020F6
:1044600008B5184D184C2878F0B10020A0801748E6
:10447000B1EE040A817A164803F0F2F81448B7EE58
:10448000000AB0F90A100091B0F90830B0F906201E
:104490001049114800F08EFF002006F0E1FD606138
:1044A000012005F0A8FFDEE7A0889628F4D2B2EE3E
:1044B000040A08490848FCF761FFA088401CA08056
:1044C000EAE70000BC010020C8010020D8650020F8
:1044D000A46D0020A0170020D8640020044C002008
:1044E00006F0BEFDA060012005F085FFF7E70000A3
:1044F000C801002010B504462DED028BB0EE408AB5
:1045000000EE101A9FED0F2ADFED0F1A9FED0F1A24
:10451000DFED0F0AB8EEC00A01F0F8F9D4ED010A98
:1045200000209FED0C1A30EEC00AFAEE040A84ED6A
:10453000010A01F0A3F984ED010A84ED038ABDECC0
:10454000028B10BDCDCCCC3DCDCCCCBD00001644F3
:10455000000016C40000204210B504462DED028B69
:10456000B0EE408A00EE101A9FED0F2ADFED0F1A11
:104570009FED0F1ADFED0F0AB8EEC00A01F0C6F981
:10458000D4ED000A01209FED0C1A30EEC00ADFEDD9
:104590000B0A84ED000A01F071F984ED000A84ED44
:1045A000028ABDEC028B10BDCDCCCC3DCDCCCCBDB8
:1045B00000001644000016C400003443000034C359
:1045C00070B50446C088294D00EE100AF8EE400A86
:1045D0009FED250A70EEC00AFDEEE00A10EE900A8B
:1045E0002880A08800EE900AF8EE600A70EEC00AFB
:1045F000FDEEE00A10EE900A6880208800EE900A36
:10460000F8EE600A70EEC00AFDEEE00A10EE900AC5
:10461000A880608800EE900AF8EE600A30EEC00ACA
:10462000BDEEC00A10EE100AE880608903F070F851
:104630002881A08903F06CF86881208903F068F86C
:10464000A881E089241D03F063F8E881A08928820D
:10465000E0896882207F2875607F6875E07FE87553
:10466000A07FA87570BD000000007844D8650020C8
:10467000FEE701684A69D24352050FD46FF48062A5
:104680004A61002140F8301F202242738173026981
:1046900042F004020261017301207047002070475C
:1046A0002DE9F84F0446006889460B9D016898463D
:1046B000174641F4806101602068016841F480710F
:1046C000016000954FF0011B0022594620460A9BCD
:1046D00000F0E4F84FF4007A40B120680068C005AB
:1046E00001D5C4F840A00320BDE8F88F216809F087
:1046F000FE0008612B46284920460A9A00F016F968
:10470000F0BB20684169806900902A4620460A99DA
:1047100000F0A2F940B1206C04283AD12068016869
:1047200041F40071016034E0FEB2B8F1010F09D02C
:104730002168380A08612A4620460A9900F08CF957
:104740000028E8D1206806612A4620460A9900F030
:1047500083F90028DFD12068016841F4807101608D
:1047600000950022594620460A9B00F097F8002841
:10477000B3D1216809F0FF0040F00100086100E0BA
:1047800007E02B46044920460A9A00F0CFF800289B
:10479000AAD00120A8E70000020001002DE9F8439B
:1047A000044600680D46DDE90897016898461646FC
:1047B00041F4807101604B4600224FF00111204608
:1047C000009700F06BF848B120680068C00502D57A
:1047D0004FF4007020640320BDE8F883216805F0E1
:1047E000FE0008613B464A461549204600F09EF807
:1047F00088B920684169806900903A464946204658
:1048000000F02AF948B1206C042804D1206801681E
:1048100041F4007101600120DEE7F5B2B8F1010F4B
:1048200009D02168300A08613A464946204600F01E
:1048300013F90028E7D1206805610020CCE70000CB
:104840000200010070B516460D4604461EE02046E3
:10485000FFF70FFF08B1012070BD681C16D0FEF7EE
:1048600027F8801BA84200D885B920684069C0435A
:1048700040070BD5002044F8300F20216173A0734E
:10488000216941F0200121612073E4E7206840693B
:10489000C0434007DBD4002070BD00002DE9F04785
:1048A000984617460D460446C1F30746DDF82090AA
:1048B0002AE000BFB8F1FF3F26D0FDF7F9FFA0EBDB
:1048C0000901414502D8B8F1000F1DD12068012E21
:1048D00016D0806925EA00000004000C12D00020E8
:1048E000B84211D1002044F8300F20216173A07329
:1048F000216941F02001216120730120BDE8F0878A
:104900004069E7E70120EBE72068012E0AD08069C3
:1049100025EA00000004000C06D00020B842C9D0EF
:104920000020EBE74069F3E70120F7E72DE9F047C6
:10493000984616460D4604464FF000094FF0200AEF
:10494000C1F3074723E020684069C043400515D400
:104950002068016841F40071016021686FF4806093
:104960004861C4F8309084F83DA084F83E90216CF2
:1049700041F00401216484F83C9021E0701C06D0D1
:10498000FDF796FFA0EB0800B04203D816B1012F47
:104990001FD021E02068012F15D0806925EA000092
:1049A0000004000C18D000BF44F8309F84F80DA01C
:1049B00084F80E90216941F02001216184F80C9067
:1049C0000120BDE8F087406925EA00000004000CE2
:1049D000EAD12068406901E02068806925EA00008A
:1049E0000004000CAFD1ECE72DE9F0410025904622
:1049F0000E460446202728E04069C043C0060CD478
:104A000054F8301B6FF01000486144F81059677774
:104A1000A577206A2062257714E0FDF749FFA0EB17
:104A20000800B04200D886B920684069C0434006FB
:104A30000BD544F8305F6773A573206940F0200000
:104A4000206125730120BDE8F08120684169C943D8
:104A50004906D1D40020F6E770B516460D46044647
:104A60001EE02046FFF705FE08B1012070BD681C5E
:104A700016D0FDF71DFF801BA84200D885B920681D
:104A80004069C04300060BD5002044F8300F2021B8
:104A90006173A073216941F0200121612073E4E773
:104AA00020684069C0430006DBD4002070BD0000D0
:104AB0000EB5072000E0642005F09DFCFCF7CEF861
:104AC0000028F8D102E0642005F095FC05F034FCE4
:104AD0000028F8D1804A101DCDE90102A2F110088A
:104AE00008F10401FCF7D2F84346A3F1340208F1BF
:104AF000480AA2F10C01A1F10C00CDF800A005F0CC
:104B0000A9FADFED760A9FED760A764A002108F1D0
:104B1000640001F029FAA8F13402A2F10C0101F1BC
:104B20001800FBF7FDFDA8F14007A7F1180597ED68
:104B3000000AA5F10C0685ED000AA5F1180986ED1D
:104B4000000A89ED000A97ED010A002085ED010AAF
:104B500086ED010A89ED010A97ED020A85ED020A48
:104B600086ED020A89ED020A05F0F2FC07F096F8DC
:104B70005D4C5E4920611020C8610846FEF7CCFC00
:104B800008B1FCF720FF584908222831A1F108009C
:104B900002F05AFC012020714FF0FF3B59460120E2
:104BA00006F0DAF90128F9D12078400708D52078F5
:104BB00020F0040020704C4801992930FCF71EF8C1
:104BC000607840070BD5607820F004006070424A9E
:104BD00008F104011032A2F12A00FBF7C9FFA07806
:104BE00040070CD5A07820F00400A0703E48029940
:104BF0001630FCF725F998ED040A05F025FB364B35
:104C0000CDF800A0103BA3F13402A2F10C01A1F1F8
:104C10000C0005F01FFAD6ED000A9FED350AC9ED2C
:104C2000000A95ED001A2C4B86ED001A61EE001A71
:104C30009FED301A97ED002A443B40EE811ADFEDDC
:104C40002E0AA3F1240202F10C0101F1240042EE2C
:104C5000201AC5ED001A96ED012A89ED012AD5ED3D
:104C6000011AC6ED011A61EE801A42EE011A97EDA3
:104C7000012A42EE201AC5ED011A96ED022A89EDAD
:104C8000022AD5ED021AC6ED021A21EE800A02EEC2
:104C9000010A97ED021A01EE200A85ED020A9FED46
:104CA000170AFBF7A5FE0C4B203B1A1F111FA1F1A1
:104CB000100005F019F9E07810F00100E07007D05D
:104CC000E07820F00100E070E07840F00200E07051
:104CD000FCF786FE62E70000E8630020008089455B
:104CE00000A08C45D0CF0008FC0000204418002014
:104CF0005AF8F63F5D896EBFD5A9183B6F12833A0B
:104D0000030A0B701070704710B58EB00024079422
:104D1000089409940A940B941C2168460C94FBF7A0
:104D200006FC174815490160A721C0E901144FF698
:104D3000FF71C0E90314846102F062FD4FF48050FA
:104D4000079007A90E48FEF7C5FE0D48FFF75BF870
:104D50000B940BA90A480C94FEF7B6FD6020CDE930
:104D6000000402940822694605480494FEF7E5FF12
:104D7000034802F0FDFD0EB010BD00000008004029
:104D8000906400200F4810B50D4901600321416077
:104D900000214FF420228160C0E903124FF48012F9
:104DA0004261017641768176C17601774177FDF7E0
:104DB000D0F8002803D0BDE81040FCF704BE10BDB9
:104DC00000640040A01700200F4810B50D49016095
:104DD0000321416000214FF420228160C0E90312C9
:104DE0004FF480124261017641768176C176017777
:104DF0004177FDF7AEF8002803D0BDE81040FCF77E
:104E0000E2BD10BD00680040C8170020154808B575
:104E1000016841F480010160016801F480010091A2
:104E2000016841F4001101600068002200F40010E4
:104E300000900F210C20FEF77BF80C20FEF76AF89B
:104E4000002205213A20FEF773F83A20FEF762F8B7
:104E5000002205213B20FEF76BF8BDE808403B200F
:104E6000FEF758B83038024010B52F4A022105200D
:104E700005F0FCFA2D4C2C4A0221E0621832102079
:104E800005F0F4FA20632A4A00212A4805F01AFBAB
:104E9000274A206024320021274805F013FB244ACA
:104EA000606048320021254805F00CFB204AA060D4
:104EB0006C320021224805F005FB1D4AE06090326B
:104EC0000021204805F0FEFA194A2061B432002181
:104ED0001D4805F0F7FA144A6061B43A00211B48F6
:104EE00005F0F0FA104AA061903A0021184805F048
:104EF000E9FA0D4AE0616C3A0021164805F0E2FA41
:104F0000094A2062483A0021134805F0DBFA064AB4
:104F10006062243A0021114805F0D4FAA062BDE88D
:104F2000104002F03FBE00006CCF000800000020DF
:104F3000E0CD00089176000899760008F576000823
:104F4000B14A0008259A000819190008FD42000816
:104F5000A143000861440008DD44000889430008BB
:104F60002DE9F04387B014216846FBF7E0FA60486A
:104F70000025016841F002010160016801F00201B1
:104F80000591016841F001010160016801F0010132
:104F90000591016841F008010160016801F0080114
:104FA0000591016841F004010160016801F004010C
:104FB0000591016841F040010160016801F0400184
:104FC0000591016841F020010160016801F02001B4
:104FD0000591016841F0800101600068DFF81481EB
:104FE00000F080000590012240214046FDF75AFC68
:104FF000414F00224FF4E0513846FDF753FC3F4E3D
:10500000012210213046FDF74DFCDFF8F49001221B
:1050100011464846FDF746FC01244020CDE9000436
:105020000294694640460394FDF744FB4FF4C05098
:105030008DE83100694638460395FDF73BFB0820B3
:1050400000904FF48810CDE9010469464046FDF711
:1050500031FBA002CDE9000469463846CDE902459E
:10506000FDF728FB1020CDE90004022569463046F3
:10507000CDE90245FDF71EFB30204FF40416CDE9C3
:105080000006694602941F48FDF714FBCDE900466F
:10509000694640460294FDF70DFB00946946484678
:1050A0000194CDE90245FDF705FB0022052106200C
:1050B000FDF73EFF0620FDF72DFF00220521092008
:1050C000FDF736FF0920FDF725FF002205210A2004
:1050D000FDF72EFF0A20FDF71DFF002205211720F6
:1050E000FDF726FF1720FDF715FF07B0BDE8F08399
:1050F0003038024000180240001C0240000002400C
:1051000000040240000802400D4810B50B49016040
:105110000C49416000214FF480428160C0E90312D4
:1051200041618161C1610162FDF7C8FB002803D0C4
:10513000BDE81040FCF747BC10BD0000005C00401B
:10514000F0170020801A0600104810B50E490160C3
:105150004FF482714160002102228160C0E9031294
:1051600001224261520282613822C0E90721416274
:1051700081620A21C162FEF7CFF9002803D0BDE8A1
:105180001040FCF720BC10BD003001404418002046
:1051900010B588B01C216846FBF7C9F914481349BB
:1051A0000024C0E9001441F28731C0E902410461E2
:1051B0008461FEF7D1FB08B1FCF705FC0C48FEF753
:1051C00022FE08B1FCF7FFFB6020CDE90004029449
:1051D0000022694606480494FEF7AFFD08B1FCF7CB
:1051E000F2FB0348FEF77EFD08B010BD004401400D
:1051F0005C1900200E4810B50C4901600D49416052
:105200004FF4805181604900C160C91001610C21D7
:10521000416100218161C161FEF7D2FF002803D006
:10522000BDE81040FCF7CFBB10BD000000480040B7
:10523000A4190020A0860100FEE7000070B5044616
:105240002DED028BF0EE408AB0F908000E4600EE1C
:10525000100AB4F90A0082B0B8EEC01A00EE100AC3
:105260002B491D46F8EEC00A00EE102A9DED088A73
:10527000F0EE681AB8EEC00AA1F1340000F0BAFCF2
:10528000BDEEC00A2249F0EE681A10EE100A68312D
:10529000ADF80000B4F9180000EE100AB4F91A00D5
:1052A000B8EEC01A00EE100AA1F13400F8EEC00A00
:1052B00000EE105AB8EEC00A00F09CFCBDEEC00A29
:1052C0001449F0EE681A10EE100AADF80200B4F9B5
:1052D000280000EE100AB4F92A00B8EEC01A00EE59
:1052E000100AA1F19C00F8EEC00AB8EEC80A00F05E
:1052F00081FCBDEEC00A6A46012110EE100AADF82D
:1053000004003046FCF716FB02B0BDEC028B70BD0A
:10531000B8680020F069002010B50C4600EB0410BE
:10532000B0EE601A30F9080C0B4900EE900ADFED80
:10533000091AA1F13400F8EEE00A00F05BFCBDEEC2
:10534000C00A2146BDE8104010EE100A02B2034820
:10535000FCF70DBBCDCCCC3D746B0020C8170020F2
:1053600010B50C462DED028BB0EE608A10EE100ADF
:1053700007F040FC41EC100B00F0E2FA51EC100B8E
:1053800006F092FE00EE900AB0EE480A074800F0E0
:10539000A3FCBDEEC00ABDEC028B214610EE100A44
:1053A000BDE8104002B20248FCF7E1BA586A00209A
:1053B000C817002070B504462DED028BF0EE408A30
:1053C000B0F908000E4600EE100AB4F90A0082B0E7
:1053D000B8EEC01A00EE100A2D491D46F8EEC00ABC
:1053E00000EE102A9DED088AF0EE681AB8EEC00AA9
:1053F000A1F1340000F0FEFBBDEEC00A2449F0EE3E
:10540000681A10EE100A6831ADF80000B4F91800FF
:1054100000EE100AB4F91A00B8EEC01A00EE100A35
:10542000A1F13400F8EEC00A00EE105AB8EEC00A3E
:1054300000F0E0FBBDEEC00A1549F0EE681A10EE70
:10544000100AD031ADF80200B4F9280000EE100ABD
:10545000B4F92A00B8EEC01A00EE100AA1F1340027
:10546000F8EEC00AB8EEC80A00F0C4FBBDEEC00AF0
:105470006A46012110EE100AADF804000020ADF8D4
:1054800006003046FCF756FA02B0BDEC028B70BD48
:10549000DC6B002010B5B1EE043A2DED088BF9EE6F
:1054A000042ADFEDCE8AB0EE682A9FEDCD9AF0EEA9
:1054B000491A9FEDCC8AB0EE080ACB48B0EE481AE4
:1054C000F0EE480A00F0A6FCDFEDC89AB0EE693AAB
:1054D0009FEDC7AAC448B0EE682AF0EE4A2AF0EE63
:1054E000491AB0EE481AF0EE480AB7EE000A343016
:1054F00000F090FCB2EE043AFAEE042ADFEDBDAA09
:10550000B0EE6A2A9FEDBCBAB748B0EE481AF0EE8A
:105510004B1AF0EE480AB2EE040A683000F07AFC4A
:10552000B148B0EE693AF0EE4A2AB0EE682AF0EEE1
:10553000491AB0EE481AF0EE480AB7EE000A9C305D
:1055400000F068FCA848B2EE043AFAEE042AB0EE85
:105550006A2AF0EE4B1AB0EE481AF0EE480AB2EEA4
:10556000040AD03000F056FCB0EE693AF0EE4A2A58
:10557000B0EE682AF0EE491AB0EE481AF0EE480A8A
:10558000B7EE000A9D4800F045FC9C48B2EE043A94
:10559000FAEE042AB0EE6A2AF0EE4B1AB0EE481A80
:1055A000F0EE480AB2EE040A343000F033FC9348BF
:1055B000B0EE693AF0EE4A2AB0EE682AF0EE491AE7
:1055C000B0EE481AF0EE480AB7EE000A683000F074
:1055D00021FC8A48B2EE043AFAEE042AB0EE6A2AB6
:1055E000F0EE4B1AB0EE481AF0EE480AB2EE040A9A
:1055F0009C3000F00FFC8148B0EE693AF0EE4A2A88
:10560000B0EE682AF0EE491AB0EE481AF0EE480AF9
:10561000B7EE000AD03000F0FDFBF2EE043ABAEE2D
:10562000043AF0EE682AB0EE492AF0EE481A9FEDEF
:10563000741ADFED740A9FED740A744800F0C0FB21
:105640007248B2EE043AFAEE042AB0EE682AF0EE9E
:10565000491AB0EE481AF0EE480AB1EE040A40309A
:1056600000F0D8FBB2EE043AFAEE042A9FED682A65
:10567000DFED681AB0EE481AF0EE480A9FED660AB0
:105680006248743000F0C6FB6048F2EE043ABAEEAD
:10569000043AF0EE682AB0EE492AF7EE001AB0EEAE
:1056A000481AF0EE480AB0EE080AA83000F088FB6D
:1056B000B2EE043AFAEE042A9FED582ADFED581AAA
:1056C0005248B0EE481AF0EE480AB7EE000AE83049
:1056D00000F0A0FBB2EE043AFAEE042A9FED512A44
:1056E000DFED511AB0EE481AF0EE480A9FED4F0A6E
:1056F0004F4800F08FFB4E48B2EE043AFAEE042A0F
:10570000B0EE682AF0EE491AB0EE481AF0EE480AF8
:10571000B7EE000A343000F07DFBB2EE043AFAEE48
:10572000042ADFED449AB0EE692A9FED43AA40486F
:10573000B0EE481AF0EE4A1AF0EE480AB3EE0E0A3E
:10574000683000F067FB3A48B2EE043AFAEE042AF9
:10575000B0EE682AF0EE491AB0EE481AF0EE480AA8
:10576000B7EE000A9C3000F055FB3148B2EE043A27
:10577000FAEE042AB0EE692AF0EE4A1AB0EE481AA0
:10578000F0EE480AB3EE0E0AD03000F043FBB2EE62
:10579000043AFAEE042AB0EE682AF0EE491AB0EEA6
:1057A000481AF0EE480AB7EE000A244800F032FB2F
:1057B000B0EE692AF0EE4A1AB0EE481AF0EE480A46
:1057C000BDEC088BB2EE043AFAEE042AB3EE0E0AF0
:1057D0001A48BDE81040343000F01CBB0000804681
:1057E000000080C600000000506800200000484211
:1057F000000048C200004844000048C4546900202A
:1058000000002042CDCC4C3D00803B44586A002033
:1058100000007A4400007AC4000048430000FA44C3
:105820000000FAC40080BB440080BBC40000964363
:10583000746B002000401C4600401CC6786C0020A1
:1058400010B510EE100A07F0D5F99FED081B53ECC8
:10585000112B06F0FDFE9FED071B53EC112B06F0FC
:1058600009FD06F021FC00EE100A10BD182D44546D
:10587000FB210940000000000080664010B52DEDBE
:10588000068BB0EE608AB0EE409A71EE488AF5EE73
:10589000C08AF1EE10FA2BD928B318EE900A07F05F
:1058A000A9F939EE480A41EC1A0B10EE100A07F07C
:1058B000A1F941EC100BB0EE4A1AF0EE6A1A02F0B0
:1058C000EBFD51EC100B06F0EFFB00EE100AB5EE0D
:1058D000C00AF1EE10FA01D230EE280A30EE080AC2
:1058E000BDEC068B10BDB4EEC89AF1EE10FA02D2F0
:1058F000B0EE480AF4E7B4EEC19AF1EE10FA02DD18
:10590000B0EE410AECE7B0EE490AE9E7F4EE410AED
:10591000F1EE10FA06D131EE820AF6EE000A20EE20
:10592000200A704730EE600A31EE601AC0EE010ABC
:1059300032EE611AB0EE610A00EE810A7047000093
:1059400010B52DED048B9FED1A9BB0EE491AF0EEC9
:10595000691A02F0A1FDB0EE408AF0EE608A9FED78
:10596000160B51EC180B53EC102B07F017F807D25D
:1059700053EC192B51EC180B07F052F841EC180BB3
:105980009FED0F0B51EC180B53EC102B06F024FE7F
:1059900007D853EC192B51EC180B06F0B7FB41EC70
:1059A000180BB0EE480AF0EE680ABDEC048B10BD8F
:1059B000000000000080764000000000008066408B
:1059C00000000000008066C0FEE7000030EEC00A64
:1059D0000849DFED090A10EE100A884202DD30EEB8
:1059E000600A704710EE100A04498842F9D930EE77
:1059F000200A7047000034430000B443000034C361
:105A0000F0EE400A90ED000A20EE201A90ED070A11
:105A100030EE200A80ED070AD0ED0B1AB4EEE10A51
:105A2000F1EE10FA06DCD0ED0A1AB4EEE10AF1EE5E
:105A300010FA01D2C0ED071A90ED010AD0ED071A55
:105A400090ED062A20EE210A30EEC22AD0ED021A8D
:105A500031EE000A61EE821A90ED091A30EE210A49
:105A6000B4EEC01AF1EE10FA06D390ED081AB4EEB7
:105A7000C01AF1EE10FA01DDB0EE410AC0ED060ADF
:105A800080ED0C0A7047000010B530EEC00A2DED15
:105A9000028B9FED0C8AF0EE480A02F07FFD10EEBB
:105AA000100A0949884204DD30EE480ABDEC028B39
:105AB00010BD10EE100A05498842F7D330EE080AEF
:105AC000F4E700000000B44300003443000034C396
:105AD000C0ED030A70EEC00A80ED040AC0ED050AAD
