:020000040800F2
:10000000D872002029030008D557000805460008CB
:10001000C5510008810E0008217C00080000000086
:10002000000000000000000000000000690200085D
:100030002918000800000000C50200089973000894
:100040004303000843030008430300084303000878
:100050004303000843030008A319000843030008F2
:1000600043030008A9190008AF190008430300085A
:10007000B5140008430300084303000843030008C5
:100080004303000843030008430300084303000838
:10009000850E0008910E000843030008B5190008FA
:1000A0004303000843030008430300084303000818
:1000B0005974000843030008430300084303000881
:1000C00043030008430300084303000843030008F8
:1000D0004303000843030008430300080D7C0008A5
:1000E00043030008430300084303000843030008D8
:1000F00043030008430300084303000843030008C8
:1001000043030008430300084303000843030008B7
:1001100043030008430300084303000843030008A7
:100120004303000843030008C11400084303000808
:100130004303000843030008430300084303000887
:100140009D0E0008A90E00084303000843030008A1
:100150004303000843030008430300084303000867
:100160004303000843030008430300084303000857
:100170004303000843030008430300080000000095
:10018000430300084303000800F002F800F05CF8A5
:100190000AA090E8000C82448344AAF10107DA45E2
:1001A00001D100F051F8AFF2090EBAE80F0013F0D8
:1001B000010F18BFFB1A43F0010318471CCC0000C5
:1001C0003CCC00000A444FF0000C10F8013B13F047
:1001D000070408BF10F8014B1D1108BF10F8015BA0
:1001E000641E05D010F8016B641E01F8016BF9D193
:1001F00013F0080F1EBF10F8014BAD1C0C1B09D1EA
:100200006D1E58BF01F801CBFAD505E014F8016B5B
:1002100001F8016B6D1EF9D59142D6D370470000ED
:100220000023002400250026103A28BF78C1FBD8FF
:10023000520728BF30C148BF0B6070471FB50CF094
:1002400058FB1FBD10B510BD00F002FA1146FFF7B4
:10025000F5FF09F007FF00F020FA03B4FFF7F2FF03
:1002600003BC00F023FA00002C4B19680868B0E8C2
:10027000F04F80F30988BFF36F8F4FF0000080F3D9
:10028000118870470000000008480068006880F38B
:1002900008884FF0000080F3148862B661B6BFF39F
:1002A0004F8FBFF36F8F00DF00BF00BF08ED00E08E
:1002B000DFF80C00016841F470010160704700BF75
:1002C00088ED00E0EFF30980BFF36F8F134B1A68DE
:1002D0001EF0100F08BF20ED108A20E9F04F1060CB
:1002E00009B44FF0500080F31188BFF34F8FBFF374
:1002F0006F8F0AF03FFF4FF0000080F3118809BCB8
:1003000019680868B0E8F04F1EF0100F08BFB0EC95
:10031000108A80F30988BFF36F8F70474800002070
:10032000EFF30580704700000948804709480047FF
:10033000FEE7FEE7FEE7FEE7FEE7FEE7FEE7FEE795
:10034000FEE7FEE704480549054A064B70470000F2
:100350004974000889010008D86C0020D872002078
:10036000D86E0020D86E002053EA020C00F069809D
:100370002DE9F04B4FF00006002B1FBFB3FA83F5B9
:1003800003FA05F424FA05F65E4012BF1643B2FAEA
:1003900082F502FA05F4C5F120051EBF22FA05FC1C
:1003A00044EA0C04203556EA044C4FEA144418BFC2
:1003B000641C4FF000084FF00009904271EB030CF1
:1003C00039D3002919BFB1FA81F701FA07F6B0FA5B
:1003D00080F700FA07F6C7F120071EBF20FA07FCD6
:1003E00046EA0C062037B6FBF4FCA7EB0507103FE6
:1003F00007F01F0BCBF120060CFA0BFB2CFA06F6CC
:1004000044BFB3460026202FA4BF5E464FF0000B2A
:100410005BEA060C08BF4FF0010B19EB0B09ABFBB5
:10042000027C48EB0608C01B06FB02CC0BFB03CC8E
:1004300071EB0C01C1E70B46024641464846BDE858
:10044000F08B13B54FF000004FF00001AFF30080C8
:10045000BDE81C40704710B5431C02E010F8011BBA
:1004600071B18107FAD14FF0013202C88C1A8C4366
:1004700014EAC211F9D0C01A0A0603D0C01E10BD7A
:10048000C01A10BD0A0401D0801E10BD0902FCD0A4
:10049000401E10BD032A40F2308010F0030C00F023
:1004A000158011F8013BBCF1020F624498BF11F8AE
:1004B00001CB00F8013B38BF11F8013BA2F1040267
:1004C00098BF00F801CB38BF00F8013B11F00303DF
:1004D00000F06280083AC0F0088051F8043B083A06
:1004E00051F804CBA0E80810F5E7121D5CBF51F8E5
:1004F000043B40F8043BAFF30080D20724BF11F85F
:10050000013B11F801CB48BF11F8012B24BF00F8C3
:10051000013B00F801CB48BF00F8012B704702F007
:10052000FF0343EA032242EA024200F069B84FF0B7
:10053000000200B5134694469646203922BFA0E833
:100540000C50A0E80C50B1F12001BFF4F7AF09073F
:1005500028BFA0E80C5048BF0CC05DF804EB890030
:1005600028BF40F8042B08BF704748BF20F8022B73
:1005700011F0804F18BF00F8012B7047704770478B
:10058000704710B500F05CF8006810BD10B5044667
:1005900000F056F8046010BD10B5203AC0F00B8092
:1005A000B1E81850203AA0E81850B1E81850A0E877
:1005B0001850BFF4F5AF5FEA027C24BFB1E81850D1
:1005C000A0E8185044BF18C918C0BDE810405FEA41
:1005D000827C24BF51F8043B40F8043B08BF7047BD
:1005E000D20728BF31F8023B48BF11F8012B28BFC2
:1005F00020F8023B48BF00F8012B70474FF0000283
:100600000429C0F0128010F0030C3FF492AFCCF13B
:10061000040CBCF1020F18BF00F8012BA8BF20F892
:10062000022BA1EB0C01FFF784BF5FEAC17C24BF62
:1006300000F8012B00F8012B48BF00F8012B704790
:1006400000487047746C002000487047746C0020AC
:100650007546FFF7F9FFAE4605006946534620F0A0
:100660000700854618B020B5FFF76CFEBDE82040B6
:100670004FF000064FF000074FF000084FF0000B5E
:1006800021F00701AC46ACE8C009ACE8C009ACE811
:10069000C009ACE8C0098D46704710B50446AFF3F9
:1006A00000802046BDE81040FFF7D7BD0149182063
:1006B000ABBEFEE726000200704707F0EDBA07F078
:1006C00081BB10B510EE100A0CF0A2F841EC100B33
:1006D00007F0A2FC51EC100B0BF0F4FA00EE100A3C
:1006E00010BDF0EE400AF5EEC00AF1EE10FA02DDA0
:1006F000B0EE600A7047B1EE600AFBE7002803D055
:100700009FED020A80ED000A704700000000000023
:10071000002803D0B3EE060A80ED000A70470000FF
:1007200070B52DED0C8B84B006460C4615469FED3A
:10073000990AF0EE408A9FED970AB0EE409A9FED3D
:10074000950AF0EE40BA9FED930AF0EE409A9FEDC5
:10075000910AB0EE40AA0EB104B11DB904B0BDECCF
:100760000C8B70BD8C48FFF7C9FF8C48FFF7D0FF9A
:100770008A48D0ED000A9FED8A1A60EE810AB0EE39
:10078000600A00F025F9F0EE408A28EEA80AF0EEA3
:10079000408A8248D0ED000AB0EE001A60EE810A6D
:1007A0009FED7F1A60EE810AB0EE600A00F010F94A
:1007B000B0EE409A29EE090AB0EE409ADFED790AD0
:1007C000B7EE000A00EEA80ADFED770A00EEC90ACC
:1007D000DFED760A20EE200A754880ED000A6E48AB
:1007E00090ED000ADFED730A80EE201AB7EE000AE2
:1007F00031EE000A20EE000A6D48D0ED000A80EECE
:10080000801A6D4880ED001A94ED000AB5EEC00A1A
:10081000F1EE10FA0DD194ED010AB5EEC00AF1EE39
:1008200010FA06D194ED020AB5EEC00AF1EE10FA04
:1008300046D09FED580AB0EE408A00200190029009
:100840000390D4ED000A60EEA00A94ED011AD4EDF5
:10085000011A41EE210A94ED021AD4ED021A41EE7A
:10086000210AB0EE600A00F0A9F8B0EE408A94EDDB
:10087000000A20EE080A8DED010A94ED010A20EE2F
:10088000080A8DED020A94ED020A20EE080A8DEDA9
:10089000030ADDED010AF1EE600AB0EE600AFFF72F
:1008A0000CFFF0EE409A9DED031AF0EE410A9DED2B
:1008B000021AB0EE410AFFF702FFB0EE40AA07E0CD
:1008C0009FED340AF0EE409A9FED320AB0EE40AA56
:1008D00095ED000AB5EEC00AF1EE10FA0DD195EDD6
:1008E000010AB5EEC00AF1EE10FA06D195ED020A42
:1008F000B5EEC00AF1EE10FA3CD0B0EE690A00F095
:1009000067F8B0EE408AB0EE690AFFF7DAFEB0EEA3
:1009100040DAB0EE4A0A00F05BF8F0EE40AAB0EE22
:100920004A0AFFF7CEFEB0EE40BA28EE2A0AD5ED0D
:10093000010A20EE200AD5ED000A0DEE200A68EE2D
:100940000B0A95ED021A00EE810AB0EE40CA95ED51
:10095000010A20EE0B0AD5ED020A0AEEE00AF0EEDB
:1009600040CAF0EE6C0AB0EE4C0AFFF7A8FEF0EEBB
:1009700040BA03E09FED070AF0EE40BAB0EE4A1A23
:10098000F0EE690AB0EE6B0A304608F0E1FA00BFFB
:10099000E4E6000000000000E4010020E80100207F
:1009A00035FA8E3CC1BFAD3B9DF8C5362F7C1C414E
:1009B000EC010020506CC24AF001002010B507F095
:1009C000CFFCB7EE001AC1EE000AB0EE600A10BD0F
:1009D00010B510EE100A0BF01BFF41EC100B07F0E6
:1009E0005BFC51EC100B0BF06DF900EE100A10BD22
:1009F0002DE9F0412DED028B9AB00546B0EE408A0C
:100A00000E4617469846002017901890199014909B
:100A1000159016904DB146B13FB1B8F1000F04D01A
:100A2000B5EEC08AF1EE10FA05D100201AB0BDEC87
:100A3000028BBDE8F08196ED000A8DED170A96ED68
:100A4000010A8DED180A96ED020A8DED190A97ED4F
:100A5000000A8DED140A97ED010A8DED150A97ED48
:100A6000020A8DED160A17AA14A9284608F0C2F842
:100A7000402104A8FFF75BFD002000900190029048
:100A80000390002417A904A80AF0F0F800BF30E092
:100A900004A800EB041090ED000AD5ED000A20EE4A
:100AA000200A04A800EB0410D0ED010A95ED011A0C
:100AB00000EE810A04A800EB0410D0ED020A95EDC7
:100AC000021A00EE810A04A800EB0410D0ED030A1C
:100AD00095ED031A00EE810A20EE080AF0EE000AF6
:100AE00080EE201A684600EB840080ED001A601C3E
:100AF000C4B2042CCCDB002410E005EB840090EDA4
:100B0000000A684600EB8400D0ED000A30EE200AAF
:100B100005EB840080ED000A601CC4B2042CECDB01
:100B200028460AF005F8012080E700000122102184
:100B3000014801F0A3BE0000000002400022102185
:100B4000014801F09BBE0000000002407047000019
:100B500001221146014801F091BE0000000402404C
:100B600000220121014801F089BE0000000402407A
:100B700030B5437804781B021BB2234300EE103AD1
:100B8000194CB8EEC00AD4ED000A20EE200A81ED1F
:100B9000000AC37885781B021BB22B4300EE103A83
:100BA000D4ED000AB8EEC00A20EE200A81ED010A59
:100BB000437904791B021BB2234300EE103AB8EECE
:100BC000C00A20EE200ADFED090A81ED020AD0F802
:100BD000060020F07F4000EE100AB8EE400A20EE3A
:100BE000200A82ED000A30BDC800002000401C42EF
:100BF000704709F056BA08F087BF000010B5427878
:100C00000378120212B21A4300EE102A124BB8EE09
:100C1000C00AD3ED010A20EE200A81ED000AC27855
:100C20008478120212B2224300EE102AD3ED010A98
:100C3000B8EEC00A20EE200A81ED010A427900795F
:100C4000120212B2024300EE102AB8EEC00A20EEE1
:100C5000200A81ED020A10BDC800002010B5FFF780
:100C600075FFFFF7C5FF08F0BDFA08B1802402E068
:100C700008F024FA044608F083FC10B144F0400068
:100C800010BD08F00FFC204310BD00002DE9FC4111
:100C90000746002016460D4600900190FFF74EFFD4
:100CA000922000F0BDF806226946122000F09AF862
:100CB000FFF73CFF9DF801009DF80010000200B214
:100CC000084300EE100A464CB8EEC00AD4ED000A04
:100CD00020EE200A85ED000A9DF803009DF8021021
:100CE000000200B2084300EE100AD4ED000AB8EE8C
:100CF000C00A20EE200A85ED010A9DF805009DF846
:100D00000410000200B2084300EE100AB8EEC00A58
:100D100020EE200A85ED020AFFF722FF082269462D
:100D2000002000F05FF8FFF713FF9DF800000F2888
:100D300030D19DF803009DF80210000200B2084374
:100D400000EE100AD4ED010AB8EEC00A20EE200A27
:100D500087ED000A9DF805009DF80410000200B21E
:100D6000084300EE100AD4ED010AB8EEC00A20EEE6
:100D7000200A87ED010A9DF807009DF80610000281
:100D800000B2084300EE100AB8EEC00A20EE200AB6
:100D900087ED020AFFF7D2FEA22000F041F80222FE
:100DA0006946222000F01EF8FFF7C0FE9DF8000003
:100DB0009DF80110C00040EA5110B0F5806F01DBD2
:100DC000A0F5006000EE100AB4EE001AF8EEC00ABA
:100DD000B3EE070A00EE810A86ED000ABDE8FC8149
:100DE000C800002070B514460D4640F0800000F0A9
:100DF00017F806E0552000F013F8641E05F8010B03
:100E0000E4B2002CF6D170BD10B50C4640F0800065
:100E100000F006F8552000F003F8207010BD000027
:100E200001B582B04FF47A700090012301AA02A9A3
:100E3000024802F03BFC9DF804000EBD441800205F
:100E400002784078D20042EA5010B0F5806F01DBA2
:100E5000A0F5006000EE100AB4EE001AF8EEC00A29
:100E6000B3EE070A00EE810A81ED000A704710B563
:100E70000C46FFF7D5FF2046BDE81040FFF7D0BF76
:100E8000FEE70000014800F060BF0000A01700204E
:100E9000014800F05ABF0000A0170020014800F0F0
:100EA00054BF0000C8170020014800F04EBF0000EA
:100EB000C8170020A1F2012107291FD8C9B24B1C75
:100EC00000EB01100121038041731188DFED0C0A52
:100ED00049BA00EE101A4180B8EE400A20EE200A0E
:100EE000DFED080A20EE200A80ED010A518849BA98
:100EF0000181918849BA4181D1790173704700001D
:100F00000000B443000000392DE9F041002521F034
:100F10001F0001F01F06B0F5007F37D12A4C94F86E
:100F2000540048B101F0B0FC216D401AB0F57A7F51
:100F300002D984F854506560012706B394F8540030
:100F4000002823D02078B04220D3711E07FA01F088
:100F5000616801421AD104EBC6029560D5606168F0
:100F60000143616001F090FC206520786168874052
:100F70007F1E8F430AD142000020144B1AE0280044
:100F8000207001D0082803D984F85450BDE8F081BE
:100F9000656084F8547001F077FC2065F6E700BFC7
:100FA00004EB80010E7CD1F8111046EA012143F8D0
:100FB0002010401C9042F3D384F854506560BDE883
:100FC000F04100F0A1BC0000A86B0020506600209A
:100FD0002DE9FF4F89B09B461546402A00D9402590
:100FE000E80701D06D1CEDB24FF000090421CDE9F6
:100FF00002194FEA5508CDF8009048468DF8149034
:101000004C464FF0FF3A08F101073FE0CDF8189049
:10101000CDF81C908CB36000801E5646A84207DABB
:101020000A9800EBC40010ED020A06A800F0C7FC05
:1010300006EB4400A84207DA0A9800EBC40010ED62
:10104000010A07A800F0BBFC0BEB0400019008208C
:10105000049008AB06AA6946099800F001FD08B1A2
:1010600000F0ABFC4FF47A76099800F058FE0328A4
:1010700007D03046761EF7D206E0FFE78DF81880DD
:10108000E2E70EB900F099FC641CE4B2BC42BDD3A7
:101090000DB0BDE8F08F30B587B005460091002156
:1010A00008200291CDE9031014468DF8141028464B
:1010B00000F035FE0028FAD006AB224669462846E5
:1010C00000F0CEFC07B030BD70B504462DED028BAC
:1010D000058843888088EA1A1118494209B22B44CE
:1010E0001D1A121AE18000EE101A9FED218AA582C6
:1010F0001844628440422086B8EEC00AF0EE480AE6
:1011000008F076FCBDEEC00AF0EE480A10EE100AB8
:101110002081B4F9140000EE100AB8EEC00A08F0FD
:1011200067FCBDEEC00AF0EE480A10EE100AE0823D
:10113000B4F9220000EE100AB8EEC00A08F058FC1C
:10114000BDEEC00AF0EE480A10EE100AA084B4F911
:10115000300000EE100AB8EEC00A08F049FCBDEEFF
:10116000C00A10EE100A6086BDEC028B70BD000054
:101170009A99193E2DE9F0411E462DED048B174634
:101180000D4604469FED798AB0EE480A04F05EFAF7
:10119000F0EE400A94ED040A012E70EE600AC4EDF0
:1011A000000AD4ED050AC4ED010A04D0022E12D0C3
:1011B000032E72D0D3E0208B2880608B688094ED62
:1011C000010AF0EE480A384604F0C6FBBDEEC00A3C
:1011D00010EE100AC2E010EE100A0BF019FB41EC01
:1011E000100B07F059F8B0EE408AF0EE608AB4F9BF
:1011F00018000AF0D4FF53EC182B0BF037F841EC31
:10120000180B20690BF004FB41EC100B06F004FFF7
:10121000B0EE409AF0EE609AB4F91A000AF0BFFFFF
:1012200053EC192B0BF022F853EC182B0BF006FAA9
:101230000AF086FF288020690BF0EAFA41EC100BD7
:1012400006F0EAFEB0EE408AF0EE608AB4F91800CB
:101250000AF0A5FF53EC182B0BF008F841EC180B23
:1012600020690BF0D5FA41EC100B07F015F8B0EE41
:10127000409AF0EE609AB4F91A000AF090FF53EC2D
:10128000192B0AF0F3FF53EC182B0AF04DFD0AF06E
:1012900057FF6880052061E0FFE710EE100A0BF0B1
:1012A000B7FA41EC100B06F0F7FFB0EE408AF0EE13
:1012B000608AB4F918000AF072FF53EC182B0AF098
:1012C000D5FF41EC180B20690BF0A2FA41EC100B92
:1012D00006F0A2FEB0EE409AF0EE609AB4F91A0061
:1012E0000AF05DFF53EC192B0AF0C0FF53EC182BEA
:1012F0000BF0A4F90AF024FF288020690BF088FA8B
:1013000041EC100B06F088FEB0EE408AF0EE608AE9
:10131000B4F918000AF043FF53EC182B0AF0A6FFAB
:1013200041EC180B20690BF073FA41EC100B06F03E
:10133000B3FFB0EE409AF0EE609AB4F91A000AF0EA
:101340002EFF53EC192B0AF091FF53EC182B0AF0E7
:10135000EBFC0AF0F5FE68806FF00400A8802846D8
:10136000BDEC048BBDE8F041FFF7AEBE000000000D
:1013700030B504462DED028B85B0B0F908000D465E
:1013800000EE100AB8EEC00A9FED488A4848F0EE19
:10139000480A04F087FABDEEC00AF0EE480A10EEE3
:1013A000100AADF80000B4F9180000EE100A404829
:1013B000B8EEC00A04F076FABDEEC00AF0EE480AB4
:1013C00010EE100AADF80200B4F9280000EE100A81
:1013D0003748B8EEC00A04F065FABDEEC00AF0EE78
:1013E000480A10EE100AADF80400B4F9380000EE17
:1013F000100A2F48B8EEC00A04F054FABDEEC00A35
:10140000F0EE480A10EE100AADF80600B4F94800F4
:1014100000EE100A2648B8EEC00A04F043FABDEE0A
:10142000C00AF0EE480A10EE100AADF80800B4F950
:10143000580000EE100A1E48B8EEC00A04F032FA56
:10144000BDEEC00AF0EE480A10EE100AADF80A0030
:10145000B4F9680000EE100A1548B8EEC00A04F0AE
:1014600021FABDEEC00AF0EE480A10EE100AADF8FF
:101470000C00B4F9780000EE100A0D48B8EEC00A6E
:1014800004F010FABDEEC00A6A46012110EE100AFF
:10149000ADF80E00284600F047FA02AA04212846BB
:1014A00000F042FA05B0BDEC028B30BD0000000038
:1014B00050680020014800F02FBF0000EC19002008
:1014C0002DE9F05FA748A84BA84CC06CA64DA74ECD
:1014D000A54F0068A449DFF89492DFF88CA2DFF8EA
:1014E0008CB2DFF884E2A14A483B603418351836E4
:1014F000303F09F178090AF1300A4FF4006C0BF122
:10150000300BAEF1180E884223D99749543926E0A2
:10151000A84233D14FF020080AE0504535D1E046CB
:1015200006E000BF4FF4001802E000BF4FF0006873
:1015300011EA080F7CD08C49884253D9904205D0DB
:10154000984203D0A04201D0A8422FD14FF0200CE6
:1015500045E08649A831884203D98349583909684A
:1015600005E08249483188428149F8D9496890426A
:10157000D0D09842CED0A042CCD0C9E7B042CED095
:10158000B842CCD04845CAD0C7E75845CAD0704504
:10159000C8D0DFF8D88108F190084045C2D0DFF804
:1015A000C88108F148084045C0D1BBE7B04216D019
:1015B000B84214D0484512D0504510D0584509D0F3
:1015C000704507D069499031884203D06649483157
:1015D000884202D14FF4001C01E04FF0006C6248D9
:1015E0004C382AE06149A831884229D9904205D077
:1015F000984203D0A04201D0A84202D14FF0200C63
:1016000019E0B04217D0B84215D0484513D0504524
:1016100011D0584509D0704507D0544990318842BF
:1016200003D051494831884203D14FF4001C02E0F5
:1016300095E04FF0006C4C485038C0F800C052E0C4
:101640004A494831884227D9904205D0984203D070
:10165000A04201D0A84202D14FF0200C18E0B042C5
:1016600016D0B84214D0484512D0504510D0584535
:1016700009D0704507D03D499031884203D03A499E
:101680004831884202D14FF4001C01E04FF0006C59
:101690003748C0F80CC026E0904205D0984203D0ED
:1016A000A04201D0A84202D14FF0200C18E0B04275
:1016B00016D0B84214D0484512D0504510D05845E5
:1016C00009D0704507D029499031884203D0264976
:1016D0004831884202D14FF4001C01E04FF0006C09
:1016E0002348C0F808C0234C207880070CD5207808
:1016F00020F002002070207840F0040020700122C9
:1017000011461D4801F0BAF860781C4D80070CD5D1
:10171000607820F002006070607840F00400607033
:1017200001221021284601F0A9F8A07880070CD5E5
:10173000A07820F00200A070A07840F00400A07013
:1017400001221021284601F099F808F04FFB20787B
:10175000400704D50A48016841F001010160BDE875
:10176000F09F0000441800205864024010600240BE
:1017700000600240FC000020000402400000024023
:10178000103C014001681823CAB2103AB2FBF3F2D0
:10179000054B6FF30901032A9B5CC36500D9091D42
:1017A0008165084670470000B8CB000810B50146B7
:1017B00000208B698A6A4FF0C07453B1B3F5005FA3
:1017C00015D072B1012A0CD0022A0AD0032A09D1FD
:1017D00004E01AB1012A06D0022A03D1C96AC9015C
:1017E00000D5012010BDC96AA142FAD010BD002A5F
:1017F000F7D0012AF2D0022AF3D0032AF3D010BD89
:1018000030B50468256825F4802525600468636088
:101810008368402B036803D099600068C26030BDC4
:101820009A600068C16030BD70470000324933489B
:101830004FF4807391ED000A80ED000A91ED010AEA
:1018400080ED010A91ED020A2D4980ED020AB1F9FD
:10185000002000EE102AB8EEC00A80ED030AB1F9AC
:10186000022000EE102AB8EEC00A80ED040AB1F999
:10187000042000EE102AB8EEC00A80ED050AB1F986
:10188000062000EE102AB8EEC00A80ED060AB1F973
:10189000082000EE102AB8EEC00A80ED070AB1F960
:1018A0000A2000EE102AB8EEC00A80ED080AB1F94D
:1018B0000C2000EE102AB8EEC00A80ED090AB1F93A
:1018C0000E2000EE102AB8EEC00A80ED0A0AB1F927
:1018D000102000EE102A0E22B8EEC00A80ED0B0A8E
:1018E000B1F9121000EE101A0146B8EEC00A80EDF0
:1018F0000C0A0448FFF76CBBC0630020506700204F
:10190000D8650020C817002070470000054C00BFB4
:10191000FFF78CFF002009F0F9F92060012008F0A2
:10192000C0FBF5E7B40100202DE9FC4180461646D6
:10193000084600F077F8050011D000244FEA0D07A3
:1019400007EB44014A1C36F9140003F0A3F9641CA8
:10195000042CF5DB6A4629464046FFF79CFBBDE8B0
:10196000FC817CB5044600201346009001904A1E7D
:101970004800032A03D84FF40075801E05E0491F74
:1019800003290DD840F2FF150A380DEB00014A1C5F
:10199000184603F07FF96A4629462046FFF77BFB8D
:1019A0007CBD012000F066BE082000F063BE102060
:1019B00000F060BE202000F05DBE72B6FEE710EEC3
:1019C000101A01700A0A42700A0C8270090EC17066
:1019D00070470000114800B590ED000A09F0EAF8E0
:1019E0000F4981ED060A90ED010A09F0E3F881ED57
:1019F000070A90ED000A09F0DDF80849C43181EDCD
:101A0000000A90ED010A09F0D5F881ED010A90ED88
:101A1000020A09F0CFF881ED020A00BDC063002080
:101A2000FC000020012803D0052804D000207047C6
:101A30004FF40070704740F2FF10704790F820207C
:101A4000012A07D0022A05D0416A41F4802141626F
:101A500001207047006842690A43426100207047D4
:101A6000F0B590F820500468A468012D05D0022D2F
:101A700003D0416A41F480214DE014F0406F01D160
:101A8000E50045D5C4F301640125A5401D608D68BE
:101A90004FF4C0739DB1CE6835434E6845EAC60524
:101AA000066803EB0417F5514FF4C275076805EBA0
:101AB00004150E697E51097D012905D009E00E88C3
:101AC000CD6845EA4655EBE701684E5946F4807605
:101AD0004E511179D2F805504FF4C67641EA0521EE
:101AE000056806EB0416A9511178D2F801204FF4CD
:101AF000C47541EA0221026805EB041551510068E2
:101B000003EB0411425842F0010242500020F0BDA4
:101B1000416A41F4001141620120F0BD10B590F816
:101B20002020012A07D0022A05D0416A41F48021F1
:101B30004162012010BD3B48D0F8002242F0010272
:101B4000C0F80022D0F8002222F47C52C0F8002213
:101B5000D0F800224B6A42EA0322C0F800220A7D34
:101B600002F01F0301229A40D0F81C329343C0F8C0
:101B70001C32CB69B3B9D0F80C329343C0F80C32A5
:101B80008C894B6864F31F434C6900EBC404C4F8B0
:101B900040320C890B6864F31F434C6900EBC404AA
:101BA000C4F84432CB69012B16D1D0F80C32134360
:101BB000C0F80C320C884B6864F31F434C6900EB8F
:101BC000C404C4F840320C89CB6864F31F434C69E9
:101BD00000EBC404C4F844328B69002BD0F8043203
:101BE0000ED01343C0F804320B69002BD0F8143226
:101BF00008D01343C0F81432096A012904D008E060
:101C00009343EFE79343F5E7D0F81C121143C0F874
:101C10001C12D0F8001221F00101C0F800120020BF
:101C200010BD000000640040704770B590F820407F
:101C3000012C05D0022C03D0416A41F4802128E018
:101C4000046809B32469A40720D04FF4D874056848
:101C500004EB01142D5915F00405956005682D5904
:101C60001AD0ED08556005682C5904F00204D460C0
:101C70004FF4DA74056804EB01142E5906F00F06D0
:101C8000082E0CD308250DE0E468DCE7416A41F436
:101C900000114162012070BD6D0D1560E3E72D5903
:101CA00005F00F05156105682D59C5F307259561E8
:101CB00005682C59240C54614FF4DC72046802EB63
:101CC0000112A4581C700468A458240A5C700468AB
:101CD000A458240C9C700468A258120EDA704FF4B9
:101CE000DE72046802EB0112A4581C710468A45847
:101CF000240A5C710468A458240C9C710468A258DE
:101D0000120EDA71006829B1016941F02001016108
:101D1000002070BDC16841F02001C160F8E70246B3
:101D2000002092F82010012901D002290CD111685D
:101D30008A68520100D501208A68120100D5401C32
:101D40008968C90000D5401C70472DE9F05F054641
:101D5000006800244669D0F804908768D0F80CB079
:101D6000D0F810A0D0F81880F10748D0F90714D0A7
:101D700001218160B80703D5284600F06CFA0CE019
:101D8000780702D54FF4006407E0380702D54FF416
:101D9000805402E0284600F05DFAF80516D529685F
:101DA0004FF480708860B80503D5284600F055FAD6
:101DB0000CE0780502D544F4005407E0380502D55C
:101DC00044F4804402E0284600F046FAF80316D5B1
:101DD00029684FF480308860B80303D5284600F0A6
:101DE0003EFA0CE0780302D544F4004407E03803DF
:101DF00002D544F4803402E0284600F02FFA300780
:101E000007D55FEACB6004D52968102044F400743C
:101E1000C86070074FF0080707D55FEA0B7004D55C
:101E20002868C760284600F0A9F9B00706D52868D9
:101E3000C068800702D0284600F0A2F9700607D5D6
:101E40005FEACA6004D52968102044F48064086100
:101E5000B00607D55FEA0A7004D5286807612846EE
:101E600000F0C8F9F00606D528680069800702D09E
:101E7000284600F0C0F9B00308D55FEAC96005D56F
:101E8000296810204860284600F0B6F9F00307D50D
:101E90005FEA097004D528684760284600F0E0F939
:101EA000300446D55FEA497040D5F00504D55FEAB5
:101EB000C87001D044F00104B00504D55FEA887011
:101EC00001D544F00204700504D55FEA487001D5DD
:101ED00044F00404300529D518F0700F26D008F01E
:101EE0007000402815D006DC102809D020280AD020
:101EF000302816D10AE050280ED0602811D10EE00B
:101F000044F008040DE044F010040AE044F020041A
:101F100007E044F0400404E044F0800401E044F4AD
:101F200080742868816921F070018161296804202A
:101F30004860002C05D0686A204368622846FFF795
:101F400073FEBDE8F09F70B5040003D094F8200044
:101F500010B104E0012070BD204600F081F8206837
:101F6000016841F00101016000F08EFC0546052684
:101F700004E000F089FC401B0A2811D82068406862
:101F8000C007F6D02068016821F00201016000F06E
:101F90007BFC05460BE000F077FC401B0A2806D9C5
:101FA000606A40F40030606284F82060D2E7206804
:101FB00040688007EFD4207E0128206801683DD06A
:101FC00021F080010160607E01282068016838D01E
:101FD00021F040010160A07E01282068016833D013
:101FE00021F020010160E07E0128206801682ED0E8
:101FF00041F010010160207F01282068016829D08C
:1020000021F008010160607F01282068016824D068
:1020100021F004010160D4E902010843D4E904126B
:10202000114308436168491E08432168C8610020C4
:102030006062012084F82000002070BD41F0800122
:10204000C0E741F04001C5E741F02001CAE721F0B7
:102050001001CFE741F00801D4E741F00401D9E7CE
:10206000F0B587B0044614216846FEF760FA3E4B8F
:102070003E48DFF8F0E01968D4F800C03B4A032579
:102080000226092710300024491CF4452AD1196082
:10209000012907D1016841F000710160006800F07A
:1020A00000700590106840F0080010601068CDE9DD
:1020B000005600F00800CDE9047069462C48CDE9CF
:1020C000024500F0E3FA00220621142000F01CFF74
:1020D000142000F00BFF00220621152000F014FF51
:1020E00015203AE0DFF88CE0F44538D1D0F800C094
:1020F0004CF0806CC0F800C0D0F800C001290CF092
:10210000806CCDF814C0196007D1016841F00071EE
:102110000160006800F000700590106840F0020057
:102120001060106802AB00F0020005906020CDE95D
:10213000000683E8B00069460F4800F0A7FA0022C5
:102140000621402000F0E0FE402000F0CFFE0022FB
:102150000621412000F0D8FE412000F0C7FE07B064
:10216000F0BD000000640040340000203038024020
:10217000000C02400068004000040240704700006C
:1021800010B504460068164988B088420BD1154B3B
:102190006A4600212046FFF748FD002817D1114A62
:1021A0001148009918E01149884210D10D4B6A4638
:1021B00000212046FFF739FD002808D1029840B1E0
:1021C000042804D1074A69462046FEF79DFE08B060
:1021D00010BD044A06480099FEF76CFEF7E70000C0
:1021E00000640040C4010020D86400200068004062
:1021F00058650020704770477047000070B504466E
:1022000090F82000012804D0606A40F40020606249
:1022100018E0022084F820002068016821F0010104
:10222000016000F031FB05460EE000BF00F02CFB22
:10223000401B0A2808D9606A40F40030606205201B
:1022400084F82000012070BD20684068C007EDD1EF
:10225000606270BD70477047704770477047704745
:1022600070472DE9F0410446876D00F00DFB0646EE
:1022700094F835000025022806D08020606584F897
:1022800034500120BDE8F0812068016821F016017A
:1022900001602068416921F080014161206C08B92A
:1022A000A06C20B12068016821F00801016020685D
:1022B000016821F0010101600CE000F0E5FA801BEB
:1022C000052807D920206065032084F8350084F8AC
:1022D0003450D7E720680068C007EED194F85C104E
:1022E0003F208840B860012084F8350084F83450DD
:1022F0000020C7E790F83510022903D080214165FE
:1023000001207047052180F835100068016821F030
:1023100001010160002070472DE9F84304464FF0A9
:102320000009CDF8009063484FF41651A56D006880
:10233000B0FBF1F72E6894F85C10082000FA01F168
:1023400031420FD021680A6852070BD50A6822F083
:1023500004020A6094F85C108840A860606D40F048
:102360000100606594F85C104FF0010808FA01F074
:10237000304208D021684969090604D5A860606D1B
:1023800040F00200606594F85C1004208840304200
:1023900008D021680968890704D5A860606D40F0FD
:1023A0000400606594F85C1010208840304218D01A
:1023B00021680968090714D5A860206801684903E5
:1023C00004D50068000308D5A16C07E00168C905C1
:1023D00003D4016821F008010160216C09B1204695
:1023E000884794F85C1020208840304231D0216822
:1023F0000968C9062DD5A86094F83500052820681D
:10240000016806D0490347D5006800031DD4616CFC
:102410001CE021F0160101602068416921F0800173
:102420004161206C08B9A06C20B12068016821F0DE
:102430000801016094F85C103F208840A86084F88F
:10244000358084F83490216D1FE0E16B09B120469E
:102450008847606D00282BD0606DC00714D0052020
:1024600084F835002068016821F0010101600098BE
:10247000401C0090B84203D820680068C007F6D11D
:1024800084F8358084F83490E16C002910D001B0D4
:102490002046BDE8F04308470168C905D5D4016866
:1024A00021F01001016084F8358084F83490CCE785
:1024B000BDE8F883440000202DE9F041044600F017
:1024C000E3F906465CB1022084F83500002584F863
:1024D00034502068016821F0010101600DE0012005
:1024E000BDE8F08100F0D0F9801B052805D9202037
:1024F0006065032084F83500F2E720680068C007B3
:10250000F0D12268116820480140D4E90103184342
:10251000D4E903363343184363691843A369184366
:10252000E3691843236A18430843616A042903D105
:10253000D4E90B1319430843106020684069666AA8
:1025400020F0070130460E43012704280CD1A06A71
:102550000643E06A40B12046FFF728F920B1402049
:10256000606584F83570BAE7206846612046FFF759
:1025700009F994F85C203F2191408160656584F8F9
:1025800035700020ACE700003F8010F02DE9F041ED
:102590000446866D90F83400002501280DD00120F6
:1025A00084F8340094F835700020012F07D084F8A7
:1025B000340002252846BDE8F0810220FBE702270F
:1025C00084F8357060652046FFF71AF994F85C10BE
:1025D0003F208840B0602068016841F0160101602A
:1025E000206C20B12068016841F00801016020687A
:1025F000016841F001010160DCE7000010B51B4CEF
:1026000010281AD0202821D008282AD0012813D138
:1026100009F096F901280FD004F10C01206908F0A7
:10262000D1FCE068002807D011494FF080500860C5
:10263000BFF34F8FBFF36F8F10BD607840F0010084
:102640006070A07840F00100A07003E0207840F0B6
:102650000100207020790028EED0BDE8104007F07E
:10266000C5BBE07840F00100E07010BDFC00002028
:1026700004ED00E0044910B50A68024202D0086087
:10268000FFF7BCFF10BD0000143C01402DE9F84FDE
:10269000DFF8BCA10022012503264FF00F090AF143
:1026A000040BAAF1040E00BF0B6805FA02F42340E4
:1026B000A34270D10F7907F00307012F01D0022F39
:1026C00016D187684FEA420806FA08FC27EA0C0789
:1026D000D1F80CC00CFA08FC4CEA070CC0F808C092
:1026E0004768A7430C79C4F3001494403C4344600A
:1026F0000C79E443A4070AD0C4684FEA420C06FAF6
:102700000CF7BC438F6807FA0CF72743C7600C79B6
:1027100004F00304022C12D1D40800EB840CDCF882
:1027200020405707FF0E09FA07F824EA0804D1F8F9
:10273000108008FA07F848EA0408CCF820800468FA
:102740004FEA420C06FA0CF7BC430F7907F0030777
:1027500007FA0CF7274307604C6814F4403F70D029
:102760003C4C276847F480472760246822F0030721
:1027700004F480440094384C07EB040CDCF808485F
:1027800097074FEA177809FA08F7BC43334FB84266
:1027900002D1002724E054E0314FB84201D1012793
:1027A0001EE0304FB84201D1022719E02E4FB84247
:1027B00001D1032714E02D4FB84201D104270FE0C7
:1027C0002B4FB84201D105270AE02A4FB84201D168
:1027D000062705E0284FB84201D1072700E0082767
:1027E00007FA08F72743CCF80878DAF8004057468C
:1027F000D1F804C09C435FEACC2C00D51C433C605C
:10280000DBF800405F46D1F804C09C435FEA8C2CA3
:1028100000D51C433C60DEF800407746D1F804C088
:102820009C435FEA8C3C00D51C433C60084F083F4A
:102830003C68D1F804C09C435FEACC3C00D51C4303
:102840003C60521C102AFFF42FAFBDE8F88F000047
:10285000083C014044380240003001400000024082
:102860000004024000080240000C02400010024038
:102870000014024000180240001C02400AB18161AD
:1028800070470904FBE700000148806870470000BA
:102890003800002070B5040025D094F83D000025D4
:1028A00020B984F83C50204600F052FA242084F8E5
:1028B0003D002068016821F0010101602068016885
:1028C00041F4004101602068016821F40041016089
:1028D00000F006FC4D4A6168914201D84C4900E085
:1028E0004C49884201D2012070BD4B492368B0FB9E
:1028F000F1F15E6826F03F060E435E606368934226
:1029000006D94FF4967359434FF47A73B1FBF3F140
:102910002368491C1E6A26F03F063143196261682C
:10292000914210D84900401EB0FBF1F2521CC2F394
:102930000B02042A01D2042022E0B0FBF1F0401C7B
:10294000C0F30B001CE0A268F2B301EBC10303EB80
:102950000116431EB3FBF6F35B1C43F480431B05D7
:1029600049D092B301EBC10202EB0111401EB0FB52
:10297000F1F0401CC0F30B0040F4804040F40040F4
:102980002168CA694CF6FF739A431043C861D4E9C1
:10299000071001432068026822F0C0021143016061
:1029A000D4E9030101432068826848F2FF339A4367
:1029B00011438160D4E9050108432168CA6822F007
:1029C000FF021043C86001E00EE016E020680168D5
:1029D00041F0010101602564202084F83D00256359
:1029E00084F83E50002070BD01EB4106431EB3FB4E
:1029F000F6F35B1CB3E70120C2E701EB4101401E87
:102A0000B0FBF1F0401CC0F30B00B7E7A08601005B
:102A100080841E0000093D0040420F002DE9FF4F59
:102A200083B09A46DDE9118793460446DDF840906D
:102A3000FFF72AFF054694F83D00202870D119239E
:102A4000012274492046009501F0F2FE0028F5D1DC
:102A500094F83C00012863D0012084F83C002068F1
:102A60000168C90703D1016841F0010101602068D4
:102A7000016821F400610160222084F83D004020BB
:102A800084F83E0000262664C4F82490A4F82A8026
:102A9000608D20856048E062CDE9007553465A4656
:102AA0002046049901F0C6FD002879D1208DD0B1CF
:102AB000012821D00228206824D041698069009033
:102AC000208D032866D801282BD0544902283B4684
:102AD0004FF00002009557D08846204601F0A8FE2E
:102AE00000285DD13AE02068416981690091016860
:102AF00041F4007101607DE02068016821F480618B
:102B00000160F0E7016821F48061016020680168DC
:102B100041F400610160206841698069009069E0CA
:102B200075E02A463946204601F028FF88BB54E06C
:102B30002068016841F40071016020680069616AE1
:102B40000870606A401C6062218D491E2185618D7C
:102B5000491E618521680969017042E020680168A9
:102B600021F48061016020680069616A0870606A10
:102B7000401C6062208D401E2085608D401E608557
:102B80003B46002241460095204601F051FE00B927
:102B9000CEE705E02A463946204601F0EFFE18B19F
:102BA000012007B0BDE8F08F20680069616A0870F5
:102BB000606A401C6062208D401E81B22185608D5C
:102BC000401E608520684269D243520712D403290F
:102BD00003D1016821F48061016020680069616AA5
:102BE0000870606A401C6062208D401E2085608DE8
:102BF000401E6085208D00287FF462AF202084F87D
:102C00003D0084F83E6084F83C600020C9E7022063
:102C1000C7E70000020010000000FFFF04000100F1
:102C20002DE9FF4F83B09A46DDE91197934604469C
:102C3000DDF84080FFF728FE054694F83D00202887
:102C40007FD11923012240492046009501F0F0FD73
:102C5000002876D194F83C00012872D0012084F835
:102C60003C0020680168C90703D1016841F00101F7
:102C700001602068016821F400610160212084F86E
:102C80003D00402084F83E0000262664C4F82480DD
:102C9000A4F82A90608D20852C48E062CDE900756B
:102CA00053465A462046049901F042FD70B930E07F
:102CB0002A463946204601F099FE58B1206C042876
:102CC00004D12068016841F400710160012007B05F
:102CD000BDE8F08F606A216800780861606A401C76
:102CE0006062218D491E89B22185628D521E6285E6
:102CF00022685369DB435B070BD469B1007810612C
:102D0000606A401C6062208D401E2085608D401EE0
:102D10006085208D0028CBD12A463946204601F017
:102D20005BFD0028CAD154F83D0B016841F40071E5
:102D30000160202004F81E09E67766770020C6E7C8
:102D4000FFE70220C3E70000020010000000FFFFC1
:102D5000F0B587B0044614216846FDF7E8FB1A4930
:102D6000206888422DD11948016841F004010160B2
:102D7000016801F004010591016841F00101016061
:102D80000068122400F0010005904FF40070012546
:102D9000032604278DE8F10069460D48FFF776FC0D
:102DA00028028DE8F10069460A48FFF76FFC0748E2
:102DB0001030016841F400010160006800F4000077
:102DC000059007B0F0BD0000005C004030380240C4
:102DD0000008024000000240024881680278114465
:102DE00081607047380000200B4810B5016841F43D
:102DF00000710160016841F480610160016841F483
:102E000080710160032000F09FF80F2000F006F8A9
:102E100000F050F8002010BD003C024030B50546DF
:102E2000204887B00024016841F00101016000687A
:102E300006A900F00100009001A800F031F9049803
:102E4000B0B100F04DF9400017494FF08042B0FB9F
:102E5000F1F11648491E026040F2E732C0E903244E
:102E6000C0E90114846100F063FD040003D015E0A3
:102E700000F036F9E8E70D4800F0D8FD04000DD168
:102E80001C2000F033F8102D07D2002229461C2008
:102E900000F03AF80648056000E0012407B020463B
:102EA00030BD00004038024040420F004C1A002064
:102EB0003C0000200C4882B0016841F48041016070
:102EC000006800F4804000900748001F016841F04E
:102ED000805101600068002200F0805000900F21B6
:102EE000901E02B000F010B844380240002809DB00
:102EF00000F01F02012191404009800000F1E02014
:102F0000C0F8001170470000F0B40E4B1B680C466F
:102F1000C3F30223C3F10705042D00D90425191DAD
:102F2000072901D2002300E0DB1E012606FA05F185
:102F3000491E214099409E40761E16403143F0BC08
:102F400004F09ABE0CED00E0064900F007020868A4
:102F50004FF6FF03184040EA0220034A104308607E
:102F6000704700000CED00E00000FA052DE9F04785
:102F70000E46050065D0DFF81481D8F80000F7B2DE
:102F800000F00700B04207D288F80070D8F80000BF
:102F900000F00700B04254D128683D4C810712D59B
:102FA000400703D5206840F4E050206028780007EF
:102FB00003D5206840F4604020602068A96820F0B4
:102FC000F000084320602878C0072DD03049686899
:102FD0000839012812D0022813D0032811D009681B
:102FE000890700292DDA216821F0030101432160BE
:102FF000FFF74AFC814641F2883A0EE009688903EE
:10300000EFE709688901ECE7FFF73EFCA0EB090157
:10301000514502D90320BDE8F0872068696800F0B7
:103020000C00B0EB810FEFD1D8F80010404601F052
:103030000701B14207D90770006800F00700B042ED
:1030400001D00120E7E72878400705D52068E96826
:1030500020F4E050084320602878000706D5206857
:10306000296920F4604040EAC100206000F058F86F
:103070002168084AC1F30311515CC8400649086041
:1030800006480068FFF7CAFE0020C4E7003C024083
:1030900008380240C0CB0008440000203C0000205B
:1030A0000F2202600C4A136803F0030343601368A5
:1030B00003F0F0038360136803F4E053C360126805
:1030C0004FF4E05303EAD20202610448006800F0C2
:1030D000070008607047000008380240003C0240CA
:1030E0000448054900680968044AC1F38221515C1B
:1030F000C84070474400002008380240D0CB000888
:103100000448054900680968044AC1F34231515C2A
:10311000C84070474400002008380240D0CB000867
:10312000154810B5006810F00C02144813D014496B
:10313000042A0FD0082A0ED10F4C241F22682368BE
:1031400002F03F025B0207D52068C0F38810A0FBA5
:10315000010106E0084610BD2168C1F38811A1FBFA
:1031600000010023FDF700F92168C1F30141491C6A
:103170004900B0FBF1F010BD083802400024F40013
:1031800040787D012DE9F84F04006ED02078DFF8FB
:103190004C93C007A9F104054AD009F10400016865
:1031A000C1F38101012908D00068C0F38100022821
:1031B0000AD1D9F80000400206D52868800337D527
:1031C00060680028E1D033E06068B0F5803F10D03F
:1031D000B0F5A02F286810D020F48030286028682F
:1031E00020F4802028606068A8B1FFF74DFB0646F8
:1031F0000DE0286840F48030F4E740F48020286037
:10320000F7E700BFFFF740FB801B642873D82868EE
:103210008003F7D50CE0FFF737FB064605E000BF5B
:10322000FFF732FB801B6428F0D828688003F7D4AE
:103230002078DFF8AC8280074FF0000A3ED5A7481F
:10324000001D016811F00C0F08D00068C0F3810068
:1032500002280BD1D9F80000400207D42868800763
:1032600016D5E068012800D112E033E1E068B8B17A
:103270000120C8F80000FFF707FB064605E000BF85
:10328000FFF702FB801B0228C0D828688007F7D50B
:103290002868216920F0F80040EAC10028600DE0AC
:1032A000C8F800A0FFF7F0FA064604E0FFF7ECFAD2
:1032B000801B02281FD828688007F7D420780007D1
:1032C00022D5864F87486169703771B1012101604D
:1032D000FFF7DAFA064604E0FFF7D6FA801B022869
:1032E00009D838688007F7D50EE0C0F800A0FFF7CE
:1032F000CBFA064605E082E0FFF7C6FA801B0228FB
:103300007DD838688007F7D42078400768D5DFF883
:10331000CCB100270BF13C0BDBF80000C0000BD454
:10332000DBF8001041F08051CBF80010DBF8000012
:10333000012700F0805000906B4E3068C00510D41B
:10334000306840F480703060FFF79EFA009005E02E
:10335000FFF79AFA0099401A022850D83068C00541
:10336000F6D55E4EA0686C3601280FD0052830686F
:1033700010D020F001003060306820F00400306090
:10338000A068B8B1FFF780FA00900FE0306840F015
:103390000100F4E740F004003060F7E7FFF774FA4B
:1033A0000099411A41F28830814266D8306880071E
:1033B000F4D50EE0FFF768FA009007E0FFF764FA33
:1033C0000099411A41F28830814256D8306880070E
:1033D000F4D42FB1DBF8001021F08051CBF80010AD
:1033E000A069C8B33D49091D0968C1F381010229DB
:1033F0004AD00228504607D0C8F8600000E03CE000
:10340000FFF742FA04463BE04746C8F86000FFF782
:103410003BFA064605E000BFFFF736FA801B02289C
:103420002BD828688001F7D4D4E907010843A16AA2
:103430002E4A490802EB0141626A41EA82110843BF
:1034400094F82C1040EA0161C9F800100120386698
:10345000FFF71AFA044606E03EE000BFFFF714FA51
:10346000001B022809D828688001F7D534E000BF86
:10347000FFF70AFA001B022802D90320BDE8F88FE3
:1034800028688001F4D427E00128F7D0D9F800009B
:10349000E26900F4800191421CD1226A00F03F01F0
:1034A000914217D147F6C071626A0140B1EB821FA9
:1034B00010D1A26A4FF0FF3300F4403103EB520207
:1034C000B1EB024F06D194F82C1000F07060B0EB15
:1034D000016F01D00120D1E70020CFE7043802407E
:1034E00000004742800E4742007000400000FFFF8E
:1034F00070B5040009D0606A002540B1256165619E
:10350000A56294F8510040B10CE0012070BD6068E4
:10351000B0F5827FF4D0E561F2E784F850502046A0
:1035200000F044F8022084F851002068016821F07E
:1035300040010160A088218900F4827001F40441F7
:103540000843A18901F400610843217C01F00201D4
:103550000843217D01F001010843218B01F4007132
:103560000843217F01F03801084394F8201001F04E
:1035700080010843218D01F400510843216808604F
:10358000A069042101EA104094F8241001F0100110
:103590000843216848602068C16921F40061C16165
:1035A0006565012084F85100002070BD2DE9F041CF
:1035B00086B0064614216846FCF7B9FF35493068E5
:1035C000884264D134480024016841F4805101608C
:1035D000006800F4805005902F481438016841F0CD
:1035E00002010160016801F002010591016841F0EA
:1035F000010101600068022500F00100059018201B
:10360000CDE9000502AA03274FF0050882E89001E2
:1036100069462248FFF73AF88020CDE9000502AA62
:10362000694682E890011E48FFF730F81E4D1D489C
:103630007F062860C5E901744FF48068C5E9034836
:103640006C617812AC61C5E9074028466C62FEF7F0
:1036500033FF08B1FEF7B1F9F564AE63124D1148BE
:1036600060351830E5E802074020A5E81101C002E6
:1036700045F81449AC61C5E907400B486C626030FD
:10368000FEF71AFF08B1FEF798F9B564AE6306B00D
:10369000BDE8F0810030014044380240000402409F
:1036A00000000240406402409C1800202DE9FF4FBA
:1036B00081B01D46934604464FF001090E9EFFF768
:1036C000E3F8074694F851006168012806D0B1F587
:1036D000827F3CD1A168C9BB042838D10298002858
:1036E00071D0BBF1000FFBD0002DF9D094F8500041
:1036F00001282CD04FF0010A84F850A094F8510012
:10370000042802D0052084F851004FF00008C4F8C6
:103710005480C4F838B0E587A58702992163E5860F
:10372000A586C4F84080C4F8448020680168490632
:1037300003D4016841F040010160E068B0F5006F1A
:10374000606808D0F0B3012D49D081E0FFE7022086
:1037500005B0BDE8F08F08B1012D39D1206B21688B
:103760000088C860206B801C2063E08E401EE086CD
:103770002EE02068816889070FD5E18E69B1B9F123
:10378000010F0AD1216B0988C160206B801C206366
:10379000E08E401EE0864FF0000920688168C9076E
:1037A0000CD0E18F51B1C068A16B0880A06B801C68
:1037B000A063E08F401EE0874FF00109FFF764F837
:1037C000C01B01E00BE067E0B04201D3701C50D198
:1037D000E08E0028CDD1E08F0028CAD13EE0206BDA
:1037E000216800780873206B401C2063E08E401E27
:1037F000E0862DE02068816889070FD5E18E69B1E8
:10380000B9F1010F0AD1216B09780173206B401CBB
:103810002063E08E401EE0864FF00009206881683A
:10382000C9070CD0E18F51B1C068A16B0870A06BC3
:10383000401CA063E08F401EE0874FF00109FFF7B6
:1038400023F8C01BB04202D3701C01D011E086B136
:10385000E08E0028CED1E08F0028CBD13A46314609
:10386000204603F0B3FC50B12020606584F85080FE
:1038700012E084F851A084F85080032068E7A06823
:1038800018B92068C1688068009084F851A084F855
:103890005080606D0028F1D0012059E770477047D3
:1038A00070B590F83C20012A32D0012480F83C40C9
:1038B000022280F83D2003685A689D6822F0700655
:1038C0000A6832435A60134B02689A4214D0B2F12C
:1038D000804F11D0104B9A420ED0104B9A420BD011
:1038E0000F4B9A4208D00F4B9A4205D00E4B9A428A
:1038F00002D00E4B9A4204D1496825F08003194347
:10390000916080F83D40002180F83C10084670BD71
:10391000022070BD0000014000040040000800408B
:10392000000C00400004014000400140001800402D
:1039300010B5040003D094F83D0010B107E0012059
:1039400010BD002084F83C00204600F01FF8022043
:1039500084F83D00211D206803F0B4FD012084F8A7
:10396000460084F83E0084F83F0084F8400084F864
:10397000410084F8420084F8430084F8440084F84D
:10398000450084F83D00002010BD000008B5006827
:103990000649884208D10648016841F400310160B7
:1039A000006800F40030009008BD000000440140B1
:1039B0004438024090F83D10012901D001207047A1
:1039C000022180F83D1000681149884214D0B0F1FE
:1039D000804F11D00F4988420ED00F4988420BD03A
:1039E0000E49884208D00E49884205D00D498842C8
:1039F00002D00D49884204D1816801F007010629EF
:103A000003D0016841F0010101600020704700000F
:103A1000000001400004004000080040000C00408D
:103A200000040140004001400018004090F83D10A3
:103A3000012901D001207047022180F83D10016862
:103A4000CA6842F00102CA6000681149884214D075
:103A5000B0F1804F11D00F4988420ED00E498842F4
:103A60000BD00E49884208D00D49884205D00D4937
:103A7000884202D00C49884204D1816801F00701D4
:103A8000062903D0016841F0010101600020704760
:103A9000000001400004004000080040000C00400D
:103AA00000040140004001400018004070B5044689
:103AB00090F83C000025012817D0012684F83C60CE
:103AC000022084F83D002068826822F0770222F408
:103AD0007F4282600868502838D00DDC20284FD003
:103AE00005DC90B3102811D14AE0022070BD3028C7
:103AF00046D040280AD13BE060282FD070280DD056
:103B0000B0F5805F03D0B0F5005F12D0012584F8D6
:103B10003D60002084F83C00284670BDCB68D1E9A8
:103B20000121206803F043FD2068816841F077019E
:103B300009E0CB68D1E90121206803F038FD206855
:103B4000816841F480418160E1E719E0CA68496811
:103B5000206803F035FE5021206806E0CA684968F5
:103B6000206803F03EFE6021206803F02AFDCEE7C6
:103B7000CA684968206803F023FE40212068F4E702
:103B8000226801461046F0E770472DE9F0410446EF
:103B90000068C66805694FF00007A90713D5B1078B
:103BA00011D5F91E01610120207720688069800706
:103BB000204602D0FFF7E8FF04E000F0A9F8204615
:103BC00000F03BF92777680716D5700714D52168F0
:103BD0006FF004000861022020772068806910F4EB
:103BE000407F204602D0FFF7CFFF04E000F090F8BE
:103BF000204600F022F92777280715D5300713D57E
:103C000021686FF008000861042020772068C069EF
:103C10008007204602D0FFF7B7FF04E000F078F8F5
:103C2000204600F00AF92777E80616D5F00614D5E5
:103C300021686FF010000861082020772068C069B3
:103C400010F4407F204602D0FFF79EFF04E000F012
:103C50005FF8204600F0F1F82777E80708D0F00772
:103C600006D021686FF001000861204600F04AF993
:103C7000280608D5300606D521686FF08000086157
:103C80002046FFF70BFE680608D5700606D52168AA
:103C90006FF040000861204600F03BF9A8060AD505
:103CA000B00608D521686FF0200008612046BDE805
:103CB000F041FFF7F4BDBDE8F081000010B586B01B
:103CC000044614216846FCF732FC0E4920688842FD
:103CD00015D10D480021026842F020020260006800
:103CE00000F020000590402000900220CDE9010165
:103CF0000320CDE9031069460448FEF7C7FC06B06F
:103D000010BD000000440140303802400014024061
:103D1000704770B5044690F83C0000260D46012817
:103D20000FD0012084F83C006AB1042A1DD0082A73
:103D30002FD00C2A3FD00126002084F83C003046CA
:103D400070BD022070BD206803F078FC2068816996
:103D500041F0080181612068816921F004018161DD
:103D6000206881692A69114311E0206803F096FCFC
:103D70002068816941F4006181612068816921F4D2
:103D800080618161206881692A6941EA022181613B
:103D9000D2E7206803F0B8FC2068C16941F008014F
:103DA000C1612068C16921F00401C1612068C16955
:103DB0002A69114311E0206803F0DAFC2068C16928
:103DC00041F40061C1612068C16921F48061C16171
:103DD0002068C1692A6941EA0221C161ACE710B5D6
:103DE000040003D094F83D0010B107E0012010BD9D
:103DF000002084F83C00204600F01EF8022084F8E1
:103E00003D00211D206803F05DFB012084F8460081
:103E100084F83E0084F83F0084F8400084F84100B4
:103E200084F8420084F8430084F8440084F8450094
:103E300084F83D00002010BD7047704710B504465F
:103E4000022249B104290ED0082913D094F8410068
:103E5000012816D0012010BD94F83E000128F9D1A8
:103E600084F83E200FE094F83F000128F2D184F856
:103E70003F2008E094F840000128EBD184F840206E
:103E800001E084F841200122206803F083FB1649F9
:103E90002068164A884201D0904203D1436C43F413
:103EA000004343642068884213D0B0F1804F10D0A3
:103EB0000F4988420DD00F4988420AD00E498842E6
:103EC00007D0904205D00D49884202D00C49884263
:103ED00004D1816801F00701062903D0016841F08F
:103EE00001010160002010BD0000014000040140FC
:103EF0000004004000080040000C00400040014069
:103F0000001800400068B0F1804F01D1FEF764BF97
:103F10007047704770477047F8B5016804460868F5
:103F2000CA684B6910F00F0F4FF0000559D003F02D
:103F3000010602F49077374365D0C10705D0D1055B
:103F400003D5616C41F001016164410705D5D907D2
:103F500003D0616C41F002016164810705D5D90786
:103F600003D0616C41F004016164010707D502F0E0
:103F70002001314303D0616C41F008016164616C40
:103F800000293AD0800604D5900602D5204603F0D9
:103F900006FD20684069616CC0F38010090700D4F9
:103FA00060B3204603F0C6FC20684069400621D576
:103FB0002068143050E8001F21F0400140E8001252
:103FC000002AF5D1E06BA8B172490165E06BFEF7FC
:103FD00091F9002811D0E06B016D01B0BDE8F0400F
:103FE000084783060FD593060DD52046BDE8F84057
:103FF00003F0D5BC2046FFF78EFFF8BD2046FFF743
:104000008AFF6564F8BD266B2023012E7ED1C6068B
:104010007CD5D6067AD508684868009048694FF084
:10402000020640064DD5E26B106840684FF4807779
:104030000004000C3AD0A18D814237D9E085D069C7
:10404000B8422DD020680C3050E8001F21F4807158
:1040500040E80012002AF5D12068143050E8001F13
:1040600021F0010140E80012002AF5D12068143047
:1040700050E8001F21F0400140E80012002AF5D16D
:1040800084F84230256320680C3050E8001F21F08E
:10409000100140E80012002AF5D1E06BFEF7E1F8CC
:1040A0006663A08DE18D401A81B206E0A18D814248
:1040B000A8D1D069B842A5D166632046FFF72AFF90
:1040C000F8BDA08DE18D401A81B2E08D0028F7D0B7
:1040D0000029F5D020680C3050E8002F22F49072AF
:1040E00040E80027002FF5D12068143050E8002F59
:1040F00022F0010240E80027002FF5D184F8423079
:10410000256320680C3050E8002F00E006E022F024
:10411000100240E80023002BF3D1CDE705062BD594
:10412000150629D594F841002128C9D1A068B0F519
:10413000805F01D12069B0B1206A411C21622168F1
:1041400000784860E08C401E0004000CE084B7D189
:104150002068C16821F08001C1602068C16841F019
:104160004001C160F8BD206A0088C0F308004860C3
:10417000206A801C2062E5E74006F3D55006F1D5A1
:10418000CA68204622F04002CA6084F8413000F03C
:104190009FF8F8BD3978000870B5040004D094F891
:1041A0004100002510B106E0012070BD84F84050A8
:1041B000204600F023F8242084F841002068C168DC
:1041C00021F40051C160204603F04AFC20680169D7
:1041D00021F4904101612068416921F02A01416187
:1041E0002068C16841F40051C1606564202084F8F2
:1041F000410084F842006563002070BD70B586B050
:10420000064614216846FCF792F924493068884232
:1042100042D123480025016841F4802101600068F3
:1042200000F4802005901E481038016841F0040118
:1042300001600068694600F0040005904FF440609A
:1042400000900220CDE9010503200390072004908F
:104250001448FEF71BFA154C134820604FF000601D
:10426000C4E901054014C4E9035080106561C4E944
:1042700006500002C4E908052046FEF71DF908B102
:10428000FDF79BFBF46300220F212720A663FEF7B6
:104290003BFE2720FEF72AFE06B070BD0048004016
:1042A000403802400008024028600240EC1900201B
:1042B00090F84230202B01D00220704721B11AB172
:1042C0000023036303F052BC01207047704770471E
:1042D000704700001CB51B4D1B4C00BF05F0B2FC25
:1042E000287810B30020208018481A49184A837B88
:1042F00001F14000FCF73EFF1648B7EE000AB0F9A6
:104300003220B0F92410CDE90012B0F91630B0F91E
:1043100008201149114800F0B3FF002006F0F6FC18
:10432000A060012005F0BDFED8E720889628F4D2D1
:10433000B3EE0E0A08490948FDF71AF82088401C18
:104340002080EAE7B8010020CC010020D8650020D9
:10435000246A0020006C0020A0170020D8640020F0
:10436000044C002006F0D2FC6061012005F099FEAB
:10437000F7E70000CC010020264F274D274EDFF83D
:10438000A080DFF8A090284C3878A0B3002060808F
:10439000B5F90A0040F2CE7100F2E73088420FD83A
:1043A000B6F906101E4800F05BF899ED020A0122EA
:1043B0001146F1EE400A98ED010A174800F004FF9B
:1043C000B5F93A00B0F57A7F0DDAB6F90410144861
:1043D00000F080F8D9ED000A98ED000A02220521CC
:1043E0000D4800F015FF002006F090FCE060012071
:1043F00005F057FEC8E7FFE760889628F3D2B3EED2
:104400000E0A0A490448FCF7B3FF6088401C60802C
:10441000E9E70000B801002058650020D8650020B9
:104420005C6C002084640020CC010020C8170020B0
:10443000044C002006F06AFC2061012005F031FEEA
:10444000F7E70000CC010020044C002006F05EFCE1
:104450006060012005F025FEF7E70000CC01002098
:1044600000EE101A10B504469FED132ADFED131A63
:104470009FED131ADFED130AB8EEC00A01F04CF9F4
:10448000D4ED010A00209FED101A30EEC00AFAEEBA
:10449000040A84ED010A01F0F7F884ED010A94EDB5
:1044A000030A01209FED091ADFED090A01F0ECF87B
:1044B00084ED050A10BD0000CDCCCC3DCDCCCCBDEB
:1044C00000001644000016C40000204200003443DF
:1044D000000034C310B500EE101A2DED028B044617
:1044E0009FED162ADFED161A9FED161ADFED160A5C
:1044F000B8EEC00A01F010F9D4ED000A9FED138A5E
:10450000DFED138A30EEC00A0120B0EE481A84EDC8
:10451000000AF0EE680A01F0B7F884ED000A94EDA5
:10452000020A0120B0EE481AF0EE680A01F0ACF879
:1045300084ED040ABDEC028B10BD0000CDCCCC3D57
:10454000CDCCCCBD00001644000016C4000034439E
:10455000000034C370B50446C088294D00EE100A2F
:10456000F8EE400A9FED250A70EEC00AFDEEE00A63
:1045700010EE900A2880A08800EE900AF8EE600AFB
:1045800070EEC00AFDEEE00A10EE900A6880208806
:1045900000EE900AF8EE600A70EEC00AFDEEE00A46
:1045A00010EE900AA880608800EE900AF8EE600A8B
:1045B00030EEC00ABDEEC00A10EE100AE880608935
:1045C00002F0D8FE2881A08902F0D4FE68812089FB
:1045D00002F0D0FEA881E089241D02F0CBFEE88124
:1045E000A0892882E0896882207F2875607F6875AD
:1045F000E07FE875A07FA87570BD000000007844DA
:10460000D8650020FEE701684A69D24352050FD4FD
:104610006FF480624A61002140F8301F202242730B
:104620008173026942F00402026101730120704744
:10463000002070472DE9F84F0446006889460B9D1D
:1046400001689846174641F480610160206801685E
:1046500041F48071016000954FF0011B0022594622
:1046600020460A9B00F0E4F84FF4007A40B120683D
:104670000068C00501D5C4F840A00320BDE8F88F4C
:10468000216809F0FE0008612B46284920460A9A55
:1046900000F016F9F0BB20684169806900902A4655
:1046A00020460A9900F0A2F940B1206C04283AD1C2
:1046B0002068016841F40071016034E0FEB2B8F195
:1046C000010F09D02168380A08612A4620460A9954
:1046D00000F08CF90028E8D1206806612A462046BF
:1046E0000A9900F083F90028DFD12068016841F4BD
:1046F0008071016000950022594620460A9B00F017
:1047000097F80028B3D1216809F0FF0040F00100BC
:10471000086100E007E02B46044920460A9A00F0B1
:10472000CFF80028AAD00120A8E70000020001006D
:104730002DE9F843044600680D46DDE90897016855
:104740009846164641F4807101604B4600224FF0B6
:1047500001112046009700F06BF848B1206800680E
:10476000C00502D54FF4007020640320BDE8F88333
:10477000216805F0FE0008613B464A46154920467F
:1047800000F09EF888B920684169806900903A4637
:104790004946204600F02AF948B1206C042804D18B
:1047A0002068016841F4007101600120DEE7F5B284
:1047B000B8F1010F09D02168300A08613A4649462C
:1047C000204600F013F90028E7D120680561002099
:1047D000CCE700000200010070B516460D46044605
:1047E0001EE02046FFF70FFF08B1012070BD681CD6
:1047F00016D0FEF749F8801BA84200D885B920687A
:104800004069C04340070BD5002044F8300F2021F9
:104810006173A073216941F0200121612073E4E7F5
:1048200020684069C0434007DBD4002070BD000011
:104830002DE9F047984617460D460446C1F3074652
:10484000DDF820902AE000BFB8F1FF3F26D0FEF748
:104850001BF8A0EB0901414502D8B8F1000F1DD1AA
:104860002068012E16D0806925EA00000004000CA3
:1048700012D00020B84211D1002044F8300F20217E
:104880006173A073216941F020012161207301202F
:10489000BDE8F0874069E7E70120EBE72068012EDB
:1048A0000AD0806925EA00000004000C06D0002030
:1048B000B842C9D00020EBE74069F3E70120F7E7F1
:1048C0002DE9F047984616460D4604464FF000097C
:1048D0004FF0200AC1F3074723E020684069C04336
:1048E000400515D42068016841F400710160216819
:1048F0006FF480604861C4F8309084F83DA084F87B
:104900003E90216C41F00401216484F83C9021E048
:10491000701C06D0FDF7B8FFA0EB0800B04203D82A
:1049200016B1012F1FD021E02068012F15D080691A
:1049300025EA00000004000C18D000BF44F8309FA6
:1049400084F80DA084F80E90216941F020012161C6
:1049500084F80C900120BDE8F087406925EA00004A
:104960000004000CEAD12068406901E020688069F9
:1049700025EA00000004000CAFD1ECE72DE9F0417E
:10498000002590460E460446202728E04069C04393
:10499000C0060CD454F8301B6FF01000486144F886
:1049A00010596777A577206A2062257714E0FDF714
:1049B0006BFFA0EB0800B04200D886B920684069C0
:1049C000C04340060BD544F8305F6773A573206978
:1049D00040F02000206125730120BDE8F0812068AF
:1049E0004169C9434906D1D40020F6E770B516469F
:1049F0000D4604461EE02046FFF705FE08B10120E3
:104A000070BD681C16D0FDF73FFF801BA84200D880
:104A100085B920684069C04300060BD5002044F8E2
:104A2000300F20216173A073216941F020012161C1
:104A30002073E4E720684069C0430006DBD400200F
:104A400070BD00000EB5072000E0642005F029FBD2
:104A5000FCF704F90028F8D102E0642005F021FBFE
:104A600005F0C0FA0028F8D1804A101DCDE90102F6
:104A7000A2F1100808F10401FCF708F94346A3F17C
:104A8000340208F1480AA2F10C01A1F10C00CDF8A2
:104A900000A005F035F9DFED760A9FED760A764A3B
:104AA000002108F1640001F0C1F8A8F13402A2F17C
:104AB0000C0101F11800FBF733FEA8F14007A7F144
:104AC000180597ED000AA5F10C0685ED000AA5F181
:104AD000180986ED000A89ED000A97ED010A002009
:104AE00085ED010A86ED010A89ED010A97ED020ABA
:104AF00085ED020A86ED020A89ED020A05F07EFBC9
:104B000006F0DAFE5D4C5E4920611020C86108465F
:104B1000FEF7EEFC08B1FCF750FF58490822283197
:104B2000A1F1080002F0DAFA012020714FF0FF3BFA
:104B30005946012006F066F80128F9D1207840078F
:104B400008D5207820F0040020704C4801992930C5
:104B5000FCF754F8607840070BD5607820F004002B
:104B60006070424A08F104011032A2F12A00FBF7FA
:104B7000FFFFA07840070CD5A07820F00400A070BB
:104B80003E4802991630FCF75BF998ED040A05F0EF
:104B9000B1F9364BCDF800A0103BA3F13402A2F1DD
:104BA0000C01A1F10C0005F0ABF8D6ED000A9FED69
:104BB000350AC9ED000A95ED001A2C4B86ED001A56
:104BC00061EE001A9FED301A97ED002A443B40EE4B
:104BD000811ADFED2E0AA3F1240202F10C0101F18A
:104BE000240042EE201AC5ED001A96ED012A89ED47
:104BF000012AD5ED011AC6ED011A61EE801A42EEC6
:104C0000011A97ED012A42EE201AC5ED011A96ED20
:104C1000022A89ED022AD5ED021AC6ED021A21EE0A
:104C2000800A02EE010A97ED021A01EE200A85EDD4
:104C3000020A9FED170AFBF7DBFE0C4B203B1A1F05
:104C4000111FA1F1100004F085FFE07810F00100C1
:104C5000E07007D0E07820F00100E070E07840F0EC
:104C60000200E070FCF7B6FE62E70000E863002097
:104C70000080894500A08C45ECCB0008FC0000209A
:104C8000441800205AF8F63F5D896EBFD5A9183B3D
:104C90006F12833A030A0B701070704710B58EB014
:104CA00000240794089409940A940B941C216846E4
:104CB0000C94FBF73CFC174815490160A721C0E99B
:104CC00001144FF6FF71C0E90314846102F0CAFBBE
:104CD0004FF48050079007A90E48FEF7E7FE0D48F5
:104CE000FFF77DF80B940BA90A480C94FEF7D8FD4A
:104CF0006020CDE900040294082269460548049426
:104D0000FFF707F8034802F065FC0EB010BD000085
:104D100000080040906400200F4810B50D49016064
:104D20000321416000214FF420228160C0E9031279
:104D30004FF480124261017641768176C176017727
:104D40004177FDF700F9002803D0BDE81040FCF7DB
:104D500034BE10BD00640040A01700200F4810B5FD
:104D60000D4901600321416000214FF42022816040
:104D7000C0E903124FF480124261017641768176D8
:104D8000C17601774177FDF7DEF8002803D0BDE852
:104D90001040FCF712BE10BD00680040C81700208C
:104DA000154808B5016841F480010160016801F40B
:104DB00080010091016841F4001101600068002247
:104DC00000F4001000900F210C20FEF79DF80C203D
:104DD000FEF78CF8002205213A20FEF795F83A20DC
:104DE000FEF784F8002205213B20FEF78DF8BDE890
:104DF00008403B20FEF77AB83038024010B52D4A03
:104E00000221052005F088F92B4C2A4A0221E06294
:104E10001832102005F080F92063284A0021284824
:104E200005F0A6F9254A206024320021254805F026
:104E30009FF9224A606048320021234805F098F922
:104E40001E4AA0606C320021204805F091F91B4AEF
:104E5000E060903200211E4805F08AF9174A20616F
:104E6000B43200211B4805F083F9124A6061B43A5C
:104E70000021194805F07CF90E4AA061903A002102
:104E8000164805F075F90B4AE0616C3A00211448A8
:104E900005F06EF9074A2062483A0021114805F0F2
:104EA00067F9044A6062243A00210F4805F060F96E
:104EB000A06210BD88CB000800000020FCC90008DB
:104EC000F5720008FD72000859730008454A000891
:104ED0006D9600080D190008D542000879430008B6
:104EE0003144000849440008614300082DE9F043BB
:104EF00087B014216846FBF71AFB6048002501685B
:104F000041F002010160016801F0020105910168B0
:104F100041F001010160016801F0010105910168A2
:104F200041F008010160016801F008010591016884
:104F300041F004010160016801F00401059101687C
:104F400041F040010160016801F0400105910168F4
:104F500041F020010160016801F020010591016824
:104F600041F0800101600068DFF8148100F08000EA
:104F70000590012240214046FDF780FC414F002270
:104F80004FF4E0513846FDF779FC3F4E01221021E5
:104F90003046FDF773FCDFF8F490012211464846D5
:104FA000FDF76CFC01244020CDE900040294694621
:104FB00040460394FDF76AFB4FF4C0508DE8310082
:104FC000694638460395FDF761FB082000904FF4D1
:104FD0008810CDE9010469464046FDF757FBA00261
:104FE000CDE9000469463846CDE90245FDF74EFBA0
:104FF0001020CDE90004022569463046CDE902457E
:10500000FDF744FB30204FF40416CDE90006694655
:1050100002941F48FDF73AFBCDE900466946404639
:105020000294FDF733FB0094694648460194CDE9AC
:105030000245FDF72BFB002205210620FDF764FF4A
:105040000620FDF753FF002205210920FDF75CFF34
:105050000920FDF74BFF002205210A20FDF754FF30
:105060000A20FDF743FF002205211720FDF74CFF22
:105070001720FDF73BFF07B0BDE8F0833038024052
:1050800000180240001C02400000024000040240E0
:10509000000802400D4810B50B4901600C49416001
:1050A00000214FF480428160C0E9031241618161B7
:1050B000C1610162FDF7EEFB002803D0BDE810409E
:1050C000FCF77BBC10BD0000005C0040F017002026
:1050D000801A0600104810B50E4901604FF4827125
:1050E0004160002102228160C0E903120122426175
:1050F000520282613822C0E90721416281620A219D
:10510000C162FEF7F5F9002803D0BDE81040FCF7B6
:1051100054BC10BD003001404418002010B588B0C8
:105120001C216846FBF703FA144813490024C0E920
:10513000001441F28731C0E9024104618461FEF745
:10514000F7FB08B1FCF739FC0C48FEF748FE08B144
:10515000FCF733FC6020CDE900040294002269468C
:1051600006480494FEF7D5FD08B1FCF726FC034879
:10517000FEF7A4FD08B010BD004401405C190020FA
:105180000E4810B50C4901600D4941604FF4805143
:1051900081604900C160C91001610C214161002199
:1051A0008161C161FEF7F8FF002803D0BDE810401F
:1051B000FCF703BC10BD000000480040A41900200B
:1051C000A0860100FEE7000010B50C4600EB0410BD
:1051D000B0EE601A30F9080C0B4900EE900ADFEDD2
:1051E000091AA1F13400F8EEE00A00F0EDFBBDEE83
:1051F000C00A2146BDE8104010EE100A02B2034872
:10520000FCF7AFBBCDCCCC3D746B0020C8170020A1
:1052100070B505462DED028B0C46B0EE608A10EE9F
:10522000100A07F0F5FA41EC100B00F08FFA51EC80
:10523000100B06F047FD00EE100A05EB04100E49B6
:1052400030F9080CF7EE001A00EE900AB0EE481A9A
:10525000A1F13400F8EEE00A00F0E2FBBDEEC00A76
:10526000BDEC028B214610EE100ABDE8704002B280
:105270000248FCF776BB0000CC6A0020C81700206B
:1052800030B504462DED048BB0EE409A83B0B0F9F2
:1052900008003E4900EE100AB4F90A001D46B8EEB7
:1052A000C01A00EE100ADDED0B8A9DED0A8AF8EEB9
:1052B000C00A00EE102AF0EE491AA1F13400B8EE4F
:1052C000C00A00F081FBBDEEC00A3049F0EE491A79
:1052D00010EE100A6831ADF80000B4F9180000EEC5
:1052E000100AB4F91A00B8EEC01A00EE100AA1F1C3
:1052F0003400F8EEC00A00EE105AB8EEC00A00F012
:1053000063FBBDEEC00A2249F0EE491A10EE100A06
:10531000ADF80200B4F9280000EE100AB4F92A0032
:10532000B8EEC01A00EE100AA1F19C00F8EEC00A17
:10533000B8EEC80A00F048FBBDEEC00A1449F0EE12
:10534000491A10EE100AADF80400B4F9380000EE66
:10535000100AB4F93A00B8EEC01A00EE100AA1F132
:105360003400F8EEC00AB8EEE80A00F02DFBBDEEFE
:10537000C00A6A46012110EE100AADF80600054881
:10538000FCF7D2FA03B0BDEC048B30BDB868002046
:10539000F0690020A017002010B5B1EE043A2DED01
:1053A000088BF9EE042ADFED998AB0EE682A9FEDAA
:1053B000989AF0EE491A9FED978AB0EE080A96483F
:1053C000B0EE481AF0EE480A00F086FBDFED939A43
:1053D000B0EE693A9FED92AA8F48B0EE682AF0EEDF
:1053E0004A2AF0EE491AB0EE481AF0EE480AB7EE33
:1053F000000A343000F070FBB2EE043AFAEE042AF0
:10540000DFED88AAB0EE6A2A9FED87BA8248B0EE37
:10541000481AF0EE4B1AF0EE480AB2EE040A683071
:1054200000F05AFB7C48B0EE693AF0EE4A2AB0EE42
:10543000682AF0EE491AB0EE481AF0EE480AB7EEC4
:10544000000A9C3000F048FB7348B2EE043AFAEED2
:10545000042AB0EE6A2AF0EE4B1AB0EE481AF0EECB
:10546000480AB2EE040AD03000F036FBB0EE693ADA
:10547000F0EE4A2AB0EE682AF0EE491AB0EE481A69
:10548000F0EE480AB7EE000A684800F025FB6748CE
:10549000B2EE043AFAEE042AB0EE6A2AF0EE4B1AA3
:1054A000B0EE481AF0EE480AB2EE040A343000F0CA
:1054B00013FB5E48B0EE693AF0EE4A2AB0EE682A75
:1054C000F0EE491AB0EE481AF0EE480AB7EE000ABC
:1054D000683000F001FB5548B2EE043AFAEE042AB7
:1054E000B0EE6A2AF0EE4B1AB0EE481AF0EE480A17
:1054F000B2EE040A9C3000F0EFFA4C48B0EE693A84
:10550000F0EE4A2AB0EE682AF0EE491AB0EE481AD8
:10551000F0EE480AB7EE000AD03000F0DDFAF2EE05
:10552000043ABAEE043ADFED422A9FED422AF7EE42
:10553000001AB0EE481AF0EE480AB0EE080A3E48EB
:1055400000F0A0FADFED3D9A9FED3DAA3A48B2EE99
:10555000043AFAEE042AB0EE692AF0EE4A1AB0EEE6
:10556000481AF0EE480AB7EE000A403000F0B4FAEC
:105570003148B2EE043AFAEE042AB0EE692AF0EEAF
:105580004A1AB0EE481AF0EE480AB7EE000A743034
:1055900000F0A2FA2848F2EE043ABAEE043AF0EE2D
:1055A000682AB0EE492AF7EE001AB0EE481AF0EE7B
:1055B000480AB0EE080AA83000F064FA1E48B2EEBD
:1055C000043AFAEE042AB0EE682AF0EE491AB0EE78
:1055D000481AF0EE480AB7EE000AE83000F07CFA0C
:1055E000B0EE692AF0EE4A1AB0EE481AF0EE480A18
:1055F000BDEC088BB2EE043AFAEE042ABDE8104086
:105600009FED100A104800F067BA000000008046C5
:10561000000080C6000000005068002000004842E2
:10562000000048C200004844000048C454690020FB
:1056300000401C4600401CC6586A002000007A4406
:1056400000007AC40000C842746B002010B510EE50
:10565000100A07F0DDF89FED081B53EC112B06F044
:1056600005FE9FED071B53EC112B06F011FC06F015
:1056700029FB00EE100A10BD182D4454FB210940EF
:10568000000000000080664010B52DED068BB0EEE6
:10569000608AB0EE409A71EE488AF5EEC08AF1EE6B
:1056A00010FA2BD928B318EE900A07F0B1F839EEAA
:1056B000480A41EC1A0B10EE100A07F0A9F841EC69
:1056C000100BB0EE4A1AF0EE6A1A02F009FD51EC26
:1056D000100B06F0F7FA00EE100AB5EEC00AF1EE74
:1056E00010FA01D230EE280A30EE080ABDEC068B23
:1056F00010BDB4EEC89AF1EE10FA02D2B0EE480A2C
:10570000F4E7B4EEC19AF1EE10FA02DDB0EE410A10
:10571000ECE7B0EE490AE9E7F4EE410AF1EE10FADF
:1057200006D131EE820AF6EE000A20EE200A70471A
:1057300030EE600A31EE601AC0EE010A32EE611AF4
:10574000B0EE610A00EE810A7047000010B52DED41
:10575000048B9FED1A9BB0EE491AF0EE691A02F025
:10576000BFFCB0EE408AF0EE608A9FED160B51EC64
:10577000180B53EC102B06F01FFF07D253EC192B1C
:1057800051EC180B06F05AFF41EC180B9FED0F0B74
:1057900051EC180B53EC102B06F02CFD07D853ECF2
:1057A000192B51EC180B06F0BFFA41EC180BB0EEB8
:1057B000480AF0EE680ABDEC048B10BD0000000042
:1057C000008076400000000000806640000000007D
:1057D000008066C0FEE7F0EE400A90ED000A20EE81
:1057E000201A90ED070A30EE200A80ED070AD0ED6E
:1057F0000B1AB4EEE10AF1EE10FA06DCD0ED0A1A4B
:10580000B4EEE10AF1EE10FA01D2C0ED071A90ED04
:10581000010AD0ED071A90ED062A20EE210A30EE9B
:10582000C22AD0ED021A31EE000A61EE821A90ED22
:10583000091A30EE210AB4EEC01AF1EE10FA06D3BE
:1058400090ED081AB4EEC01AF1EE10FA01DDB0EED8
:10585000410AC0ED060A80ED0C0A704710B530EE23
:10586000C00A2DED028B9FED0C8AF0EE480A02F083
:10587000B9FC10EE100A0949884204DD30EE480AEE
:10588000BDEC028B10BD10EE100A05498842F7D31B
:1058900030EE080AF4E700000000B443000034438F
:1058A000000034C3C0ED030A70EEC00A80ED040AA4
:1058B000C0ED050A90ED070A30EE201A80ED071AB8
:1058C00090ED0B0AB4EEC01AF1EE10FA01DD80ED96
:1058D000070A90ED071A90ED0A0AB4EEC01AF1EE2D
:1058E00010FA01D280ED070A90ED000AD0ED071AF8
:1058F000D0ED022A20EE202A90ED010A20EE211A96
:1059000090ED060A30EEC00A32EE011A20EE220AAD
:1059100031EE001A90ED090AB4EEC10AF1EE10FA68
:1059200006D390ED080AB4EEC10AF1EE10FA02DDDA
:1059300080ED0C0A03E080ED0C1A90ED0C0AB4EE39
:10594000410AF1EE10FA03D031EEE01A80ED071AA9
:10595000C0ED060A7047000010B504462DED048B1B
:10596000B0EE609ADFED178AF0EE680A02F03AFCBA
:10597000B0EE408AB5EEC08AF1EE10FA01D238EEF0
:10598000288AF0EE680AB0EE490A02F02BFCF0EE2D
:10599000400AF5EEC00AF1EE10FA01D270EEA80A44
:1059A00084ED048AB0EE480AC4ED030AFFF756FFFF
:1059B00084ED050A2046BDEC048BBDE81040FFF7DE
:1059C0000ABF00000000B443F0EE413AB0EE404A96
:1059D00000B5B0EE605A0246F0EE614AF0EE440ABD
:1059E000B0EE630A0846FFF75DFF73EEC40AB0EE3F
:1059F000403A9FED0A0AF0EEE00AF4EEE40AF1EE16
:105A000010FA06DDF0EE430AB0EE450A1046FFF745
:105A100049FF81ED0C3A82ED0C0A00BD0000000048
:105A200070B505462DED048BB0EE418AF0EE408A4C
:105A3000F0EE609AB0EE619A0C46F0EE680AB0EEB5
:105A4000480A0846FFF788FF78EE680AB0EE403A49
:105A50009FED0B0AF0EEE00AF4EEC90AF1EE10FA3F
:105A600006DDF0EE430AB0EE690A2846FFF71AFF9A
:105A700084ED0C3A85ED0C0ABDEC048B70BD000082
:105A80000000000000B501000ED081ED0C2AC1ED30
:105A90000B2A81ED0E3AC1ED0D3A81EC040A00F0BB
:105AA00005F8012081F83C0000BD000000280FD05F
:105AB0009FED080A80ED040A80ED050A80ED060AD4
:105AC00080ED0A0A80ED070A80ED080A80ED090AD8
:105AD000704700000000000080EC030A9FED080AF8
