:020000040800F2
:10000000B82E00242D0400084D5C0008D9500008CB
:10001000A15300088B070008B5700008000000001D
:100020000000000000000000000000006D03000858
:10003000650F000800000000C9030008AD65000856
:100040004B0400084B0400084B0400084B04000854
:100050004B0400084B0400084B0400084B04000844
:100060004B0400084B0400084B040008210B000857
:100070004B0400084B0400084B0400084B04000824
:100080004B0400084B0400084B040008E110000872
:10009000F9100008ED100008051100084B040008D5
:1000A0004B0400084B0400084B0400084B040008F4
:1000B000356700084B0400084B0400084B04000897
:1000C0004B0400084B0400084B0400084B040008D4
:1000D0004B0400084B0400084B0400084B040008C4
:1000E0004B0400084B040008000000004B0400080B
:1000F0004B0400084B0400084B0400084B040008A4
:100100004B0400084B0400084B0400084B04000893
:100110004B0400084B0400084B0400084B04000883
:100120004B0400084B0400084B0400084B04000873
:100130004B0400084B0400084B0400084B04000863
:1001400000000000000000000000000000000000AF
:100150004B0400084B0400084B0400084B04000843
:100160004B0400084B0400084B0400084B04000833
:100170004B0400084B0400084B040008000000007A
:100180004B0400084B0400084B0400084B04000813
:100190004B0400084B0400084B0400084B04000803
:1001A0004B0400084B0400084B040008000000004A
:1001B0004B0400084B0400084B0400084B040008E3
:1001C0004B0400084B040008000000000000000081
:1001D00000000000000000004B04000800000000C8
:1001E000000000000000000000000000000000000F
:1001F00000000000000000004B0400084B04000851
:100200004B0400084B040008000000004B040008E9
:100210004B0400084B0400084B0400084B04000882
:100220004B040008000000004B0400080000000020
:100230004B0400084B040008000000004B040008B9
:100240004B0400084B0400084B0400084B04000852
:100250004B0400084B0400084B0400084B04000842
:100260004B0400084B0400084B0400084B04000832
:100270004B0400084B0400084B0400080000000079
:100280004B0400084B0400084B0400084B04000812
:10029000000000004B0400084B04000800000000B0
:1002A000000000004B0400084B0400084B04000849
:1002B0004B0400084B0400084B040008111100080F
:1002C0001D1100084B0400084B04000800F002F860
:1002D00000F03CF80AA090E8000C82448344AAF1A4
:1002E0000107DA4501D100F031F8AFF2090EBAE8A2
:1002F0000F0013F0010F18BFFB1A43F0010318475A
:10030000C0970000F0970000103A24BF78C878C169
:10031000FAD8520724BF30C830C144BF04680C600B
:10032000704700000023002400250026103A28BF53
:1003300078C1FBD8520728BF30C148BF0B60704757
:100340001FB509F0B3F91FBD10B510BD00F0E8F9F5
:100350001146FFF7F5FF07F0CDFB00F006FA03B4F6
:10036000FFF7F2FF03BC00F009FA00002C4B1968FC
:100370000868B0E8F04F80F30988BFF36F8F4FF043
:10038000000080F3118870470000000008480068F2
:10039000006880F308884FF0000080F3148862B68C
:1003A00061B6BFF34F8FBFF36F8F00DF00BF00BF99
:1003B00008ED00E0DFF80C00016841F47001016015
:1003C000704700BF88ED00E0EFF30980BFF36F8F47
:1003D000134B1A681EF0100F08BF20ED108A20E999
:1003E000F04F106009B44FF0500080F31188BFF354
:1003F0004F8FBFF36F8F08F0DDFA4FF0000080F3EE
:10040000118809BC19680868B0E8F04F1EF0100F99
:1004100008BFB0EC108A80F30988BFF36F8F704774
:1004200034000024EFF30580704700000A4880473D
:100430000A4880470A480047FEE7FEE7FEE7FEE776
:10044000FEE7FEE7FEE7FEE7FEE7FEE705480649B2
:10045000064A074B70470000C51000085D6600089B
:10046000CD020008B8280024B82E0024B82A0024A1
:10047000B82A002453EA020C00F069802DE9F04B01
:100480004FF00006002B1FBFB3FA83F503FA05F403
:1004900024FA05F65E4012BF1643B2FA82F502FA5C
:1004A00005F4C5F120051EBF22FA05FC44EA0C0440
:1004B000203556EA044C4FEA144418BF641C4FF030
:1004C00000084FF00009904271EB030C39D300296A
:1004D00019BFB1FA81F701FA07F6B0FA80F700FA0E
:1004E00007F6C7F120071EBF20FA07FC46EA0C06F4
:1004F0002037B6FBF4FCA7EB0507103F07F01F0BF6
:10050000CBF120060CFA0BFB2CFA06F644BFB346DF
:100510000026202FA4BF5E464FF0000B5BEA060CBE
:1005200008BF4FF0010B19EB0B09ABFB027C48EB4A
:100530000608C01B06FB02CC0BFB03CC71EB0C01C5
:10054000C1E70B46024641464846BDE8F08B13B56D
:100550004FF000004FF00001AFF30080BDE81C40F9
:100560007047032A40F2308010F0030C00F0158031
:1005700011F8013BBCF1020F624498BF11F801CBA6
:1005800000F8013B38BF11F8013BA2F1040298BF0B
:1005900000F801CB38BF00F8013B11F0030300F075
:1005A0002580083AC0F0088051F8043B083A51F819
:1005B00004CBA0E80810F5E7121D5CBF51F8043B1E
:1005C00040F8043BAFF30080D20724BF11F8013B91
:1005D00011F801CB48BF11F8012B24BF00F8013BF3
:1005E00000F801CB48BF00F8012B704710B5203A46
:1005F000C0F00B80B1E81850203AA0E81850B1E8DC
:100600001850A0E81850BFF4F5AF5FEA027C24BF91
:10061000B1E81850A0E8185044BF18C918C0BDE888
:1006200010405FEA827C24BF51F8043B40F8043B51
:1006300008BF7047D20728BF31F8023B48BF11F806
:10064000012B28BF20F8023B48BF00F8012B704760
:1006500002F0FF0343EA032242EA024200F037B805
:100660004FF0000200B5134694469646203922BF4B
:10067000A0E80C50A0E80C50B1F12001BFF4F7AF96
:10068000090728BFA0E80C5048BF0CC05DF804EB78
:10069000890028BF40F8042B08BF704748BF20F8E6
:1006A000022B11F0804F18BF00F8012B70477047E4
:1006B0007047704710B500F02BF8006810BD10B5FA
:1006C000044600F025F8046010BD4FF00002042934
:1006D000C0F0128010F0030C3FF4C4AFCCF1040C56
:1006E000BCF1020F18BF00F8012BA8BF20F8022BA5
:1006F000A1EB0C01FFF7B6BF5FEAC17C24BF00F895
:10070000012B00F8012B48BF00F8012B70470000B7
:10071000004870475428002400487047542800249B
:100720007546FFF7F9FFAE4605006946534620F0CF
:100730000700854618B020B5FFF788FEBDE82040C9
:100740004FF000064FF000074FF000084FF0000B8D
:1007500021F00701AC46ACE8C009ACE8C009ACE840
:10076000C009ACE8C0098D46704710B50446AFF328
:1007700000802046BDE81040FFF7F1BD0149182078
:10078000ABBEFEE7260002007047FEE7A1F20121A2
:1007900007291FD8C9B24B1C00EB01100121DFED66
:1007A0000E0A03804173118849BA418000EE101A85
:1007B000B8EE401A9FED090A61EE200A20EE800A89
:1007C00080ED010A518849BA0181918849BA418175
:1007D000D1790173704700000000B4430000003974
:1007E00010B504462DED028B9FED298A90EC030A8B
:1007F00030EE602AF1EE601A70EE802A70EEC00AC8
:1008000071EEC01A32EE012A32EE810A70EE810AD0
:1008100031EE811A80ED030A80ED0B2AC0ED070A44
:1008200080ED0F1AB3EE031AF0EE480A07F098F8BD
:10083000BDEEC00AB3EE031AF0EE480A10EE100A3D
:10084000208294ED070A07F08BF8BDEEC00AB3EEE4
:10085000031AF0EE480A10EE100A208494ED0B0AF9
:1008600007F07EF8BDEEC00AB3EE031AF0EE480AB8
:1008700010EE100A208694ED0F0A07F071F8BDEE15
:10088000C00A10EE100AA4F84000BDEC028B10BDA7
:10089000E3A59B3D2DE9F0411E4617460D46044653
:1008A0002DED028B9FED4C8AB0EE480A05F0F8F86A
:1008B00094ED021AD4ED030A012E31EE400A84ECC5
:1008C000020A04D0022E14D0032E43D07CE094ED13
:1008D000040AF0EE480A85ED000A94ED050A384650
:1008E00085ED010A94ED010A05F08EFA85ED020A04
:1008F0006AE0B7EEC10A06F037FD94ED051AB7EECF
:10090000C11A20EE018B94ED020AB7EEC00A06F080
:10091000FBFB94ED041AB7EEC11A01EE008BB7EEA3
:10092000C80B85ED000A94ED020AB7EEC00A06F086
:10093000EBFB94ED051AB7EEC11A20EE018B94ED96
:10094000020AB7EEC00A06F00FFDD4ED041AB0EEAD
:10095000001A2FE0B7EEC10A06F006FD94ED051A65
:10096000B7EEC11A20EE018B94ED020AB7EEC00A71
:1009700006F0CAFB94ED041AB7EEC11A01EE008B23
:10098000B7EEC80B85ED000A94ED020AB7EEC00A77
:1009900006F0BAFB94ED051AB7EEC11A20EE018BF2
:1009A00094ED020AB7EEC00A06F0DEFCD4ED041A9C
:1009B000B8EE001AB7EEE12A02EE408BB7EEC80B94
:1009C00085ED010A85ED021A2846BDEC028BBDE8D3
:1009D000F041FFF705BF00000000000030B50446FD
:1009E0000D462DED028B85B0B0F908009FED4A8AC7
:1009F00000EE100A4948F0EE480AB8EEC00A05F0C9
:100A0000A9F9BDEEC00AF0EE480A10EE100AADF8E2
:100A10000000B4F9180000EE100A4048B8EEC00A11
:100A200005F098F9BDEEC00AF0EE480A10EE100A83
:100A3000ADF80200B4F9280000EE100A3748B8EE0D
:100A4000C00A05F087F9BDEEC00AF0EE480A10EEC4
:100A5000100AADF80400B4F9380000EE100A2F486F
:100A6000B8EEC00A05F076F9BDEEC00AF0EE480A0D
:100A700010EE100AADF80600B4F9480000EE100AB6
:100A80002648B8EEC00A05F065F9BDEEC00AF0EEE2
:100A9000480A10EE100AADF80800B4F9580000EE4C
:100AA000100A1E48B8EEC00A05F054F9BDEEC00A9F
:100AB000F0EE480A10EE100AADF80A00B4F968002A
:100AC00000EE100A1548B8EEC00A05F043F9BDEE75
:100AD000C00AF0EE480A10EE100AADF80C00B4F9A6
:100AE000780000EE100A0D48B8EEC00A05F032F9A1
:100AF000BDEEC00A01216A4610EE100AADF80E00E4
:100B0000284600F09FFA0521284602AA00F09AFA2A
:100B100005B0BDEC028B30BD00000000D01F0024EA
:100B2000014800F0D7BC0000AC110024294A01683C
:100B300091423AD0274A1832914236D0254A303273
:100B4000914232D0234A483291422ED0214A60321B
:100B500091422AD01F4A7832914226D01D4A9032C3
:100B6000914222D01B4AA83291421ED01A4A914289
:100B70001BD0194A1832914217D0174A303291428D
:100B800013D0154A483291420FD0134A6032914235
:100B90000BD0114A7832914207D00F4A90329142DD
:100BA00003D00D4AA832914211D1CAB21823103A8B
:100BB000B2FBF3F26FF30901032A02F00703074ABD
:100BC000D25CC26500D9091D81650846704721F0D5
:100BD000FF01F9E7100002401004024004990008E8
:100BE00030B5224A012301689142CAB21BD01F4C82
:100BF0001434A14217D01D4C2834A14213D01B4CF1
:100C00003C34A1420FD0194C5034A1420BD0174CA8
:100C10006434A14207D0154C7834A14203D0134C60
:100C20008C34A1420CD11421114C083AB2FBF1F1E1
:100C30000F4A803201F01F0504EB8101AB4010E048
:100C40000C4D1824103A0D44B2FBF4F1A82D00D835
:100C50000831094A01F01F0402EB8101064AA34052
:100C60008032603080E80E0030BD00000854025829
:100C700000580258F0FBFDBF0008024010B5027991
:100C8000531E072B2DD8174C0168A1421BD0154CC1
:100C90001434A14217D0134C2834A14213D0114C64
:100CA0003C34A1420FD00F4C5034A1420BD00D4C1C
:100CB0006434A14207D00B4C7834A14203D0094CD4
:100CC0008C34A14203D10849074C443102E0074962
:100CD000064C443104EB8202C0E91B2101219940FA
:100CE000416710BD08540258FC580258FC080240E5
:100CF00010B583694FF0C074826A0146002053B179
:100D0000B3F5005F15D072B1012A0CD0022A0AD0C7
:100D1000032A09D104E01AB1012A06D0022A03D11C
:100D2000C96AC90100D5012010BDC96AA142FAD023
:100D300010BD002AF7D0012AF2D0022AF3D0032AEC
:100D4000F3D010BD2DE9F04F804E804FDFF8FC91BD
:100D50001836DFF8F8A148370468856D0AF1300AC3
:100D6000DFF8ECB14C45DFF8ECC1DFF8ECE16DD019
:100D7000B4426BD0544569D0BC4267D0DFF8D08113
:100D8000A8F11808444561D05C455FD064455DD04A
:100D900074455BD0DFF8C481444557D0DFF8BC818F
:100DA00008F11808444551D0DFF8B08108F1300847
:100DB00044454BD0DFF8A48108F14808444545D0AC
:100DC000DFF8988108F1600844453FD0DFF88C8156
:100DD00008F17808444539D0DFF8808108F190089F
:100DE000444533D0DFF8748108F1A80844452DD07C
:100DF000DFF86C81444529D0DFF8648108F11408DC
:100E0000444523D0DFF8588108F1280844451DD017
:100E1000DFF84C8108F13C08444517D0DFF84081E9
:100E200008F15008444511D0DFF8348108F1640816
:100E300044450BD0DFF8288108F17808444505D0F7
:100E4000DFF81C8108F18C08444509D1D0E9194824
:100E5000C4F80480C46E1CB1D0E91C48C4F80480F6
:100E600004684C452ED0B4422CD054452AD0BC4204
:100E700028D0374E183EB44224D05C4522D0644579
:100E800020D074451ED0354EB4421BD0334E183698
:100E9000B44217D0314E3036B44213D02F4E4836BC
:100EA000B4420FD02D4E6036B4420BD02B4E783664
:100EB000B44207D0294E9036B44203D0274EA8360C
:100EC000B44215D190F85C603F2406F01F06B44090
:100ED000AC600468256825F4802525602EE09A60C2
:100EE0000068C160BDE8F08F99600068C260F9E7F2
:100EF0001B4EB4421BD01A4E1436B44217D0184EB3
:100F00002836B44213D0164E3C36B4420FD0144E9D
:100F10005036B4420BD0124E6436B44207D0104E55
:100F20007836B44203D00E4E8C36B442DAD190F803
:100F30005C60012406F01F06B4406C6004686360C6
:100F40008368402B0368CFD1C9E70000100002403E
:100F500088000240A0000240B80002401004024095
:100F600008540258704700002F48A0F13C0190ED52
:100F7000000A81ED060A90ED010A81ED070A90ED65
:100F8000020A81ED080A90ED030ABDEEC00A10EED8
:100F9000102A8A8490ED040ABDEEC00A10EE102AD1
:100FA000CA8490ED050ABDEEC00A10EE102A0A852B
:100FB00090ED060ABDEEC00A10EE102A4A8590EDAB
:100FC000070ABDEEC00A10EE102A8A8590ED080AC5
:100FD000BDEEC00A10EE102ACA8590ED090ABDEEDA
:100FE000C00A10EE102A0A8690ED0A0ABDEEC00A69
:100FF00010EE102A4A8690ED0B0ABDEEC00A10EEE4
:10100000102A8A8690ED0C0ABDEEC00A10EE102A56
:10101000CA8690ED0D0ABCEEC00A10EE100A81F8E7
:101020003A0005F087B90000DC260024044C0020BB
:1010300007F09AFA2060012006F09BFDF7E7000018
:10104000080100242DE9FC4116468046084600F0C0
:1010500035FA050011D05FF000046F4607EB44013C
:1010600036F914004A1C04F038F8641C042CF5DB33
:101070006A462946404600F005FABDE8FC817CB589
:10108000002513464A1E044648000095032A019590
:1010900003D8801E4FF4007505E0491F03290DD8C1
:1010A0000A3840F2FF150DEB000118464A1C04F007
:1010B00014F86A462946204600F0E4F97CBD72B671
:1010C000FEE70000054805490839026842F00202BF
:1010D000026008688004FCD5704700000C48025884
:1010E000014801F055BA0000380F0024014801F012
:1010F0004FBA0000380F0024014801F049BA00003F
:10110000D80F0024014801F043BA0000D80F002492
:10111000014801F03DBA000078100024014801F0B8
:1011200037BA000078100024F0B503684FF6FC7160
:101130006D4C426BD3F884508D4345EA8205C3F869
:101140008450036853F8845F068F25F47F0545EAD1
:1011500006451D60836B654D9F180268D2F8883084
:101160008B4343EA8703C2F88830026852F8883F0D
:10117000868F23F4FE0343EA06431360066856F89D
:10118000A03FC26B8B4307EB420243EA820333600A
:10119000076857F8A03FB0F8406023F4FE0343EA25
:1011A00006433B60D0E9103603FB06220368D3F800
:1011B000B0608E4346EA8206C3F8B0600368B0F8B8
:1011C0004860D3F8B07027F4FE0747EA0646C3F834
:1011D000B060D0E91267036806FB0722D3F8AC6061
:1011E0008E4346EA8206C3F8AC60D0E91467036810
:1011F00006FB0722D3F8F0608E4346EA8206C3F866
:10120000F0600368B0F85860D3F8F07027F47C17EA
:1012100047EA0646C3F8F0600368876D53F8C06F6D
:1012200002EB47028E4346EA820119600168B0F87A
:101230005C20D1F8C03023F47C1343EA0242C1F8A9
:10124000C020016890F86020D1F8C03023F07C53B2
:1012500043EA0262C1F8C020416B04EB8101C16620
:10126000826B01EB82020267C36B02EBC30242672F
:10127000D0E91034634302EB83028267D0E9123471
:10128000634302EB8302C267D0E91434634302EB89
:101290008302C0F88020836D02EBC303C0F8843062
:1012A000C46D826E544303EB8403C0F88830046E2F
:1012B000544303EB8402C0F89020AA420AD9D0F824
:1012C0009C20032142F02002C0F89C2080F8981056
:1012D0000120F0BD002200E004C1D0F890308B4224
:1012E000FAD80020F0BD000000AC0040FCD3004064
:1012F000F0B58E680C69D1E9005744EA0604DFB105
:1013000045F080452C43866ED1E906C54F695E43A2
:1013100091F8203045EA0C05B1F80CC0D0F884E013
:10132000002047EA03630C4F1D430EEB860345EA9A
:101330000C45E3E802450AE044EA8544E3E7141873
:10134000155C001DD4F8014045EA042410C3CC68A4
:101350003C5D8442F3D8F0BDA898000830B5050084
:1013600089B01FD0002403ABCDE901410220012246
:1013700083E8150001A92846069400F0D5FF88B936
:10138000002328461A461946009401F00CF8284616
:1013900001F0DDFC30B900222846012100F04CFFAD
:1013A000002800D0012009B030BD00002DE9F04137
:1013B0000968174621F01F00B0F5807F01F01F0675
:1013C0003FD12E4C002594F8540048B101F0F0FDB7
:1013D000216D401AB0F57A7F02D984F854506560C7
:1013E0004FF0010836B394F85400002829D0207833
:1013F000B04226D3721E616808FA02F0014220D181
:1014000004EBC6013A688A607A68CA606168014381
:10141000616001F0CDFD20652078616808FA00F870
:10142000A8F1010838EA01080BD143002146144C09
:10143000002019E03878207008B1082803D984F812
:101440005450BDE8F081656084F8548001F0B0FD2F
:101450002065F6E701EB8002167CD2F8112046EAFF
:10146000022244F82020401C9842F3D381F85450C3
:101470004D60BDE8F041FFF777BD0000C8240024AF
:10148000DC26002430B589B0054600231446082028
:10149000CDE90013CDE9023002070693CDE904231C
:1014A00007930893284601F06BF80028FAD02246EB
:1014B0006946284600F004FF09B030BD012803D07A
:1014C000052804D0002070474FF40070704740F2A8
:1014D000FF1070472DE9FC5F0446F74E0020DFF84F
:1014E000D88300904FF41652F44808F11808A56DFF
:1014F000DFF8C493DFF8C0A3016809F13009206860
:101500000AF1480AB1FBF2F1B04201912F68D5F817
:1015100000C0DFF8ACB335D04146884232D04845F0
:1015200030D050452ED058452CD0E549183188424E
:1015300028D0E3493031884224D0E14948318842FB
:1015400020D0E04988421DD0DE491831884219D0A8
:10155000DC493031884215D0DA494831884211D00F
:10156000DFF860E30EF1600E70450BD0D54A78329B
:10157000904207D0D34B9033984203D0D149A83141
:1015800088427DD194F85C20082102F01F0201FA04
:1015900002F23A424AD0B04232D0404530D04845BB
:1015A0002ED050452CD058452AD0C54A18329042EA
:1015B00026D0C34A3032904222D0C14A48329042AB
:1015C0001ED0C04A90421BD0BE4A1832904217D05B
:1015D000BC4A3032904213D0BA4A483290420FD0BF
:1015E000B84A603290420BD0B64A7832904207D067
:1015F000B44A9032904203D0B24AA832904203D10A
:10160000026802F0040202E0026802F008026AB115
:10161000026822F00402026094F85C0000F01F00EF
:101620008140A960606D40F00100606594F85C0045
:10163000012100F01F008140394240D02068B042B3
:1016400034D0404532D0484530D050452ED0584552
:101650002CD09B4A1832904228D0994A303290427E
:1016600024D0974A4832904220D0964A90421DD0CA
:10167000944A1832904219D0924A3032904200E097
:10168000AFE113D08F4A483290420FD08D4A60327A
:1016900090420BD08B4A7832904207D0894A9032E0
:1016A000904203D0874AA83290427DD1406910F021
:1016B000800F04D0A960606D40F00200606594F86E
:1016C0005C00042100F01F00814039423ED02068B8
:1016D000B04232D0404530D048452ED050452CD075
:1016E00058452AD0764A1832904226D0744A303271
:1016F000904222D0724A483290421ED0714A9042A3
:101700001BD0704A1832904217D06E4A3032904245
:1017100013D06C4A483290420FD06A4A60329042ED
:101720000BD0684A7832904207D0664A9032904295
:1017300003D0644AA83290424ED1006810F0020FE4
:1017400004D0A960606D40F00400606594F85C000E
:10175000102100F01F008140394258D02068B0426B
:1017600034D0404532D0484530D050452ED0584531
:101770002CD0534A1832904228D0514A30329042ED
:1017800024D04F4A4832904220D04E4A90421DD039
:101790004C4A1832904219D04A4A3032904215D001
:1017A000484A4832904200E014E00FD0454A603287
:1017B00090420BD0434A7832904207D0414A90324F
:1017C000904203D03F4AA832904207D1006800F00F
:1017D000080006E0006872E70068B7E7006800F0FC
:1017E0000400A0B1A96020680168490304D500681D
:1017F000000308D5A16C07E00168C90503D401689E
:1018000021F008010160216C09B12046884794F855
:101810005C00202100F01F008140394279D020680F
:10182000B04232D0404530D048452ED050452CD023
:1018300058452AD0224A1832904226D0204A3032C7
:10184000904222D01E4A483290421ED01D4A9042F9
:101850001BD01C4A1832904217D01A4A303290429C
:1018600013D0184A483290420FD0164A6032904244
:101870000BD0144A7832904207D0124A90329042EC
:1018800003D0104AA832904203D1006800F0100043
:1018900002E0006800F00200B0B3A96094F83500DF
:1018A0000428206801680FD049037ED50068000332
:1018B0002BD4616C2AE00000100002402C000024B0
:1018C000700002401004024021F0160101602068FF
:1018D000416921F080014161206C08B9A06C20B100
:1018E0002068016821F00801016094F85C303F2114
:1018F000012003F01F0300229940A96084F83500FD
:1019000084F83420216D65E003E0E16B09B12046E5
:101910008847606D00287DD0606DC00759D0206871
:10192000042184F83510B0422BD0404529D04845D9
:1019300027D0504525D0584523D09D49884220D0F6
:101940009B49183188421CD099493031884218D0BF
:101950009849884215D097491831884211D0954945
:10196000303188420DD093494831884209D091499D
:101970006031884205D08F497831884201D08D4945
:101980009031016821F00101016020680099019AFD
:10199000491C0091914202D80168C907F6D100683C
:1019A000C00710D003200FE0FFE70168C905ACD4E1
:1019B00003680121002223F01003036084F835102E
:1019C00084F83420A1E7012084F83500002084F851
:1019D0003400E16C00291DD002B02046BDE8F05F64
:1019E0000847754988421DD073491431884219D07F
:1019F00071492831884215D06F493C31884211D055
:101A00006D49503188420DD06B496431884209D00C
:101A1000694900E084E07831884203D066498C311E
:101A200088427DD194F85C800427016808F01F0883
:101A300007FA08F717EA0C0F009746D04F0744D56E
:101A400000980F04686003D5C8033CD4A16CC1E7BB
:101A5000880638D42068B0422DD055496039884274
:101A600029D0484527D0504525D0584523D0504946
:101A7000884220D04E49183188421CD04C49303120
:101A8000884218D04B49884215D04A4918318842BB
:101A900011D04849303188420DD0464948318842FA
:101AA00009D0704507D0904205D0984203D04149F3
:101AB000A831884203D1016821F0080102E00168E1
:101AC00021F004010160216C84E7022707FA08F77E
:101AD00017EA0C0F00974ED08F074CD500980F04D3
:101AE000686003D5C80344D4616C73E7880640D4AA
:101AF0002068B0422FD02E49603988422BD048450B
:101B000029D0504527D0584525D02949884222D090
:101B10002749183188421ED025493031884200E0DB
:101B200044E018D02349884215D022491831884210
:101B300011D02049303188420DD01E4948318842A9
:101B400009D0704507D0904205D0984203D019497A
:101B5000A831884203D1016821F0140102E0016834
:101B600021F00A010160012184F83510002084F879
:101B70003400E16B2EE7082202FA08F212EA0C0F99
:101B800014D0090712D5016821F00E01016094F804
:101B90005C100120002201F01F0100FA01F16960D0
:101BA000606584F8350084F8342012E7BDE8FC9FB6
:101BB0008800024010040240085402582DE9F05FEA
:101BC000044601F0F5F9002C07467DD0E24E0221D3
:101BD00020684FF00308DFF884934FF00005DFF82A
:101BE00080A3B042DFF87CB334D0DB4A1832904295
:101BF00030D048452ED050452CD058452AD0D94A0F
:101C00001832904226D0D74A3032904222D0D54A5C
:101C1000483290421ED0D44A90421BD0D24A183249
:101C2000904217D0D04A3032904213D0CE4A483238
:101C300090420FD0CC4A603290420BD0CA4A7832E0
:101C4000904207D0C84A9032904203D0C64AA83288
:101C500090427DD184F83510B04284F834502ED0B3
:101C6000BD49183188422AD0484528D0504526D051
:101C7000584524D0BB491831884220D0B949303169
:101C800088421CD0B7494831884218D0B6498842AA
:101C900015D0B5491831884211D0B3493031884246
:101CA0000DD0B1494831884209D0AF4960318842EE
:101CB00005D0AD497831884201D0AB4990310168F7
:101CC00021F00101016008E025E100BF01F070F999
:101CD000C01B052801D920211AE120680068C0072F
:101CE000F4D1D4E902032168103418438E4694E8F5
:101CF0008410D4E9033809683A4310439B4A40EA08
:101D00000C00676918431140103C40EA0800042F9A
:101D100040EA010003D1D4E90B1211430843616882
:101D2000A1F12902052A0BD9163A032A08D9083A43
:101D3000012A05D9083A032A02D97439032901D89E
:101D400040F48010CEF800002068676A406900E027
:101D500020E0042F20F0070047EA00070DD1D4E966
:101D60000A01074349B12046FEF7C2FF28B14020CF
:101D70006065012184F83510CDE020684761204678
:101D8000FEF7D4FE94F85C203F2102F01F02914040
:101D9000816055E0764A90421BD0754B14339842CF
:101DA00017D0734B2833984213D0714B3C33984271
:101DB0000FD06F4B503398420BD06D4B6433984229
:101DC00007D06B4B7833984203D0694B8C339842E1
:101DD0007ED184F8351084F83450664B0168A268CF
:101DE00001EA030E402A74D0802A73D05FF000020B
:101DF000D4E90378D4E9053142EAD70242EAD808A7
:101E00005B4AD4E9077C48EAD30848EAD10141EAB1
:101E1000D701524241EA1C11142341EA0E0101602C
:101E200020681044B0FBF3F08000E0652046FEF728
:101E30007DFE94F85C20012102F01F029140416078
:101E40002068B04257D044491831884253D04845A1
:101E500051D050454FD058454DD042491831884255
:101E600049D040493031884245D03E4948318842C6
:101E700041D03D4988423ED03B49183188423AD052
:101E800039493031884236D037494831884232D0DA
:101E90003549603188422ED03349783188422AD082
:101EA00031499031884226D02F49A831884222D02A
:101EB0002F4988421FD02E49143188421BD02C490B
:101EC0002831884217D02A493C31884213D002E099
:101ED0001DE017E018E02649503188420BD0244914
:101EE0006431884207D022497831884203D02049A2
:101EF0008C31884229D12046FEF772FEA0688028E6
:101F00000CD00CE0102273E74FF4804270E74021C0
:101F1000616584F835800120BDE8F09F6560216E21
:101F200020790860D4E9190141606068401E0728E3
:101F300008D82046FEF7A2FEE06E0560D4E91C0139
:101F4000416002E0E566256765670120656584F804
:101F500035000020E0E70000100002404000024091
:101F60005800024070000240100402403F8010FE02
:101F7000085402580F00FEFF2DE9F84F04008C466C
:101F80004FF00000009014D094F83400012812D0D3
:101F900094F835500120002184F83400012D0CD034
:101FA000C00260650120009084F834100098BDE8FC
:101FB000F88F0120FBE70220F9E78C4D022620680C
:101FC00084F83560A8428A4D61658A4E8A4FDFF8F1
:101FD0002C82DFF82C92DFF82CA2DFF82CB226D06E
:101FE000A84224D0B04222D0B84220D040451ED0D2
:101FF00048451CD050451AD0584518D083498842CE
:1020000015D082491831884211D080493031884238
:102010000DD07E494831884209D07C4960318842E0
:1020200005D07A497831884201D0784990310168E9
:1020300021F00101016061462046FEF783FE6B49F5
:10204000206888422CD0A8422AD0B04228D0B8427A
:1020500026D0404524D0484522D0504520D0584570
:102060001ED06A4A90421BD0684A1832904217D05C
:10207000664A3032904213D0644A483290420FD0C0
:10208000624A603290420BD0604A7832904207D068
:102090005E4A9032904203D05C4AA83290420CD102
:1020A000026822F01E0242F016020260206C88B123
:1020B0002068026842F008020BE0026822F00E027B
:1020C00042F00A020260206C20B12068026842F0EF
:1020D00004020260206888424BD0A84249D0B04236
:1020E00047D0B84245D0404543D0484541D05045FF
:1020F0003FD058453DD0454A90423AD0434A1832E5
:10210000904236D0414A3032904232D03F4A483233
:1021100090422ED03D4A603290422AD03B4A7832DB
:10212000904226D0394A9032904222D0374AA83283
:1021300090421ED0364A90421BD0354A143290420B
:1021400017D0334A2832904213D0314A3C32904261
:102150000FD02F4A503290420BD02D4A6432904219
:1021600007D02B4A7832904203D0294A8C329042D1
:102170000DD1206E0268D20303D5026842F480724A
:102180000260E06E18B1026842F48072026020685A
:10219000884226D0A84224D0B04222D0B84220D0D3
:1021A00040451ED048451CD050451AD0584518D03F
:1021B0001649884215D015491831884211D0134963
:1021C000303188420DD011494831884209D00F4939
:1021D0006031884205D00D497831884201D00B49E1
:1021E0009031016841F001010160DFE6100002401A
:1021F00028000240400002405800024070000240A7
:1022000088000240A0000240B800024010040240D2
:102210000854025870B5044600F0CAFE0546601C1A
:1022200002D004480078044400F0C2FE401BA042E3
:10223000FAD370BD2000002410B590F89830012B1F
:1022400009D0022B07D0D0F89C1041F00201C0F851
:102250009C10012010BD03689C6D0C4203D1DC6D05
:1022600044F0010404E09C6D31EA04041FD003240F
:10227000DC658B0505D50368D3F8E0401443C3F84B
:10228000E0404B0505D50368D3F8E4401443C3F898
:10229000E4400068084A01EA0203446D074A1C430F
:1022A0004465106840EA91701060002010BDDC6D3C
:1022B00044F00204DCE70000FFFFCF3F14A8004019
:1022C00070B5044690F89800022804D0D4F89C0019
:1022D00040F008000DE02068D0F8C03013F07C5FBB
:1022E0000BD0D0F8C4309B020CD5D4F89C0040F43D
:1022F0000070C4F89C00012070BDD4F89C0040F030
:102300002000F6E7D0F8C400C0F3044520462B4671
:10231000FEF7EEFF21680120A840C1F8D000C4F804
:102320009400002070BD704770B590F89820012A85
:1023300009D0022A07D0D0F89C1041F00201C0F861
:102340009C10012070BD0B68CA6883B10B69072A15
:1023500043EA427325D00C7A4A6942EA847249689A
:10236000006F00EBC100C0E90032002070BD072AF9
:102370000DD00C7AD6060D8A4B6943EA847246EA80
:102380000543C06E49681A4340F82120EDE70B8AE7
:102390004FF06055D1E9062442EA034245EA04239E
:1023A000EFE78A69DBE730B590F89850039C012D80
:1023B00007D0D0F89C1041F00401C0F89C10012017
:1023C00030BD0D01016845EA820040EA4300204328
:1023D000C1F88000002030BD704770470068402978
:1023E00005D0D0F8B40000BF00F07F007047D0F8EF
:1023F000A400F9E7F0B590F898500024022D04D01D
:10240000D0F89C1041F0080129E0402905D041296D
:1024100029D0056D8D4219D942E00568D5F8A06034
:1024200016F4FE0F12D0D5F8A460760613D0D5F8B6
:10243000A460F60105D5D5F8A06016F0004F00D5D0
:102440000124D5F8A470466F456C24E0D0F89C10A8
:1024500041F0200103E0D0F89C1041F48071C0F8F5
:102460009C100120F0BD0568D5F8B06016F4FE0F91
:10247000ECD0D5F8B4607606EDD0D5F8B460F601AE
:1024800005D5D5F8B06016F0004F00D50124D5F879
:10249000B470866FC56CC7F305273C44654302E002
:1024A000456DC66F4D4306EB85052E6816F08046D8
:1024B00056602E6836D026F060461660D5F800C00B
:1024C00000262E4F0CF0005CC2F808C0D5F800C002
:1024D0000CF0004CC2F810C0B5F804C01FFA8CFC18
:1024E000C2F81CC0D5F804C0CCF3034CC2F80CC031
:1024F000D5F804C00CF4801CC2F814C0D5F804C090
:102500000CF4001CC2F818C0D5F804C0CCF3066C5B
:10251000C2F820C0D5F804C008354FEADC7CC2F808
:1025200024C008E0C6F38A46C7E700BF15F806C016
:1025300003F806C0761CD2F80CC017F80CC0B445DE
:10254000F4D840290AD041290CD020294FF00102AB
:102550000CD200688A40C0F898200DE00068C0F8EE
:10256000A84009E00068C0F8B84005E0006801F044
:102570001F018A40C0F89C200020F0BDA8980008E8
:102580000068D0F8C40000F03F00704770470000BA
:102590002DE9FF5FDFF80CB304460BF10401DBF813
:1025A000000025680F68AA468007D5F85090696D2D
:1025B000D5F850806E6D2A6DD5F854C02B6D00EAA9
:1025C0008770009009F470496F6D286D01EA090168
:1025D0000191DAF85410DAF85490DAF8505008F013
:1025E0000F0806EA0806029602F0F00203F07153A3
:1025F0006FEA09061F4000F060700CEA020CCDF88B
:102600000CC0F20501EA00090CD4E843C00509D466
:1026100000214FF48073CAF85030CBF800102046E8
:10262000FFF7B4FF700512D4E84340050FD42068CB
:1026300000234FF48068D0F8DC20D0F8E410C0F814
:102640005080CBF800301140204600F09FFBDFF8AF
:1026500058A2009850B12268830F00EA0A00106562
:10266000CBF8003020460099FFF75DFE019850B18D
:102670002268830F00EA0A001065CBF8003020467C
:10268000019900F085FB029850B12268830F00EA9F
:102690000A001065CBF800302046029900F012FBCA
:1026A000039850B12268830F00EA0A001065CBF846
:1026B00000302046039900F049FB30050CD4E84374
:1026C000000509D4236800204FF400621A65CBF896
:1026D0000000204600F05DFBB00512D4E843800501
:1026E0000FD4206800234FF40078D0F8D820D0F819
:1026F000E010C0F85080CBF800301140204600F0C8
:1027000046FB30030CD4E843000309D423680020BF
:102710004FF400221A65CBF80000204600F0D0FAF2
:10272000F0030CD4E843C00309D4236800204FF41D
:1027300080321A65CBF80000204600F026FB7003BB
:102740000CD4E843400309D4226800204FF48023CE
:102750001365CBF80000204600F016FBB0030FD441
:10276000E84380030CD4236800204FF400321A653C
:10277000CBF80000D4F89C0040F08000C4F89C0026
:10278000B9F1000F0BD022684FEA997309EA0A00E9
:102790001065CBF8003049462046FFF71EFE5FB1BA
:1027A0002268BB0F07EA0A001065CBF80030D4F8A6
:1027B0009C003843C4F89C003C492068884268D19A
:1027C000606881468068800763D0D9F82060D9F8B6
:1027D0002410D9F82080D9F82400D9F820C0D9F8DD
:1027E0002470D9F82030D9F82450D9F8202003F4E7
:1027F000FC4306F00F0AD9F824601D40D9F824B034
:1028000008F030080CF4C07C02F4F02211EA0A014E
:1028100000EA080807EA0C0706EA0206D9F820A031
:1028200004D0C9F82010204600F0ABFAB8F100003F
:1028300005D0616808624146204600F0A4FA6FEABC
:102840000B0040060ED46FEA0A0040060AD4606806
:102850004021C36BC26B01622046190C02F03F029B
:1028600000F090FA2FB1606807623946204600F008
:1028700087FA35B160680562D4F89C002843C4F833
:102880009C0036B160680662D4F89C003043C4F8FE
:102890009C00D4F89C00002802D02046FFF79CFD45
:1028A000BDE8FF9F10A80040FFFFCF3F00A0004001
:1028B0002DE9F04194B08D494C2204466846FDF75D
:1028C00095FE64B18A4D2068A84202D100F580705F
:1028D000606094F898004FF0000820B108E00120F3
:1028E00014B0BDE8F081204684F8998000F002F928
:1028F0002068816921F01001816100F059FB0327F4
:10290000064604E000F054FB801B0A2811D820681A
:1029100080690007F6D42068816941F00101816176
:1029200000F046FB06460DE000F042FB801B0A2843
:1029300008D9D4F89C0040F00100C4F89C0084F849
:102940009870CCE720688069C007EDD02068816965
:1029500041F002018161207C01282068816937D023
:1029600041F040018161607C01282068816932D09A
:1029700021F480418161A07C0128206881692DD0EB
:1029800041F4805181612068A268816921F440711D
:10299000114381612068816921F0A401816120686F
:1029A000016921F010010161E068012819D010B31C
:1029B00002281BD02068816941F080018161206874
:1029C000016941F010010161E06803280ED012E0B6
:1029D00021F04001C6E741F48041CBE721F480516A
:1029E000D0E72068816941F0040103E02068816933
:1029F00041F020018161207E6FF0FF02D4E907736E
:102A0000A68A1102400602EB0727A0F100703843A6
:102A100027685B1E184301EB06463043F861A06847
:102A2000B0F5407F11D104F12800A68C6FF00F0C97
:102A300089C801EB0641401E02EB032210432268C5
:102A40000CEB071318430843D060206E30B12068A8
:102A5000626ED0F8C0101143C0F8C010D4E917124C
:102A60006846D14209D02168A36E51F8C82F50F8AA
:102A7000233022F007021A430A60216C49B1216811
:102A8000626C51F8BC3F50F8226023F007023243D9
:102A90000A60A16C51B12168E36C51F8BC2F50F869
:102AA000233022F0700242EA03120A60216D51B114
:102AB0002168626D51F8BC3F50F8220023F4E062B7
:102AC00042EA002008602068A84204D1606881685A
:102AD00021F003018160C4F894800121C4F89C8036
:102AE00084F898102046FEF71FFBF9E6B898000816
:102AF00000A000402DE9F047B4B0814614212EA873
:102B0000FDF7AEFDB8216846FDF7AAFD664C00262C
:102B1000D9F800004FF08051644A0C3C614F4FF0EF
:102B20000208614D9042DFF888A14FF0090938D1C1
:102B300000201B914A13CDE90020684600F0DAFC22
:102B400008B1FEF7BCFA3868401C3860012807D18C
:102B5000286840F480702860286800F48070339002
:102B6000206840F008002060206803222E922EA9E1
:102B700000F00800CDE92F863196CDE9329050461D
:102B800000F008F900220521132000F001FB1320BA
:102B900000F0F0FA00220521152000F0F9FA1520C6
:102BA0003BE0444A90423DD100201B914FF400424B
:102BB000CDE90020684600F09DFC08B1FEF77FFAE1
:102BC0003868401C3860012807D1286840F48070BC
:102BD0002860286800F480703390206840F002007C
:102BE0002060206860222E922EA900F00200CDE91C
:102BF0002F863196CDE932902F4800F0CBF8002295
:102C00000521142000F0C4FA142000F0B3FA0022C9
:102C10000521162000F0BCFA162000F0ABFA34B003
:102C2000BDE8F087254A9042F9D100201B914FF46E
:102C30000042CDE90020684600F05CFC08B1FEF7D8
:102C40003EFA3868401C3860012807D1286840F4F3
:102C500080702860286800F480703390206840F00D
:102C60000800206020684FF440512E91052200F0AA
:102C70000800CDE92F862EA93196CDE932205046A5
:102C800000F088F8002205219F2000F081FA9F20A3
:102C900000F070FA00220521A02000F079FAA020AF
:102CA000BBE700001C000024EC44025800A00040D8
:102CB000000C025800A400400004025800D4004058
:102CC0007047000030B58DB00446C80729D04FF0DA
:102CD00080451EE017482168814205D1019888B9D6
:102CE00015480AAA009921E01448814205D10198AB
:102CF00040B913480AAA009918E01248814208D145
:102D0000019880B1A84204D10AAA69462046FEF77C
:102D10004DFB40216A460AAB2046FFF76BFB0028BB
:102D2000D8D00DB030BD08480AAA0099FDF72EFD95
:102D3000EFE7000000A000402025002400A4004090
:102D4000A025002400D4004020260024704790F8DD
:102D50009810012907D0D0F89C1041F00401C0F868
:102D60009C1001207047022180F898100022016811
:102D70008B6923F001038B61C0F89C2010467047DB
:102D8000704770477047704770477047704770478B
:102D9000704770472DE9F84F03247A4D00234FF018
:102DA00001094FF0B04B4FF00F0AE4E009FA03F6C7
:102DB000324078D00F7907F00307012F01D0022F9E
:102DC0001AD187684FEA430ED1F80CC004FA0EF806
:102DD00027EA08070CFA0EFC4CEA070CC0F808C0FA
:102DE000476891F804C0B743CCF3001C0CFA03FC0D
:102DF0004CEA070CC0F804C00E79F643B6070BD0B6
:102E0000C6684FEA43088F6804FA08FC26EA0C06F5
:102E100007FA08F73743C7600E7906F00306022E5B
:102E200012D1DE080F694FEA437C00EB8606B646F6
:102E3000366A4FEADC6C0AFA0CF807FA0CF726EA55
:102E400008063743CEF820700F7906684FEA43082A
:102E500007F0030704FA08FC07FA08F726EA0C064D
:102E6000374307604E6816F4403F1CD0464E376823
:102E700047F00207376036689F0706F002060096A3
:102E800023F0030606F1B046B6463F0FD6F80864B5
:102E9000DFF8F8800AFA07FC404526EA0C0603D161
:102EA0004FF0000C3AE065E0DFF8E4C0604502D185
:102EB0004FF0010C32E0DFF8DCC0604502D14FF08A
:102EC000020C2BE0DFF8D0C0604502D14FF0030CBC
:102ED00024E0DFF8C8C0604502D14FF0040C1DE0CB
:102EE000DFF8BCC0604502D14FF0050C16E0DFF8FA
:102EF000B4C0604502D14FF0060C0FE0DFF8A8C067
:102F0000604502D14FF0070C08E0DFF8A0C0604533
:102F100002D14FF0090C01E04FF00A0C0CFA07FC4B
:102F20004CEA060CCEF808C44F68DBF80060FF02DC
:102F300026EA020600D516435F46CBF80060D1F8BA
:102F400004C0DBF804605FEA8C2C26EA020600D598
:102F500016437E606E684F6826EA0206BF0300D5FE
:102F600016436E602E684F6826EA0206FF0300D5FE
:102F700016432E605B1C0A6832FA03F67FF416AF24
:102F8000BDE8F88F80000058F44402580000025851
:102F90000004025800080258000C025800100258A1
:102FA0000014025800180258001C0258002402584D
:102FB00001488068704700002000002402488168B2
:102FC000027811448160704720000024032010B56E
:102FD00000F0FEF801F0CEF80F4A104914681368AB
:102FE000C4F3032203F00F038A5CC95C02F01F02E2
:102FF00001F01F01D0400A4A20FA01F1116009498D
:1030000008600F2000F010F808B1012010BD00F09A
:103010009FF8002010BD00001844025834990008A1
:10302000300000242C00002410B5102804468AB07B
:103030002DD2002201461C2000F0AAF81C2000F02E
:1030400099F8184804601848016841F001010160CE
:10305000006809A900F001000890684601F016F820
:103060000598B8B101F062F840001049002240F222
:10307000E733B0FBF1F10E484FF080440460C0E943
:103080000332491EC0E9011201F0A6FB28B101205C
:103090000AB010BD01F04AF8E7E7054801F0CEFBA1
:1030A000F6E7000024000024E844025840420F00E4
:1030B00024120024154BF0B5083B427813491A60DE
:1030C0000B680A1F23F001030B6043681360057B44
:1030D000C67A827A437B2D07847B45EA0665C77BE7
:1030E00090F809C0067A90F800E045EAC24040EA4C
:1030F000834040EA444040EA074040EA0C2040EA6E
:10310000460040EA0E000860F0BD0000A0ED00E0BF
:10311000BFF35F8F044800210368034A23F4803320
:10312000036070321160704724ED00E0074A40F000
:103130000100064970321060086840F48030086071
:10314000BFF34F8FBFF36F8F7047000024ED00E097
:10315000074882B0016841F0020101600068002266
:103160000F2100F002000090901E02B000F010B895
:10317000F4440258002809DB410900F01F028900CD
:10318000012001F1E0219040C1F8000170470000EA
:103190000E4BF0B41B680D46C3F30223C3F10706C0
:1031A000042E00D90426191D072901D2002300E0AE
:1031B000DB1E012404FA06F19C40491E2940641ECE
:1031C000994014402143F0BC03F08DBF0CED00E0AA
:1031D000064900F0070210B54FF6FF040868044BDB
:1031E000204040EA02201843086010BD0CED00E0CA
:1031F0000000FA05134970B50A68D243520705D595
:10320000096801F00701814213D118E00A6822F031
:10321000070202430A60FFF7CBFE0A4D4FF47A76AD
:103220000446083D07E000BFFFF7C2FE001BB042A6
:1032300001D9012070BD2868C0438004F4D4002067
:1032400070BD00000C48025810B500F04DFF054954
:103250000968054AC1F30211515C01F01F01C84021
:1032600010BD00002044025834990008494930B587
:10327000484C0B1D0A68143409681D68246802F064
:103280000303C5F30012C1F30531C4F3CC040029D4
:1032900014FB02F200EE102AF8EE400A75D03F4A05
:1032A0009FED3D1AB7EE000A6BB1DFED3D1A012B21
:1032B00001D0022B64D002EE101A1168F8EE422AF7
:1032C00081EEA22A21E0334C283C23689B0612D5CC
:1032D000344B246801EE901A1168C4F3C104F8EE6F
:1032E000612AE34001EE903AC1F30801F8EE611A59
:1032F00081EEA22A0BE001EE901ADFED2B2A00BF2F
:10330000F8EE611A116882EEA12AC1F3080101EEFC
:10331000901A1168F8EE611A40EE811A71EE800A77
:1033200062EE200AC1F3462101EE101AB8EE411AEE
:1033300031EE001AC0EE811ABCEEE11A80ED001ADF
:103340001168C1F3064101EE101AB8EE411A31EED0
:10335000001AC0EE811ABCEEE11A80ED011A116864
:10336000C1F3066101EE101AB8EE411A31EE000AFF
:1033700080EE801ABCEEC10A80ED020A30BD04E086
:1033800001EE901ADFED092ABAE7002101604160E1
:103390008160F3E72844025800000039384402589D
:1033A0000024744A0090D0030024744C20BCBE4B0F
:1033B000494930B5484C0B1D0A681C3409681D6822
:1033C000246802F00303C5F30022C1F30551C4F3DE
:1033D000CC04002914FB02F200EE102AF8EE400A99
:1033E00075D03F4A9FED3D1AB7EE000A6BB1DFED95
:1033F0003D1A012B01D0022B64D002EE101A116885
:10340000F8EE422A81EEA22A21E0334C283C2368C0
:103410009B0612D5344B246801EE901A1168C4F350
:10342000C104F8EE612AE34001EE903AC1F30801CD
:10343000F8EE611A81EEA22A0BE001EE901ADFEDA0
:103440002B2A00BFF8EE611A116882EEA12AC1F39F
:10345000080101EE901A1168F8EE611A40EE811A27
:1034600071EE800A62EE200AC1F3462101EE101AC5
:10347000B8EE411A31EE001AC0EE811ABCEEE11A24
:1034800080ED001A1168C1F3064101EE101AB8EE82
:10349000411A31EE001AC0EE811ABCEEE11A80ED3D
:1034A000011A1168C1F3066101EE101AB8EE411A53
:1034B00031EE000A80EE801ABCEEC10A80ED020AED
:1034C00030BD04E001EE901ADFED092ABAE70021D1
:1034D000016041608160F3E7284402580000003930
:1034E000404402580024744A0090D0030024744CD5
:1034F00020BCBE4B2DE9FE4F0546DFF800A450F876
:10350000081B0024FD4FC943019005F12800264601
:103510000AF1240A009008011DD4686E50B1B0F57C
:10352000801F0CD0B0F5001F0ED0B0F5401F1ED08C
:1035300001240FE0386840F40030386017E001984B
:10354000022102F0BFFD03E00098022102F04AFED2
:1035500004000CD026462888C043C00523D4A86D9B
:1035600005281ED2DFE800F00C11161B1B006A6E46
:10357000DAF8001021F440111143CAF80010EAE70C
:10358000386840F40030386009E00198002102F00A
:1035900099FD03E00098002102F024FE0446C4B126
:1035A00000E0012426462888DFF85083C04308F154
:1035B0002C0840052FD4D5F8A400B0F5C00F28D0B2
:1035C00010DCB8B1B0F5001F19D0B0F5800F0FD1E5
:1035D0001AE0AA6DDAF8001021F007011143CAF8C9
:1035E0000010E0E7B0F5000F13D0B0F5200F10D0B9
:1035F00001240FE0386840F40030386009E0019899
:10360000002102F05FFD03E00098002102F0EAFDD6
:10361000044694B126462888C043000530D4D5F826
:10362000A800B0F1407F29D011DCC0B1B0F1807F9B
:103630001AD0B0F1007F10D11BE0D5F8A420D8F843
:10364000001021F460011143C8F80010E3E7B0F165
:10365000806F13D0B0F1A06F10D001240FE0386854
:1036600040F40030386009E00198002102F02AFDA2
:1036700003E00098002102F0B5FD044694B126460F
:103680002868DFF878B2C0430BF1200B80011FD40B
:10369000E86CD8B110280FD0202812D0302815D0CF
:1036A000012414E0D5F8A820D8F8001021F0E0613A
:1036B0001143C8F80010E3E7386840F40030386080
:1036C00004E00198022102F0FDFC044674B1264694
:1036D0002888C043C0042BD4E86DB0F5005F20D02B
:1036E0000DDCA0B1B0F5805F0FD115E0EA6CDBF81E
:1036F000001021F030011143CBF80010E8E7B0F5DD
:10370000405F13D0B0F5804F10D001240FE038682F
:1037100040F40030386009E00198002102F0D2FC4A
:1037200003E00098002102F05DFD04468CB12646BE
:103730002888C043800429D4286EB0F5403F23D0A8
:1037400010DC08B3B0F5803F14D0B0F5003F0FD1C6
:1037500015E0EA6DDAF8001021F4E0411143CAF8EF
:103760000010E5E7B0F5802F0ED0B0F5A02F0BD0FC
:1037700001240AE00198012102F0A4FC03E0009872
:10378000012102F02FFD044694B126462888C0434B
:1037900040042AD4D5F8AC00B0F1405F23D010DC4F
:1037A00008B3B0F1805F14D0B0F1005F0FD115E025
:1037B0002A6EDAF8001021F4E0211143CAF8001053
:1037C000E4E7B0F1804F0ED0B0F1A04F0BD0012450
:1037D0000AE00198012102F075FC03E00098012144
:1037E00002F000FD044674B126462888C043000458
:1037F0001FD4E86ED8B1B0F1805F0ED0B0F1005F99
:1038000010D0012414E0D5F8AC20D8F8001021F035
:10381000E0411143C8F80010E7E7386840F4003091
:10382000386004E00198012102F04CFC044674B1B8
:1038300026462868C043C0011ED4A86CD0B1012818
:103840000ED0022811D0032814D0012413E0EA6E10
:10385000DAF8001021F040511143CAF80010E8E7EF
:10386000386840F40030386004E00198022102F02A
:1038700029FC04466CB126462868C043400255D452
:103880001F48016841F480710160FFF791FB814698
:103890000EE0AA6CDBF8001021F003011143CBF815
:1038A0000010E9E7FFF784FBA0EB090064283BD890
:1038B00013480068C005F5D5BCBBDFF84090B5F8EB
:1038C000B01009F14409D9F8000001F4407100F486
:1038D0004070884211D0D9F80010D9F8002021F4A6
:1038E000407142F48032C9F80020D9F8002022F457
:1038F0008032C9F80020C9F8001003E02C440258B7
:1039000000480258D5F8B000B0F5807F19D1FFF714
:103910004FFB029011E000BFFFF74AFB0299411AEA
:1039200041F28830814208D9032426462878DFF8FE
:103930001494C043C00721D03CE0D9F800008007B0
:10394000EAD5D5F8B010C1F301200328FE480DD008
:10395000016821F47C510160B5F8B020D9F800105D
:10396000C2F30B021143C9F80010DFE7F74A0368FE
:1039700002EA111223F47C511143ECE7A86F1828D6
:1039800016D005DCA0B1082808D0102804D10AE020
:1039900020280DD028280BD001240AE0019801210D
:1039A00002F090FB03E00098012102F01BFC0446AA
:1039B00064B126462878C04380071ED4686F062865
:1039C00019D2DFE800F0160C11161616AA6FD9F8F6
:1039D000001021F038011143C9F80010EAE70198FE
:1039E000012102F06FFB03E00098012102F0FAFBD5
:1039F00004467CB100E0012426462878C0434007F5
:103A00001FD4D5F89000062819D2DFE800F0160C74
:103A1000111616166A6FD9F8001021F0070111432C
:103A2000C9F80010E9E70198012102F04BFB03E01F
:103A30000098012102F0D6FB0446A4B100E0012465
:103A400026462878C04380062BD4D5F88C00B0F1E8
:103A5000405F24D011DC10B3B0F1805F15D0B0F11D
:103A6000005F10D116E0D5F89020D8F8001021F0B2
:103A700007011143C8F80010E3E7B0F1804F0ED002
:103A8000B0F1A04F0BD001240AE00198002102F010
:103A900019FB03E00098022102F0A4FB044694B154
:103AA00026462878C04340062BD4D5F89800B0F5B8
:103AB000406F24D011DC10B3B0F5806F15D0B0F595
:103AC000006F10D116E0D5F88C20D9F8001021F045
:103AD000E0411143C9F80010E3E7B0F5805F0ED074
:103AE000B0F5A05F0BD001240AE00198002102F09C
:103AF000E9FA03E00098022102F074FB044694B155
:103B000026462878C04300062BD4D5F89C00B0F593
:103B1000C04F24D011DC10B3B0F5005F15D0B0F564
:103B2000804F10D116E0D5F89820D8F8001021F475
:103B3000E0511143C8F80010E3E7B0F5004F0ED094
:103B4000B0F5204F0BD001240AE00198002102F0CB
:103B5000B9FA03E00098022102F044FB044654B194
:103B600026462878C04300071ED4D5F88000B0F55B
:103B7000805F0AD00FE0D5F89C20D8F8001021F41F
:103B800060411143C8F80010EBE70098022102F0F1
:103B900029FB00B10126D5F88020D9F8001021F4C6
:103BA00040511143C9F800102878C043C00613D40F
:103BB000D5F89400B0F5807F05D10098022102F07D
:103BC00011FB00B10126D5F89420D8F8001021F49B
:103BD00040711143C8F800102868C043000316D490
:103BE000D5F8A00038B1B0F5803F09D0B0F5003F5E
:103BF0000BD001240AE00198002102F063FA03E0EF
:103C00000098022102F0EEFA04468CB1264628689C
:103C1000C043400322D4D5F88400B0F5801F11D0F2
:103C2000B0F5001F13D0B0F5401F15D0012414E0EB
:103C3000D5F8A020D8F8001021F440311143C8F87D
:103C40000010E4E7386840F40030386004E0009881
:103C5000012102F0C7FA04465CB126462868C04339
:103C6000C0031CD4286D70B1B0F5803F10D0012482
:103C700014E0D5F88420D9F8001021F44011114344
:103C8000C9F80010EAE7386840F40030386004E012
:103C90000198022102F016FA0446DCB12646286893
:103CA000C043800005D40098022102F09BFA00B1C5
:103CB00001262868C04380031BD4E86FB8B1B0F573
:103CC000807F10D0B0F5007F11D0B0F5407F0ED0CE
:103CD00001240DE02A6DDBF8001021F4803111433E
:103CE000CBF80010DBE7386840F4003038607CB374
:103CF00026462868C043C00207D42A6FDAF80010AD
:103D000021F000411143CAF800102868C043800226
:103D100007D4AA6EDAF8001021F080711143CAF8B6
:103D200000102868C043400009D40748016821F406
:103D3000004101600168D5F8B42011430160286892
:103D4000C04306E05444025810440258CFFFFF001D
:103D50001DE007D46A6DDBF8001021F040511143DB
:103D6000CBF800102868C043000208D4D5F888209A
:103D7000D9F8001021F440011143C9F80010287946
:103D80000024C04300F00100204309D00EE0EA6F98
:103D9000D9F8001021F440711143C9F80010A8E7C8
:103DA0000198002102F08EF900B106462879C0433F
:103DB00000F00200204305D10198012102F082F9B0
:103DC00000B106462879C04300F00400204305D125
:103DD0000198022102F076F900B106462879C04325
:103DE00000F00800204305D10098002102F0FAF904
:103DF00000B106462879C04300F01000204305D1E9
:103E00000098012102F0EEF900B106462879C0437E
:103E100000F02000044304D10098022102F0E2F9EE
:103E200000B916B10120BDE8FE8F0020FBE70000BD
:103E30002DE9F05F04000F467ED0DFF83882D8F815
:103E4000000000F00F00B8420CD2D8F8001021F0AA
:103E50000F013943C8F80010D8F8000000F00F0037
:103E6000B84269D12078844D40070AD52069296875
:103E700001F07001884204D9296821F070010143E2
:103E8000296020787C4E361D00070AD560693168AC
:103E900001F07001884204D9316821F070010143BA
:103EA00031602078C0060AD5A069316801F4E0616C
:103EB000884204D9316821F4E061014331602078FF
:103EC000DFF8B4B180060BF1080B0CD5E169584658
:103ED000DBF8002002F07002914204D9026822F05F
:103EE00070020A430260207880070AD5E0682968DA
:103EF00001F00F01884204D9296821F00F01014324
:103F000029602078C0073ED05B49A268286818392C
:103F100020F47060104328606068022818D00328DD
:103F200019D00968012819D0490700294ADADFF8B1
:103F300048A1AAF1080A00E044E0DAF8002022F0E3
:103F400007020243CAF80020FFF732F8814612E068
:103F500009688903E9E709688901E6E7C905E4E733
:103F6000FFF726F8A0EB090141F28830814202D91F
:103F70000320BDE8F09F6168DAF8000000F0380027
:103F8000B0EBC10FECD1207880070AD5E068296832
:103F900001F00F01884204D2296821F00F0101438A
:103FA0002960D8F80010404601F00F01B9420BD942
:103FB000016821F00F0139430160006800F00F0033
:103FC000B84201D00120D4E7207840070AD5206903
:103FD000296801F07001884204D2296821F070013B
:103FE00001432960207800070AD56069316801F033
:103FF0007001884204D2316821F0700101433160C0
:104000002078C0060AD5A069316801F4E0618842D1
:1040100004D2316821F4E0610143316020788006E8
:104020000CD5E1695846DBF8002002F0700291429D
:1040300004D2026822F070020A43026000F09AF88B
:104040000E492A682B68C2F3032203F00F038A5C2F
:10405000C95C02F01F0201F01F01D040084A20FA9B
:1040600001F111600749086007480068BDE8F05F8A
:10407000FEF7DABF002000521844025834990008B5
:10408000300000242C0000242400002470B5144CBF
:104090003F220260124A24680832131D114D04F0B9
:1040A0000704446016681C1D06F470668660166876
:1040B00006F00F06C660126802F0700202611A680C
:1040C00002F0700242611A6802F4E06282612268C2
:1040D00002F07002C261286800F00F00086070BD35
:1040E000104402580020005230B500F043F80B4A4B
:1040F0000B490C4B15681468C5F3032204F00F0438
:104100008A5C095D02F01F0201F01F01D040064ADF
:1041100020FA01F119601060084630BD18440258B9
:1041200034990008300000242C00002400B5FFF76B
:10413000DBFF05490968054AC1F30211515C01F032
:104140001F01C84000BD00001C44025834990008FB
:1041500000B5FFF7C9FF05490968054AC1F3022107
:10416000515C01F01F01C84000BD00001C44025812
:1041700034990008454970B545480968434B103BE0
:1041800011F0380208D00111082A03D0102A0BD0F0
:10419000182A0BD0084670BD19688906FBD5196826
:1041A000C1F3C101C84070BD3A4870BD3749374DB1
:1041B00018310C1D24350A68096826682D6802F03C
:1041C000030406F00102C1F30511C5F3CC0515FB8C
:1041D00002F200EE102AB8EE400AE9B32F4ADFEDF2
:1041E0002E0AB7EE001A6CB1DFED2D1A012C01D0AA
:1041F000022C43D002EE101A1068F8EE422A81EE2B
:10420000A22A1EE01C68A40611D51B6801EE901AB4
:104210001168C3F3C103F8EE612AD84001EE900A99
:10422000C1F30800F8EE611A81EEA22A0BE001EE5C
:10423000901ADFED1C2A00BFF8EE611A106882EEBA
:10424000A12AC0F3080001EE900AF8EE611A40EED0
:10425000201A31EE810A00E015E022EE000A106813
:10426000C0F34620401C00EE900AF8EE600A80EE93
:10427000201ABCEEC10A10EE100A70BD01EE901AB1
:10428000DFED092AD8E7002070BD00001044025875
:104290000090D00340787D0100000039304402587E
:1042A0000024744A0024744C20BCBE4B2DE9F05FFE
:1042B00004007DD0FF4F2078FE4D1837DFF8F483DF
:1042C000103DC00748D0D8F80000396800F0380029
:1042D000102815D0182803D101F0030002280FD0B0
:1042E0006068B0F5803F12D010B1B0F5A02F18D0A3
:1042F000286820F480302860286820F4802009E0B5
:104300002868800328D560680028D2D024E0286877
:1043100040F480302860606888B1FEF749FE0646A8
:1043200009E0286840F480202860F0E7FEF740FEAE
:10433000801B64287ED828688003F7D50CE0FEF740
:1043400037FE064605E000BFFEF732FE801B6428FC
:10435000F0D828688003F7D42078800756D5D8F89D
:104360000000DFF85093396810F03800A9F10C090B
:104370000ED0182801D188070AD0E068A8B32968B0
:1043800021F0190101432960FEF712FE064628E0DC
:104390002868400702D5E06800288AD0E1682868CC
:1043A00020F0190008432860FEF702FE064606E0EA
:1043B000D2E000BFFEF7FCFD801B0228BAD82868B7
:1043C0004007F7D5217CD9F8002022F0FE4242EACE
:1043D0000161C9F8001019E0FEF7EAFD801B022810
:1043E000A8D828684007F7D5ECE7FFE7286820F051
:1043F00001002860FEF7DCFD064604E0FEF7D8FD6C
:10440000801B022896D828684007F7D42078C00679
:1044100046D5D8F80000DFF89C92396800F03800E3
:10442000A9F10409082812D0182805D101F00300C9
:10443000012800E0CEE00AD0E0690028286820D0FA
:1044400040F080002860FEF7B3FD064615E02868BE
:10445000C00502D5E06980287ED194F82010D9F8F3
:10446000002022F07C5242EA0161C9F8001017E0F6
:10447000FEF79EFD801B0228A0D82868C005F7D54E
:10448000EBE720F080002860FEF792FD064604E08E
:10449000FEF78EFD801B022890D82868C005F7D44F
:1044A0002078000729D58348616964300029814656
:1044B000016811D041F001010160FEF779FD064667
:1044C00005E000BFFEF774FD801B022888D8D9F8EC
:1044D00000008007F6D510E021F001010160FEF731
:1044E00067FD064605E000BFFEF762FD801B02285F
:1044F00070D8D9F800008007F6D42078800623D53C
:10450000A0690028286810D040F480502860FEF789
:104510004FFD064605E000BFFEF74AFD801B02285E
:1045200058D828688004F7D50EE020F48050286021
:10453000FEF73EFD064604E0FEF73AFD801B02282A
:1045400048D828688004F7D42078400751D5DFF890
:104550006891D9F8001000E015E141F48071C9F8C4
:104560000010FEF725FD064605E000BFFEF720FD22
:10457000801B64282ED8D9F80000C005F6D54D4E12
:10458000A068603601280AD008B1052813D0306829
:1045900020F001003060306820F0040002E0306854
:1045A00040F001003060A06841F2883A98B1FEF70F
:1045B000FFFC81460AE0306840F004003060EEE71E
:1045C000FEF7F6FCA0EB0901514503D830688007DF
:1045D000F6D50EE072E0FEF7EBFC814606E000BF88
:1045E000FEF7E6FCA0EB0901514567D8306880076B
:1045F000F6D4606A00287CD0DFF8B8A0D8F80010A4
:104600000AF1200A4FF6F87B0AF10408C1F3C2014F
:104610000329AAF104096DD00228286820F08070CF
:10462000286003D0FEF7C4FC044681E0FEF7C0FC1E
:10463000064604E0FEF7BCFC801B022875D82868FB
:104640008001F7D4E26A40F2F331386854F8283F29
:10465000884340EA021018433860217B4FF4FE0C77
:1046600022894FF0FE47208A4902267D521E401EB5
:10467000A1F5007189B2C2F308021143761E0CEA5B
:1046800000400143484607EA06621143CAF8001099
:10469000D9F8001021F00101C9F80010D8F8003055
:1046A000266A23EA0B0343EAC601C8F80010D9F8CA
:1046B000001004E0104402580048025835E0A26996
:1046C00021F00C011143C9F800100168E26921F0E2
:1046D000020111430160016841F480310160016809
:1046E00041F400310160016841F4802101600168FA
:1046F00001E06CE020E041F001010160286840F039
:1047000080702860FEF754FC044604E0FEF750FC7D
:10471000001B022809D828688001F7D557E000BFA0
:10472000FEF746FC001B022802D90320BDE8F09FDB
:1047300028688001F4D44AE039680128DAF80000DA
:1047400021D0A26A01F0030393421CD1E26AC1F3B3
:1047500005118A4217D1216BC0F30802491E8A4213
:1047600011D1616BC0F34622491E91420BD1A16B5E
:10477000C0F30642491E914205D1E16BC0F30660C9
:10478000491E814201D00120D0E7A16C4646D8F8ED
:104790000000C0F3CC00814219D0D9F800004D468A
:1047A00020F00100C9F80000FEF702FC4FEA000704
:1047B000FEF7FEFBB842FBD0A26C306820EA0B008B
:1047C00040EAC2003060286840F001002860002004
:1047D000ACE770477047704710B5040003D094F8F9
:1047E0003D0010B107E0012010BD002084F83C001E
:1047F000204600F022F8022084F83D002068211DA8
:1048000001F09EFF012084F8480084F83E0084F8FF
:104810003F0084F8400084F8410084F8420084F8A6
:10482000430084F8440084F8450084F8460084F886
:10483000470084F83D00002010BD704790F83D10FF
:10484000012901D0012070471A4A022180F83D1049
:104850000168CB6843F00103CB60006890421AD036
:10486000B0F1804F17D01449884214D013498842C0
:1048700011D0134988420ED0124988420BD01249F8
:10488000884208D01149884205D01149884202D097
:104890001049884207D181680F4A1140062906D085
:1048A000B1F5803F03D0016841F0010101600020B3
:1048B0007047000000000140000400400008004074
:1048C000000C00400004014000180040004001407E
:1048D00000E0004000E400400700010070472DE9BF
:1048E000F041044600680027C6680569A90713D58A
:1048F000B10711D5FA1E0261012121772068806974
:104900008007204602D0FFF7E9FF04E000F08BF8B3
:10491000204600F089F82777680716D5700714D568
:10492000226802206FF004011161207720688069FD
:1049300010F4407F204602D0FFF7D0FF04E000F0E3
:1049400072F8204600F070F82777280715D5300751
:1049500013D5226804206FF00801116120772068C8
:10496000C0698007204602D0FFF7B8FF04E000F0DE
:104970005AF8204600F058F82777E80616D5F006D2
:1049800014D5226808206FF010011161207720688B
:10499000C06910F4407F204602D0FFF79FFF04E07B
:1049A00000F041F8204600F03FF82777E80708D0EC
:1049B000F00706D021686FF001000861204600F082
:1049C00034F8280601D4A80408D5300606D5216895
:1049D0006FF4025008612046FFF7FCFEE80508D599
:1049E000300606D521686FF4807008612046FFF715
:1049F000F0FE680608D5700606D521686FF0400005
:104A00000861204600F018F8A8060AD5B00608D5B7
:104A100021686FF0200008612046BDE8F041FFF7F3
:104A2000DABEBDE8F081704770470068B0F1804F92
:104A300001D1FEF7C3BA7047704730B590F88410C3
:104A4000012918D0012280F884202421C0F8881080
:104A50000022202401680B680D6823F0005325F024
:104A600001050D60426601680B60C0F8884080F85F
:104A70008420104630BD022030BD704770B504461A
:104A800090F8840001281DD0012284F8842024207D
:104A9000C4F8880020680568026822F001020260FC
:104AA0002068826822F060620A438260204601F03A
:104AB000DFFE2268202100201560C4F8881084F8E9
:104AC000840070BD022070BD70B5044690F884006B
:104AD00001281DD0012284F884202420C4F88800F5
:104AE00020680568026822F001020260206882687E
:104AF00022F060420A438260204601F0B9FE22683B
:104B0000202100201560C4F8881084F8840070BD4E
:104B1000022070BD704710B5040003D0D4F888009F
:104B200010B107E0012010BD002084F88400204669
:104B300000F026F82420C4F888002068016821F0DD
:104B400001010160A06A10B1204601F0B3FE2046C9
:104B500002F024F80128E6D02068416821F4904151
:104B600041602068816821F02A0181602068016825
:104B700041F0010101602046BDE8104001F0FEBE99
:104B800070B5B4B0064614212EA8FBF769FDB82114
:104B90006846FBF765FD2D493068884254D10020F6
:104BA0001D9002210546CDE900106846FEF7A2FCE3
:104BB00008B1FCF784FA2648016841F480110160CD
:104BC000006800F48010339021480838016841F0F3
:104BD00002010160016801F002013391016841F0B6
:104BE00008010160006802242EAA00F0080033903A
:104BF00020030E2182E83100CDE9315115482EA95C
:104C0000FEF7C8F82EAA0420082182E83100CDE979
:104C1000315111482EA9FEF7BDF8114841210F4C22
:104C20000215831584E82300C4E903526561204618
:104C3000C4E9065325626562FCF7C0FF08B1FCF7C2
:104C40003EFAC6F88040A66334B070BD0050004004
:104C5000E844025800040258000C0258AC11002429
:104C60001000024030B4D0F88C30202B02D002204B
:104C700030BC7047A9B1A2B10B4D00240368C466D3
:104C8000AB420BD05B681B0208D5046854E8003FB8
:104C900043F0806344E80035002DF6D130BC02F0CB
:104CA0006BB90120E4E70000000C00587047704722
:104CB0001CB51D4D1D4C00BF02F0BEFE95F83A001C
:104CC00028BB1B48007810B30020208019481B49DE
:104CD000194A837B01F14C00FBF7DCFD1748B7EE66
:104CE000000AB0F94020B0F93010CDE90012B0F957
:104CF0002030B0F910201249124800F053FB002078
:104D000003F032FCE060012002F033FFD4E720889A
:104D10009628F4D20A490B48B2EE040AFBF75EFE6D
:104D20002088401C2080EAE7A0260024B40000244C
:104D3000FC000024DC270024A4210024501F0024B0
:104D4000D80F0024A0250024174D184C287818B13E
:104D500017488089032813D0E088962808D215497F
:104D60001548B2EE040AFBF739FEE088401CE080EB
:104D7000002003F0F9FBA061012002F0FAFEE5E754
:104D80000020E0800C4840F69E71B0F90A0000F265
:104D9000CF708842ECD80749C8220748B7EE000A0E
:104DA00000F08CFBE4E70000FC000024B4000024C9
:104DB000DC270024380F002420250024DFF8AC80F5
:104DC000284F294E08F17005DFF8A490294C387857
:104DD000D0B300206080B6F90A0040F69E7100F260
:104DE000CF70884212D898ED020A2048B9F906100F
:104DF0007030B1EE400A00F08BF801221A48D5ED70
:104E0000030A95ED010A114600F080FBB6F93A005D
:104E1000B0F5FA6F10DA1548B9F90410703098ED52
:104E2000000A00F0A7F8104802220521D5ED020A79
:104E300095ED000A00F08EFB002003F095FB206149
:104E4000012002F096FEC2E7FFE760889628F3D2C1
:104E500009490548B2EE040AFBF7C0FD6088401C12
:104E60006080E9E7FC000024A0250024441F002402
:104E7000DC270024B4000024D80F0024184D194C5E
:104E800008B52878F0B10020A0801748B1EE040AD8
:104E9000817A164801F058FB1448B7EE000AB0F9C1
:104EA0000A100091B0F90830B0F9062010491148F5
:104EB00000F072FB002003F057FB6061012002F05C
:104EC00058FEDEE7A0889628F4D209490948B2EED8
:104ED000040AFBF783FDA088401CA080EAE70000DD
:104EE000FC000024B4000024DC270024C41F00249C
:104EF000380F002420250024044C002003F034FB4C
:104F0000A060012002F035FEF7E70000B4000024A5
:104F100010B59FED132ADFED131A9FED131ADFED85
:104F2000130A04462DED028BB0EE408A00EE101AF3
:104F3000B8EEC00A00F0FDFDD4ED010A00209FED9F
:104F40000C1A30EEC00AFAEE040A84ED010A00F0F1
:104F5000BDFD84ED010A84ED038ABDEC028B10BD1A
:104F6000CDCCCC3DCDCCCCBD00001644000016C449
:104F70000000204210B59FED132ADFED131A9FEDBC
:104F8000131ADFED130A04462DED028BB0EE408AB2
:104F900000EE101AB8EEC00A00F0CBFDD4ED000A06
:104FA00001209FED0C1A30EEC00ADFED0B0A84EDF4
:104FB000000A00F08BFD84ED000A84ED028ABDEC4E
:104FC000028B10BDCDCCCC3DCDCCCCBD0000164469
:104FD000000016C400003443000034C370B504461A
:104FE000C0889FED280A00EE900A274DF8EE600A6F
:104FF00070EEC00AFDEEE00A10EE900A2880A0884C
:1050000000EE900AF8EE600A70EEC00AFDEEE00ACB
:1050100010EE900A6880208800EE900AF8EE600A90
:1050200070EEC00AFDEEE00A10EE900AA8806088DB
:1050300000EE900AF8EE600A30EEC00ABDEEC00A3B
:1050400010EE100AE880608901F09EFA2881A0899C
:1050500001F09AFA6881208901F096FAA881E08926
:10506000241D01F091FAE881A0892882E0896882F4
:10507000207F2875607F6875E07FE875A07FA87540
:1050800070BD000000007844DC270024002003F0FD
:105090006BFA0F4D0026686064202E7003F08EFBC3
:1050A0000C4F4FF00108387AC4B2387AA04207D0CA
:1050B0000328044601D02E7004E085F8008002E049
:1050C000032800D02E70322003F078FBEDE70000BB
:1050D000FC000024DC270024FEE7030A0B7010709C
:1050E00070470000094808B5016841F001010160FE
:1050F00000680022052100F0010000900B20FEF75F
:1051000047F8BDE808400B20FEF734B8D8440258F1
:105110001A4800222DE9F041174E012582604FF018
:10512000140C06600626C26002240574112742741E
:10513000042185740823C0E9056C0D26C761C0E908
:105140000845C0E90A460463C0E90D21C0E90F1310
:10515000C0E91113C0E91314C0E91513C365036650
:10516000C0E91921FDF7A4FB002803D0BDE8F041F8
:10517000FBF7A5BFBDE8F08100A00040380F002478
:105180001B4800232DE9F041184E012583604FF0A4
:10519000140C06600224C3600626057411274374AC
:1051A000042185740822C0E9056CC0E90774C0E9D0
:1051B000095440F20647C0E90D71C0E90F120D26EF
:1051C000C0E91112C0E90B64C0E91314C0E915125B
:1051D000C2650266C0E91931FDF76AFB002803D0F9
:1051E000BDE8F041FBF76BBFBDE8F08100A40040D3
:1051F000D80F00241B4800232DE9F041184E01254B
:1052000083604FF0140C06600224C3600626057408
:1052100011274374042185740822C0E9056CC0E994
:105220000774C0E9095440F61207C0E90D71C0E9DE
:105230000F120D26C0E91112C0E90B64C0E9131466
:10524000C0E91512C2650266C0E91931FDF730FBED
:10525000002803D0BDE8F041FBF731BFBDE8F08185
:1052600000D40040781000241A4A00211A4810B5D2
:1052700002F0BCFC194C0021164A24322060184868
:1052800002F0B4FC134A002160601648483202F074
:10529000ADFC104A0021A06013486C3202F0A6FC5D
:1052A0000C4A0021E0601148903202F09FFC094A4C
:1052B000002120610E48B43202F098FC054A00211A
:1052C00060610C48D83202F091FCA061BDE810404A
:1052D00001F0A6BAAC970008816500080000002420
:1052E000B14C0008494D0008BD4D00087D4E000836
:1052F0008D5000086D6300080D4808B5016841F045
:1053000080010160016801F080010091016841F0B5
:1053100002010160016801F002010091016841F0A1
:1053200008010160006800F00800009008BD00005E
:10533000E0440258184800212DE9F041154A0C2498
:10534000C0E90541C16101629514144B56144162D4
:105350001715816280E8EC00FFF7DDFB08B1FBF771
:10536000AEFE0D480021FFF7AFFB08B1FBF7A7FE2B
:1053700009480021FFF782FB08B1FBF7A0FE0648B1
:10538000FFF75BFB002803D0BDE8F041FBF797BEB9
:10539000BDE8F0810050004018110024A0860100F3
:1053A000FEE7000070B504460E461D462DED048B49
:1053B000F0EE408A82B0B0F93800B4F93A1000EE4D
:1053C000900A00EE101A3B49B8EEE01AF8EEC00A57
:1053D00000EE102A9DED0B8A9DED0A9AF0EE681AF8
:1053E000B8EEC00AA1F1340000F046FDBDEEC00ADF
:1053F000F0EE681A10EE100AADF80600B4F92800B5
:10540000B4F92A1000EE900A00EE101A2949B8EEFD
:10541000E01AF8EEC00A00EE105A6831A1F134002B
:10542000B8EEC00A00F028FDBDEEC00AF0EE681A22
:1054300010EE100AADF80400B4F90A10B4F908002F
:1054400000EE101A00EE900A1A49B8EEE01AD031B8
:10545000F8EEC00AB8EEC90AA1F1340000F00CFD64
:10546000BDEEC00AF0EE681A10EE100AADF80000AA
:10547000B4F91800B4F91A1000EE900A00EE101AF0
:105480000D49B8EEE01AF8EEC00AB8EEC80AA1F16C
:10549000340000F0F1FCBDEEC00A01216A4610EEB6
:1054A000100AADF802003046FBF7CCFD02B0BDECAF
:1054B000048B70BD38200024702100241CB50C46DC
:1054C000B0F90810B0F90A0001EE101AF0EE401A17
:1054D00000EE900A00EE102A0B49B8EEC11AF8EE61
:1054E000E00AB8EEC00AA1F1340000F0C5FCBDEE40
:1054F000C00A01216A4610EE100AADF800002046ED
:10550000FBF7A0FD1CBD00009424002410B50C4640
:105510000E49B0EE601A00EB0410DFED0B1A30F903
:10552000080C00EE900AA1F13400F8EEE00A00F059
:10553000A3FCBDEEC00A2146BDE8104010EE100AE3
:1055400002B20348FBF79BBDCDCCCC3DF422002436
:10555000D80F002410B50C462DED028BB0EE608AFA
:10556000B7EEC00A00F048FBF7EEC00B0848B0EEFB
:10557000480A00F0F5FCBDEEC00ABDEC028B2146E6
:1055800010EE100ABDE8104002B20248FBF777BDEA
:10559000D8210024D80F002470B504460E461D46BD
:1055A0002DED028BF0EE408AB0F9080082B0B4F91C
:1055B0000A1000EE900A00EE101A2E49B8EEE01A1A
:1055C000F8EEC00A00EE102A9DED088AF0EE681A87
:1055D000B8EEC00AA1F1340000F04EFCBDEEC00AE6
:1055E000F0EE681A10EE100AADF80000B4F91800D9
:1055F000B4F91A1000EE900A00EE101A1D49B8EE28
:10560000E01AF8EEC00A00EE105A6831A1F1340039
:10561000B8EEC00A00F030FCBDEEC00AF0EE681A29
:1056200010EE100AADF80200B4F92A10B4F92800FF
:1056300000EE101A00EE900A0E49B8EEE01AD031D2
:10564000F8EEC00AB8EEC80AA1F1340000F014FC6C
:10565000BDEEC00A00216A4610EE100AADF8040043
:105660003046ADF806100121FBF7ECFC02B0BDECB2
:10567000028B70BD5C23002410B5B1EE043AF9EE44
:10568000042A2DED0C8BDFEDE78AB0EE682A9FED42
:10569000E69AF0EE491A9FEDE58AE548B0EE080A71
:1056A000B0EE481AF0EE480A00F0F8FC9FEDE1AACF
:1056B000B0EE4A3ADFEDE0AAB0EE682AF0EE491A01
:1056C000F0EE6A2AB0EE481ADFEDDC9AF0EE690AD5
:1056D0009FEDDBBAD6483430B0EE4B0A00F0DEFC6A
:1056E000DFEDD8BAB0EE6B3A9FEDD7CAF0EE4C2A98
:1056F000DFEDD6CAB0EE6C2A9FEDD5DAB0EE481ACF
:10570000F0EE4D1ADFEDD3DAC948B3EE0E0A683079
:10571000F0EE6D0A00F0C2FCC548B0EE4A3A9C308B
:10572000F0EE6A2AB0EE682AF0EE491AB0EE481A96
:10573000F0EE690AB0EE4B0A00F0B0FCBC48B0EEE7
:105740006B3AD030F0EE4C2AB0EE6C2AF0EE4D1AE7
:10575000B0EE481AF0EE6D0AB3EE0E0A00F09EFCB1
:10576000BD48B0EE4A3AF0EE6A2AB0EE682AF0EE92
:10577000491AB0EE481AF0EE690AB0EE4B0A00F092
:105780008DFCB548B0EE6B3A3430F0EE4C2AB0EEFA
:105790006C2AF0EE4D1AB0EE481AF0EE6D0AB3EE38
:1057A0000E0A00F07BFCAC48B0EE4A3A6830F0EEEE
:1057B0006A2AB0EE682AF0EE491AB0EE481AF0EE06
:1057C000690AB0EE4B0A00F069FCA348B0EE6B3AF0
:1057D0009C30F0EE4C2AB0EE6C2AF0EE4D1AB0EE92
:1057E000481AF0EE6D0AB3EE0E0A00F057FCB6EE62
:1057F000083AFEEE082AB7EE082AFFEE081A9FEDD7
:10580000971ADFED970A9448B0EE690AD03000F09D
:1058100045FCF2EE043ABAEE043AF0EE682AB0EE35
:10582000492AF0EE481A9FED8F1AF0EE690A9FEDB3
:105830008E0A8E4800F008FC8C48B2EE043A4030E4
:10584000FAEE042AB0EE682AF0EE491AB0EE481AD1
:10585000F0EE480AB1EE040A00F020FCB2EE043A81
:10586000FAEE042A9FED822ADFED821AB0EE481A82
:10587000F0EE480A9FED800A7C48743000F00EFC80
:105880007A48F2EE043AA830BAEE043AF0EE682A0A
:10589000B0EE492AF7EE001AB0EE481AF0EE480AC8
:1058A000B0EE080A00F0D0FBB2EE043AFAEE042A99
:1058B0009FED722ADFED721A6C48B0EE481AE8309C
:1058C000F0EE480AB7EE000A00F0E8FBB2EE043A48
:1058D000FAEE042ADFED6B9AB0EE692A9FED6AAA10
:1058E000B0EE481AF0EE480AF0EE4A1A9FED670A49
:1058F000674800F0D3FB6648B2EE043A3430FAEE63
:10590000042AB0EE682AF0EE491AB0EE481AF0EE1A
:10591000480AB7EE000A00F0C1FBB2EE043AFAEE14
:10592000042ADFED5CAAB0EE6A2A9FED5BBA584804
:10593000B0EE481A6830F0EE4B1AF0EE480AB3EEBB
:105940000E0A00F0ABFB5248B2EE043A9C30FAEE7D
:10595000042AB0EE682AF0EE491AB0EE481AF0EECA
:10596000480AB7EE000A00F099FB4948B2EE043A43
:10597000D030FAEE042AB0EE6A2AF0EE4B1AB0EEFE
:10598000481AF0EE480AB3EE0E0A00F087FB4348CF
:10599000B2EE043AFAEE042AB0EE682AF0EE491AA2
:1059A000B0EE481AF0EE480AB7EE000A00F076FBB7
:1059B0003A48B2EE043A3430FAEE042AB0EE6A2ADB
:1059C000F0EE4B1AB0EE481AF0EE480AB3EE0E0AAB
:1059D00000F064FB3148B2EE043A6830FAEE042A73
:1059E000B0EE692AF0EE4A1AB0EE481AF0EE480A14
:1059F000B7EE000A00F052FBB0EE6A2AF0EE4B1A46
:105A0000B0EE481AF0EE480ABDEC0C8BB2EE043A48
:105A1000FAEE042AB3EE0E0A2048BDE810409C308E
:105A200000F03CBB00008046000080C60000000083
:105A3000D01F00240000FA450000FAC5CDCC4C3D33
:105A40009A99993F00401C4500401CC500409C4568
:105A500000409CC5CDCCCC3DD42000249A99193E61
:105A60006F12033B0000204200803B44D8210024F9
:105A700000007A4400007AC4000048430000FA4461
:105A80000000FAC40080BB440080BBC40000964301
:105A9000F422002400401C4600401CC6F8230024C9
:105AA000B7EEC00A9FED052B9FED061B20EE020B03
:105AB00080EE012BB7EEC20B70470000182D445446
:105AC000FB210940000000000080664010B52DED6C
:105AD000028BB0EE608A71EE488AF5EEC08AF1EE74
