:020000040800F2
:100000006871002029030008815700088149000811
:100010002D550008950E0008D97D0008000000004D
:10002000000000000000000000000000690200085D
:10003000BD1C000800000000C50200088175000812
:100040004303000843030008430300084303000878
:100050004303000843030008A71E000843030008E9
:1000600043030008AD1E0008B31E00084303000848
:10007000491900084303000843030008430300082C
:100080004303000843030008430300084303000838
:10009000990E0008A50E000843030008B91E0008C9
:1000A0004303000843030008430300084303000818
:1000B0004176000843030008430300084303000897
:1000C00043030008430300084303000843030008F8
:1000D000430300084303000843030008C57D0008EC
:1000E00043030008430300084303000843030008D8
:1000F00043030008430300084303000843030008C8
:1001000043030008430300084303000843030008B7
:1001100043030008430300084303000843030008A7
:10012000430300084303000855190008430300086F
:100130004303000843030008430300084303000887
:10014000B10E0008BD0E0008430300084303000879
:100150004303000843030008430300084303000867
:100160004303000843030008430300084303000857
:100170004303000843030008430300080000000095
:10018000430300084303000800F002F800F05CF8A5
:100190000AA090E8000C82448344AAF10107DA45E2
:1001A00001D100F051F8AFF2090EBAE80F0013F0D8
:1001B000010F18BFFB1A43F00103184708CC0000D9
:1001C00028CC00000A444FF0000C10F8013B13F05B
:1001D000070408BF10F8014B1D1108BF10F8015BA0
:1001E000641E05D010F8016B641E01F8016BF9D193
:1001F00013F0080F1EBF10F8014BAD1C0C1B09D1EA
:100200006D1E58BF01F801CBFAD505E014F8016B5B
:1002100001F8016B6D1EF9D59142D6D370470000ED
:100220000023002400250026103A28BF78C1FBD8FF
:10023000520728BF30C148BF0B6070471FB50CF094
:1002400080FB1FBD10B510BD00F002FA1146FFF78C
:10025000F5FF09F07BFF00F020FA03B4FFF7F2FF8F
:1002600003BC00F023FA00002C4B19680868B0E8C2
:10027000F04F80F30988BFF36F8F4FF0000080F3D9
:10028000118870470000000008480068006880F38B
:1002900008884FF0000080F3148862B661B6BFF39F
:1002A0004F8FBFF36F8F00DF00BF00BF08ED00E08E
:1002B000DFF80C00016841F470010160704700BF75
:1002C00088ED00E0EFF30980BFF36F8F134B1A68DE
:1002D0001EF0100F08BF20ED108A20E9F04F1060CB
:1002E00009B44FF0500080F31188BFF34F8FBFF374
:1002F0006F8F0AF087FF4FF0000080F3118809BC70
:1003000019680868B0E8F04F1EF0100F08BFB0EC95
:10031000108A80F30988BFF36F8F70474000002078
:10032000EFF30580704700000948804709480047FF
:10033000FEE7FEE7FEE7FEE7FEE7FEE7FEE7FEE795
:10034000FEE7FEE704480549054A064B70470000F2
:100350003176000889010008686B00206871002070
:10036000686D0020686D002053EA020C00F069807F
:100370002DE9F04B4FF00006002B1FBFB3FA83F5B9
:1003800003FA05F424FA05F65E4012BF1643B2FAEA
:1003900082F502FA05F4C5F120051EBF22FA05FC1C
:1003A00044EA0C04203556EA044C4FEA144418BFC2
:1003B000641C4FF000084FF00009904271EB030CF1
:1003C00039D3002919BFB1FA81F701FA07F6B0FA5B
:1003D00080F700FA07F6C7F120071EBF20FA07FCD6
:1003E00046EA0C062037B6FBF4FCA7EB0507103FE6
:1003F00007F01F0BCBF120060CFA0BFB2CFA06F6CC
:1004000044BFB3460026202FA4BF5E464FF0000B2A
:100410005BEA060C08BF4FF0010B19EB0B09ABFBB5
:10042000027C48EB0608C01B06FB02CC0BFB03CC8E
:1004300071EB0C01C1E70B46024641464846BDE858
:10044000F08B13B54FF000004FF00001AFF30080C8
:10045000BDE81C40704710B5431C02E010F8011BBA
:1004600071B18107FAD14FF0013202C88C1A8C4366
:1004700014EAC211F9D0C01A0A0603D0C01E10BD7A
:10048000C01A10BD0A0401D0801E10BD0902FCD0A4
:10049000401E10BD032A40F2308010F0030C00F023
:1004A000158011F8013BBCF1020F624498BF11F8AE
:1004B00001CB00F8013B38BF11F8013BA2F1040267
:1004C00098BF00F801CB38BF00F8013B11F00303DF
:1004D00000F02580083AC0F0088051F8043B083A43
:1004E00051F804CBA0E80810F5E7121D5CBF51F8E5
:1004F000043B40F8043BAFF30080D20724BF11F85F
:10050000013B11F801CB48BF11F8012B24BF00F8C3
:10051000013B00F801CB48BF00F8012B704710B534
:10052000203AC0F00B80B1E81850203AA0E81850EB
:10053000B1E81850A0E81850BFF4F5AF5FEA027CAC
:1005400024BFB1E81850A0E8185044BF18C918C01B
:10055000BDE810405FEA827C24BF51F8043B40F8BC
:10056000043B08BF7047D20728BF31F8023B48BFA1
:1005700011F8012B28BF20F8023B48BF00F8012BDF
:10058000704702F0FF0343EA032242EA024200F00E
:1005900002B84FF000020429C0F0128010F0030CE2
:1005A00000F01B80CCF1040CBCF1020F18BF00F866
:1005B000012BA8BF20F8022BA1EB0C0100F00DB815
:1005C0005FEAC17C24BF00F8012B00F8012B48BF73
:1005D00000F8012B70474FF0000200B51346944617
:1005E0009646203922BFA0E80C50A0E80C50B1F18B
:1005F0002001BFF4F7AF090728BFA0E80C5048BF9F
:100600000CC05DF804EB890028BF40F8042B08BF3C
:10061000704748BF20F8022B11F0804F18BF00F838
:10062000012B704770477047704710B500F008F80D
:10063000006810BD10B5044600F002F8046010BD5B
:1006400000487047046B002000487047046B00208E
:100650007546FFF7F9FFAE4605006946534620F0A0
:100660000700854618B020B5FFF76CFEBDE82040B6
:100670004FF000064FF000074FF000084FF0000B5E
:1006800021F00701AC46ACE8C009ACE8C009ACE811
:10069000C009ACE8C0098D46704710B50446AFF3F9
:1006A00000802046BDE81040FFF7D7BD0149182063
:1006B000ABBEFEE726000200704707F0C9BB07F09B
:1006C0005DBC10B510EE100A0CF0CAF841EC100B2E
:1006D00007F07EFD51EC100B0BF01CFB00EE100A36
:1006E00010BDF0EE400AF5EEC00AF1EE10FA02DDA0
:1006F000B0EE600A7047B1EE600AFBE7002803D055
:100700009FED020A80ED000A704700000000000023
:10071000002803D0B3EE060A80ED000A70470000FF
:1007200070B52DED0C8B84B006460C4615469FED3A
:10073000990AF0EE408A9FED970AB0EE409A9FED3D
:10074000950AF0EE40BA9FED930AF0EE409A9FEDC5
:10075000910AB0EE40AA0EB104B11DB904B0BDECCF
:100760000C8B70BD8C48FFF7C9FF8C48FFF7D0FF9A
:100770008A48D0ED000A9FED8A1A60EE810AB0EE39
:10078000600A00F025F9F0EE408A28EEA80AF0EEA3
:10079000408A8248D0ED000AB0EE001A60EE810A6D
:1007A0009FED7F1A60EE810AB0EE600A00F010F94A
:1007B000B0EE409A29EE090AB0EE409ADFED790AD0
:1007C000B7EE000A00EEA80ADFED770A00EEC90ACC
:1007D000DFED760A20EE200A754880ED000A6E48AB
:1007E00090ED000ADFED730A80EE201AB7EE000AE2
:1007F00031EE000A20EE000A6D48D0ED000A80EECE
:10080000801A6D4880ED001A94ED000AB5EEC00A1A
:10081000F1EE10FA0DD194ED010AB5EEC00AF1EE39
:1008200010FA06D194ED020AB5EEC00AF1EE10FA04
:1008300046D09FED580AB0EE408A00200190029009
:100840000390D4ED000A60EEA00A94ED011AD4EDF5
:10085000011A41EE210A94ED021AD4ED021A41EE7A
:10086000210AB0EE600A00F0A9F8B0EE408A94EDDB
:10087000000A20EE080A8DED010A94ED010A20EE2F
:10088000080A8DED020A94ED020A20EE080A8DEDA9
:10089000030ADDED010AF1EE600AB0EE600AFFF72F
:1008A0000CFFF0EE409A9DED031AF0EE410A9DED2B
:1008B000021AB0EE410AFFF702FFB0EE40AA07E0CD
:1008C0009FED340AF0EE409A9FED320AB0EE40AA56
:1008D00095ED000AB5EEC00AF1EE10FA0DD195EDD6
:1008E000010AB5EEC00AF1EE10FA06D195ED020A42
:1008F000B5EEC00AF1EE10FA3CD0B0EE690A00F095
:1009000067F8B0EE408AB0EE690AFFF7DAFEB0EEA3
:1009100040DAB0EE4A0A00F05BF8F0EE40AAB0EE22
:100920004A0AFFF7CEFEB0EE40BA28EE2A0AD5ED0D
:10093000010A20EE200AD5ED000A0DEE200A68EE2D
:100940000B0A95ED021A00EE810AB0EE40CA95ED51
:10095000010A20EE0B0AD5ED020A0AEEE00AF0EEDB
:1009600040CAF0EE6C0AB0EE4C0AFFF7A8FEF0EEBB
:1009700040BA03E09FED070AF0EE40BAB0EE4A1A23
:10098000F0EE690AB0EE6B0A304608F0BDFB00BF1E
:10099000E4E6000000000000000200200402002045
:1009A00035FA8E3CC1BFAD3B9DF8C5362F7C1C414E
:1009B00008020020506CC24A0C02002010B507F05B
:1009C000ABFDB7EE001AC1EE000AB0EE600A10BD32
:1009D00010B510EE100A0BF043FF41EC100B07F0BE
:1009E00037FD51EC100B0BF095F900EE100A10BD1D
:1009F0002DE9F0412DED028B9AB00546B0EE408A0C
:100A00000E4617469846002017901890199014909B
:100A1000159016904DB146B13FB1B8F1000F04D01A
:100A2000B5EEC08AF1EE10FA05D100201AB0BDEC87
:100A3000028BBDE8F08196ED000A8DED170A96ED68
:100A4000010A8DED180A96ED020A8DED190A97ED4F
:100A5000000A8DED140A97ED010A8DED150A97ED48
:100A6000020A8DED160A17AA14A9284608F09EF965
:100A7000402104A8FFF7AFFD0020009001900290F4
:100A80000390002417A904A80AF038F900BF30E049
:100A900004A800EB041090ED000AD5ED000A20EE4A
:100AA000200A04A800EB0410D0ED010A95ED011A0C
:100AB00000EE810A04A800EB0410D0ED020A95EDC7
:100AC000021A00EE810A04A800EB0410D0ED030A1C
:100AD00095ED031A00EE810A20EE080AF0EE000AF6
:100AE00080EE201A684600EB840080ED001A601C3E
:100AF000C4B2042CCCDB002410E005EB840090EDA4
:100B0000000A684600EB8400D0ED000A30EE200AAF
:100B100005EB840080ED000A601CC4B2042CECDB01
:100B200028460AF04DF8012080E70000012210213C
:100B3000014802F05FB900000000024000221021CD
:100B4000014802F057B90000000002407047000061
:100B500001221146014802F04DB900000004024094
:100B600000220121014802F045B9000000040240C2
:100B700030B5437804781B021BB2234300EE103AD1
:100B8000194CB8EEC00AD4ED000A20EE200A81ED1F
:100B9000000AC37885781B021BB22B4300EE103A83
:100BA000D4ED000AB8EEC00A20EE200A81ED010A59
:100BB000437904791B021BB2234300EE103AB8EECE
:100BC000C00A20EE200ADFED090A81ED020AD0F802
:100BD000060020F07F4000EE100AB8EE400A20EE3A
:100BE000200A82ED000A30BDD400002000401C42E3
:100BF000704709F0CABA09F059B8000010B5427838
:100C00000378120212B21A4300EE102A124BB8EE09
:100C1000C00AD3ED010A20EE200A81ED000AC27855
:100C20008478120212B2224300EE102AD3ED010A98
:100C3000B8EEC00A20EE200A81ED010A427900795F
:100C4000120212B2024300EE102AB8EEC00A20EEE1
:100C5000200A81ED020A10BDD400002010B5FFF774
:100C600075FFFFF7C5FF08F099FB08B1802402E08B
:100C700008F000FB044608F05FFD10B144F04000AE
:100C800010BD08F0EBFC204310BD00002DE9FC4135
:100C90000746002016460D4600900190FFF74EFFD4
:100CA000922000F0BDF806226946122000F09AF862
:100CB000FFF73CFF9DF801009DF80010000200B214
:100CC000084300EE100A464CB8EEC00AD4ED000A04
:100CD00020EE200A85ED000A9DF803009DF8021021
:100CE000000200B2084300EE100AD4ED000AB8EE8C
:100CF000C00A20EE200A85ED010A9DF805009DF846
:100D00000410000200B2084300EE100AB8EEC00A58
:100D100020EE200A85ED020AFFF722FF082269462D
:100D2000002000F05FF8FFF713FF9DF800000F2888
:100D300030D19DF803009DF80210000200B2084374
:100D400000EE100AD4ED010AB8EEC00A20EE200A27
:100D500087ED000A9DF805009DF80410000200B21E
:100D6000084300EE100AD4ED010AB8EEC00A20EEE6
:100D7000200A87ED010A9DF807009DF80610000281
:100D800000B2084300EE100AB8EEC00A20EE200AB6
:100D900087ED020AFFF7D2FEA22000F041F80222FE
:100DA0006946222000F01EF8FFF7C0FE9DF8000003
:100DB0009DF80110C00040EA5110B0F5806F01DBD2
:100DC000A0F5006000EE100AB4EE001AF8EEC00ABA
:100DD000B3EE070A00EE810A86ED000ABDE8FC8149
:100DE000D400002070B514460D4640F0800000F09D
:100DF00017F806E0552000F013F8641E05F8010B03
:100E0000E4B2002CF6D170BD10B50C4640F0800065
:100E100000F006F8552000F003F8207010BD000027
:100E200001B582B04FF47A700090012301AA02A9A3
:100E3000024802F0F7FE9DF804000EBD9417002052
:100E400002784078D20042EA5010B0F5806F01DBA2
:100E5000A0F5006000EE100AB4EE001AF8EEC00A29
:100E6000B3EE070A00EE810A81ED000A704710B563
:100E70000C46FFF7D5FF2046BDE81040FFF7D0BF76
:100E800010B508F0D3FEBDE81040014804F04EBF95
:100E9000F4180020FEE70000014801F0F0B900005E
:100EA000F0160020014801F0EAB90000F016002019
:100EB000014801F0E4B9000018170020014801F0D2
:100EC000DEB900001817002010B500214FEA010418
:100ED00001EB810200EB82021369642B02D25B1CDE
:100EE000136100E05473491CC9B20829F0D310BD46
:100EF000A1F20121072924D8C9B24B1C01EB8101C1
:100F000020F82130002300EB8100012103614173AF
:100F10001188DFED0C0A49BA00EE101A4180B8EED4
:100F2000400A20EE200ADFED080A20EE200A80EDBC
:100F3000010A518849BA0181918849BA4181D17920
:100F4000017370470000B4430000003930B587B02A
:100F500005460091002108200291CDE903101446B6
:100F60008DF81410284601F074F90028FAD006AB69
:100F700022466946284601F00CF807B030BD000053
:100F8000642009F002F9074C07491022A1F1100072
:100F9000FFF780FA002009F001FF2060012009F02E
:100FA000F4F8F1E7B00100205C65002000487047CC
:100FB0004C65002000F0A4F8642009F0E6F80A4C23
:100FC00000F08CFA00F09AF800F086FA00F0EEF9E2
:100FD00000F00CF800F0F6F9002009F0DFFE2060C8
:100FE000012009F0D2F8EBE7EC01002010B5404CED
:100FF0004049F7EE001A34F9200F00EE100AB4F958
:101000000200B8EEC01A00EE100AB4F97800F8EE4B
:10101000C00A00EE100AA1F13400B8EEC00A04F0D4
:1010200073FCBDEEC00A3349F7EE001A10EE100A49
:101030006831A4F87A00B4F9140000EE100AB4F98B
:101040001600B8EEC01A00EE100AB4F98000F8EEEF
:10105000C00A00EE100AA1F13400B8EEC00A04F094
:1010600053FCBDEEC00A2349F7EE001A10EE100A39
:10107000D031A4F88200B4F9280000EE100AB4F9C7
:101080002A00B8EEC01A00EE100AB4F98800F8EE93
:10109000C00A00EE100AA1F13400B8EEC00A04F054
:1010A00033FCBDEEC00A1449F7EE001A10EE100A28
:1010B000A4F88A00B4F93C0000EE100AB4F93E002E
:1010C000B8EEC01A00EE100AB4F99000F8EEC00AAB
:1010D00000EE100AA1F13400B8EEC00A04F014FCCE
:1010E000BDEEC00A10EE100AA4F8920010BD000078
:1010F00014670020346800206C69002070470000ED
:1011000010B56A4800212DED0C8B01709FED688AA7
:10111000B1EE043A80ED238AF9EE042A9FED659A38
:10112000B0EE492ADFED649AB0EE481AF0EE480AB4
:10113000F0EE691AB0EE080AB83004F017FC9FED23
:101140005FAAB0EE4A3ADFED5EAAB0EE492AF0EEB1
:10115000691AF0EE6A2AB0EE481ADFED5A8AF0EE0C
:10116000680A9FED59BA5148B0EE4B0AEC3004F0D2
:10117000FDFBDFED56BAB0EE6B3A9FED55CAF0EECF
:101180004C2ADFED54CAB0EE6C2A9FED53DAB0EE74
:10119000481AF0EE4D1ADFED51DAB3EE0E0A504860
:1011A000F0EE6D0A04F0E2FB4D48B0EE4A3AF0EE84
:1011B0006A2AB0EE492AF0EE691AB0EE481AF0EE4B
:1011C000680AB0EE4B0A343004F0D0FB4448B0EE6D
:1011D0006B3AF0EE4C2AB0EE6C2AF0EE4D1AB0EEFF
:1011E000481AF0EE6D0AB3EE0E0A683004F0BEFB4A
:1011F0003B48B0EE4A3AF0EE6A2AB0EE492AF0EEE9
:10120000691AB0EE481AF0EE680AB0EE4B0A9C304C
:1012100004F0ACFB3248B0EE6B3AF0EE4C2AB0EE84
:101220006C2AF0EE4D1AB0EE481AF0EE6D0AB3EEED
:101230000E0AD03004F09AFBB0EE4A3AF0EE6A2A79
:10124000B0EE492AF0EE691AB0EE481AF0EE680ADC
:10125000B0EE4B0A234804F089FB2248B0EE6B3A0B
:10126000F0EE4C2AB0EE6C2AF0EE4D1AB0EE481AB1
:10127000F0EE6D0AB3EE0E0A343004F077FBF0EEB8
:10128000480AB0EE680ABDEC0C8BB6EE083AFEEEEA
:10129000082AB7EE082AFFEE081A1248BDE81040E7
:1012A0009FED111A683004F061BB00001467002044
:1012B0000000000000008046000080C60000FA45E3
:1012C0000000FAC5CDCC4C3D9A99993F00401C4591
:1012D00000401CC500409C4500409CC5CDCCCC3D89
:1012E00034680020386900209A99193E10B52D4CB9
:1012F0002DED028BD4ED1B1A94ED1A1AD4ED1C0AB5
:101300009FED298A31EE810A31EE612A30EE200A02
:1013100032EE202A84ED250A84ED292A31EEC12AF5
:10132000F1EE611A31EEC11A32EE202A71EE200A76
:1013300084ED272AB3EE031AC4ED2B0AF0EE480A17
:10134000743408F031FCBDEEC00AB3EE031AF0EEBF
:10135000480A10EE100AA08494ED0A0A08F024FC52
:10136000BDEEC00AB3EE031AF0EE480A10EE100A02
:10137000A08594ED0C0A08F017FCBDEEC00AB3EE90
:10138000031AF0EE480A10EE100AA08694ED0E0A39
:1013900008F00AFCBDEEC00A10EE100AA087BDECF2
:1013A000028B10BD14670020E3A59B3D044810B5D7
:1013B000407800F021F9BDE81040FFF797BF00002A
:1013C0001467002010B52DED028B82B001F018FDDE
:1013D0003D4C3E490022237873B10A70009201927D
:1013E00034F89A0FADF806002089ADF80400208A81
:1013F000ADF80000208B52E0009201920B7813B9F7
:10140000012348600B704968401A64284AD234F9B5
:10141000200F9FED2F8A00EE100A2B48F0EE480AAD
:10142000B8EEC00AB83004F01BFABDEEC00AF0EE08
:10143000480A10EE100AADF80600B4F9140000EEE8
:10144000100A2148B8EEC00AB83004F009FABDEE1F
:10145000C00AF0EE480A10EE100AADF80400B4F924
:10146000280000EE100A1848B8EEC00AB83004F0A0
:10147000F7F9BDEEC00AF0EE480A10EE100AADF81A
:101480000000B4F93C0000EE100A0F48B8EEC00AA4
:10149000B83004F0E5F9BDEEC00A10EE100AADF860
:1014A000020007E0ADF80020ADF80420ADF80220FE
:1014B000ADF806206A460121064800F0B7FC02B0EC
:1014C000BDEC028B10BD000014670020E401002079
:1014D00000000000F01600207047000070B5FFF714
:1014E00065FD014610224048FEF7D4FF03F068FC7A
:1014F0003D4D28613D4804F01BF8044600F13C01D5
:1015000068610D2205F11800FFF709F894F8490009
:1015100085F82500E06CA86204F128010D2205F190
:101520002C00FEF7FCFF94F8350085F83900A06B1D
:10153000E8630D22214605F14000FEF7F0FF607BD5
:1015400085F84D002069286504F114010D2205F18C
:101550005400FEF7E4FF94F8210085F86100606A0A
:101560006866234803F0E4FF044600F15001686711
:101570000D2205F17800FEF7D2FF94F85D0085F8A2
:10158000850005F18000216E816095F885000128B5
:1015900002D0D5F88C0014E095ED1F0ADFED150A96
:1015A00030EE600A10EE100A0BF05AF941EC100B05
:1015B000022004F00BF851EC100B0AF0ABFBC5F85D
:1015C0008C000BF04DF941EC100B04F065F851EC78
:1015D000100B0AF09FFB00EE100A85ED230A03F0C2
:1015E000BDFF85ED240A70BD14670020F0160020B1
:1015F0001817002000C0874370B5C74C2DED068B2F
:1016000094ED239A9FEDC58ADFEDC58AD4F89050FA
:1016100000287DD001287CD002287BD128460BF001
:101620001FF941EC100B06F0D3FDB4F90200B0EE47
:10163000409A00EE100AB0EE48AAF0EE68AAF0EE6A
:10164000609AB8EEC00AB7EE002AFFEE001AB0EEBC
:101650004A1AF0EE6A0A03F09FFF10EE100A0BF030
:10166000FFF853EC192B0AF029FE41EC190B284620
:101670000BF0F6F841EC100B06F0EAFEB4F90400AA
:10168000B0EE408A00EE100AF0EE608AB7EE002A53
:10169000B8EEC00AFFEE001AB0EE4A1AF0EE6A0A7F
:1016A00003F07AFF10EE100A0BF0DAF853EC182B67
:1016B0000AF004FE53EC192B0AF05EFB0AF02AFB39
:1016C000A06628460BF0CCF841EC100B06F0C0FEEB
:1016D000B4F90200B0EE408A00EE100AF0EE608A23
:1016E000B7EE002AB8EEC00AFFEE001AB0EE4A1AB2
:1016F000F0EE6A0A03F050FF10EE100A0BF0B0F89B
:1017000053EC182B0AF0DAFD41EC180B284602E0E6
:101710002DE058E0FDE00BF0A3F841EC100B06F0D3
:1017200057FDB4F90400B0EE409A00EE100AF0EE56
:10173000609AB7EE002AB8EEC00AFFEE001AB0EECB
:101740004A1AF0EE6A0A03F027FF10EE100A0BF0B7
:1017500087F853EC192B0AF0B1FD53EC182B0AF063
:1017600095FF0AF0D7FAB8EE040AE066CFE0B4F9C4
:101770000200B7EE002A00EE100AFFEE001AB0EEEB
:10178000481AB8EEC00AF0EE680A03F005FF84EDCF
:101790001A0AB4F90400B7EE002A00EE100AFFEEB0
:1017A000001AB0EE481AB8EEC00AF0EE680A03F06C
:1017B000F3FE84ED1B0ADFED5B0AB0EE490A5A48DE
:1017C00004F058F8A3E028460BF04AF841EC100B5F
:1017D00006F0FEFCB4F90200B0EE40AA00EE100ADA
:1017E000F0EE489AB0EE689AF0EE60AAB8EEC00A41
:1017F000B7EE002AFFEE001AB0EE691AF0EE490AC1
:1018000003F0CAFE10EE100A0BF02AF853EC1A2B64
:101810000AF054FD41EC1A0B28460BF021F841EC7C
:10182000100B06F015FEB4F90400B0EE408A00EE8D
:10183000100AF0EE608AB7EE002AB8EEC00AFFEE9A
:10184000001AB0EE691AF0EE490A03F0A5FE10EE98
:10185000100A0BF005F853EC182B0AF02FFD53EC8F
:101860001A2B0AF089FA0AF055FAA06628460AF0FF
:10187000F7FF41EC100B06F0EBFDB4F90200B0EEFF
:10188000408A00EE100AF0EE608AB7EE002AB8EE49
:10189000C00AFFEE001AB0EE691AF0EE490A03F032
:1018A0007BFE10EE100A0AF0DBFF53EC182B0AF057
:1018B00005FD41EC180B28460AF0D2FF41EC100B55
:1018C00006F086FCB4F90400B0EE40AA00EE100A5F
:1018D000F0EE60AAB7EE002AB8EEC00AFFEE001ADA
:1018E000B0EE691AF0EE490A03F056FE10EE100A47
:1018F0000AF0B6FF53EC1A2B0AF0E0FC53EC182B5D
:101900000AF0C4FE0AF006FAB0EE040AE06684EDBE
:101910001C0ABDEC068B70BD1467002000007A44E1
:1019200000007AC400000000A06900200448FFF70E
:10193000CBFA0448FFF7C8FA012008F026FCF5E7C7
:101940006C6500200C660020014800F0A1BF00007B
:101950003C1900202DE9F05FA748A84BA84CC06CAB
:10196000A64DA74EA54F0068A449DFF89492DFF872
:101970008CA2DFF88CB2DFF884E2A14A483B6034E5
:1019800018351836303F09F178090AF1300A4FF45A
:10199000006C0BF1300BAEF1180E884223D9974939
:1019A000543926E0A84233D14FF020080AE05045D0
:1019B00035D1E04606E000BF4FF4001802E000BF5A
:1019C0004FF0006811EA080F7CD08C49884253D947
:1019D000904205D0984203D0A04201D0A8422FD116
:1019E0004FF0200C45E08649A831884203D983494D
:1019F0005839096805E08249483188428149F8D957
:101A000049689042D0D09842CED0A042CCD0C9E70D
:101A1000B042CED0B842CCD04845CAD0C7E758452E
:101A2000CAD07045C8D0DFF8D88108F19008404589
:101A3000C2D0DFF8C88108F148084045C0D1BBE7F3
:101A4000B04216D0B84214D0484512D0504510D0FC
:101A5000584509D0704507D069499031884203D074
:101A600066494831884202D14FF4001C01E04FF032
:101A7000006C62484C382AE06149A831884229D973
:101A8000904205D0984203D0A04201D0A84202D192
:101A90004FF0200C19E0B04217D0B84215D048459D
:101AA00013D0504511D0584509D0704507D054493E
:101AB0009031884203D051494831884203D14FF4D4
:101AC000001C02E095E04FF0006C4C485038C0F824
:101AD00000C052E04A494831884227D9904205D097
:101AE000984203D0A04201D0A84202D14FF0200C6E
:101AF00018E0B04216D0B84214D0484512D0504534
:101B000010D0584509D0704507D03D4990318842E2
:101B100003D03A494831884202D14FF4001C01E019
:101B20004FF0006C3748C0F80CC026E0904205D05A
:101B3000984203D0A04201D0A84202D14FF0200C1D
:101B400018E0B04216D0B84214D0484512D05045E3
:101B500010D0584509D0704507D0294990318842A6
:101B600003D026494831884202D14FF4001C01E0DD
:101B70004FF0006C2348C0F808C0234C2078800741
:101B80000CD5207820F002002070207840F004006E
:101B90002070012211461D4801F02CF960781C4D7F
:101BA00080070CD5607820F002006070607840F00B
:101BB0000400607001221021284601F01BF9A07872
:101BC00080070CD5A07820F00200A070A07840F02B
:101BD0000400A07001221021284601F00BF908F042
:101BE00079F92078400704D50A48016841F00101DD
:101BF0000160BDE8F09F0000941700205864024087
:101C00001060024000600240080100200004024011
:101C100000000240103C014001681823CAB2103A8B
:101C2000B2FBF3F2054B6FF30901032A9B5CC3651A
:101C300000D9091D8165084670470000D8CB00080F
:101C400010B5014600208B698A6A4FF0C07453B109
:101C5000B3F5005F15D072B1012A0CD0022A0AD068
:101C6000032A09D104E01AB1012A06D0022A03D1BD
:101C7000C96AC90100D5012010BDC96AA142FAD0C4
:101C800010BD002AF7D0012AF2D0022AF3D0032A8D
:101C9000F3D010BD30B50468256825F48025256093
:101CA000046863608368402B036803D09960006810
:101CB000C26030BD9A600068C16030BD70470000EE
:101CC00008B500200225EC01CDF800008DF8005089
:101CD00001236A462146034800F05CF8012008F021
:101CE00054FAF3E7181700202DE9F05F9946DDF864
:101CF00028B08A4620B3BAF1000F45D0B9F1000FE1
:101D000042D0816804293FD14068060AC7B2964292
:101D10003AD1AFB100251D4C4FF48078012F06D188
:101D20006580257041461A486660FEF732FC60689F
:101D3000864229D12078401C874202D065802570D8
:101D400022E06088082600F10801414502D9C0F56B
:101D500080718EB20E49324608445146FEF79AFB16
:101D60006088304480B260802178491C21705946D7
:101D7000584509D30A4606494846FEF78BFB65805D
:101D800025700120BDE8F09F0020FBE7CC0000207B
:101D9000246300202DE9F04F89B01C4615468A4681
:101DA0005FEA000B35D0A5B39CB3B4F5807F30D883
:101DB000E01DC0F3C706002034E0C100082201F195
:101DC0000803A34201D9621AD2B200F10109002727
:101DD00049EA0A280697294406A80797FEF75AFBFE
:101DE0000420CDE902070820CDF8048004908DF886
:101DF000147002E0012008F0C8F9584600F029FAF2
:101E00000028F7D008AB06AA6946584600F0C1F88A
:101E100018B1002009B0BDE8F08F012008F0B5F935
:101E200009F0FF00B042C8D30120F3E72DE9FC41DF
:101E300080461646084600F06DF8050011D00024D3
:101E40004FEA0D0707EB44014A1C36F9140003F072
:101E5000E3F8641C042CF5DB6A4629464046FFF78C
:101E600075F8BDE8FC817CB504460020134600905F
:101E700001904A1E4800032A03D84FF40075801EC3
:101E800005E0491F03290DD840F2FF150A380DEB74
:101E900000014A1C184603F0BFF86A46294620464E
:101EA000FFF754F87CBD012000F0A0BE082000F030
:101EB0009DBE102000F09ABE202000F097BE72B6A2
:101EC000FEE70000114800B590ED000A08F0BAFEE8
:101ED0000F4981ED060A90ED010A08F0B3FE81ED8D
:101EE000070A90ED000A08F0ADFE0849C43181ED03
:101EF000000A90ED010A08F0A5FE81ED010A90EDBF
:101F0000020A08F09FFE81ED020A00BD7C640020F9
:101F100008010020012803D0052804D000207047C4
:101F20004FF40070704740F2FF10704700F01AF84D
:101F30000A4C00BF00F01AF800F013F800F015F892
:101F400000F011F800F00CF800F00EF8002008F096
:101F500025FF2060012008F018F9EBE7F0010020D0
:101F6000704770477047704770477047704790F8E8
:101F70002020012A07D0022A05D0416A41F480219D
:101F8000416201207047006842690A4342610020B3
:101F90007047F0B590F820500468A468012D05D072
:101FA000022D03D0416A41F480214DE014F0406FCE
:101FB00001D1E50045D5C4F301640125A5401D60AC
:101FC0008D684FF4C0739DB1CE6835434E6845EAC5
:101FD000C605066803EB0417F5514FF4C275076890
:101FE00005EB04150E697E51097D012905D009E034
:101FF0000E88CD6845EA4655EBE701684E5946F430
:1020000080764E511179D2F805504FF4C67641EAE8
:102010000521056806EB0416A9511178D2F80120B4
:102020004FF4C47541EA0221026805EB04155151D1
:10203000006803EB0411425842F0010242500020B4
:10204000F0BD416A41F4001141620120F0BD000081
:1020500010B590F82020012A07D0022A05D0416A45
:1020600041F480214162012010BD3B48D0F800229C
:1020700042F00102C0F80022D0F8002222F47C5283
:10208000C0F80022D0F800224B6A42EA0322C0F8CE
:1020900000220A7D02F01F0301229A40D0F81C3270
:1020A0009343C0F81C32CB69B3B9D0F80C329343D8
:1020B000C0F80C328C894B6864F31F434C6900EB09
:1020C000C404C4F840320C890B6864F31F434C69A4
:1020D00000EBC404C4F84432CB69012B16D1D0F80C
:1020E0000C321343C0F80C320C884B6864F31F4366
:1020F0004C6900EBC404C4F840320C89CB6864F32B
:102100001F434C6900EBC404C4F844328B69002BB4
:10211000D0F804320ED01343C0F804320B69002B00
:10212000D0F8143208D01343C0F81432096A0129D8
:1021300004D008E09343EFE79343F5E7D0F81C128F
:102140001143C0F81C12D0F8001221F00101C0F8B0
:102150000012002010BD000000640040704770B500
:1021600090F82040012C05D0022C03D0416A41F4A4
:10217000802128E0046809B32469A40720D04FF423
:10218000D874056804EB01142D5915F00405956009
:1021900005682D591AD0ED08556005682C5904F0D2
:1021A0000204D4604FF4DA74056804EB01142E596C
:1021B00006F00F06082E0CD308250DE0E468DCE7D6
:1021C000416A41F400114162012070BD6D0D15603E
:1021D000E3E72D5905F00F05156105682D59C5F385
:1021E0000725956105682C59240C54614FF4DC7265
:1021F000046802EB0112A4581C700468A458240A55
:102200005C700468A458240C9C700468A258120ED8
:10221000DA704FF4DE72046802EB0112A4581C71EC
:102220000468A458240A5C710468A458240C9C71A6
:102230000468A258120EDA71006829B1016941F0F0
:1022400020010161002070BDC16841F02001C16022
:10225000F8E70246002092F82010012901D0022957
:102260000CD111688A68520100D501208A681201D8
:1022700000D5401C8968C90000D5401C70472DE975
:10228000F05F0546006800244669D0F8049087682E
:10229000D0F80CB0D0F810A0D0F81880F10748D0D2
:1022A000F90714D001218160B80703D5284600F052
:1022B0008CFA0CE0780702D54FF4006407E0380789
:1022C00002D54FF4805402E0284600F07DFAF8056C
:1022D00016D529684FF480708860B80503D5284664
:1022E00000F075FA0CE0780502D544F4005407E0DC
:1022F000380502D544F4804402E0284600F066FA2E
:10230000F80316D529684FF480308860B80303D5E8
:10231000284600F05EFA0CE0780302D544F400444D
:1023200007E0380302D544F4803402E0284600F088
:102330004FFA300707D55FEACB6004D52968102033
:1023400044F40074C86070074FF0080707D55FEACF
:102350000B7004D52868C760284600F0A9F9B007BB
:1023600006D52868C068800702D0284600F0A2F988
:10237000700607D55FEACA6004D52968102044F4C6
:1023800080640861B00607D55FEA0A7004D5286842
:102390000761284600F0E8F9F00606D528680069CC
:1023A000800702D0284600F0E0F9B00308D55FEAC4
:1023B000C96005D5296810204860284600F0D6F984
:1023C000F00307D55FEA097004D5286847602846FE
:1023D00000F000FA300446D55FEA497040D5F005B8
:1023E00004D55FEAC87001D044F00104B00504D5FB
:1023F0005FEA887001D544F00204700504D55FEAF5
:10240000487001D544F00404300529D518F0700F48
:1024100026D008F07000402815D006DC102809D01E
:1024200020280AD0302816D10AE050280ED0602883
:1024300011D10EE044F008040DE044F010040AE06D
:1024400044F0200407E044F0400404E044F0800439
:1024500001E044F480742868816921F07001816191
:10246000296804204860002C05D0686A204368620F
:102470002846FFF773FEBDE8F09F70B5040003D057
:1024800094F8200010B104E0012070BD204600F057
:1024900081F82068016841F00101016000F0B0FCA2
:1024A0000546052604E000F0ABFC401B0A2811D8C5
:1024B00020684068C007F6D02068016821F002015A
:1024C000016000F09DFC05460BE000F099FC401B0C
:1024D0000A2806D9606A40F40030606284F82060FF
:1024E000D2E7206840688007EFD4207E012820686A
:1024F00001683DD021F080010160607E01282068E4
:10250000016838D021F040010160A07E01282068D8
:10251000016833D021F020010160E07E01282068AD
:1025200001682ED041F010010160207F0128206851
:10253000016829D021F008010160607F012820682E
:10254000016824D021F004010160D4E902010843AC
:10255000D4E90412114308436168491E0843216805
:10256000C86100206062012084F82000002070BD56
:1025700041F08001C0E741F04001C5E741F0200192
:10258000CAE721F01001CFE741F00801D4E741F09C
:102590000401D9E7F0B587B0044614216846FEF778
:1025A0001AF83E4B3E48DFF8F0E01968D4F800C056
:1025B0003B4A03250226092710300024491CF44514
:1025C0002AD11960012907D1016841F00071016029
:1025D000006800F000700590106840F0080010607E
:1025E0001068CDE9005600F00800CDE90470694696
:1025F0002C48CDE9024500F005FB002206211420FD
:1026000000F03EFF142000F02DFF002206211520CF
:1026100000F036FF15203AE0DFF88CE0F44538D1C1
:10262000D0F800C04CF0806CC0F800C0D0F800C0FA
:1026300001290CF0806CCDF814C0196007D1016835
:1026400041F000710160006800F0007005901068B2
:1026500040F002001060106802AB00F0020005902C
:102660006020CDE9000683E8B00069460F4800F01D
:10267000C9FA00220621402000F002FF402000F0AD
:10268000F1FE00220621412000F0FAFE412000F078
:10269000E9FE07B0F0BD0000006400402C000020FF
:1026A00030380240000C0240006800400004024044
:1026B000704700002DE9F0410746006824491024C6
:1026C0000125244E8AB04FF40078884214D01BE0D4
:1026D000039810B104280FD105E008AA1E480199FB
:1026E000FEF706FC08E01D4B424608A901A800942D
:1026F000FFF7FAFA00B1357008AB01AA002138469D
:10270000FFF72DFD0028E3D015493868884216D020
:102710000AB0BDE8F081039810B104280FD105E09C
:1027200008AA10480199FEF7E3FB08E00B4B42466C
:1027300008A901A80094FFF7D7FA00B1357008ABDB
:1027400001AA00213846FFF70AFD0028E3D0DFE7A1
:1027500000640040D40100206C6500205C6500200E
:10276000006800400C66002070477047704700000A
:1027700070B5044690F82000012804D0606A40F447
:102780000020606218E0022084F8200020680168C0
:1027900021F00101016000F033FB05460EE000BFAF
:1027A00000F02EFB401B0A2808D9606A40F4003074
:1027B0006062052084F82000012070BD2068406818
:1027C000C007EDD1606270BD7047704770477047B9
:1027D0007047704770472DE9F0410446876D00F05F
:1027E0000FFB064694F835000025022806D080200D
:1027F000606584F834500120BDE8F08120680168EC
:1028000021F0160101602068416921F080014161D9
:10281000206C08B9A06C20B12068016821F0080183
:1028200001602068016821F0010101600CE000F006
:10283000E7FA801B052807D920206065032084F86B
:10284000350084F83450D7E720680068C007EED11F
:1028500094F85C103F208840B860012084F835006F
:1028600084F834500020C7E790F83510022903D0CF
:102870008021416501207047052180F835100068EE
:10288000016821F00101016000207047406D704730
:102890002DE9F84304464FF00009CDF80090634855
:1028A0004FF41651A56D0068B0FBF1F72E6894F84F
:1028B0005C10082000FA01F131420FD021680A684B
:1028C00052070BD50A6822F004020A6094F85C10E3
:1028D0008840A860606D40F00100606594F85C106D
:1028E0004FF0010808FA01F0304208D02168496928
:1028F000090604D5A860606D40F00200606594F898
:102900005C1004208840304208D02168096889079B
:1029100004D5A860606D40F00400606594F85C1018
:1029200010208840304218D021680968090714D562
:10293000A86020680168490304D50068000308D531
:10294000A16C07E00168C90503D4016821F0080102
:102950000160216C09B12046884794F85C10202062
:102960008840304231D021680968C9062DD5A86059
:1029700094F8350005282068016806D0490347D53A
:10298000006800031DD4616C1CE021F01601016099
:102990002068416921F080014161206C08B9A06C78
:1029A00020B12068016821F00801016094F85C10F2
:1029B0003F208840A86084F8358084F83490216DE9
:1029C0001FE0E16B09B120468847606D00282BD0DD
:1029D000606DC00714D0052084F8350020680168B8
:1029E00021F0010101600098401C0090B84203D81A
:1029F00020680068C007F6D184F8358084F83490E8
:102A0000E16C002910D001B02046BDE8F043084732
:102A10000168C905D5D4016821F01001016084F86E
:102A2000358084F83490CCE7BDE8F8833C00002082
:102A30002DE9F041044600F0E3F906465CB10220BE
:102A400084F83500002584F834502068016821F0AE
:102A5000010101600DE00120BDE8F08100F0D0F936
:102A6000801B052805D920206065032084F83500E7
:102A7000F2E720680068C007F0D12268116820489A
:102A80000140D4E901031843D4E903363343184322
:102A900063691843A3691843E3691843236A184319
:102AA0000843616A042903D1D4E90B13194308438D
:102AB000106020684069666A20F0070130460E43C6
:102AC000012704280CD1A06A0643E06A40B12046E1
:102AD000FFF7B6F820B14020606584F83570BAE79A
:102AE000206846612046FFF797F894F85C203F2164
:102AF00091408160656584F835700020ACE7000086
:102B00003F8010F02DE9F0410446866D90F83400C6
:102B1000002501280DD0012084F8340094F8357088
:102B20000020012F07D084F8340002252846BDE894
:102B3000F0810220FBE7022784F8357060652046AB
:102B4000FFF7A8F894F85C103F208840B060206838
:102B5000016841F016010160206C20B12068016815
:102B600041F0080101602068016841F00101016045
:102B7000DCE7000010B51B4C10281AD0202821D00B
:102B800008282AD0012813D108F002FF01280FD00D
:102B900004F10C01206908F05DFAE068002807D014
:102BA00011494FF080500860BFF34F8FBFF36F8F14
:102BB00010BD607840F001006070A07840F0010026
:102BC000A07003E0207840F00100207020790028F8
:102BD000EED0BDE8104007F07DB9E07840F001008C
:102BE000E07010BD0801002004ED00E0044910B5BC
:102BF0000A68024202D00860FFF7BCFF10BD000067
:102C0000143C01402DE9F84FDFF8BCA1002201255A
:102C100003264FF00F090AF1040BAAF1040E00BFBE
:102C20000B6805FA02F42340A34270D10F7907F034
:102C30000307012F01D0022F16D187684FEA4208FF
:102C400006FA08FC27EA0C07D1F80CC00CFA08FCBD
:102C50004CEA070CC0F808C04768A7430C79C4F3D6
:102C6000001494403C4344600C79E443A4070AD028
:102C7000C4684FEA420C06FA0CF7BC438F6807FAA7
:102C80000CF72743C7600C7904F00304022C12D11F
:102C9000D40800EB840CDCF820405707FF0E09FA3B
:102CA00007F824EA0804D1F8108008FA07F848EA7F
:102CB0000408CCF8208004684FEA420C06FA0CF7AE
:102CC000BC430F7907F0030707FA0CF727430760A7
:102CD0004C6814F4403F70D03C4C276847F4804760
:102CE0002760246822F0030704F480440094384CE1
:102CF00007EB040CDCF8084897074FEA177809FA45
:102D000008F7BC43334FB84202D1002724E054E017
:102D1000314FB84201D101271EE0304FB84201D1F6
:102D2000022719E02E4FB84201D1032714E02D4F9E
:102D3000B84201D104270FE02B4FB84201D105273B
:102D40000AE02A4FB84201D1062705E0284FB842D1
:102D500001D1072700E0082707FA08F72743CCF836
:102D60000878DAF800405746D1F804C09C435FEA7F
:102D7000CC2C00D51C433C60DBF800405F46D1F80A
:102D800004C09C435FEA8C2C00D51C433C60DEF8F9
:102D900000407746D1F804C09C435FEA8C3C00D5E4
:102DA0001C433C60084F083F3C68D1F804C09C437A
:102DB0005FEACC3C00D51C433C60521C102AFFF457
:102DC0002FAFBDE8F88F0000083C014044380240B6
:102DD00000300140000002400004024000080240B0
:102DE000000C024000100240001402400018024093
:102DF000001C02400AB1816170470904FBE7000032
:102E000001488068704700003000002070B5040061
:102E100025D094F83D00002520B984F83C50204688
:102E200000F052FA242084F83D002068016821F067
:102E3000010101602068016841F4004101602068DF
:102E4000016821F40041016000F006FC4D4A616810
:102E5000914201D84C4900E04C49884201D20120FE
:102E600070BD4B492368B0FBF1F15E6826F03F0668
:102E70000E435E606368934206D94FF496735943DC
:102E80004FF47A73B1FBF3F12368491C1E6A26F0F4
:102E90003F06314319626168914210D84900401ED3
:102EA000B0FBF1F2521CC2F30B02042A01D204203F
:102EB00022E0B0FBF1F0401CC0F30B001CE0A26864
:102EC000F2B301EBC10303EB0116431EB3FBF6F3B0
:102ED0005B1C43F480431B0549D092B301EBC10254
:102EE00002EB0111401EB0FBF1F0401CC0F30B00DF
:102EF00040F4804040F400402168CA694CF6FF73FA
:102F00009A431043C861D4E907100143206802685E
:102F100022F0C00211430160D4E90301014320689B
:102F2000826848F2FF339A4311438160D4E9050176
:102F300008432168CA6822F0FF021043C86001E01C
:102F40000EE016E02068016841F00101016025648F
:102F5000202084F83D00256384F83E50002070BD99
:102F600001EB4106431EB3FBF6F35B1CB3E7012004
:102F7000C2E701EB4101401EB0FBF1F0401CC0F381
:102F80000B00B7E7A086010080841E0000093D0009
:102F900040420F002DE9FF4F83B09A46DDE91187CB
:102FA00093460446DDF84090FFF72AFF054694F863
:102FB0003D00202870D11923012274492046009534
:102FC00001F0F4FD0028F5D194F83C00012863D00D
:102FD000012084F83C0020680168C90703D101681A
:102FE00041F0010101602068016821F40061016085
:102FF000222084F83D00402084F83E00002626640C
:10300000C4F82490A4F82A80608D20856048E0628E
:10301000CDE9007553465A462046049901F0C8FC94
:10302000002879D1208DD0B1012821D00228206834
:1030300024D0416980690090208D032866D801283A
:103040002BD0544902283B464FF00002009557D040
:103050008846204601F0AAFD00285DD13AE02068AC
:10306000416981690091016841F4007101607DE06E
:103070002068016821F480610160F0E7016821F4B3
:10308000806101602068016841F40061016020688E
:1030900041698069009069E075E02A46394620461A
:1030A00001F02AFE88BB54E02068016841F40071F9
:1030B000016020680069616A0870606A401C606293
:1030C000218D491E2185618D491E6185216809690F
:1030D000017042E02068016821F48061016020688D
:1030E0000069616A0870606A401C6062208D401E41
:1030F0002085608D401E60853B460022414600953C
:10310000204601F053FD00B9CEE705E02A463946D6
:10311000204601F0F1FD18B1012007B0BDE8F08FA5
:1031200020680069616A0870606A401C6062208DD6
:10313000401E81B22185608D401E608520684269F5
:10314000D243520712D4032903D1016821F48061CC
:10315000016020680069616A0870606A401C6062F2
:10316000208D401E2085608D401E6085208D0028AA
:103170007FF462AF202084F83D0084F83E6084F83C
:103180003C600020C9E70220C7E7000002001000F1
:103190000000FFFF040001002DE9FF4F83B09A46B5
:1031A000DDE9119793460446DDF84080FFF728FEDD
:1031B000054694F83D0020287FD11923012240497B
:1031C0002046009501F0F2FC002876D194F83C00EE
:1031D000012872D0012084F83C0020680168C907EA
:1031E00003D1016841F0010101602068016821F408
:1031F00000610160212084F83D00402084F83E00F9
:1032000000262664C4F82480A4F82A90608D2085C6
:103210002C48E062CDE9007553465A462046049991
:1032200001F044FC70B930E02A463946204601F0EE
:103230009BFD58B1206C042804D12068016841F43A
:1032400000710160012007B0BDE8F08F606A21685D
:1032500000780861606A401C6062218D491E89B255
:103260002185628D521E628522685369DB435B07AC
:103270000BD469B100781061606A401C6062208DD7
:10328000401E2085608D401E6085208D0028CBD19A
:103290002A463946204601F05DFC0028CAD154F880
:1032A0003D0B016841F400710160202004F81E0903
:1032B000E67766770020C6E7FFE70220C3E7000055
:1032C000020010000000FFFFF0B587B00446142193
:1032D0006846FDF780F91A49206888422DD11948BF
:1032E000016841F004010160016801F004010591E9
:1032F000016841F0010101600068122400F0010042
:1033000005904FF400700125032604278DE8F10095
:1033100069460D48FFF776FC28028DE8F100694602
:103320000A48FFF76FFC07481030016841F40001BC
:103330000160006800F40000059007B0F0BD0000D7
:10334000005C0040303802400008024000000240AB
:103350000248816802781144816070473000002083
:103360000B4810B5016841F400710160016841F437
:1033700080610160016841F480710160032000F008
:103380009FF80F2000F006F800F050F8002010BD64
:10339000003C024030B50546204887B00024016853
:1033A00041F001010160006806A900F001000090F1
:1033B00001A800F031F90498B0B100F04DF94000D7
:1033C00017494FF08042B0FBF1F11648491E0260E8
:1033D00040F2E732C0E90324C0E90114846100F03F
:1033E00063FD040003D015E000F036F9E8E70D486E
:1033F00000F0D8FD04000DD11C2000F033F8102D92
:1034000007D2002229461C2000F03AF80648056041
:1034100000E0012407B0204630BD000040380240E3
:1034200040420F009C190020340000200C4882B05C
:10343000016841F480410160006800F48040009020
:103440000748001F016841F08051016000680022B8
:1034500000F0805000900F21901E02B000F010B8D4
:1034600044380240002809DB00F01F02012191408E
:103470004009800000F1E020C0F800117047000012
:10348000F0B40E4B1B680C46C3F30223C3F10705CF
:10349000042D00D90425191D072901D2002300E0BD
:1034A000DB1E012606FA05F1491E214099409E4087
:1034B000761E16403143F0BC04F0BABC0CED00E0BF
:1034C000064900F0070208684FF6FF03184040EA7B
:1034D0000220034A10430860704700000CED00E032
:1034E0000000FA052DE9F0470E46050065D0DFF82B
:1034F0001481D8F80000F7B200F00700B04207D2FC
:1035000088F80070D8F8000000F00700B04254D1ED
:1035100028683D4C810712D5400703D5206840F448
:10352000E05020602878000703D5206840F4604010
:1035300020602068A96820F0F00008432060287807
:10354000C0072DD0304968680839012812D00228F8
:1035500013D0032811D00968890700292DDA2168C2
:1035600021F0030101432160FFF74AFC814641F24B
:10357000883A0EE009688903EFE709688901ECE7FA
:10358000FFF73EFCA0EB0901514502D90320BDE83D
:10359000F0872068696800F00C00B0EB810FEFD174
:1035A000D8F80010404601F00701B14207D9077072
:1035B000006800F00700B04201D00120E7E728785A
:1035C000400705D52068E96820F4E05008432060F2
:1035D0002878000706D52068296920F4604040EA71
:1035E000C100206000F058F82168084AC1F30311B7
:1035F000515CC8400649086006480068FFF7CAFEEB
:103600000020C4E7003C024008380240E0CB00083C
:103610003C000020340000200F2202600C4A136896
:1036200003F003034360136803F0F003836013683F
:1036300003F4E053C36012684FF4E05303EAD2028C
:1036400002610448006800F007000860704700004D
:1036500008380240003C02400448054900680968F7
:10366000044AC1F38221515CC84070473C000020ED
:1036700008380240F0CB0008044805490068096892
:10368000044AC1F34231515CC84070473C000020FD
:1036900008380240F0CB0008154810B5006810F05B
:1036A0000C02144813D01449042A0FD0082A0ED152
:1036B0000F4C241F2268236802F03F025B0207D5EB
:1036C0002068C0F38810A0FB010106E0084610BD89
:1036D0002168C1F38811A1FB00010023FCF744FE1F
:1036E0002168C1F30141491C4900B0FBF1F010BD54
:1036F000083802400024F40040787D012DE9F84F9D
:1037000004006ED02078DFF84C93C007A9F10405BF
:103710004AD009F104000168C1F38101012908D0F0
:103720000068C0F3810002280AD1D9F800004002E5
:1037300006D52868800337D560680028E1D033E0DB
:103740006068B0F5803F10D0B0F5A02F286810D089
:1037500020F480302860286820F480202860606889
:10376000A8B1FFF74DFB06460DE0286840F4803015
:10377000F4E740F480202860F7E700BFFFF740FB44
:10378000801B642873D828688003F7D50CE0FFF706
:1037900037FB064605E000BFFFF732FB801B6428BD
:1037A000F0D828688003F7D42078DFF8AC8280074F
:1037B0004FF0000A3ED5A748001D016811F00C0F1C
:1037C00008D00068C0F3810002280BD1D9F80000AE
:1037D000400207D42868800716D5E068012800D188
:1037E00012E033E1E068B8B10120C8F80000FFF74B
:1037F00007FB064605E000BFFFF702FB801B02281F
:10380000C0D828688007F7D52868216920F0F8001B
:1038100040EAC10028600DE0C8F800A0FFF7F0FA08
:10382000064604E0FFF7ECFA801B02281FD8286840
:103830008007F7D42078000722D5864F8748616932
:10384000703771B101210160FFF7DAFA064604E032
:10385000FFF7D6FA801B022809D838688007F7D509
:103860000EE0C0F800A0FFF7CBFA064605E082E0C4
:10387000FFF7C6FA801B02287DD838688007F7D486
:103880002078400768D5DFF8CCB100270BF13C0B5E
:10389000DBF80000C0000BD4DBF8001041F08051D1
:1038A000CBF80010DBF80000012700F080500090FA
:1038B0006B4E3068C00510D4306840F480703060C2
:1038C000FFF79EFA009005E0FFF79AFA0099401A78
:1038D000022850D83068C005F6D55E4EA0686C3618
:1038E00001280FD00528306810D020F0010030608A
:1038F000306820F004003060A068B8B1FFF780FAAB
:1039000000900FE0306840F00100F4E740F0040060
:103910003060F7E7FFF774FA0099411A41F28830F6
:10392000814266D830688007F4D50EE0FFF768FA68
:10393000009007E0FFF764FA0099411A41F28830DD
:10394000814256D830688007F4D42FB1DBF80010DC
:1039500021F08051CBF80010A069C8B33D49091D82
:103960000968C1F3810102294AD00228504607D0D4
:10397000C8F8600000E03CE0FFF742FA04463BE094
:103980004746C8F86000FFF73BFA064605E000BF6F
:10399000FFF736FA801B02282BD828688001F7D45D
:1039A000D4E907010843A16A2E4A490802EB014104
:1039B000626A41EA8211084394F82C1040EA0161DE
:1039C000C9F8001001203866FFF71AFA044606E02D
:1039D0003EE000BFFFF714FA001B022809D8286850
:1039E0008001F7D534E000BFFFF70AFA001B022878
:1039F00002D90320BDE8F88F28688001F4D427E0BD
:103A00000128F7D0D9F80000E26900F48001914262
:103A10001CD1226A00F03F01914217D147F6C071D4
:103A2000626A0140B1EB821F10D1A26A4FF0FF33EE
:103A300000F4403103EB5202B1EB024F06D194F88F
:103A40002C1000F07060B0EB016F01D00120D1E7C5
:103A50000020CFE70438024000004742800E474272
:103A6000007000400000FFFF70B5040009D0606ADC
:103A7000002540B125616561A56294F8510040B10F
:103A80000CE0012070BD6068B0F5827FF4D0E56184
:103A9000F2E784F85050204600F044F8022084F801
:103AA00051002068016821F040010160A08821894F
:103AB00000F4827001F404410843A18901F400611B
:103AC0000843217C01F002010843217D01F001013E
:103AD0000843218B01F400710843217F01F0380174
:103AE000084394F8201001F080010843218D01F46F
:103AF0000051084321680860A069042101EA1040D0
:103B000094F8241001F010010843216848602068EF
:103B1000C16921F40061C1616565012084F851002B
:103B2000002070BD2DE9F04186B00646142168469C
:103B3000FCF751FD35493068884264D1344800248F
:103B4000016841F480510160006800F480500590E4
:103B50002F481438016841F002010160016801F04A
:103B600002010591016841F0010101600068022530
:103B700000F0010005901820CDE9000502AA0327F6
:103B80004FF0050882E8900169462248FFF73AF8AD
:103B90008020CDE9000502AA694682E890011E480E
:103BA000FFF730F81E4D1D487F062860C5E90174F7
:103BB0004FF48068C5E903486C617812AC61C5E9CF
:103BC000074028466C62FEF733FF08B1FEF777F92D
:103BD000F564AE63124D114860351830E5E8020710
:103BE0004020A5E81101C00245F81449AC61C5E9BF
:103BF00007400B486C626030FEF71AFF08B1FEF711
:103C00005EF9B564AE6306B0BDE8F08100300140F6
:103C10004438024000040240000002404064024078
:103C2000EC1700202DE9FF4F81B01D469346044656
:103C30004FF001090E9EFFF7E3F8074694F8510094
:103C40006168012806D0B1F5827F3CD1A168C9BB6B
:103C5000042838D10298002871D0BBF1000FFBD0A6
:103C6000002DF9D094F8500001282CD04FF0010A13
:103C700084F850A094F85100042802D0052084F85C
:103C800051004FF00008C4F85480C4F838B0E587FC
:103C9000A58702992163E586A586C4F84080C4F80B
:103CA000448020680168490603D4016841F040015E
:103CB0000160E068B0F5006F606808D0F0B3012DD6
:103CC00049D081E0FFE7022005B0BDE8F08F08B1E0
:103CD000012D39D1206B21680088C860206B801CC1
:103CE0002063E08E401EE0862EE020688168890710
:103CF0000FD5E18E69B1B9F1010F0AD1216B0988A5
:103D0000C160206B801C2063E08E401EE0864FF077
:103D1000000920688168C9070CD0E18F51B1C068E3
:103D2000A16B0880A06B801CA063E08F401EE08721
:103D30004FF00109FFF764F8C01B01E00BE067E0FA
:103D4000B04201D3701C50D1E08E0028CDD1E08F5D
:103D50000028CAD13EE0206B216800780873206BF0
:103D6000401C2063E08E401EE0862DE020688168C4
:103D700089070FD5E18E69B1B9F1010F0AD1216B25
:103D800009780173206B401C2063E08E401EE086A2
:103D90004FF0000920688168C9070CD0E18F51B14C
:103DA000C068A16B0870A06B401CA063E08F401E30
:103DB000E0874FF00109FFF723F8C01BB04202D3A0
:103DC000701C01D011E086B1E08E0028CED1E08FCA
:103DD0000028CBD13A463146204603F00FFA50B1C5
:103DE0002020606584F8508012E084F851A084F8A7
:103DF0005080032068E7A06818B92068C16880680F
:103E0000009084F851A084F85080606D0028F1D0B3
:103E1000012059E77047704770B590F83C20012A9F
:103E200032D0012480F83C40022280F83D20036813
:103E30005A689D6822F070060A6832435A60134B34
:103E400002689A4214D0B2F1804F11D0104B9A42BE
:103E50000ED0104B9A420BD00F4B9A4208D00F4B0A
:103E60009A4205D00E4B9A4202D00E4B9A4204D190
:103E7000496825F080031943916080F83D40002196
:103E800080F83C10084670BD022070BD0000014063
:103E90000004004000080040000C00400004014005
:103EA000004001400018004010B5040003D094F811
:103EB0003D0010B107E0012010BD002084F83C0057
:103EC000204600F01FF8022084F83D00211D2068E4
:103ED00003F0ECFB012084F8460084F83E0084F8EF
:103EE0003F0084F8400084F8410084F8420084F8E0
:103EF000430084F8440084F8450084F83D00002025
:103F000010BD000008B500680649884208D106487F
:103F1000016841F400310160006800F40030009055
:103F200008BD0000004401404438024090F83D10B4
:103F3000012901D001207047022180F83D1000685E
:103F40001149884214D0B0F1804F11D00F498842F6
:103F50000ED00F4988420BD00E49884208D00E4936
:103F6000884205D00D49884202D00D49884204D1CB
:103F7000816801F00701062903D0016841F00101C1
:103F80000160002070470000000001400004004074
:103F900000080040000C00400004014000400140C7
:103FA0000018004090F83D10012901D00120704711
:103FB000022180F83D100168CA6842F00102CA601F
:103FC00000681149884214D0B0F1804F11D00F49D8
:103FD00088420ED00E4988420BD00E49884208D044
:103FE0000D49884205D00D49884202D00C498842CB
:103FF00004D1816801F00701062903D0016841F06E
:1040000001010160002070470000014000040040F1
:1040100000080040000C0040000401400040014046
:104020000018004070B5044690F83C0000250128B7
:1040300017D0012684F83C60022084F83D002068F7
:10404000826822F0770222F47F428260086850285A
:1040500038D00DDC20284FD005DC90B3102811D1CA
:104060004AE0022070BD302846D040280AD13BE00B
:1040700060282FD070280DD0B0F5805F03D0B0F548
:10408000005F12D0012584F83D60002084F83C00D8
:10409000284670BDCB68D1E90121206803F07BFB85
:1040A0002068816841F0770109E0CB68D1E90121FE
:1040B000206803F070FB2068816841F480418160D2
:1040C000E1E719E0CA684968206803F06DFC5021F7
:1040D000206806E0CA684968206803F076FC602121
:1040E000206803F062FBCEE7CA684968206803F0E5
:1040F0005BFC40212068F4E7226801461046F0E7A7
:1041000070472DE9F04104460068C66805694FF024
:104110000007A90713D5B10711D5F91E01610120C8
:104120002077206880698007204602D0FFF7E8FFEB
:1041300004E000F0A9F8204600F03BF92777680773
:1041400016D5700714D521686FF0040008610220AD
:1041500020772068806910F4407F204602D0FFF766
:10416000CFFF04E000F090F8204600F022F9277716
:10417000280715D5300713D521686FF008000861AE
:10418000042020772068C0698007204602D0FFF70E
:10419000B7FF04E000F078F8204600F00AF927772E
:1041A000E80616D5F00614D521686FF010000861F6
:1041B000082020772068C06910F4407F204602D094
:1041C000FFF79EFF04E000F05FF8204600F0F1F8F2
:1041D0002777E80708D0F00706D021686FF00100C4
:1041E0000861204600F04AF9280608D5300606D5B1
:1041F00021686FF0800008612046FFF70BFE68061B
:1042000008D5700606D521686FF040000861204689
:1042100000F03BF9A8060AD5B00608D521686FF072
:10422000200008612046BDE8F041FFF7F4BDBDE87D
:10423000F081000010B586B0044614216846FCF7F2
:10424000CAF90E492068884215D10D48002102683C
:1042500042F020020260006800F02000059040203B
:1042600000900220CDE901010320CDE90310694649
:104270000448FEF7C7FC06B010BD00000044014032
:104280003038024000140240704770B5044690F880
:104290003C0000260D4601280FD0012084F83C0088
:1042A0006AB1042A1DD0082A2FD00C2A3FD001263B
:1042B000002084F83C00304670BD022070BD2068AC
:1042C00003F0B0FA2068816941F00801816120683B
:1042D000816921F004018161206881692A691143A3
:1042E00011E0206803F0CEFA2068816941F4006192
:1042F00081612068816921F4806181612068816920
:104300002A6941EA02218161D2E7206803F0F0FACC
:104310002068C16941F00801C1612068C16921F0CC
:104320000401C1612068C1692A69114311E0206854
:1043300003F012FB2068C16941F40061C16120688B
:10434000C16921F48061C1612068C1692A6941EABB
:104350000221C161ACE710B5040003D094F83D0020
:1043600010B107E0012010BD002084F83C00204679
:1043700000F01EF8022084F83D00211D206803F0A3
:1043800095F9012084F8460084F83E0084F83F0047
:1043900084F8400084F8410084F8420084F8430027
:1043A00084F8440084F8450084F83D00002010BDE6
:1043B0007047704710B50446022249B104290ED057
:1043C000082913D094F84100012816D0012010BD0F
:1043D00094F83E000128F9D184F83E200FE094F8CB
:1043E0003F000128F2D184F83F2008E094F8400013
:1043F0000128EBD184F8402001E084F8412001221B
:10440000206803F0BBF916492068164A884201D09B
:10441000904203D1436C43F40043436420688842D4
:1044200013D0B0F1804F10D00F4988420DD00F4902
:1044300088420AD00E49884207D0904205D00D49E3
:10444000884202D00C49884204D1816801F00701FA
:10445000062903D0016841F001010160002010BD70
:10446000000001400004014000040040000800403A
:10447000000C004000400140001800400068B0F10E
:10448000804F01D1FEF764BF70477047704770B529
:10449000044620680C3050E8001F21F4907140E879
:1044A0000012002AF5D12068143050E8001F21F0D6
:1044B000010140E80012002AF5D1206B012809D142
:1044C00020680C3050E8001F21F0100140E8001275
:1044D000002AF5D1206840694FF00005400615D547
:1044E0002068143050E8001F21F0400140E800121D
:1044F000002AF5D1E06B48B10565E06BFEF76BF97A
:1045000020B1E06BFEF7C2F9202806D0E585202017
:1045100084F842002563002070BD102060640320F1
:1045200070BD7047F8B5016804460868CA684B69F1
:1045300010F00F0F4FF0000559D003F0010602F400
:104540009077374365D0C10705D0D10503D5616C9D
:1045500041F001016164410705D5D90703D0616CC1
:1045600041F002016164810705D5D90703D0616C70
:1045700041F004016164010707D502F020013143D5
:1045800003D0616C41F008016164616C00293AD08C
:10459000800604D5900602D5204603F0DBFA206899
:1045A0004069616CC0F38010090700D460B32046F5
:1045B00003F09BFA20684069400621D5206814303A
:1045C00050E8001F21F0400140E80012002AF5D118
:1045D000E06BA8B172490165E06BFEF745F9002870
:1045E00011D0E06B016D01B0BDE8F04008478306D3
:1045F0000FD593060DD52046BDE8F84003F0AABAC2
:104600002046FFF78EFFF8BD2046FFF78AFF65645E
:10461000F8BD266B2023012E7ED1C6067CD5D6069A
:104620007AD508684868009048694FF0020640064D
:104630004DD5E26B106840684FF480770004000CA1
:104640003AD0A18D814237D9E085D069B8422DD0CA
:1046500020680C3050E8001F21F4807140E80012FF
:10466000002AF5D12068143050E8001F21F0010124
:1046700040E80012002AF5D12068143050E8001FED
:1046800021F0400140E80012002AF5D184F84230C0
:10469000256320680C3050E8001F21F0100140E82D
:1046A0000012002AF5D1E06BFEF795F86663A08D45
:1046B000E18D401A81B206E0A18D8142A8D1D06976
:1046C000B842A5D166632046FFF7E0FEF8BDA08D95
:1046D000E18D401A81B2E08D0028F7D00029F5D095
:1046E00020680C3050E8002F22F4907240E8002738
:1046F000002FF5D12068143050E8002F22F001027D
:1047000040E80027002FF5D184F842302563206867
:104710000C3050E8002F00E006E022F0100240E8E4
:104720000023002BF3D1CDE705062BD5150629D59F
:1047300094F841002128C9D1A068B0F5805F01D16B
:104740002069B0B1206A411C21622168007848606C
:10475000E08C401E0004000CE084B7D12068C168E2
:1047600021F08001C1602068C16841F04001C16052
:10477000F8BD206A0088C0F308004860206A801CE9
:104780002062E5E74006F3D55006F1D5CA68204619
:1047900022F04002CA6084F8413000F09FF8F8BD72
:1047A000EF79000870B5040004D094F841000025AA
:1047B00010B106E0012070BD84F84050204600F0A2
:1047C00023F8242084F841002068C16821F40051B6
:1047D000C160204603F020FA2068016921F490416D
:1047E00001612068416921F02A0141612068C168A6
:1047F00041F40051C1606564202084F8410084F8D0
:1048000042006563002070BD70B586B00646142175
:104810006846FBF7E0FE24493068884242D12348CD
:104820000025016841F480210160006800F48020C7
:1048300005901E481038016841F0040101600068CD
:10484000694600F0040005904FF44060009002209B
:10485000CDE9010503200390072004901448FEF7DA
:10486000D1F9154C134820604FF00060C4E90105F0
:104870004014C4E9035080106561C4E90650000289
:10488000C4E908052046FEF7D3F808B1FDF717FB89
:10489000F46300220F212720A663FEF7F1FD2720F5
:1048A000FEF7E0FD06B070BD004800404038024011
:1048B00000080240286002403C19002090F8423075
:1048C000202B01D00220704721B11AB100230363CD
:1048D00003F028BA01207047704770477047000006
:1048E0002DE9F04105F008FA0446C088234DA0F5F3
:1048F00078704FF4E0662880A0884FF47877A0F5B0
:104900007870688020883346A0F57870A880608829
:104910003A46A0F57870E8806089C02102F00EFE6A
:104920002881A08933463A46C02102F007FE6881FB
:10493000208933463A46C02102F000FEA881E08972
:1049400033463A46C021A41D02F0F8FDE881608993
:104950002882A0896882A07E2875E07E6875607FC5
:10496000E875207FA875E07F28764FF4487068834B
:104970004FF6E040A883BDE8F0810000AC6600205F
:10498000FEE701684A69D24352050FD46FF4806292
:104990004A61002140F8301F20224273817302696E
:1049A00042F0040202610173012070470020704749
:1049B0002DE9F84F0446006889460B9D016898462A
:1049C000174641F4806101602068016841F48071FC
:1049D000016000954FF0011B0022594620460A9BBA
:1049E00000F0E4F84FF4007A40B120680068C00598
:1049F00001D5C4F840A00320BDE8F88F216809F074
:104A0000FE0008612B46284920460A9A00F016F954
:104A1000F0BB20684169806900902A4620460A99C7
:104A200000F0A2F940B1206C04283AD12068016856
:104A300041F40071016034E0FEB2B8F1010F09D019
:104A40002168380A08612A4620460A9900F08CF944
:104A50000028E8D1206806612A4620460A9900F01D
:104A600083F90028DFD12068016841F4807101607A
:104A700000950022594620460A9B00F097F800282E
:104A8000B3D1216809F0FF0040F00100086100E0A7
:104A900007E02B46044920460A9A00F0CFF8002888
:104AA000AAD00120A8E70000020001002DE9F84388
:104AB000044600680D46DDE90897016898461646E9
:104AC00041F4807101604B4600224FF001112046F5
:104AD000009700F06BF848B120680068C00502D567
:104AE0004FF4007020640320BDE8F883216805F0CE
:104AF000FE0008613B464A461549204600F09EF8F4
:104B000088B920684169806900903A464946204644
:104B100000F02AF948B1206C042804D1206801680B
:104B200041F4007101600120DEE7F5B2B8F1010F38
:104B300009D02168300A08613A464946204600F00B
:104B400013F90028E7D1206805610020CCE70000B8
:104B50000200010070B516460D4604461EE02046D0
:104B6000FFF70FFF08B1012070BD681C16D0FEF7DB
:104B700047F9801BA84200D885B920684069C04326
:104B800040070BD5002044F8300F20216173A0733B
:104B9000216941F0200121612073E4E72068406928
:104BA000C0434007DBD4002070BD00002DE9F04772
:104BB000984617460D460446C1F30746DDF8209097
:104BC0002AE000BFB8F1FF3F26D0FEF719F9A0EBAD
:104BD0000901414502D8B8F1000F1DD12068012E0E
:104BE00016D0806925EA00000004000C12D00020D5
:104BF000B84211D1002044F8300F20216173A07316
:104C0000216941F02001216120730120BDE8F08776
:104C10004069E7E70120EBE72068012E0AD08069B0
:104C200025EA00000004000C06D00020B842C9D0DC
:104C30000020EBE74069F3E70120F7E72DE9F047B3
:104C4000984616460D4604464FF000094FF0200ADC
:104C5000C1F3074723E020684069C043400515D4ED
:104C60002068016841F40071016021686FF4806080
:104C70004861C4F8309084F83DA084F83E90216CDF
:104C800041F00401216484F83C9021E0701C06D0BE
:104C9000FEF7B6F8A0EB0800B04203D816B1012F1A
:104CA0001FD021E02068012F15D0806925EA00007F
:104CB0000004000C18D000BF44F8309F84F80DA009
:104CC00084F80E90216941F02001216184F80C9054
:104CD0000120BDE8F087406925EA00000004000CCF
:104CE000EAD12068406901E02068806925EA000077
:104CF0000004000CAFD1ECE72DE9F041002590460F
:104D00000E460446202728E04069C043C0060CD464
:104D100054F8301B6FF01000486144F81059677761
:104D2000A577206A2062257714E0FEF769F8A0EBEA
:104D30000800B04200D886B920684069C0434006E8
:104D40000BD544F8305F6773A573206940F02000ED
:104D5000206125730120BDE8F08120684169C943C5
:104D60004906D1D40020F6E770B516460D46044634
:104D70001EE02046FFF705FE08B1012070BD681C4B
:104D800016D0FEF73DF8801BA84200D885B92068F0
:104D90004069C04300060BD5002044F8300F2021A5
:104DA0006173A073216941F0200121612073E4E760
:104DB00020684069C0430006DBD4002070BD0000BD
:104DC000004870477C6400200EB5072000E0642096
:104DD00005F0DBF9FBF742FF0028F8D102E0642080
:104DE00005F0D3F905F072F90028F8D1804A101DBA
:104DF000CDE90102A2F1100808F10401FBF746FF1A
:104E00004346A3F1340208F1480AA2F10C01A1F1D2
:104E10000C00CDF800A004F0E7FFDFED760A9FED6F
:104E2000760A764A002108F1640000F049FEA8F1F4
:104E30003402A2F10C0101F11800FBF771FCA8F19A
:104E40004007A7F1180597ED000AA5F10C0685EDBE
:104E5000000AA5F1180986ED000A89ED000A97ED10
:104E6000010A002085ED010A86ED010A89ED010A9B
:104E700097ED020A85ED020A86ED020A89ED020A23
:104E800005F004FA06F040FD5D4C5E4920611020FB
:104E9000C8610846FEF7E8FD08B1FDF710F858496B
:104EA00008222831A1F1080002F030F90120207118
:104EB0004FF0FF3B5946012005F0ECFE0128F9D1E7
:104EC0002078400708D5207820F0040020704C4856
:104ED00001992930FBF792FE607840070BD5607886
:104EE00020F004006070424A08F104011032A2F17F
:104EF0002A00FBF73DFEA07840070CD5A07820F0F3
:104F00000400A0703E4802991630FBF799FF98ED17
:104F1000040A05F063F8364BCDF800A0103BA3F16E
:104F20003402A2F10C01A1F10C0004F05DFFD6EDFA
:104F3000000A9FED350AC9ED000A95ED001A2C4BC9
:104F400086ED001A61EE001A9FED301A97ED002AE7
:104F5000443B40EE811ADFED2E0AA3F1240202F158
:104F60000C0101F1240042EE201AC5ED001A96ED65
:104F7000012A89ED012AD5ED011AC6ED011A61EE6B
:104F8000801A42EE011A97ED012A42EE201AC5ED71
:104F9000011A96ED022A89ED022AD5ED021AC6ED14
:104FA000021A21EE800A02EE010A97ED021A01EEC2
:104FB000200A85ED020A9FED170AFBF719FD0C4B3D
:104FC000203B1A1F111FA1F1100004F099FEE07898
:104FD00010F00100E07007D0E07820F00100E070F0
:104FE000E07840F00200E070FCF76CFF62E7000040
:104FF000A46400200080894500A08C450CCC0008EA
:1050000008010020941700205AF8F63F5D896EBF12
:10501000D5A9183B6F12833A030A0B7010707047C2
:1050200010B58EB000240794089409940A940B9448
:105030001C2168460C94FBF7CEFA1748154901600D
:10504000A721C0E901144FF6FF71C0E90314846180
:1050500002F0FCFA4FF48050079007A90E48FEF7C3
:10506000E1FF0D48FFF777F90B940BA90A480C9460
:10507000FEF7D2FE6020CDE90004029408226946C2
:1050800005480494FFF701F9034802F097FB0EB0BE
:1050900010BD000000080040CC6600200F4810B58D
:1050A0000D4901600321416000214FF420228160FD
:1050B000C0E903124FF48012426101764176817695
:1050C000C17601774177FDF7D8F9002803D0BDE814
:1050D0001040FCF7F4BE10BD00640040F016002044
:1050E0000F4810B50D4901600321416000214FF4C4
:1050F00020228160C0E903124FF4801242610176E0
:1051000041768176C17601774177FDF7B6F90028BF
:1051100003D0BDE81040FCF7D2BE10BD00680040CF
:1051200018170020154808B5016841F48001016096
:10513000016801F480010091016841F400110160EF
:105140000068002200F4001000900F210C20FEF7F0
:1051500097F90C20FEF786F9002205213A20FEF788
:105160008FF93A20FEF77EF9002205213B20FEF759
:1051700087F9BDE808403B20FEF774B9303802409B
:1051800010B5264A0021264805F03AF8254C234A56
:10519000002120602432244805F032F81F4A606064
:1051A00048320021214805F02BF81C4AA0606C32DF
:1051B00000211F4805F024F8184AE06090320021D1
:1051C0001C4805F01DF8154A2061B43200211A4828
:1051D00005F016F8114A6061D8320021174805F031
:1051E0000FF80E4AA061FC320021154805F008F8BE
:1051F000E061144A0021144805F002F8114A2062C7
:1052000024320021114804F0FBFF0E4A606248324C
:1052100000210F4804F0F4FFA06210BD4CCA000842
:105220003575000800000020C94D000825980008C9
:10523000C11C0008B50F00082D1F000825730008C9
:10524000810F00086CCB0008695B00081D5B00083B
:105250002D1900082DE9F04387B014216846FBF7AB
:10526000BAF960480025016841F002010160016857
:1052700001F002010591016841F00101016001683E
:1052800001F001010591016841F008010160016828
:1052900001F008010591016841F004010160016815
:1052A00001F004010591016841F0400101600168CD
:1052B00001F040010591016841F0200101600168A1
:1052C00001F020010591016841F080010160006852
:1052D000DFF8148100F08000059001224021404653
:1052E000FDF788FD414F00224FF4E0513846FDF7AD
:1052F00081FD3F4E012210213046FDF77BFDDFF896
:10530000F490012211464846FDF774FD0124402027
:10531000CDE900040294694640460394FDF772FC0F
:105320004FF4C0508DE83100694638460395FDF7CB
:1053300069FC082000904FF48810CDE9010469460B
:105340004046FDF75FFCA002CDE9000469463846FF
:10535000CDE90245FDF756FC1020CDE900040225F9
:1053600069463046CDE90245FDF74CFC30204FF44C
:105370000416CDE90006694602941F48FDF742FC79
:10538000CDE90046694640460294FDF73BFC009497
:10539000694648460194CDE90245FDF733FC0022F9
:1053A00005210620FEF76CF80620FEF75BF80022C8
:1053B00005210920FEF764F80920FEF753F80022C2
:1053C00005210A20FEF75CF80A20FEF74BF80022C0
:1053D00005211720FEF754F81720FEF743F807B011
:1053E000BDE8F0833038024000180240001C024043
:1053F0000000024000040240000802400D4810B5C1
:105400000B4901600C49416000214FF480428160EA
:10541000C0E9031241618161C1610162FDF7F6FCDF
:10542000002803D0BDE81040FCF749BD10BD0000C6
:10543000005C004040170020801A0600104810B59C
:105440000E4901604FF482714160002102228160A7
:10545000C0E9031201224261520282613822C0E98E
:105460000721416281620A21C162FEF7FDFA00282C
:1054700003D0BDE81040FCF722BD10BD0030014054
:105480009417002010B588B01C216846FBF7A3F8DC
:10549000144813490024C0E9001441F28731C0E9DF
:1054A000024104618461FEF7FFFC08B1FCF707FDCF
:1054B0000C48FEF750FF08B1FCF701FD6020CDE974
:1054C000000402940022694606480494FEF7DDFEBB
:1054D00008B1FCF7F4FC0348FEF7ACFE08B010BDC1
:1054E00000440140AC1800200E4810B50C49016082
:1054F0000D4941604FF4805181604900C160C9107D
:1055000001610C21416100218161C161FFF74AF90C
:10551000002803D0BDE81040FCF7D1BC10BD00004E
:1055200000480040F4180020A0860100FEE70000BB
:10553000002804D000680649884201D10548704718
:105540000549884202D10348A030704700207047C7
:10555000006400406C6500200068004010B510EE4B
:10556000100A07F07DF99FED081B53EC112B06F094
:10557000A5FE9FED071B53EC112B06F0B1FC06F0C6
:10558000C9FB00EE100A10BD182D4454FB21094040
:105590000000000000806640F4EE410AF1EE10FACF
:1055A00006D131EE820AF6EE000A20EE200A70479C
:1055B00030EE600A31EE601AC0EE010A32EE611A76
:1055C000B0EE610A00EE810A704700002DE9F0415B
:1055D0002A4C2DED048BB0EE408AF0EE608AE7682D
:1055E00006F01CFE0E46054657B10020E06046EC72
:1055F000105B84ED048B53EC102B51EC180B32E054
:1056000094ED040B51EC180B53EC102B07F03EF803
:105610009FED1B0B41EC190B53EC102B06F0F4FF24
:1056200002D2A068401E0AE09FED170B51EC190B47
:1056300053EC102B06F006FE02D2A068401CA060BE
:1056400084ED048BA06806F0D2FD9FED111B53EC96
:10565000112B06F033FE53EC182B06F08DFB46ECB5
:10566000115B53EC112B06F03BFCBDEC048B41ECC1
:10567000100BBDE8F04100F03FB80000B801002079
:10568000000000000080664000000000008066C04E
:10569000000000000080764010B52DED048B9FEDDA
:1056A000129BB0EE491AF0EE691A02F0F5FDB0EE69
:1056B000408AF0EE608A9FED0E0B51EC180B53EC14
:1056C000102B06F0BFFD0AD253EC192B51EC180B2E
:1056D00006F052FB41EC100BBDEC048B10BDB0EE9C
:1056E000480AF0EE680AF7E7000000000080764004
:1056F000000000000000000010B52DED048B9FEDB0
:105700001A9BB0EE491AF0EE691A02F0C5FDB0EE30
:10571000408AF0EE608A9FED160B51EC180B53ECAB
:10572000102B06F071FF07D253EC192B51EC180B1C
:1057300006F0ACFF41EC180B9FED0F0B51EC180B72
:1057400053EC102B06F07EFD07D853EC192B51ECCF
:10575000180B06F011FB41EC180BB0EE480AF0EE06
:10576000680ABDEC048B10BD00000000008076408C
:10577000000000000080664000000000008066C05D
:10578000FEE7000090ED061AF0EE401A90ED000AD8
:1057900031EEC11AD0ED020A20EE210A90ED073A4F
:1057A00060EE812A90ED011AF0EE400A90ED092A90
:1057B00041EE030A70EEA20AB4EEE02AF1EE10FA0E
:1057C00004D8F5EEC01AF1EE10FA0FDCD0ED083A6D
:1057D000F4EEE03AF1EE10FA04DBF5EEC01AF1EE69
:1057E00010FA03D373EE210AC0ED070AD0ED070AC1
:1057F00090ED0B3A194961EE200AB4EEE03AF1EE71
:1058000010FA06D390ED0A3AB4EEE03AF1EE10FA4F
:1058100009DD11EE102AF0EE430A8A4203DD80EE24
:10582000813A80ED073A30EE200A30EE220AB4EEDB
:10583000C02AF1EE10FA02D2B0EE420A08E0D0ED32
:10584000080AF4EEC00AF1EE10FA01DDB0EE600ACB
:10585000C0ED061A80ED0C0A70470000BD37863592
:1058600080ED040A30EEC00AC0ED030A80ED050A9F
:10587000FFF788BF10B504462DED048BB0EE609A9B
:10588000DFED1E8AF0EE680A02F088FDB0EE408A75
:10589000B5EEC08AF1EE10FA01D238EE288AF0EEA9
:1058A000680AB0EE490A02F079FDB5EEC00AF1EEE1
:1058B00010FA01D230EE280A84ED048AF0EE680A6C
:1058C00084ED030A30EE480A02F068FD10EE100A7B
:1058D0000B49884202DD30EE680A06E010EE100A3D
:1058E0000849884201D330EE280A204684ED050A93
:1058F000BDEC048BBDE81040FFF744BF0000B4438B
:1059000000003443000034C370B505462DED068B0E
:10591000F0EE418AB0EE409AB0EE60AAF0EE619AE5
:105920000C46F0EE490AB0EE680A0846FFF798FF09
:1059300078EEC90AB0EE408A9FED0B0AF0EEE00A5D
:10594000F4EEE90AF1EE10FA06DDF0EE480AB0EEE8
:105950004A0A2846FFF784FF84ED0C8A85ED0C0A7D
:10596000BDEC068B70BD00000000000080EC030A57
:105970009FED080A80ED030A80ED040A80ED050A18
:1059800080ED060A80ED070A80ED0C0A2030C0EC9D
:10599000041A704700000000A0B1D0ED101AC0ED4D
:1059A000111A90ED0F1A80ED101AC0ED060A80ED65
:1059B000070A30EEC00A80ED0F0A017829B10129EB
:1059C0003BD078E09FED3D0A7047D0ED010A60EED4
:1059D000801AC0ED091AD0ED0A0A90ED022A42EEB3
:1059E000000A30EE410AC0ED0A0A90ED0D2A80ED62
:1059F0000E2A90ED0C2A80ED0D2A80ED0C0A90ED18
:105A0000031A21EE001A80ED0B1A90ED050AF4EE50
:105A1000C00AF1EE10FA09DCB1EE400AF4EEC00A59
:105A2000F1EE10FA02D390ED0A0A01E080ED0A0AC5
:105A300031EE800A30EE010A2BE070EE410A90ED63
:105A4000012A20EE822A80ED092AD0ED020A60EEBA
:105A5000800AC0ED0A0AD0ED0D2A72EE200AC0EDD0
:105A60000E2AD0ED0C2AC0ED0D2AF0EE002A01EE30
:105A7000620A30EE210A80ED0C0A90ED031A21EE45
:105A8000000A80ED0B0A30EE800AD0ED080A30EEF5
:105A9000200A80ED080AD0ED040AB4EEE00AF1EE27
:105AA00010FA06DCF1EE600AB4EEE00AF1EE10FA4C
:105AB00001D2C0ED080A90ED080A7047000000000E
:105AC000002828D0002A26D0017092ED001A80ED1F
:105AD000011A92ED011A80ED021A92ED021A80ED80
